:020000040800F2
:10000000A04E0020D50000085165000851470008A7
:1000100000000000000000000000000000000000E0
:10002000000000000000000000000000F166000871
:100030000000000000000000536500083D67000854
:10004000E7000008E7000008E1660008E700000894
:10005000E7000008E7000008E7000008D3150008E3
:10006000E7000008E70000089D0F0008E70000080F
:10007000E7000008E7000008E7000008E7000008C4
:10008000E7000008E7000008E700000800000000A3
:10009000E7000008E7000008E7000008E7000008A4
:1000A000E7000008E7000008E700000855700008B6
:1000B000657000085565000800000000E7000008B2
:1000C0000348854600F08AFD00480047CD950008AA
:1000D000A04E00200448804704480047FEE7FEE7A2
:1000E000FEE7FEE7FEE7FEE7E1670008C100000863
:1000F00030B50B46014600202022012409E00D46C0
:10010000D5409D4205D31D469540491B2546954047
:1001100040191546521E002DF1DC30BD70B500248B
:100120002546002801DA01244042002901DA012590
:100130004942FFF7DDFFAC4200D04042002C00D026
:10014000494270BDF0B51FB40646002082B0054696
:100150004024019100901BE0019922460F46304651
:1001600000F0D1FB049A059B801A994110D31046E8
:100170001946224600F0B7FB361A8F4101972246F6
:1001800001200021009F00F0AEFB38184D41009087
:100190002046641E0028DFDC019B00982946324679
:1001A00007B0F0BD0048704740D2000801466139F1
:1001B000192900D82038704701464139192900D83B
:1001C0002030704738B50446C0681821401E4843A7
:1001D000A16840183C214843616840183C214843CD
:1001E0002168451860690C2148432169401869213C
:1001F000C900401A3021FFF791FF114A50434219BC
:10020000084600921A2902DB0E49511800910C2170
:10021000FFF784FF0C4A5043009A801800900B4867
:1002200006E0491E425C074B5A43009BD2180092DD
:100230000029F6DC2146684600F08AFB009838BDAC
:10024000801F8607805101008033E10144D20008FD
:1002500003460B439B0703D009E008C9121F08C0DF
:10026000042AFAD203E00B780370401C491C521E8A
:10027000F9D27047D2B201E00270401C491EFBD295
:1002800070470022F6E710B513460A4604461946A1
:10029000FFF7F0FF204610BD421E5378521C002B82
:1002A000FBD10B781370491C521C002BF9D17047FD
:1002B00030B505462A460B4610781C78521C5B1C4C
:1002C000002801D0A042F7D0002C03D0002802D093
:1002D0006D1CEFE7284630BD10B5044605E00B78ED
:1002E0000370401C002B00D0491C521EF7D2204640
:1002F00010BDCAB2401E4178401C8A4202D000297B
:10030000F9D100207047421C0178401C0029FBD124
:10031000801A704710B5002200E0521C835C8C5C90
:10032000A34201D1002BF8D1D8B2E1B2401A10BDDE
:100330000246C9B200E0401C0378002BFBD102E06A
:1003400003788B4203D0401E9042F9D200207047C0
:100350000321001D401E037812021A43491EF9D5DD
:100360001046704770B5064607F044F80468054625
:100370000A220021304600F025FB2C6070BD0246A9
:1003800070B54A40D30FDB0740002DD04A002AD079
:10039000010E140E000212020919400A520A8418B2
:1003A000E50104465443000A120A2E045043A419DE
:1003B0004219200CC543AA18120C0125AD03521C8A
:1003C000521912047F39240400D0521C104301D466
:1003D0004000491EC2B20C06C0092018401C40084B
:1003E000802A02D003E0002070BD400840000029B0
:1003F00000DA0020184370BD70B502464A40D50FA0
:1004000040004A00ED0740085208002814D0002A96
:1004100012D0C40DD30D41020120C0055202490A79
:10042000520AE41A091812187D34914201D3641C4F
:1004300000E04900002C01DA002070BD0023914249
:1004400001D3891A0343400849000028F7D1002945
:100450000AD0914202D10121C90705E0914201D29F
:10046000012101E00121C943E005C018401900F055
:10047000E1FA70BDF0B507460846584087B0C00F96
:10048000049048000E46590040084908BC1A8841AB
:1004900005D2384631461E4617460B4602465800DE
:1004A000400810434CD0300D039040055900400DDA
:1004B000490D0590401A0290402872DA1803012174
:1004C000000B09050843019004980092002805D00C
:1004D00001995242002088410092019002984021E7
:1004E0000A1A0199009800F0FEF905460C466B4681
:1004F00007CB00F019FAC0197141039A0E0D0023C1
:10050000D71756401A467A40164344D0049A002A18
:100510002DD0029A012A039A15DC1205C01A9141C6
:1005200001263605001C7141D20F059ED2070093AB
:10053000019202962A46234600F0CAFA07B0F0BD9F
:1005400038463146FAE71605224A0F46B218C01A55
:10055000B74101210905001C4F4100187F41114698
:1005600018187941E20F10436D19644113E0E20756
:100570006D0815436408C2071443039A0126120547
:10058000C01A91413605001C7141CE074008304326
:100590004908C01851412A46234600F08CFACDE79D
:1005A000FFE7049801224000C117121A00238B4173
:1005B00004983146C417381AA141EEE730B401243B
:1005C000E407634030BC55E730B40124E4076140E0
:1005D00030BC4FE70000E0FFF0B51FB488B00B99C6
:1005E0000998002448400999C00F49004908099119
:1005F000C0070B990090490049080B910999089888
:10060000A64608431CD00B990A98084318D00998AD
:1006100001244000420D4800410D099824050003C3
:10062000000B204309900B980003000B20430B9014
:1006300050181C494018002201901446104605E04D
:10064000002001460DB0F0BD032801DA034600E0AA
:1006500003239C46C11A0AAE0AE05F0008ADED5BB9
:100660004F00F75B7D430027AA187C41491C5B1EA5
:100670006145F2DD410004AB5A522104120C0A43D9
:10068000240C401C0828DFDB01980290009970467A
:1006900001910090059B049A0799069800F018FABA
:1006A000D0E700000DFCFFFFF0B50C465C4085B0C4
:1006B000E40FE40703944C000026640859009446B4
:1006C000490802460296224321D062460A431ED0C0
:1006D0006200570D4A000E032303550D0124024604
:1006E0002C492405781B1B0B360B4018234326434B
:1006F000614600901C46501AB44103D30098401C38
:10070000009002E0921800985B41002803DA002074
:10071000014605B0F0BD00200121090507468646C7
:1007200011E064461D46141BB54106D36546521BB5
:10073000B341744607430C43A646CD074008490819
:10074000284392185B4105460D43EAD110461843F1
:1007500013D06046194650407140084306D06046A9
:10076000101AB34106D20122002306E00022012321
:10077000DB0702E00122D2435310009874460105C2
:10078000381C6141029C039D0019694100F093F9F6
:10079000BFE70000FD03000070B54B005B0803439A
:1007A0000BD04B005C0D002633466542B341D41795
:1007B000AD1AA34102DB0020014670BD12053018BE
:1007C000514170BDC217C10F504010B54018CA0743
:1007D0009623002100F036F910BD10B500229623B3
:1007E000114600F02FF910BD0EB5C217C10F5040D1
:1007F000CA0740180021054B0293019200910A4656
:100800000B4600F065F903B000BD000033040000A2
:100810000EB505490291002100910A460B4601914F
:1008200000F056F903B000BD33040000C20F4100D0
:1008300040020123400ADB05D207090EC0187F29B8
:1008400001DA00207047962903DC9623591AC84024
:1008500001E096398840002AF4D0404270474100B8
:1008600040020122400AD205090E80187F2901DAD0
:1008700000207047962903DC9622511AC840704721
:10088000963988407047C20FD207400040080BD00D
:10089000C10D0723DB01C91840020905400A1143B5
:1008A000C208400711437047002001467047CB0F34
:1008B000DB07490010B5490802460A4307D00A0D74
:1008C00007240903E401090B121B002A01DC0020A4
:1008D00010BDC900440F0C43C100E018D2058018B8
:1008E00000F0A8F810BD10B5202A04DB0146203A1C
:1008F0009140002010BD914020239C1A0346E34004
:100900001943904010BD10B5202A04DB0846203A58
:10091000D040002110BD0B46D340D0402024A21A65
:1009200091400843194610BD10B5202A06DBCB17AD
:100930000846203A1041C1170B4306E00B4613410D
:10094000D0402024A21A91400843194610BD00004F
:1009500070B50C4600683C21FFF7CAFB21603C21C2
:10096000FFF7C6FB61601821FFF7C2FB0546A160D7
:100970000721001DFFF7BCFBA1610F48A900081863
:100980000E49FFF7B5FB0246443288086261E06118
:100990003B2802D3910700D0401C0021084B0A4697
:1009A0002161995C814203D8401A521C2261F8E708
:1009B000401CE060204670BD6C0B0000B5050000D7
:1009C00050D20008F7B5009C0F4600262578641C1D
:1009D000002D05D0FFF7E6FB0068405DC007F5D1AC
:1009E0002B2D02D02D2D18D0641E39462046029A98
:1009F00000F006F9002F04D03968A14201D1009916
:100A000039607105022400290BDA4042002803DD19
:100A100006F0F0FC0460A007FEBD01208002064342
:100A2000E3E70028F8DA06F0E5FC04600048FEBDC4
:100A3000FFFFFF7F002904DA401C490001D1400874
:100A40004000704770B40024050C05D11024000448
:100A500002D1002921D01124050E01D10002083451
:100A6000050F01D10001241D850F01D18000A41CB8
:100A7000002801DB4000641C002908D020252E1B23
:100A80000D46F540A14000D001212943084301064D
:100A90001B1B000ADB1D02D5002070BC7047DB0564
:100AA000181880180029F8DA401C4900F5D170BCEC
:100AB00040084000704710B5002B08DA0024401CA5
:100AC000614192185B411A4301D14008400010BDBA
:100AD000F0B51FB482B005460C0003D0084606F0FE
:100AE0001DFC02E006F01AFC203002460090214670
:100AF0002846FFF7F8FE049B059A04460F46184364
:100B00001143084314D0184610431BD000984021CD
:100B10000A1A18460599FFF7F6FE05460E46009A92
:100B200005990498FFF7DFFE084305D0012004E093
:100B30002046394607B0F0BD0020C11705430E43DB
:100B40002C43374300990E986305401A7905E40A4F
:100B500000220C43FD0A0A3002D500200146E9E7D5
:100B60000105101969410C9C0D9D00196941FFF7A1
:100B7000A2FFDFE74A0009030123090B1B05194304
:100B80000A4B10B5520D9A4202DA0020014610BD00
:100B9000064B34339A4203DC9A1AFFF7B4FE10BDB9
:100BA000034BD218FFF79FFE10BD0000FF030000AB
:100BB000CDFBFFFF10B5002904DB0124E407404210
:100BC0008C412146002B04DB1C460123DB075242EB
:100BD000A341994200D1904210BD0000064C01256E
:100BE000064E05E0E36807CC2B430C3C98471034D5
:100BF000B442F7D3FFF768FAB8DC0008D8DC000885
:100C0000F7B582B0029C00272078641C1546019736
:100C1000302802D0002D15D015E020780127641C63
:100C2000782804D0582802D0002D09D00BE0002DE0
:100C300001D0102D07D1002710252078641C02E078
:100C4000082500E00A250026009610E000990127FB
:100C500069430818020C294680B2714300908E182F
:100C60003804864201D3012001902078641C294673
:100C700000F019F80028E9DA0398002805D0002FC1
:100C800001D0641E00E0029C04600198002806D098
:100C900006F0B0FB02210160C81E05B0F0BD00994E
:100CA00030040843F9E73A2800D2303820230246BE
:100CB0009A43412A01D310463738884201D3002095
:100CC000C043704770B58C180578401C6B075B0FEC
:100CD00001D10378401C2A1106D10278401C03E0A0
:100CE00006780E70401C491C5B1EF9D12B0705D4F9
:100CF0000023521E0DD40B70491CFAE70378401CE8
:100D0000CB1A921C03E01D780D70491C5B1C521E0F
:100D1000F9D5A142D8D3002070BD0000F0B585B050
:100D2000054614216846FFF7ACFA2E4F00246E46A4
:100D3000284603F061FC0146388C4843C117090D71
:100D400008180013FFF73EFDFFF789FD61007052A0
:100D50000A2001F007FA641CE4B2062CE8D306214D
:100D600068460BF01BF96846418880880918684678
:100D7000C2880089101808188008FFF72EFD064663
:100D8000012D0ED01848854216D13046FFF77BFD65
:100D900004460D4601F0EEFB014622462B4613A009
:100DA00018E0FFF770FD04460D4601F0E3FB014635
:100DB00022462B4613A00DE0184885420CD1304640
:100DC000FFF761FD04460D4601F0D4FB01462246C3
:100DD0002B4613A006F07EFA3046FFF740FD80B2A6
:100DE00005B0F0BD40080020020000045B25645DF2
:100DF0006164635F6D562832293A252E32660D0AEA
:100E0000000000005B25645D6164635F6D562831FE
:100E1000293A252E32660D0A00000000100000104D
:100E20005B25645D6164635F6D562833293A252E26
:100E300032660D0A0000000038B504460648054930
:100E40000068FFF755F9604300E0401E009000285D
:100E5000FBD138BD40420F00D0320020F8B5044627
:100E6000006881688907890F012902D10168C907D3
:100E700022D18168114A10261140012500290ED186
:100E80008168294381600120FFF7D6FF01F072FBE2
:100E900007460CE001F06EFBC01B0A2807D9606D05
:100EA00030436065A06D2843A0650120F8BD20682F
:100EB0000068C043C007EDD10020F8BD17000080D6
:100EC00070B5064600240AF0B5FD2BA13046FFF7A9
:100ED00021FA00281AD029A13046FFF71BFA002872
:100EE00015D0274D1820604329583046FFF7E0F908
:100EF000002810D023A13046FFF7DAF9002810D0DF
:100F000018204443601981683046884770BD3046D8
:100F100007F086FB70BD641CE4B21F2CE2D90120EF
:100F200070BD19A13046FFF7C3F900280AD0182078
:100F300044436019C168304688470028F0D108F062
:100F400013F816E011A13046FFF7B2F900280AD0D5
:100F500001F010FB014618204443601942690CA0BF
:100F600006F0B8F905E018204443601901693046DD
:100F70008847002070BD00004154000041543F00EC
:100F80009CCE00083D3F00003D0000003F000000F7
:100F90005B25645D25730D0A0000000010B5024852
:100FA00001F010F810BD0000C436002030B5446CCC
:100FB0001C252C400125A540046C65600468636015
:100FC0008368102B036803D099600068C26030BD4D
:100FD0009A600068C16030BDFEB5054600F048FA71
:100FE0002946442000F050FA2E4E304601F0BAF85F
:100FF000284600F03DFA2946BE2000F045FA284672
:1010000000F0ECF90446284600F0E8F9052819D16B
:10101000502C17D1284600F02BFA2946442000F026
:1010200033FA304601F09EF8284600F021FA2946AE
:10103000BE2000F029FA284600F0D0F904462846E0
:1010400000F0CCF9000200B220430AD5411C1FD0A9
:10105000C043401CFFF7C8FB0022134BFFF7BCFA4C
:1010600005E0FFF7C1FB0322D243FFF795FBFFF733
:101070001EFC0446FFF707FC06460F4601F07AFA0D
:1010800001462A4609A00197009606F023F906E0DA
:101090000E4C01F06FFA01460DA006F01BF9204638
:1010A000FEBD0000EE0200000000B0BF5B25645DE5
:1010B00044533138423230282564292074656D70DC
:1010C00020697320252E3266200D0A0000C0CCC393
:1010D0005B25645D44533138423230206572726F53
:1010E000720D0A0030B500221949032387B0012888
:1010F00013D005240125240702281FD003281BD163
:10110000C86A2843C862C86A28400590081500903C
:1011100069460193029220460CE0CC6A0220044307
:10112000CC62C96A019301400591082000900292A7
:101130006946084801F050F907B030BDC86A284335
:10114000C862C86AC007C00F059001204002DEE7F0
:10115000001002400004005010B50023012219497C
:1011600086B0012812D00524240702281FD00328A6
:101170001BD1C86A1043C862C86A104005900815A0
:10118000009069460193029220460CE0CC6A02204E
:101190000443CC62C96A0193014005910820009084
:1011A00002926946084801F017F906B010BDC86AF6
:1011B0001043C862C86AC007C00F059001204002F2
:1011C000DEE70000001002400004005010B50122CC
:1011D0001849022386B0012812D0052424070228CA
:1011E0001ED003281AD1C86A1043C862C86A1040CA
:1011F00005900815009069460393019220460BE084
:10120000C86A1843C862C86A694618400590082031
:10121000009003930192084801F0DEF806B010BD7B
:10122000C86A1043C862C86AC007C00F0590012091
:101230004002DFE7001002400004005070B50024B7
:10124000012806D005252D0702282AD003284ED0D4
:1012500074E00120FFF780FF394D04E0641CE4B224
:10126000012000F0ABF90821284601F077F90028A9
:1012700002D0642CF2D35FE0642C5DD2002404E041
:10128000641CE4B2012000F099F90821284601F01D
:1012900065F9002802D1F02CF2D34DE0F02C4BD2AE
:1012A0004CE00220FFF758FF0126760204E0641CA0
:1012B000E4B2012000F082F93146284601F04EF9EF
:1012C000002802D0642CF2D336E0642C34D20024FF
:1012D00004E0641CE4B2012000F070F931462846B5
:1012E00001F03CF90028D9D1F02CF2D324E00320FE
:1012F000FFF732FF0126B60204E0641CE4B20120CD
:1013000000F05CF93146284601F028F9002802D0A7
:10131000642CF2D310E0642C0ED2002404E0641C90
:10132000E4B2012000F04AF93146284601F016F9EE
:101330000028B3D1F02CF2D3012070BD002070BD85
:101340000004005070B5012806D0052424070228A7
:1013500013D003282BD025E00120FFF737FF1E4CC8
:1013600000220821204601F0FEF80A2000F026F9AC
:101370000120FFF7F1FE08210EE00220FFF726FF13
:1013800001256D0200222946204601F0ECF80A20D2
:1013900000F014F9022018E0204601F0DFF80128DF
:1013A00017D000222D2000F009F9104670BD03204F
:1013B000FFF70CFF0125AD0200222946204601F06F
:1013C000D2F80A2000F0FAF80320FFF7C5FE2946FC
:1013D000E2E70122E6E700000004005070B50025B6
:1013E00006462C463046FFF7ADFFA0402843641C5C
:1013F000E4B2C5B2082CF5D3284670BD70B51A4DBD
:10140000012814D005242407022825D0032822D13E
:10141000FFF7DCFE00220126B6023146204601F02D
:10142000A2F8284600F0CAF8012231460DE001205A
:10143000FFF7CCFE0D4C00220821204601F093F866
:10144000284600F0BBF801220821204601F08BF865
:101450000F2000F0B3F870BD0220FFF7B7FE0022A6
:1014600001267602D9E70000EE02000000040050D9
:1014700010B50446FFF7C2FF2046FFF7DFFE214606
:10148000CC2000F001F810BDF8B5044601291FD0AA
:1014900005252D07022949D0032946D10320FFF74E
:1014A00095FE00260127BF02E007C00F6408002850
:1014B0006BD000223946284601F055F8082000F08C
:1014C0007DF801223946284601F04DF83A206AE0BD
:1014D0000120FFF77BFE384E0025E007C00F6408AF
:1014E00000280ED000220821304601F03CF80820E8
:1014F00000F064F801220821304601F034F83A2067
:101500000DE000220821304601F02DF8462000F0C1
:1015100055F801220821304601F025F8022000F09C
:101520004DF86D1CEDB2082DD7D3F8BD0220FFF7A2
:101530004DFE002601277F02E007C00F6408002847
:101540000ED000223946284601F00DF8082000F0A0
:1015500035F801223946284601F005F83A200DE019
:1015600000223946284600F0FEFF462000F026F80B
:1015700001223946284600F0F6FF022000F01EF84E
:10158000761CF6B2082ED7D3F8BD0022394628467D
:1015900000F0E9FF462000F011F801223946284604
:1015A00000F0E1FF022000F009F8761CF6B2082EE8
:1015B00000D279E7F8BD00000004005006E00021E9
:1015C000491CC9B20229FBD3401E80B20028F6D1C3
:1015D000704710B50120400300F0F2FE01208003A7
:1015E00000F0EEFE10BD0000F0B587B005461421F6
:1015F0006846FEF746FE3A480221002401224B03CA
:1016000003268714002D06D0012D22D0022D30D0C4
:10161000032D3ED05AE0C56A1543C562C26AD2079F
:10162000D20F0592C26A0A43C262C06A00930840A0
:1016300005906946019602942A4800F0CDFE0520E7
:101640000194694600070097029400F0C5FE07B0B8
:10165000F0BDC56A1543C562C26AD207D20F0592B2
:10166000C26A0A43C262C06A0093084005901E48DD
:101670001EE0C56A1543C562C26AD207D20F059241
:10168000C26A0A43C262C06A0093084005901748C4
:101690000EE0C56A1543C562C26AD207D20F059231
:1016A000C26A0A43C262C06A0093084005901048AB
:1016B0000190694602940B4800F08EFE05206946B1
:1016C000000700970196029400F086FE0022022196
:1016D000072001F017FB072001F008FBB7E7000027
:1016E00000100240000400500000311000002110E2
:1016F000000011107047000010B5084900224A612F
:1017000007494B684C1523434B604B68082423431F
:101710004B60C009C001026010BD00008848002075
:101720000020024010B5214A00219069C3052048DD
:1017300004D54169022319434161911593699B05C1
:1017400005D5436901242343436163021943936927
:101750005B0505D54369082423434361E30119432D
:1017600093691B0505D54369042423434361630240
:10177000194393699B0405D54369102423434361AE
:101780006302194393699B0304D5446920231C43D6
:10179000446119439369DB0305D54369402423431E
:1017A0004361A0020143916110BD0000002002408E
:1017B0008848002070B5054600F0DCFE0646184C4F
:1017C0000AE0681C08D0002D04D000F0D3FE801B76
:1017D000A84201D9032070BDA069C007F1D1A0695A
:1017E000800701D50220A061A069C00511D4A069BD
:1017F00080050ED4A06940050BD4A069000508D46B
:10180000A069800405D4A069800302D4A069C00344
:1018100003D5FFF787FF012070BD002070BD0000D9
:101820000020024070B50D460646002400F068FD19
:10183000094A0020956041C20849074800F0F2FCBF
:10184000002806D0641CE4B2032CF5D104A005F0F6
:1018500041FD00F029FD70BDA0400020A00800203F
:101860006572726F7220696E204572617365206FB8
:101870007065726174696F6E0A0D0000F8B51646E6
:101880000F460546002400F03BFD14E0A0003A5846
:101890002946022000F016FD002809D008A005F016
:1018A00019FD00F0FBFC01460CA005F013FD04E05F
:1018B000641CA4B22D1DB442E8D300F0F5FCF8BDC1
:1018C0006572726F7220696E205772697465206F3D
:1018D0007065726174696F6E0A0D000077726974C9
:1018E000655F6572726F725F666C61673A2578003A
:1018F000016802484160406870470000A00800206D
:1019000000B587B014216846FEF7BBFC0A48C16ADF
:1019100001221143C162C06A694610400590D0029D
:10192000009003200190002002900520000700F0A5
:1019300053FD07B000BD00000010024000B587B0A5
:1019400014216846FEF79DFC0948C26A01210A433A
:10195000C262C06A029108400590C802009000204F
:10196000019005206946000700F036FD07B000BD74
:101970000010024000B587B014216846FEF781FCD4
:101980000948C26A02210A43C262C06A084005903F
:10199000C80200900320019000200290694603488D
:1019A00000F01AFD07B000BD001002400004005016
:1019B00000B587B014216846FEF763FC0A48C26A86
:1019C00002210A43C262C06A08400590C802009022
:1019D00001200190002002900320039069460348F3
:1019E00000F0FAFC07B000BD0010024000040050F7
:1019F000F0B593B004462C2106A8FEF742FC204621
:101A0000FEF7B0FC1290601DFEF7ACFC07462046C6
:101A10000830FEF7A7FC119020460B30FEF7A2FC21
:101A2000064620460E30FEF79DFC05462046113046
:101A3000FEF798FC02461549129840180B90781E44
:101A40000A901198099006A864C069460E704D70FE
:101A50008A7000220E4802F011F9694611988875C3
:101A60004F757D2112980901401A6946C8750022F8
:101A700005A9074802F0A0F801210A2003F0A6FA00
:101A800006A8FEF79FFB13B0F0BD000094F8FFFF1F
:101A90000C37002010B502F01BFE0149486010BD54
:101AA000A808002070B502F013FE0C4C0025206041
:101AB000616888420ED0401AFEF784FE0849C96A60
:101AC000FEF79AFCFEF7B2FE0649A06040180649F0
:101AD000884200D3A560A06870BD0000A80800205F
:101AE00040080020A0860100410D0300F8B505461E
:101AF00004464035287C0026012808D0012028749F
:101B0000206881688907890F01290ED101E0022030
:101B1000F8BD0168C90708D0606D202108436065E1
:101B20000126002028743046F8BD616DFF22013285
:101B30009143022211436165C1688907890F0091B1
:101B4000C16889088900C1602068816892071143D3
:101B5000816000F00FFD07460EE000F00BFDC01B9A
:101B60000A2809D9606D0221884310210843606565
:101B7000002028740120F8BD206880680028ECDB74
:101B80002068C168009A1143C160606D80088000C0
:101B9000401C6065C5E70000F8B506460D464036B6
:101BA000317C01290DD00121317401688A68520706
:101BB00009D5416D20221143416500203074012078
:101BC000F8BD0220F8BD174B6A68D80547109A4245
:101BD000154C8A6A2B6812D05B035B0B1A438A622E
:101BE0002968490305D5A1680143A1600A20FFF7D0
:101BF00023F92868800312D5A06838430EE05B0300
:101C00005B0B9A438A622968490302D5A168814324
:101C1000A1602868800302D5A068B843A0600020B6
:101C20003074F8BD01100000002701400068006C0E
:101C30007047000070B5040006D0606D2646002590
:101C40004036002802D006E0012070BDA56535743D
:101C5000204600F0D3F8606DC00603D42168886880
:101C6000400705D5606D1021084360653574EBE7CA
:101C7000606DFF2201329043022210436065886844
:101C80008207920F5B48012A02D10A68D2072BD142
:101C9000032362689B079A4205D05B429A4202D0B6
:101CA0005B009A4209D10A69920092080A61216890
:101CB0000A6963681A430A610CE00A699200920893
:101CC0000A6181680F229204914381608168626891
:101CD000114381602168CA6818239A43CA60216849
:101CE000CA68A3681A43CA608168012252069143F8
:101CF00081608168A28E52061143816020688168EC
:101D0000C90004D481680122120711438160206850
:101D1000C168394A1140C1602069E168022825D0B4
:101D200000200143204620300278037B52035B00F1
:101D30001A431143226B1143A26992031143E269D2
:101D4000D20311432268D3681943D160616A0A46FD
:101D5000FF3AC23A05D0A26A11432268D3681943F8
:101D6000D16042780121012A02D00BE00420D8E79B
:101D70000078002823D0606D202210436065A06D9C
:101D80000843A065E06B012820681FD00169C907DE
:101D900003D0016949084900016120684169C90807
:101DA000C900416120684169A26B11434161A56589
:101DB000606D80088000401C6065002070BD206858
:101DC000C26801231B041A43C260DBE70269FF23D8
:101DD0009B009A43026120680269236CA66C1A4337
:101DE000636C33431A430261206802690A4302614B
:101DF000D3E70000002701401902FEFF00680449F4
:101E0000884204D10348416B421511434163704736
:101E10000024014000100240F8B504464069254600
:101E200040350E4608280BD02068C068C00709D08E
:101E3000606D202108436065002028740120F8BDF2
:101E4000082700E00C2700F095FB009011E0701CC3
:101E50000FD0002E05D000F08DFB0099401AB04243
:101E600007D9606D042108436065002028740320B1
:101E7000F8BD206800683842E9D0606D0121490250
:101E8000084360652068C16809058A0F0C21002A93
:101E90001BD12022125D002A17D10268120714D527
:101EA000826853070122002B08DB43688B434360A1
:101EB000606D130298431043606506E0606D202357
:101EC00018436065A06D1043A065A069002801D18A
:101ED000206801600020F8BD70B50446216800202C
:101EE0008968490721D425464035297C01291CD021
:101EF00001212974E169012904D02046FEF7AEFFD3
:101F0000002811D1616D0A4A1140FF2201321143AC
:101F100061650021A165297422681C211160216876
:101F20008A6804231A438A6070BD022070BD0000D5
:101F3000FEF1FFFF30B5014620314A790023022A25
:101F400004D00422C2630B71012030BD0268146802
:101F50000E25AC43146002681468640864001460C1
:101F6000446C1C22144001221546006CA5404560BB
:101F70004A7118460B7130BD70B5002401462031FE
:101F80004A79022A03D00421C163012418E00268BF
:101F900013680E25AB431360026813685B085B008F
:101FA0001360436C1C221340012215469D40036CB4
:101FB0005D604A7100220A71816B002900D0884758
:101FC000204670BDF0B4016C0D6801680C68466C69
:101FD0001C2304221E401746B7402F420ED067072D
:101FE0000CD50C68A40602D40C6894430C60416CB8
:101FF00019408A40016C4A60016B1AE00227B74021
:1020000002462F402032002F17D0A70715D50C68A5
:10201000A40605D40C680A25AC430C60012151715B
:10202000446C02211C40036CA140596000211171D5
:10203000C16A002918D0F0BC08470827B7402F42D2
:1020400012D0240710D50C680E25AC430C60446CEC
:1020500001211C400B46A340046C6360C1635171B5
:1020600000211171416BE4E7F0BC704770B50400CA
:102070003CD01F48256814212818FEF739F8800045
:1020800060641C48206402212046203002464171D1
:1020900029681948E3680140A06866691843236904
:1020A00033431843A3691843E3691843236A184369
:1020B000084328600121A0688903884210D00D4898
:1020C0008030836A656C1C210D400F26AE40B343FF
:1020D0008362656C63680D40816AAB400B43836229
:1020E0000020E06301215171107170BD012070BDAD
:1020F000F8FFFDBF000002400F80FFFFF8B5044667
:102100008C46203001790025012909D0012606716D
:1021100041790027012905D0077102252846F8BD1D
:102120000220F8BD02214171E76320680168490877
:102130004900016061462046FEF738FF206B002809
:102140002068016801D00E2205E00422914301605D
:10215000206801680A221143016020680168314348
:102160000160DBE770B5044600F004FA0546601C28
:1021700002D004480078241800F0FCF9401BA0426B
:10218000FAD370BDD43200200348416801221143C4
:10219000416000207047000000200240F8B5124D59
:1021A0000746287C14460E46012807D001202874D3
:1021B0000E48FFF7FFFA002802D00CE00220F8BD1D
:1021C00000216961022F09D0012F09D0002F09D009
:1021D0000648FFF7EFFA00212974F8BD3460FAE7EA
:1021E0003480F8E73470F6E78848002050C30000D8
:1021F00009494868C0070DD0EFF3108072B6074A4E
:10220000CA60074ACA6080F310884868C00701D0D6
:10221000012070470020704700200240EFCDAB89BD
:1022200005040302F8B51A4E0546307C0F46012816
:1022300007D0012030741748FFF7BCFA010002D024
:1022400021E00220F8BD0020C04338606C6814E033
:102250002046FFF751FA0F48FFF7ACFA01460E4847
:10226000426808239A434260426843159A43426099
:10227000002901D03C6006E08034A8686A68C0018B
:102280008018A042E4D8002030740846F8BD000051
:102290008848002050C300000020024001484069E7
:1022A0007047000088480020054841680222114319
:1022B00041604168012211434160002070470000E5
:1022C00000200240F8B50C4C1646207C0F46012831
:1022D00008D0012020740948FFF76CFA0025002877
:1022E00002D006E00220F8BD65613E600348FFF7BA
:1022F00061FA2574F8BD00008848002050C3000032
:1023000011484168C9070BD0EFF3108172B60F4A2C
:10231000C2600F4AC26081F310884168C9070ED1BC
:10232000416889070DD5EFF3108172B6094A026141
:10233000094A026181F310884068800701D50120B5
:10234000704700207047000000200240EFCDAB89AD
:1023500005040302BFAE9D8C1615141370B501233E
:102360009B030222124998421CD1124B12481C7A3C
:10237000362C13D08C78012C0FD1104CA579103D40
:10238000202D0AD3CD78042D07D10D25A571CA7053
:102390000121D971017002F07DFB70BD4168491CBB
:1023A000416070BD01235B039842FAD14A7170BD50
:1023B000B410002018080020400800200000002071
:1023C00010B504494A69024202D04861FFF7C6FFCE
:1023D00010BD000000040140FCB500230124A7E06B
:1023E00027462A469F403A406FD04D68012D05D0C0
:1023F000022D03D0112D01D0122D16D18568032690
:10240000AC465D00AE46AE406546B543AC46CE68D0
:102410007546AE4065462E43866046680D79BE43DC
:10242000ED06ED0F9D4035434560C6685F0003250E
:10243000BD40AE46AE4335468E68BE402E43C660B4
:102440004E68022E01D0122E14D1DE08B6003618C6
:102450000196366A5D07B446EE0E0F25B54000962C
:102460006646AE43B4460D69009EB54066462E43AF
:10247000019D2E6206687546AE430D79AD07AD0F1E
:10248000BD40354305604D68ED0050D52B4D6E6B5A
:1024900026436E639E082A4DB6007519AC46AD689A
:1024A0009E07360F0F27B740BD4305273F07B842A9
:1024B00001D100271AE0234FB84201D1012715E0CE
:1024C000214FB84202D1022710E030E01F4FB8423E
:1024D00001D103270AE01E4FB84201D1042705E0CD
:1024E0001C4FB84201D1052700E00627B7402F4313
:1024F0006546AF60184D2E684F689643FF0300D5C0
:1025000016432E606E684F689643BF0300D516438E
:102510006E60AE684F689643FF0200D51643AE600A
:10252000EE684F689643BF0200D51643EE605B1C11
:102530000A681546DA4000D052E7FCBD00100240A0
:10254000000001400004005000080050000C005042
:1025500000100050001C00500004014000690840B9
:1025600000D001207047002A01D08161704781624C
:10257000704700000148806870470000D432002096
:1025800070B5024640325378202B1CD11378012BB2
:1025900019D00123137024245470046825689D43C6
:1025A0002560046825681E03B54325600468256816
:1025B0000D432560006801681943016020205070B8
:1025C0000020107070BD022070BD70B50246403210
:1025D0005378202B1BD11378012B18D001241470B1
:1025E0002423537003681D68A5431D6005682B688C
:1025F0000F263602B34309021943296000680168B7
:1026000021430160202050700020107070BD022016
:1026100070BD000070B5040006D0254640356878CE
:102620000026002802D005E0012070BD2E70204653
:1026300000F0AAFA2420687020680168490849005F
:1026400001600F21606809068843216808612168DC
:102650008A680120C00382438A60E1680129A16879
:1026600008D021229202114322689160E168022978
:1026700002D005E00143F7E701212268C902516059
:1026800021684A680F4B1A434A602168CA6882432E
:10269000CA60616920690843A16909020843216889
:1026A000C860216AE0690843216808602068016801
:1026B0000122114301606664202068702663AE70B9
:1026C000002070BD00800002FFB50546044640357D
:1026D000687881B0202878D12878012875D0012029
:1026E0002870FFF747FF0746012200901923D10306
:1026F000204602F0EBF800283CD122206870102020
:10270000A87000266664039860620498608566631A
:10271000618D2F48FF2903D9FF22228500903BE0DD
:10272000618D218500903DE02046029902F0BAF8C3
:1027300016E002F0F3F800281CD12068406A616AB4
:102740000870606A401C6062208D401E81B2218545
:10275000608D401E6085608D002801D000290CD05E
:10276000608D0A9900283A462046E2D102F016F917
:1027700000281CD0012005B0F0BD00970022802168
:1027800020460A9B02F0A2F80028F3D1608DFF28B2
:1027900005D9FF222285009601231B06C4E7608D20
:1027A00020850096208D0123C2B25B06BCE721681C
:1027B0002020C86121684A68064B1A404A60687048
:1027C000AE702E700020D6E7FFE70220D3E70000AE
:1027D0000024008000E800FEFFB5054604464035B1
:1027E000687881B0202878D12878012875D0012018
:1027F0002870FFF7BFFE0746012200901923D1037E
:10280000204602F063F800283CD121206870102097
:10281000A870002666640398606204986085666309
:10282000618D2F48FF2903D9FF22228500903BE0CC
:10283000618D218500903DE02046029902F032F83A
:1028400016E002F0D1F800281CD1606A21680078F7
:102850008862606A401C6062608D401E6085208DC9
:10286000401E80B22085618D002901D000280CD047
:10287000608D0A9900283A462046E2D102F08EF88F
:1028800000281CD0012005B0F0BD00970022802157
:1028900020460A9B02F01AF80028F3D1608DFF2829
:1028A00005D9FF222285009601231B06C4E7608D0F
:1028B00020850096208D0123C2B25B06BCE721680B
:1028C0002020C86121684A68064B1A404A60687037
:1028D000AE702E700020D6E7FFE70220D3E700009D
:1028E0000020008000E800FEFFB5054604464035A4
:1028F000687883B0202875D10C98002814D00D98E2
:10290000002811D0287801286CD001202870FFF70A
:1029100031FE0746012200901923D103204601F021
:10292000D5FF002874D103E00120400260646FE00D
:10293000222068704020A870002666640C986062AF
:102940000D98608566630E980090019704A90EC9E2
:10295000204601F047FF002801D02E7058E0618D1D
:102960003448FF2905D9FF22228501231B06009048
:1029700006E0618D21850090208D0123C2B25B06A7
:102980002046049901F08EFF009700220421204682
:102990000E9B01F09BFF00283AD12068406A616AD3
:1029A0000870606A401C6062208D401E81B22185E3
:1029B000608D401E6085608D00281FD000291DD1CC
:1029C00000970022802120460E9B01F07FFF002807
:1029D0001ED1608DFF2806D9FF22228501231B0608
:1029E000009607E024E0608D20850096208D01236D
:1029F000C2B25B062046049901F054FF608D0028A6
:102A0000C2D13A4620460E9901F0C8FF002802D0F4
:102A1000012007B0F0BD20682021C1612068426814
:102A2000054B1A4042606970AE702E700020F0E7CE
:102A30000220EEE70024008000E800FEFFB5054616
:102A400004464035687883B0202872D10C9800285D
:102A500014D00D98002811D02878012869D00120C1
:102A60002870FFF787FD0746012200901923D10344
:102A7000204601F02BFF002871D103E00120400225
:102A800060646CE0212068704020A87000266664B5
:102A90000C9860620D98608566630E9800900197AF
:102AA00004A90EC9204601F0CDFE002801D02E70E9
:102AB00055E0608DFF2805D9FF22228501231B06E2
:102AC000009606E0608D20850096208D0123C2B21D
:102AD0005B062046049901F0E5FE3A4620460E9931
:102AE00001F082FF00283AD1606A2168007888628C
:102AF000606A401C6062608D401E6085208D401EB3
:102B000080B22085618D00291FD000281DD100973B
:102B10000022802120460E9B01F0D8FE00281ED105
:102B2000608DFF2806D9FF22228501231B0600960F
:102B300007E024E0608D20850096208D0123C2B23D
:102B40005B062046049901F0ADFE608D0028C4D1DB
:102B50003A4620460E9901F021FF002802D00120BC
:102B600007B0F0BD20682021C16120684268054B94
:102B70001A4042606970AE702E700020F0E70220AB
:102B8000EEE7000000E800FE10B586B00446142110
:102B90006846FDF776FB10492068884219D10F4C32
:102BA000E16A02200143E162E16A01400591C0202F
:102BB00000901220012101900320029104910390C2
:102BC00069460748FFF708FCA06B01214905084347
:102BD000A06306B010BD0000005400400010024089
:102BE0000004005070B504000FD02168134808603D
:102BF00021681348086003CC41602068083C2168C4
:102C00008860FFF7B7FC054608E0012070BDFFF7BC
:102C1000B1FC401B292801D9032070BD2068C06881
:102C20000028F4D120680269E1688A4201D001617C
:102C300001E004490160002070BD0000CCCC000020
:102C400055550000AAAA0000006802490160002052
:102C500070470000AAAA000002488168027889181B
:102C600081607047D432002010B508480024016804
:102C7000402211430160204600F00AF8002801D0EC
:102C8000012401E000F026F8204610BD002002409B
:102C900070B504460D4D7D202978C000FDF728FA57
:102CA00001460B480068FDF723FA01F07DF8002883
:102CB00009D1042C07D200222146401E00F022F840
:102CC00000206C6070BD012070BD0000D432002077
:102CD000D03200200448416B012211434163816BD3
:102CE000020411438163704700100240002805DB95
:102CF000C106C90E012088400149086070470000E4
:102D000000E100E010B504F045FB10BD0248016889
:102D100002151143016070470070004002480168CD
:102D2000421511430160704700700040024801687D
:102D3000821511430160704700700040F0B5154ADC
:102D40001368154D54152D6A2340ED07ED0F002B28
:102D500004D0002D02D01668A64316601668B60887
:102D6000B600064316600D4807690426374307611D
:102D700001290DD040BF20BF20BF0169B1430161CF
:102D8000002B04D0002D02D0106820431060F0BD4D
:102D900030BFF2E7007000400000014000ED00E0AD
:102DA000F8B50446007800275D4D800671D55C4E6D
:102DB000403EB06BC00004D4B06BA9050843B063BB
:102DC000012758480168C90511D4016882151143CB
:102DD0000160FFF7CFFB009005E0FFF7CBFB009908
:102DE000401A642837D84F480068C005F5D53268C6
:102DF0000321090560680A400140914208D081031F
:102E0000890F032904D13168890301D50120F8BD58
:102E10002A69032109040A4022D0084090421FD0A9
:102E2000207880061CD528692A6988430121C904B5
:102E30000A432A612A698A432A612861C0050FD59D
:102E4000FFF798FB009008E0FFF794FB0099411A08
:102E50003548814201D90320F8BD28698005F3D5A2
:102E600061688803800F032805D13268000582431A
:102E700001400A433260286903226168120411404C
:102E800008432861002F04D0B06B01210907884353
:102E9000B0632078C00705D0E868A168800880008A
:102EA0000843E8602078800705D5E8680C2188434E
:102EB000E1680843E8602078400706D5E868032108
:102EC0008902884321690843E8602078000706D515
:102ED000E86803210903884361690843E8602088A2
:102EE000C00506D5E868032109048843A1690843A1
:102EF000E8602078400606D5E86801218906884305
:102F0000216A0843E8602078000606D5E8680321B6
:102F100089048843E1690843E8600020F8BD0000A7
:102F2000401002400070004088130000F8B50E46C3
:102F3000050038D05E480068C007C00FB04214D208
:102F40005B4C20684008400030432060FFF712FBD4
:102F5000074605E0FFF70EFBC11B564881427AD8B1
:102F60002068C007C00FB042F4D12878524C8007C7
:102F700005D5E068F0218843A9680843E060287817
:102F8000C00752D06868022806D0032807D02168FD
:102F900001280AD0890504E02168890301E021683D
:102FA0008901002903DB0120F8BD4907F9E7E16841
:102FB000890889000143E160FFF7DCFA0746686889
:102FC00002280AD0032814D001281ED029E0FFF7D8
:102FD000D1FAC11B374881423DD8E0680007800F15
:102FE0000228F4D121E0FFF7C5FAC11B3148814224
:102FF00031D8E0680007800F0328F4D115E0FFF70F
:10300000B9FAC11B2B48814225D8E0680007800F20
:103010000128F4D109E0FFF7ADFAC11B2548814230
:1030200019D8E0680007800FF5D121480168C90769
:10303000C90FB14217D901684908490031430160FD
:10304000FFF798FA074608E005E0FFF793FAC11B7F
:103050001848814201D90320F8BD15480068C0070F
:10306000C00FB042F1D12878400706D5E0680721AB
:1030700009028843E9680843E0602878000707D51B
:10308000E0680721C90288432969C9000843E06054
:1030900000F03AF8E168094A0906090F515CC84096
:1030A0000749086007480068FFF7F2FDF8BD000017
:1030B0000020024088130000001002409CD100084C
:1030C000D0320020D8320020044805490068C96881
:1030D000044A4905490F515CC8407047D03200206E
:1030E00000100240B5D10008044805490068C968CD
:1030F000044A8904490F515CC8407047D03200200F
:1031000000100240B5D1000870B51A4AD3681A49B8
:103110000C2018408D0004280CD04E00082810D038
:103120000C2810D050680004410F0120C003491C36
:10313000884070BD1068C00601D5084670BD28469D
:1031400070BD304670BD98020C4C000F205C1B0215
:103150009C0FD368641CDB0301D5314603E0126881
:10316000D20600D4294604F0F0F822460023FCF7EA
:10317000E9FF70BD0010024000093D00ACD100081D
:10318000FEB505007ED0F74CE7680C20E6680740E6
:103190000120000406402878C00747D0082F05D03A
:1031A0000C2F0AD101200004864206D1206880033A
:1031B0003CD568680028E5D038E001206968000443
:1031C000814203D121680143216011E005230122DE
:1031D0001B0492049942216802D111432160F1E756
:1031E0008143216021680140009120689043206064
:1031F000686800280DD0FFF7BDF9009005E0FFF7E3
:10320000B9F90099401A64287ED820688003F6D561
:103210000CE0FFF7AFF9009005E0FFF7ABF900997C
:10322000401A6428F0D820688003F6D428788007F4
:103230005DD5E868810604D5226820210A43226012
:1032400088430923042F0DD00C2F01D1002E09D063
:1032500000283CD02168994301432160FFF78AF997
:10326000064628E02168490701D500288AD0616810
:103270001F22120291432A691202114361602168E0
:10328000994300E0C7E101432160FFF73DFFE1689A
:1032900009060A0FB449895CC840B4490860B448BB
:1032A0000068FFF7F5FC002874D120E0FFF762F911
:1032B000801B0228A8D820684007F7D560681F2126
:1032C0000902884329690902084360600FE0206809
:1032D000400840002060FFF74DF9064604E0FFF784
:1032E00049F9801B02288FD820684007F7D4287836
:1032F000C00661D5002F0DD0E86900284BD02068AA
:10330000FF210131084300E0EAE02060FFF732F9D5
:1033100006462DE02068800502D5E8690028A5D082
:103320006068072149038843696A084360606068F0
:10333000298C0002000A090608436060686A410B94
:103340000120C003491C8840E16809060A0F86492C
:10335000895CC8408549086085480068FFF798FC8B
:10336000002817D128E0FFF705F9801B0228A1D813
:1033700020688005F7D56068072149038843696A9A
:10338000084360606068298C0002000A090608434F
:10339000606011E025E12168FF2001308143216058
:1033A000FFF7E8F8064604E0FFF7E4F8801B022880
:1033B00099D820688005F7D428786E4E000724D568
:1033C00068690028306910D0012108433061FFF797
:1033D000D1F8009005E0FFF7CDF80099401A0228D7
:1033E0007ED830698007F6D50FE040084000306194
:1033F000FFF7C0F8009005E0FFF7BCF80099401A0D
:1034000002286DD830698007F6D42878400764D543
:1034100000200290A06BC00006D4A06B0121090718
:103420000843A0630120029053480168C90511D4E4
:103430000168821511430160FFF79CF8009005E0D8
:10344000FFF798F80099401A642849D84A4800685C
:10345000C005F5D5FF20AA680130824203D1316949
:103460000143316111E001218902002A07D00523BF
:103470001B029A4203D132690A433261EFE7326993
:1034800082433261306988433061A86800280ED0D9
:10349000FFF770F8009006E0FFF76CF80099411A0A
:1034A000364881421CD830698005F5D50DE0FFF71C
:1034B00061F8009006E0FFF75DF80099411A2F4887
:1034C00081420DD830698005F5D40298002804D0D7
:1034D000A16B012000078143A1632878800600E0EA
:1034E0007EE02ED52648A9694314002916D0A2688B
:1034F00001210A43A260626B0A436263016A1943B5
:103500000162FFF737F8064604E0FFF733F8801B47
:10351000022865D8A0688007F7D512E0A16849089D
:103520004900A160016A99430162FFF723F806464A
:1035300004E0FFF71FF8801B022851D8A06880071D
:10354000F7D4A86A002868D00C2F4FD00126360681
:103550000228206816D0B0432060FFF70BF805461C
:1035600040E00000001002409CD10008D032002052
:10357000D832002040100240007000408813000044
:1035800000000140B0432060FEF7F4FF074604E06E
:10359000FEF7F0FFC01B022822D820688001F7D474
:1035A000296BE86AE2680843696BFD231B049A43B0
:1035B00011430843E060206830432060FEF7DAFFE3
:1035C000054604E0FEF7D6FF401B022808D8206815
:1035D0008001F7D521E0FEF7CDFF401B022801D97D
:1035E0000320FEBD20688001F5D416E00128F8D044
:1035F000E06801210904EA6A014091420BD10F21E0
:1036000089042A6B0140914205D1032189050840B4
:10361000696B884201D00120FEBD0020FEBD000084
:1036200070B53B48FFF710FB3A48007800286AD194
:10363000394A002113793948012B07D143795B1CA2
:10364000DBB24371112B01D111714171344B9C7864
:10365000002C02D0012C09D00BE0447A012C08D1B7
:103660000D2484710124C472417202E0DC78022CC2
:1036700005D001722B4C2478012C22D031E0047A41
:10368000641CE4B20472072CF4D30172C479641C84
:10369000C471147D012C08D0022C0ED0032C0ED046
:1036A000042CE7D12F248471E4E71F4C2478002CEC
:1036B00001D01B24F7E71624F5E72024F3E729249B
:1036C000F1E7048A4B25641CA4B26D010482AC426C
:1036D00007D1157D0F24012D01D0022D00D1847159
:1036E0000182C47A012C0ED1847A641CE4B2847203
:1036F000927E55005219A24205D18172C1720421F5
:103700009970052181710121122001F05FFC70BDCB
:10371000283500200E080020180800200000002096
:10372000B4100020B6080020B80800200068890006
:103730005030081800687047006889005030081839
:103740000260704710B50C480078002811D10B4872
:103750000B498278042A02D0012A03D009E03620DE
:10376000887106E0C278042A03D10D228A710221F1
:10377000C17001F08FF910BD0E080020B4100020B8
:103780000000002070B50446006881688025C904E7
:1037900000290BDAC068C00508D52046FFF7D2FF24
:1037A0002168C8682840FF388238C860206881686E
:1037B00089040BD5C068800508D52046FFF730FF87
:1037C0002068C168054A29408918C1600120044960
:1037D0004004486101202034607070BD7FFDFFFF10
:1037E00000040140F8B50546044620352878012834
:1037F0001DD001202870022068702268CA20506203
:10380000226853205062FF2001300026FF278142AA
:103810001CD121688A6882438A60206881680122FD
:10382000120391438160FEF7A5FE009009E002209B
:10383000F8BDFEF79FFE0099411A7D20C00081422D
:103840001BD82068C068C007F3D020E020688168DA
:1038500001225202914381602068816812019143E4
:103860008160FEF787FE00900DE0FEF783FE009971
:10387000411A7D20C000814205D92068476203209B
:1038800068702E70F8BD2068C0688007EDD520688C
:103890004762012068702E700020F8BD10B50068E6
:1038A0000B464068C021C94301400002000ECC0411
:1038B000D870E40E5C708C06A40E0904490F9C704D
:1038C0001970002A0AD102F04DFED870587802F023
:1038D00049FE5870987802F045FE9870002010BD9F
:1038E00030B50B460168896A596001680969490465
:1038F000490C9960006804680F482146014088021D
:103900004D04800E18706D0E49065D70490E997059
:103910006102490E40242140D970002A0AD102F0E8
:1039200021FE1870587802F01DFE5870987802F049
:1039300019FE9870002030BD7F7F7F00F8B504002D
:1039400050D0254620356878002803D128702046BD
:1039500000F052F8022068702168CA20486221688D
:1039600053204862204602F09FFEFF2604270028CD
:10397000206802D046626F7034E081681D4A1140B1
:103980008160216888686268A369104322691A43CC
:10399000104388602168E068086120680169228915
:1039A0001204114301612068C16880229143C16003
:1039B0002068C16C89088900C164E16960690143BC
:1039C0002068C26C1143C1642068806880060BD4F3
:1039D000204600F0C7F9002806D0206846626F70C4
:1039E000002028700120F8BD206846620120687020
:1039F0000020F8BDBFFF8FFF10B50068084988425E
:103A00000DD108480169012292041143016100228D
:103A100011460220FFF776F90220FFF767F910BD83
:103A20000028004040100240FEB5064604462036FD
:103A300030780B4601283ED0012030700220707093
:103A4000184620300090206800278068002A34D073
:103A5000400600D4DF7019789D7809040D43597829
:103A6000DA780902120411430D430099D8690978E4
:103A700009060D4305435869996905435868084389
:103A800000902168CA204862216853204862FF20C4
:103A90005A6A01308021824245D12268936883436B
:103AA00093602068C2680A40FF3A823AC260FEF71B
:103AB00061FD019024E00220FEBD400600D4DF70CD
:103AC000187802F057FD0504587802F053FD000203
:103AD0000543987802F04EFD0543D878000405436D
:103AE0000098007802F046FD00060543D869C1E75A
:103AF000FEF740FD0199411A7D20C00081422AD87D
:103B00002068C068C007F3D02068C56121680098AC
:103B1000486420688168FF22013211438160206877
:103B20008168120130E02068826801235B029A43B9
:103B300082602068C2680A401D495118C160FEF7C2
:103B400019FD01900EE0FEF715FD0199411A7D2047
:103B5000C000814206D92168FF20486203207070AE
:103B60003770FEBD2068C0688007ECD5206805620C
:103B700021680098886420688168012252021143FC
:103B800081602068816812011143816009480268E0
:103B9000012149040A43026082680A438260216865
:103BA000FF2048620120707037700020FEBD0000C9
:103BB0007FFDFFFF00040140F8B5054604462035AF
:103BC00028780B4601280FD0012028700220687049
:103BD000002A0BD0D8789E780004064358780978DC
:103BE00000024903084317E00220F8BD5878C106D7
:103BF00003D5EF2108400A305870D87802F0BAFC9B
:103C00000604587802F0B6FC00020643987802F0E9
:103C1000B1FC06431878400306432168CA20486275
:103C2000216853204862204602F03EFD002700280C
:103C300011D111480640206846602068C168802282
:103C40009143C1602068806880060CD4204600F053
:103C500089F8002807D02168FF2048620420687096
:103C60002F700120F8BD2168FF2048620120687094
:103C70002F700020F8BD00003FFFFF00F8B506469A
:103C80000446203630780D46012822D001203070BD
:103C900002207070206800278068002A1BD0400630
:103CA00000D4EF702978A878090408436978EA7885
:103CB000090212041143084300902168CA20486297
:103CC000216853204862204602F0EEFC002837D1DC
:103CD00016E00220F8BD400600D4EF70287802F00C
:103CE00049FC0304687802F045FC00020343A8780D
:103CF00002F040FC0343E878000403430093DCE750
:103D000017490098084021680860206881680122EE
:103D10009204914381602969E868084321688A68B0
:103D2000104388602068C16880229143C160206888
:103D3000806880060CD4204600F014F8002807D0D4
:103D40002168FF2048620420707037700120F8BDA0
:103D50002168FF2048620120707037700020F8BD94
:103D60007F7F7F0070B504460068C168A022914340
:103D7000C160FEF7FFFB7D260546F60006E0FEF774
:103D8000F9FB401BB04201D9032070BD2068C06818
:103D90008006F4D5002070BD02480169022211435B
:103DA0000161704700E000E0094910B5401E8842FB
:103DB00001D9012010BD074C60610321081F03F0E9
:103DC000E9FA0020A06107202061002010BD00005A
:103DD000FFFFFF0000E000E002480169022291437A
:103DE0000161704700E000E0014660310A7D012A70
:103DF00009D001220A750068026802231A43026092
:103E0000002008757047022070477047FEB50546D0
:103E100004466035287D00269446012811D00123F0
:103E20002B752420A067206802689A4302602768E7
:103E3000B8680322120590430843B860002902D0F5
:103E400015E00220FEBD60460091019020684168A7
:103E5000102291436A46928811434160206841686C
:103E60006A4609029279090A1206114341602068E4
:103E7000016819430160FEF77DFB09490091034683
:103E8000012100228905204602F0A6FF002801D06A
:103E9000032601E02020A067002028753046FEBDE3
:103EA000FFFFFF0170477047F8B502680446D0690C
:103EB00011689668814B05461D402023002D6CD06B
:103EC000F7077F4DFF0FBC460D402F4379D02546A5
:103ED000C7078035002F06D0CF0504D5012717620C
:103EE0002A683A432A60820708D5F20706D0276875
:103EF00002223A622A6804273A432A60420708D518
:103F0000F20706D02668042232622A68022632436B
:103F10002A6002070AD50A461A406646324305D08F
:103F20002668082232622E6816432E60020508D5E4
:103F30004A0106D501222668D20232622A681A4353
:103F40002A602A68002A30D0800606D5880604D563
:103F5000616E002901D02046884728682168896859
:103F6000490602D42821084225D0204602F047FD08
:103F700020688168490619D5826840218A43826099
:103F8000206F002812D04F498163206FFDF7F4FFA6
:103F900000280AD0206F816B06E0850611D58D06BA
:103FA0000FD5616E77E020468847F8BD2046FFF7C1
:103FB0007AFFF8BD05E02046FFF775FF0020286076
:103FC000F7E7256E012D56D1C50654D5CD0652D53D
:103FD000102616622068816825464906403500296A
:103FE0002ADA226F116849680904090CE1D02F8B85
:103FF0008F42DED9698311680968890617D4016880
:10400000320191430160206881684908490081605C
:1040100020688168402291438160E3670020206628
:1040200020680168B1430160206FFDF783FF288B92
:10403000698B401A81B21AE0298B6A8B891A6A8BC4
:1040400089B2002AB5D00029B3D00268FF252135F6
:10405000AA43026020688268520852008260E367C7
:1040600000202066606620680268B2430260204635
:10407000FFF7CBFE9DE7C50208D5750206D50120E6
:10408000000510622046FFF70DFF92E7050605D5F3
:104090000D0603D5A16E002985D18AE7400688D593
:1040A000480686D5116820464024A14311608367E5
:1040B0000021816600F09EFA7BE700000F080000F7
:1040C000200100046569000810B5040003D0A06F4A
:1040D000002802D007E0012010BD00217420015506
:1040E000204600F027F82420A067206801684908CE
:1040F00049000160204602F019FD0128ECD0606AF9
:10410000002802D0204602F095FB20684168092271
:10411000D20291434160206881682A2291438160E4
:1041200020680168012211430160204602F0E8FB8B
:1041300010BD0000F0B587B0064614216846FCF7B4
:10414000A0F8414C37680025404902200122032392
:10415000A74232D18C6B47043C438C63CC6A044346
:10416000CC62C96A01AC01400591990200910DC46D
:104170000720049069463648FEF72EF9364C35483C
:104180002060052060601020E560A0606561A56189
:104190008020E5612061800120622046FDF766FFF6
:1041A000002801D0FDF7A6FAF466002201211D20A7
:1041B000A662FEF7A7FD1D2020E0284E0424B7428A
:1041C00020D14E6B27033E434E63CE6A1643CE6228
:1041D000C96A0190C907C90F0591032149020091DD
:1041E000052002950494039369460007FEF7F4F84E
:1041F000002201211B20FEF785FD1B20FEF776FD26
:1042000007B0F0BD164EB742FAD18E6B01277F047E
:104210003E438E63CE6A1643CE62C96A0190C907D7
:10422000C90F05910C210091052002950494039378
:1042300069460007FEF7D0F8002201211C20FEF796
:1042400061FD1C20DAE70000004800400010024039
:10425000000400501C000240C43600200038014019
:1042600000440040FFB50446C06F85B017460E46B7
:1042700020287AD1002E0AD0002F08D0A168C001D2
:10428000814207D12069002804D1F00702D0012023
:1042900009B0F0BD204660300090007D012864D058
:1042A0000098012101750020802108512221E16739
:1042B0002066FEF75FF92546403502902F836F8315
:1042C0000121A0680903FF22884204D12369002B41
:1042D0000CD1274A0AE07F23002809D001221207C7
:1042E000904219D12269002A05D03F22AA8303E017
:1042F0002769002FFAD0AB83AA8B0192884202D1A2
:10430000206900280AD03746002600990020087549
:104310000198C0B203901AE00022E7E70027F4E713
:1043200008980090002220212046029B02F054FDB4
:10433000002801D00320ABE72068002F0FD0416A8E
:104340000398014039707F1C688B401E6883688B1E
:104350000028E5D12020E067002099E705E0406AC9
:10436000019908403080B61CEEE7022090E700007B
:10437000FF01000030B5C36F202B27D100290BD0DF
:10438000002A09D0012483682403A34206D10369CB
:10439000002B03D1CB0701D0012030BD0346603391
:1043A0001C7D012C12D001241C7500230366084CCF
:1043B0000368A34207D05C68240204D51C68012569
:1043C000AD062C431C6002F0BBFC30BD022030BDAA
:1043D0000048004070B51F4A01231F49904215D183
:1043E0001E480A7B058E446B6255028E521C028663
:1043F0008879352805D1087B0D2801D00A2800D1FD
:104400008B70154901220C31124810E0144A904279
:1044100010D1144CC8890A782254401CC8810D2A36
:1044200001D00A2A00D14B7001220B490C48FFF73A
:10443000A1FF70BD0C4A9042FBD10879282804D214
:104440000A4BCA781A54401C087103490122C91C3E
:104450000548ECE73835002000000020B4120020A9
:1044600040360020F0320020BC3500201C340020F3
:10447000FFB50446806F83B017460D4620285ED1F5
:10448000002D0AD0002F08D0A168C001814207D1B9
:104490002069002804D1E80702D0012007B0F0BD50
:1044A000204660300090007D012848D0009801210E
:1044B00001750020802108512120A067FEF75AF8DD
:1044C000264640360190378277820120A16800039A
:1044D000814202D12069002805D02F46002500998D
:1044E0000020087511E00027F9E70022802120460E
:1044F00002F072FC002815D1002F15D02168387801
:1045000088627F1C708A401E7082708A019B00281E
:1045100006980090E9D100224021204602F05CFC80
:10452000002808D00320B9E728882168C005C00DFD
:104530008862AD1CE6E72020A0670020AEE70220DD
:10454000ACE70000F8B50446806F20284AD1002966
:104550000BD0002A09D00123A0681B03984206D182
:104560002069002803D1C80701D00120F8BD2546E5
:104570006035287D012835D001202875204640303F
:10458000E164028242820026274680373E60212075
:10459000A067E06E00281AD01349C162E16E13488B
:1045A0000863E16E12484863E06E13468663206834
:1045B000E16C283084466246E06EFDF79FFD0028DE
:1045C00005D0102038602E752020A067CDE7216827
:1045D000402008622E752068816880221143816026
:1045E0000020F8BD0220F8BDC5690008F569000883
:1045F00079690008704770477CB506461A484168DB
:10460000C9430907FBD4194C606B651528436063E7
:1046100000211748FDF76AFA1648009016480190E5
:1046200069461348FDF7B8FAA01401906946009650
:104630000F48FDF7B1FA0E48FDF74EFC0021C943C3
:104640000B48FDF7E9FB0A48FDF7F0FA084980B28C
:104650000A689368022633439360096803220A605C
:10466000616BA94361637CBD007000400010024093
:1046700080340020FFFF07000110000038B50B2335
:104680001B07C518114B0FD01C152D1B18D02D1B47
:1046900019D0A542DD6A05D108242543DD62DB6A15
:1046A000234007E08024F8E7DC6A01252C43DC6224
:1046B000DB6A2B40009311601146FDF78DFE38BD7B
:1046C000DD6A0224E9E7DD6A0424E6E7001002401F
:1046D000F8B5012105200022C9020007FDF743FFBC
:1046E00000240126194F360331463846FDF736FFC0
:1046F0000028F9D1002501220527D6023F073146BF
:104700003846FDF730FF6400002231463846FDF799
:104710002AFF71000D48FDF721FF012800D1641C1C
:104720006D1CEDB2182DE6D301220526D502360701
:1047300029463046FDF717FF28034440002229464A
:104740003046FDF710FF2046F8BD00000004005081
:10475000FEE701688A69D243920701D400228A6287
:1047600000688169C943C90703D0816901221143E7
:1047700081617047F7B5044600680E468069C04302
:10478000C0062BD420272546403520688069C043C9
:10479000800612D5701CF8D0FDF7ECFE0299401A85
:1047A000B04201D8002EF0D1606C384360646F7065
:1047B0000020A87028700120FEBD21681020C8616B
:1047C0002068C7612046FFF7C4FF20684168044A9B
:1047D00011404160606C04210843E7E70020FEBD02
:1047E00000E800FEF8B50446164615481D46DAB244
:1047F0000090079F0023204600F054F83A462046D8
:10480000069900F0F1F8002818D12846F5B20128E1
:1048100009D02168300A88623A462046069900F09D
:10482000E3F800280AD12068856200970022402121
:104830002046069B00F04AF8002800D00120F8BD71
:1048400000200080F8B50446164615481D46DAB229
:10485000C3020090079F204600F024F83A46204605
:10486000069900F0C1F8002818D12846F5B20128B1
:1048700009D02168300A88623A462046069900F03D
:10488000B3F800280AD120688562009700228021B1
:104890002046069B00F01AF8002800D00120F8BD41
:1048A00000200080F0B50668059C7568064F600D15
:1048B000384385438805800D11040843184320437D
:1048C00005437560F0BD0000FF63FF03F8B51D46AA
:1048D00017460E46044609E0681C07D0FDF74AFE5D
:1048E0000699401AA8420BD8002D09D0206881698A
:1048F000304688430FD00020B842EDD00020F8BDEC
:10490000616C202001436164403460700020A0701D
:1049100020700120F8BD0120EEE70000F7B5002768
:10492000202605460446403528E02046029A019993
:10493000FFF720FF002801D00120FEBD206880691C
:10494000C043800611D420688169C943490702D455
:10495000218D002917D1C661206841680E4A114097
:10496000416067646E70AF7013E0FDF703FE02995B
:10497000411A0198814208D8002806D02068806931
:10498000C0434007D1D40020FEBD606C304360645A
:104990006E702F70D0E7000000E800FE70B516467C
:1049A0000D4604460FE0324629462046FFF7E2FE58
:1049B000002801D0012070BDFDF7DCFD801BA8425E
:1049C00008D8002D06D020688069C0438006EAD44C
:1049D000002070BD616C2020014361644034607030
:1049E0000020A0702070E5E770B516460D4604461D
:1049F00011E0324629462046FFF7BCFE002801D0D0
:104A0000012070BD681C06D0FDF7B4FD801BA842D4
:104A100008D8002D06D020688069C0438007E8D4FC
:104A2000002070BD616C20200143616440346070DF
:104A30000020A0702070E3E770B500240D46002828
:104A400003DA2D214042297001240A21FBF766FB7D
:104A500030312955641C0028F7D1285529782D2993
:104A600001D10120641CE10F09194B1083420EDDB6
:104A7000211A491920392A5CCE7F92192A54CE7FF7
:104A8000921BCA77295C891A2954401CEEE72846F4
:104A900070BD0000024801680422114301607047A4
:104AA0000070004070B50546FFF796F90D4CA06BFD
:104AB00021040843A063FEF731F9FEF727F9E06807
:104AC0000121C9030843E06007480168042211433B
:104AD000016001210846FEF731F9A847FFF75CF9AC
:104AE00070BD0000001002400070004030B587B07B
:104AF00000F0CAF929A000680590002003900490F6
:104B000008F094F97D24012505A8E40000902B46C7
:104B10000022C421019502942148FDF78FFF08F07F
:104B200085F92049884230D203A8009001230F2242
:104B3000C521019502941A48FDF7D6FE04A80090FD
:104B400001231022C521019502941548FDF7CCFEE2
:104B50006846007B01026846007C081884B27D200C
:104B60004001844208D9FDF705FD01460EA002F080
:104B7000B1FB154807B030BDFDF7FCFC01462246ED
:104B800012A002F0A7FB2046F4E7FDF7F3FC014674
:104B900014A002F09FFB1B48ECE70000040000009B
:104BA000DC3400200F2700005B25645D44697374CA
:104BB000616E6365206973206F7574206F66207263
:104BC000616E67650D0A0000FFFF00005B25645DF4
:104BD00044697374616E6365203D2564636D0D0ADD
:104BE000000000005B25645D6C696461725F6C6944
:104BF0007465206973206E6F7420636F6E6E6563D9
:104C0000740D0A00FF0F000070B5054604F06CFB40
:104C100006490C4608344860E06107F0EBFEE069A5
:104C200007F09AF9E061284670BD000010080020E6
:104C3000F0B589B0002500950195029502F01CF9A8
:104C4000142103A8FBF71DFB144F002403AE06201C
:104C50006043C1190095019504226846491C0295DC
:104C6000FBF7F6FA6846FBF77DFBA100641CE4B293
:104C70007050042CEBD304990398069A40180599B8
:104C800089184018C117890F08188003040C2146A1
:104C900003A002F01FFB204609B0F0BD92410020A6
:104CA00064697374616E636553756D3A25640D0AAA
:104CB0000000000010B5D2210448FBF7E2FA0348D7
:104CC0006421D230FBF7DDFA10BD0000C0400020A7
:104CD00010B57D23DB00642202490348FFF7C2FAC6
:104CE00010BD0000C0400020BC3500201CB50021D4
:104CF00018480091164A01910260C1635205816013
:104D000042608163012202610246C160203211705B
:104D1000FF235170C2334362816211730163816169
:104D2000042241634261C161FCF784FF002801D085
:104D3000FCF7E0FC08480090012000030190694660
:104D40000448FCF729FF002801D0FCF7D3FC1CBD68
:104D500000240140803400200000024408B50848C7
:104D6000016B012211430163006B1040002200908F
:104D700011460A20FDF7C6FF0A20FDF7B7FF08BD60
:104D800000100240F0B587B014216846FBF779FAAD
:104D90003648C26A04210A43C262C26A0A400592C6
:104DA000C26A80210A43C262C26A0A400592C16A8D
:104DB00001263143C162C16A31400591C26A0221B4
:104DC0000A43C262C06A0022084005900520C9015A
:104DD0000007FDF7C8FB012220212548FDF7C3FB92
:104DE0007003244F00906946019702962248FDF710
:104DF000F3FA0324002500946946204802950194A3
:104E0000FDF7EAFA1E486A4631C2052069460007E6
:104E1000FDF7E2FA1B486A4631C269461448FDF7BD
:104E2000DBFAB00300906946019702951048FDF740
:104E3000D3FA30020090052069460196029503944A
:104E40000007FDF7C9FA20200090694601960295F7
:104E500003940748FDF7C0FA002202210720FDF75E
:104E600051FF0720FDF742FF07B0F0BD00100240E0
:104E7000000400500000211000080050001C0050E9
:104E8000F39E00001FB3000010B5134811490160E4
:104E9000124941600021816001614161816101220B
:104EA000C161C2600162FDF7B5FB002801D0FCF7CB
:104EB00021FC00210848FDF763FB002801D0FCF726
:104EC00019FC00210448FDF780FB002801D0FCF705
:104ED00011FC10BD00540040DC3400205B3D30006C
:104EE00010B5084806490160062141600649C160C5
:104EF0008160FDF777FE002801D0FCF7FBFB10BDB9
:104F00000030004028350020FF0F000010B50F488A
:104F10000D4901604B21C901416000218160C160E0
:104F200001610C22816142610162302141620121F3
:104F3000090381634900C163FFF7C6F8002801D067
:104F4000FCF7D8FB10BD00000048004038350020B9
:104F500010B50C480A4901604B21C901416000218C
:104F60008160C16001618161C1610C2201624261A5
:104F70004162FFF7A9F8002801D0FCF7BBFB10BD88
:104F800000380140BC35002010B50F480D490160C4
:104F90004B21C901416000218160C16001618161D3
:104FA0000C22C16142610162302141620121090389
:104FB00081634900C163FFF787F8002801D0FCF73F
:104FC00099FB10BD0044004040360020F0B501259B
:104FD0006D0293B00C460646012902D0002C02D087
:104FE00006E0294601E0FF2101313548FEF7FAFBD2
:104FF000282105A8FBF745F9002269463048FEF74D
:105000006FFC002211A92E48FEF748FCE12109019E
:105010003046FBF76DF8C6B208463C21FBF768F84E
:10502000C7B26846807840180A21FBF761F8000192
:105030000818C0B25928694604D96038887548787C
:105040007F1C01E0887548780A21C019FBF750F8E9
:1050500000010818C0B25928694604D9603848755B
:105060000878761C01E0487508780A218019FBF75A
:105070003FF800010818C0B22328694600D9243837
:105080000875002001210690C907089009900B902F
:105090000C900A91012008A90875002C0BD00E95E0
:1050A000012205A90648FEF7BFFC002801D0FCF745
:1050B00021FB13B0F0BDFF2001300E90F0E700009F
:1050C0000C37002010B5012104464905FEF79EFE6D
:1050D0002046FEF789FE10BDF0B5044601780F208A
:1050E000FC4FC00197B038181090384680300F90B0
:1050F000FF30013006903846083800791590F648A0
:10510000F64B0246A43014900520C00138180E90CA
:1051100007200393C00138180D9001208002381831
:1051200008900520000238180C900B20C001381898
:105130000B900D20C001381807900920C0013818C5
:1051400013900720000238181290F81DF9300590CE
:105150000320000238180A90032040023818E04B60
:1051600011903525187D1032DB8AFF372E46FF3728
:10517000023709933B2973D24B007B449B885B0029
:105180009F443A005B00A800CF001A0129016F017B
:10519000E6006F009D035503FF0042038401640392
:1051A0007903E603020412041C0424042D043504CC
:1051B0004A0454047B04860494049C0401071607E3
:1051C0002D072F074307B004DB04E904F704940616
:1051D000A406AD06B206C206530775078A079607EE
:1051E0009B07A90704084D0025086E00CE003C0867
:1051F000AC03DD07EF07CA07B6488169002088477E
:10520000072805D03425FDF7B5F90146B5A0B8E368
:1052100032202070FDF7AEF90146BAA0F7E71098EA
:10522000816E00208847072805D03425FDF7A2F9B4
:105230000146BBA0EBE701209AE0A648016C0020E4
:105240008847072805D03425FDF794F90146BEA00C
:10525000DDE708202070FDF78DF90146C3A0D6E7F1
:10526000A9E00598816D002088471E2811D0059877
:10527000816D002088471F2816D00598816D002079
:10528000884720281BD03425FDF774F90146C2A0B9
:10529000BDE702208F492070002008390871FDF712
:1052A00069F90146C8A0B2E702208A4920700020AF
:1052B00008390871FDF75EF90146CBA0A7E7022087
:1052C00084492070012008390871FDF753F901461F
:1052D000CDA09CE77F48016F00208847072805D0B4
:1052E0003425FDF747F90146D0A090E70320207050
:1052F000FDF740F9794A01461C321446D4A001F06A
:10530000E9FFDBA17448FAF7D3FF002808D0102189
:105310007148FAF7B6FF0F2221466F48FAF798FF57
:10532000FAE30F98816900208847072805D03425C3
:10533000FDF720F90146D0A069E707202070FDF7AE
:1053400019F9664A01460832D4A001F0C3FFE7E725
:105350000598016B00208847072806D01B2806D037
:105360001A2807D026703425DAE70B2000E0042045
:105370002070D5E731202070FDF7FCF80146CF48BA
:1053800045E75548BAA17F30FAF792FF0626002874
:1053900011D10698016D00208847072805D03425D3
:1053A000FDF7E8F80146C6A031E7FDF7E3F801464E
:1053B000C9A001F08FFF80E30F98816B0020884720
:1053C000072806D03425FDF7D5F80146C9A001F01D
:1053D00081FF0720CCE70F98016E0020884707283F
:1053E00001D03425E7E726703D4C0021E068FFF747
:1053F000EDFDFDF7BFF80146C5A001F06BFF0022EF
:1054000002A9D348FEF76CFA002201A9D048FEF7A2
:1054100045FA2C2107A8FAF734FF6846C0796430B2
:105420000C9068464079401E0B90684680790A903F
:105430006846007A09906846407A08906846807A03
:10544000079007A8FAF7BEFEC2498860C148E16923
:1054500006F0D4FDE06907F051FBE0610120207601
:105460005EE7059881680020884701460D200729DE
:1054700006D034252070FDF77DF80146B6A0C6E6BB
:105480002070FDF777F80146C0A0C0E6B96A7869D8
:105490008847FDF76FF8CA4F01467A78C9A001F036
:1054A00019FFCF48007B072805D026700020B87070
:1054B0000120CC49A6E1074E083E3078002806D0EE
:1054C000092121700124BC70002801D092E18BE1F8
:1054D0008CE10000BC080020783A0020B4120020C3
:1054E000180800205B25645D4E42494F54206469D2
:1054F00064206E6F7420726573706F6E642E0D0A77
:10550000000000005B25645D4E42494F54206861F5
:105510007320726573706F6E6465642E0D0A0000EF
:105520005B25645D4E6F20726573706F6E736520CE
:105530007768656E207368757474696E6720646F30
:10554000776E0D0A000000005B25645D4563686F9F
:10555000206D6F6465207475726E6564206F666679
:10556000206661696C65642E0D0A00005B25645D30
:105570004563686F206D6F6465207475726E656435
:10558000206F6666207375636365737366756C6CF4
:10559000792E0D0A000000005B25645D526571756F
:1055A00065737420666F72206D616E7566616374D9
:1055B00075726572206D6F64656C206661696C65DB
:1055C000642E0D0A000000005B25645D4D6F64656C
:1055D0006C20696E666F726D6174696F6E3A4243DA
:1055E00033352D472E0D0A005B25645D4D6F6465D4
:1055F0006C20696E666F726D6174696F6E3A4243BA
:1056000039352D472E0D0A005B25645D4D6F6465AD
:105610006C20696E666F726D6174696F6E3A424399
:1056200039352D47562E0D0A000000005B25645DBC
:105630004661696C656420746F20726561642049FD
:105640004D4549206E756D6265722E0D0A00000091
:105650005B25645D54686520494D4549206E756D34
:105660006265722069733A25732E0D0A00000000EE
:105670004E554C4C000000005B25645D4661696C32
:10568000656420746F207265616420494D53492020
:105690006E756D6265722E0D0A0000005B25645DFB
:1056A00054686520494D5349206E756D62657220BE
:1056B00069733A25732E0D0A0000000060DC0008B3
:1056C0005B25645D4661696C656420746F20736559
:1056D000742041504E0D0A005B25645D53657420B3
:1056E00041504E207375636365737366756C6C7996
:1056F0000D0A00005B25645D4F70656E696E672062
:10570000616C6C2066656174757265732E0D0A009C
:105710005B25645D5475726E206F666620746865E3
:10572000206D6F64756C6520726563656976696E5E
:105730006720616E642073656E64696E67205246EF
:105740002066756E6374696F6E2E0D0A000000008E
:105750000C370020400800205B25645D4661696CC1
:10576000656420746F207365742075702061757492
:105770006F6D61746963206E6574776F726B206101
:1057800063636573732E0D0A000000005B25645D82
:10579000536574206175746F6D61746963206E6503
:1057A00074776F726B2061636365737320737563C5
:1057B0006365737366756C6C792E0D0A00000000CA
:1057C000B41000205B25645D5369676E616C2053E3
:1057D0007472656E6774683A25640D0A00000000F3
:1057E000DC0A0020090000200C216AE6E84803F0EA
:1057F000D7FE3470FF20F53003F0D2FEE5490020DB
:105800000870E54908708BE50698816F002088478D
:10581000072807D0FCF7AEFE0146E0A001F05AFDD4
:105820000A20A5E5FCF7A6FE0146E6A0F6E70698E5
:10583000816A00208847072806D03425FCF79AFEA5
:105840000146E7A001F046FD0E2091E5B96C00206D
:10585000884707280AD0FCF78DFE0146E7A001F033
:1058600039FDEE48FCF77EFC0F2081E5FCF782FE57
:105870000146EBA0F3E7104603F050FE002809D0E4
:10588000F1490020887037202070FCF773FE014634
:10589000EEA0BCE4EC4901208870396F00208847F5
:1058A0000728B0D1FCF766FE0146F1A001F012FD19
:1058B000F7482670032101710421C17030E5069874
:1058C000016800208847072806D03425FCF752FEDF
:1058D0000146C3A001F0FEFC372049E5EC49022255
:1058E000CA700022EB4E4A71012806D002280BD064
:1058F00003280BD004280CD010E01598002801D004
:10590000182004E0102002E01E2000E02220207079
:1059100004E02B202070CC490120C870F0790028C9
:1059200003D10021F068FFF751FBFCF723FE728AD8
:105930000146501C7082D8A001F0CCFCDE48F16911
:1059400006F05CFB03980421406BFAF79AFCE7E44D
:10595000DA491046FAF7ACFC002873D1D7491498FD
:10596000FAF7A6FC00286DD10E98816900208847BF
:10597000072807D03A2034252070FCF7FBFD0146AC
:10598000CFA0BDE31120F3E40E98016C00208847FE
:10599000092802D03425162063E012202070FCF77D
:1059A000E9FD0146CEA0ABE30E98816E002088474A
:1059B000072837D11320DBE41620D9E40A980169BF
:1059C00000208847072807D1142020700A98816B8F
:1059D00000208847072870D03425162060E00998F9
:1059E000FCF7C0FB0A98016E00208847E4E70D9899
:1059F000816800208847162806D138202070FCF7DF
:105A0000B9FD0146C1A07BE3392034252070FCF7A5
:105A1000B1FD0146C7A073E30D98016B00208847D4
:105A20000D2801D03425C7E7152053E0A3491046BF
:105A3000FAF73EFC002805D1A0491498FAF738FC83
:105A4000002806D03A202070FCF794FD0146C2A041
:105A500056E30D98816D00208847072807D034252C
:105A60001B202070FCF786FD0146C6A048E3267087
:105A7000FCF780FD0146CDA042E3089801680020B4
:105A80008847072801D11A2072E434251B206FE4CF
:105A90000898816A0020884707289CD034251B205D
:105AA0002070FCF767FD0146C7A029E30898016D47
:105AB0000020884716288ED0A6E767E00898816FF7
:105AC000002088470D2804D0212809D02228DCD1C5
:105AD00093E71B202070FCF74DFD0146C1A00FE3AA
