:020000040800F2
:10000000C00A0020D5000008CD5200088D49000824
:1000100000000000000000000000000000000000E0
:10002000000000000000000000000000ED53000888
:10003000000000000000000069530008EF530008B2
:10004000E7000008E7000008DD530008E7000008AB
:10005000E7000008E7000008E7000008AF1A000802
:10006000E7000008E700000891140008E700000816
:10007000E7000008E7000008E7000008E7000008C4
:10008000E7000008E7000008E700000800000000A3
:10009000E7000008E7000008E7000008E7000008A4
:1000A000E7000008E7000008E7000008E700000894
:1000B000B95C00086D53000800000000E70000086C
:1000C0000348854600F0C4FD0048004785770008D6
:1000D000C00A00200448804704480047FEE7FEE7C6
:1000E000FEE7FEE7FEE7FEE791540008C1000008C6
:1000F00030B50B46014600202022012409E00D46C0
:10010000D5409D4205D31D469540491B2546954047
:1001100040191546521E002DF1DC30BDF0B51FB45C
:100120000646002082B005464024019100901BE065
:10013000019922460F46304600F008FC049A059BC0
:10014000801A994110D310461946224600F0EEFB62
:10015000361A8F410197224601200021009F00F0AE
:10016000E5FB38184D4100902046641E0028DFDC76
:10017000019B00982946324607B0F0BD03460B4369
:100180009B0703D009E008C9121F08C0042AFAD24D
:1001900003E00B780370401C491C521EF9D27047D3
:1001A000D2B201E00270401C491EFBD2704700220F
:1001B000F6E710B513460A4604461946FFF7F0FF66
:1001C000204610BD421E5378521C002BFBD10B78E9
:1001D0001370491C521C002BF9D1704730B50546ED
:1001E0002A460B4610781C78521C5B1C002801D054
:1001F000A042F7D0002C03D0002802D06D1CEFE7FE
:10020000284630BD10B5044605E00B780370401C4D
:10021000002B00D0491C521EF7D2204610BDCAB296
:10022000401E4178401C8A4202D00029F9D10020AA
:100230007047421C0178401C0029FBD1801A70478E
:1002400010B5002200E0521C835C8C5CA34201D1FB
:10025000002BF8D1D8B2E1B2401A10BD0321001D25
:10026000401E037812021A43491EF9D51046704702
:1002700070B5064605F0CAFD046805460A2200214D
:10028000304600F0D9FB2C6070BDF8B502464A40FC
:10029000D40F42004B0052085B089A4202D2024639
:1002A000084611464A0023D0C30D4A00DDB2120EA3
:1002B000AD1A202D35DA49020126490AF6058A19B8
:1002C000002C00D0524220214F1B1146B9402A4138
:1002D0001018C20D9A4221D0002C17D0012D08DC35
:1002E000DA05801AD20F8019D207DBB200F0E4FBE6
:1002F000F8BDDA05801A012340001B06C0188018DB
:100300005A428018CA0F1043490007E04908C20743
:100310001143DA05801A80194008801800F0C4FBE8
:10032000F8BD61000122511A001BF7E70122D20734
:100330005140AAE70122D2075040A6E7024670B515
:100340004A40D30FDB0740002DD04A002AD0010ECF
:10035000140E000212020919400A520A8418E5011B
:1003600004465443000A120A2E045043A4194219A9
:10037000200CC543AA18120C0125AD03521C5219BA
:1003800012047F39240400D0521C104301D44000D1
:10039000491EC2B20C06C0092018401C4008802A21
:1003A00002D003E0002070BD40084000002900DAC0
:1003B0000020184370BD70B502464A40D50F40007A
:1003C0004A00ED0740085208002814D0002A12D035
:1003D000C40DD30D41020120C0055202490A520A40
:1003E000E41A091812187D34914201D3641C00E00C
:1003F0004900002C01DA002070BD0023914201D396
:10040000891A0343400849000028F7D100290AD07F
:10041000914202D10121C90705E0914201D2012197
:1004200001E00121C943E005C018401900F03CFB80
:1004300070BD0000F0B507460846584087B0C00FB1
:10044000049048000E46590040084908BC1A8841EB
:1004500005D2384631461E4617460B46024658001E
:10046000400810434CD0300D039040055900400D1A
:10047000490D0590401A0290402872DA18030121B4
:10048000000B09050843019004980092002805D04C
:100490000199524200208841009201900298402127
:1004A0000A1A0199009800F041FA05460C466B467D
:1004B00007CB00F05CFAC0197141039A0E0D0023BE
:1004C000D71756401A467A40164344D0049A002A59
:1004D0002DD0029A012A039A15DC1205C01A914107
:1004E00001263605001C7141D20F059ED2070093EC
:1004F000019202962A46234600F024FB07B0F0BD85
:1005000038463146FAE71605224A0F46B218C01A95
:10051000B74101210905001C4F4100187F411146D8
:1005200018187941E20F10436D19644113E0E20796
:100530006D0815436408C2071443039A0126120587
:10054000C01A91413605001C7141CE074008304366
:100550004908C01851412A46234600F0E6FACDE783
:10056000FFE7049801224000C117121A00238B41B3
:1005700004983146C417381AA141EEE730B401247B
:10058000E407634030BC55E730B40124E407614020
:1005900030BC4FE70000E0FFF0B51FB488B00B9906
:1005A0000998002448400999C00F49004908099159
:1005B000C0070B990090490049080B9109990898C8
:1005C000A64608431CD00B990A98084318D00998EE
:1005D00001244000420D4800410D09982405000304
:1005E000000B204309900B980003000B20430B9055
:1005F00050181C494018002201901446104605E08E
:10060000002001460DB0F0BD032801DA034600E0EA
:1006100003239C46C11A0AAE0AE05F0008ADED5BF9
:100620004F00F75B7D430027AA187C41491C5B1EE5
:100630006145F2DD410004AB5A522104120C0A4319
:10064000240C401C0828DFDB0198029000997046BA
:1006500001910090059B049A0799069800F072FAA0
:10066000D0E700000DFCFFFFF0B50C465C4085B004
:10067000E40FE40703944C000026640859009446F4
:10068000490802460296224321D062460A431ED000
:100690006200570D4A000E032303550D0124024644
:1006A0002C492405781B1B0B360B4018234326438B
:1006B000614600901C46501AB44103D30098401C78
:1006C000009002E0921800985B41002803DA0020B5
:1006D000014605B0F0BD0020012109050746864608
:1006E00011E064461D46141BB54106D36546521BF6
:1006F000B341744607430C43A646CD07400849085A
:10070000284392185B4105460D43EAD11046184331
:1007100013D06046194650407140084306D06046E9
:10072000101AB34106D20122002306E00022012361
:10073000DB0702E00122D243531000987446010502
:10074000381C6141029C039D0019694100F0EDF9DC
:10075000BFE70000FD03000070B54B005B080343DA
:100760000BD04B005C0D002633466542B341D417D5
:10077000AD1AA34102DB0020014670BD12053018FE
:10078000514170BDC217C10F504010B54018CA0783
:100790009623002100F090F910BD10B50022962399
:1007A000114600F089F910BD0EB5C217C10F5040B7
:1007B000CA0740180021054B0293019200910A4696
:1007C0000B4600F0BFF903B000BD00003304000089
:1007D0000EB505490291002100910A460B46019190
:1007E00000F0B0F903B000BD33040000C20F4100B7
:1007F00040020123400ADB05D207090EC0187F29F9
:1008000001DA00207047962903DC9623591AC84064
:1008100001E096398840002AF4D0404270474100F8
:1008200040020122400AD205090E80187F2901DA10
:1008300000207047962903DC9622511AC840704761
:10084000963988407047000070B5CD0F4A00090303
:100850000123090B1B0519430B4BED070024520D17
:100860009A4201DA002070BD074B34339A4203DC10
:100870009A1A00F06BF802E00449511888402C43A2
:10088000F1D0404270BD0000FF030000CDFBFFFF30
:100890004A0009030123090B1B051943094B10B535
:1008A000520D9A4201DA002010BD064B34339A42B1
:1008B00003DC9A1A00F04AF810BD03495118884029
:1008C00010BD0000FF030000CDFBFFFFC20FD207E9
:1008D000400040080BD0C10D0723DB01C9184002BE
:1008E0000905400A1143C208400711437047002020
:1008F00001467047CB0FDB07490010B54908024697
:100900000A4307D00A0D07240903E401090B121B4F
:10091000002A01DC002010BDC900440F0C43C100B7
:10092000E018D205801800F0BFF810BD10B5202ADD
:1009300004DB0146203A9140002010BD9140202365
:100940009C1A0346E3401943904010BD10B5202A7D
:1009500004DB0846203AD040002110BD0B46D340AE
:10096000D0402024A21A91400843194610BD10B56A
:10097000202A06DBCB170846203A1041C1170B434B
:1009800006E00B461341D0402024A21A91400843B0
:10099000194610BD0FB400B589B00CA900910B9990
:1009A0000023CB60204B214A069307920422019238
:1009B0001F4A02921F4A089202466B46002000F02E
:1009C000F6F909B008BC04B0184770B586B0064601
:1009D0000020C0430190002015460C460091029172
:1009E00004903246694604A8FFF7D4FF02460498F3
:1009F0002118002D05D0002801D0084600E020462F
:100A00002860049800280DD0002A02DD0098884252
:100A100008D0081B0190009432466946029404A84D
:100A2000FFF7B8FF06B070BD0510000825100008DC
:100A3000FFFFFF7F7D0C0008F7B5009C0F460026E6
:100A40002578641C002D05D000F014F90068405D85
:100A5000C007F5D12B2D02D02D2D18D0641E39469C
:100A60002046029A00F0F0FA002F04D03968A14223
:100A700001D1009939607105022400290BDA404246
:100A8000002803DD05F0C2F90460A007FEBD0120C7
:100A900080020643E3E70028F8DA05F0B7F90460BE
:100AA0000048FEBDFFFFFF7F002904DA401C49001B
:100AB00001D140084000704770B40024050C05D1F6
:100AC0001024000402D1002921D01124050E01D1E7
:100AD00000020834050F01D10001241D850F01D14A
:100AE0008000A41C002801DB4000641C002908D001
:100AF00020252E1B0D46F540A14000D001212943A1
:100B0000084301061B1B000ADB1D02D5002070BC38
:100B10007047DB05181880180029F8DA401C4900D6
:100B2000F5D170BC40084000704710B5002B08DAC2
:100B30000024401C614192185B411A4301D14008D6
:100B4000400010BDF0B51FB482B005460C0003D0C4
:100B5000084605F021F902E005F01EF920300246B2
:100B6000009021462846FFF7E1FE049B059A0446C3
:100B70000F4618431143084314D0184610431BD0A6
:100B8000009840210A1A18460599FFF7DFFE05462E
:100B90000E46009A05990498FFF7C8FE084305D051
:100BA000012004E02046394607B0F0BD0020C117FF
:100BB00005430E432C43374300990E986305401AB2
:100BC0007905E40A00220C43FD0A0A3002D5002010
:100BD0000146E9E70105101969410C9C0D9D0019BA
:100BE0006941FFF7A2FFDFE74A0009030123090B70
:100BF0001B0519430A4B10B5520D9A4202DA002028
:100C0000014610BD064B34339A4203DC9A1AFFF7B3
:100C10009DFE10BD034BD218FFF788FE10BD0000EB
:100C2000FF030000CDFBFFFF10B5002904DB01240A
:100C3000E40740428C412146002B04DB1C46012383
:100C4000DB075242A341994200D1904210BD0000FF
:100C5000064C0125064E05E0E36807CC2B430C3C0F
:100C600098471034B442F7D3FFF72EFA20A30008B8
:100C700040A3000800487047349E000810B50446A1
:100C8000FFF7F8FF0068005DC007C00F10BD00004F
:100C9000FFB5087889B01546FF2805D0491C2D28D6
:100CA00004D00022002407E000240BE00122F9E731
:100CB0000A235C430419491C0878FF28F8D1002A4C
:100CC00000D06442002004902A7801462D2A01D0E9
:100CD0002B2A0FD16D1C2D2A02D00022049209E08C
:100CE0000122FBE700260A2233466D1C00F050FA71
:100CF000381871412F78FF2FF4D10C9AA218069260
:100D000002460A4304D0FF23069A9133DA4205DAF9
:100D1000002109980A4606C00DB0F0BD0024B74A6C
:100D2000B54D2646079200F07FFA0290069803918F
:100D3000002801DA474200E0074639050020AF4AA3
:100D4000001C51410191009012E0F80707D02246A3
:100D50002B4630460799FFF71FFC064607912246AF
:100D60002B4610461946FFF717FC04460D467F1028
:100D7000002FEAD10698019B0028009A0399029857
:100D800006DAFFF771FC3246079BFFF76DFC05E0C2
:100D9000FFF702FC3246079BFFF7FEFB049A002A8E
:100DA00002D00122D2075140099A03C2B4E7FFB52D
:100DB00091B0002009900025ED432E209E685C68CC
:100DC0001F460190B9696D1C129888470090396AD6
:100DD00088470028F6D10098401C0AD00D20C00199
:100DE0008443002E12DD00982B2809D02D280DD128
:100DF00003E00020C04315B0F0BD01208002044391
:100E0000B9696D1C12988847761E009003A9600589
:100E100001D52D2000E02B206A461073491C0CA838
:100E20000F9102900AE0B9696D1C129888470090F2
:100E30000120400204431398761E0560002E02DD57
:100E400000983028EFD001990098884246D1802040
:100E5000044308E00998401E099001204002044321
:100E60001399681C0860B9696D1C761E1298884732
:100E700000903028EED031E00199884205D120065B
:100E800003D480200443761E1EE0009805F018F974
:100E9000002826D001204002044307A90F980331FF
:100EA000761E88420BD200980F99303808700F9840
:100EB000401C0F90200607D50998401E03E020062D
:100EC00002D40998401C0990A00502D51399681C0A
:100ED0000860B9696D1C129888470090002ECBDC21
:100EE00059E0002E57DD0098652801D0452852D1E1
:100EF000A00550D5032000028443B9696D1C761EFD
:100F0000129888470090002E0CDD2B2804D02D2845
:100F100008D1FF2001300443B9696D1C129888473D
:100F2000761E0090E00501D52D2100E02B210298CE
:100F300001700298401C0290019025E001204002BF
:100F400004430EA902980131761E88420ED2009801
:100F5000029930380006000E087003D102990198FA
:100F600081420AD90298401C029006E0E00501D5B2
:100F7000234801E0224840420990B9696D1C12984B
:100F80008847009013980560002E04DD009805F056
:100F900097F80028D2D1F969129888470F99FF2055
:100FA0000870029903AA087000200A900B900CA9FF
:100FB0000AA8099BFFF76CFEA00502D40120C043DC
:100FC00019E72420044209D0E00713D138680B9AAE
:100FD0000A99031D3B60006806C00BE00B990A9854
:100FE000FFF788FC0146E00704D13868021D3A602B
:100FF000006801602846FEE6000014400000F03F53
:10100000F1D8FFFF4268002A08D001680B78491C1C
:10101000002B03D0521E06C0184670470121C16044
:10102000881E70474268002A0BD0C3680168002BF5
:1010300007D183688B4204D0491E521C06C0002091
:1010400070470020C0437047F7B582B0029C00276C
:101050002078641C15460197302802D0002D15D049
:1010600015E020780127641C782804D0582802D085
:10107000002D09D00BE0002D01D0102D07D1002745
:1010800010252078641C02E0082500E00A250026CF
:10109000009610E00099012769430818020C2946C0
:1010A00080B2714300908E183804864201D301202B
:1010B00001902078641C294600F0A7F80028E9DA9E
:1010C0000398002805D0002F01D0641E00E0029C88
:1010D00004600198002806D004F098FE0221016007
:1010E000C81E05B0F0BD009930040843F9E7FEB50D
:1010F00000231A461B1A8A4103DB0020014603B075
:10110000F0BD4A000D0301212D0B0905520D0D43C1
:10111000D10702D100186D41521E5110FF31FF312D
:101120000131002704463E463846009701910246A9
:10113000012100200905FFF709FCC3197141F818C6
:10114000324684468E464A4161462846611A90419D
:1011500004D36046241A954176461F462419009808
:101160006D41401C00903428E1DDF9193046704192
:10117000091BA84103D20022D243134601E00022FA
:10118000134601980105381C7141FFF7CEFCB6E704
:10119000F0B51FB486B00020009001900290069830
:1011A000069980B204900798090C020400141143B8
:1011B00007900027089D099806913E463C460390FB
:1011C0000398A9B20204000C039004982D0C154357
:1011D000484300212246FFF7A9FBC719714110348B
:1011E0000E46402CECDB3846029AFFF79FFB009A34
:1011F000019B801800905941029801911030029093
:101200004028CCDB00980BB0F0BD3A2800D2303833
:10121000202302469A43412A01D310463738884298
:1012200001D30020C04370470EB5054A0292002248
:10123000009213460192FFF785FC03B000BD000049
:101240003304000070B5044603F0F4FA0146214867
:10125000C08A4843C117090D08180013FFF792FA16
:101260000546642001F042F9012C0FD01A4884424F
:1012700019D101F0D3FA014618A004F069FD2846FF
:10128000FFF724FB02460B4616A01BE001F0C6FA4E
:10129000014612A004F05CFD2846FFF717FB02464A
:1012A0000B4615A00EE0194884420DD101F0B6FAA4
:1012B00001460AA004F04CFD2846FFF707FB024652
:1012C0000B4613A004F044FD2846FFF7A8FA80B2AD
:1012D00070BD000054040020020000045B25645D22
:1012E000000000006164635F6D562832293A252EA4
:1012F00032660D0A000000006164635F6D5628319C
:10130000293A252E32660D0A000000001000001058
:101310006164635F6D562833293A252E32660D0AC3
:101320000000000038B50446064805490068FEF78D
:10133000DFFE604300E0401E00900028FBD138BD76
:1013400040420F0024000020F8B504460068816880
:101350008907890F012902D10168C90722D1816853
:10136000114A10261140012500290ED18168294318
:1013700081600120FFF7D6FF01F050FA07460CE02C
:1013800001F04CFAC01B0A2807D9606D3043606534
:10139000A06D2843A0650120F8BD20680068C04307
:1013A000C007EDD10020F8BD1700008070B50646DB
:1013B000002407F015FF2CA13046FEF741FF00285E
:1013C0001AD02AA13046FEF73BFF002815D0284D41
:1013D0001820604329583046FEF700FF002810D03F
:1013E00024A13046FEF7FAFE002810D0182044430E
:1013F000601981683046884770BD304605F044FC6E
:1014000070BD641CE4B20E2CE2D9012070BD1AA19B
:101410003046FEF7E3FE00280AD018204443601946
:10142000C168304688470028F0D105F0CDFE19E0AC
:1014300012A13046FEF7D2FE00280DD001F0EEF9E1
:1014400001460FA004F084FC182044436019416950
:101450000DA004F07DFC05E01820444360190169EB
:1014600030468847002070BD4154000041543F0081
:101470008C9B00083D3F00003D0000003F00000045
:101480005B25645D0000000025730D0A000000006C
:1014900010B5034800F05AFF024800F057FF10BD96
:1014A00010030020C802002030B5446C1C252C40DD
:1014B0000125A540046C6560046863608368102B97
:1014C000036803D099600068C26030BD9A6000680C
:1014D000C16030BD70B5054600F038FA2946442099
:1014E00000F040FA2A4E304601F000F8284600F09D
:1014F0002DFA2946BE2000F035FA284600F0DCF926
:101500000446284600F0D8F9052819D1502C17D1E7
:10151000284600F01BFA2946442000F023FA304602
:1015200000F0E4FF284600F011FA2946BE2000F042
:1015300019FA284600F0C0F90446284600F0BCF924
:10154000000200B2204308D5C043401CFFF72CF92D
:101550000022104BFFF720F805E0FFF725F90322E2
:10156000D243FFF7F9F8FFF7C5F9044601F056F941
:10157000014609A004F0ECFB2046FFF7A7F902465C
:101580000B46294606A004F0E3FB204670BD000090
:10159000EE0200000000B0BF5B25645D00000000AB
:1015A00044533138423230282564292074656D70E7
:1015B00020697320252E326620A1E3430D0A000026
:1015C00030B500221949032387B0012813D0052420
:1015D0000125240702281FD003281BD1C86A2843ED
:1015E000C862C86A284005900815009069460193B2
:1015F000029220460CE0CC6A02200443CC62C96A05
:101600000193014005910820009002926946084824
:1016100001F036F807B030BDC86A2843C862C86A0E
:10162000C007C00F059001204002DEE70010024015
:101630000004005010B500230122194986B001288A
:1016400012D00524240702281FD003281BD1C86A02
:101650001043C862C86A104005900815009069469A
:101660000193029220460CE0CC6A02200443CC6233
:10167000C96A0193014005910820009002926946D1
:10168000084800F0FDFF06B010BDC86A1043C862EC
:10169000C86AC007C00F059001204002DEE70000C5
:1016A000001002400004005010B501221849022326
:1016B00086B0012812D00524240702281ED0032852
:1016C0001AD1C86A1043C862C86A1040059008154C
:1016D000009069460393019220460BE0C86A1843C4
:1016E000C862C86A694618400590082000900393B4
:1016F0000192084800F0C4FF06B010BDC86A10434C
:10170000C862C86AC007C00F059001204002DFE729
:10171000001002400004005070B50024012806D0DB
:1017200005252D0702282AD003284ED074E0012079
:10173000FFF780FF394D04E0641CE4B2012000F0A3
:10174000ABF90821284601F05DF8002802D0642C8E
:10175000F2D35FE0642C5DD2002404E0641CE4B2A8
:10176000012000F099F90821284601F04BF80028E3
:1017700002D1F02CF2D34DE0F02C4BD24CE0022001
:10178000FFF758FF0126760204E0641CE4B2012052
:1017900000F082F93146284601F034F8002802D0E2
:1017A000642CF2D336E0642C34D2002404E0641CB0
:1017B000E4B2012000F070F93146284601F022F829
:1017C0000028D9D1F02CF2D324E00320FFF732FF18
:1017D0000126B60204E0641CE4B2012000F05CF9CA
:1017E0003146284601F00EF8002802D0642CF2D3CE
:1017F00010E0642C0ED2002404E0641CE4B201204A
:1018000000F04AF93146284600F0FCFF0028B3D129
:10181000F02CF2D3012070BD002070BD00040050F8
:1018200070B5012806D005242407022813D0032808
:101830002BD025E00120FFF737FF1E4C00220821A6
:10184000204600F0E4FF0A2000F026F90120FFF70F
:10185000F1FE08210EE00220FFF726FF01256D02B0
:1018600000222946204600F0D2FF0A2000F014F999
:10187000022018E0204600F0C5FF012817D0002202
:101880002D2000F009F9104670BD0320FFF70CFF72
:101890000125AD0200222946204600F0B8FF0A20AB
:1018A00000F0FAF80320FFF7C5FE2946E2E701221F
:1018B000E6E700000004005070B5002506462C46FF
:1018C0003046FFF7ADFFA0402843641CE4B2C5B228
:1018D000082CF5D3284670BD70B51A4D012814D0D8
:1018E00005242407022825D0032822D1FFF7DCFE97
:1018F00000220126B6023146204600F088FF284625
:1019000000F0CAF8012231460DE00120FFF7CCFEBD
:101910000D4C00220821204600F079FF284600F0F7
:10192000BBF801220821204600F071FF0F2000F0D3
:10193000B3F870BD0220FFF7B7FE00220126760241
:10194000D9E70000EE0200000004005010B5044684
:10195000FFF7C2FF2046FFF7DFFE2146CC2000F054
:1019600001F810BDF8B5044601291FD005252D0743
:10197000022949D0032946D10320FFF795FE00260E
:101980000127BF02E007C00F640800286BD00022C7
:101990003946284600F03BFF082000F07DF8012280
:1019A0003946284600F033FF3A206AE00120FFF76D
:1019B0007BFE384E0025E007C00F640800280ED0DB
:1019C00000220821304600F022FF082000F064F8D1
:1019D00001220821304600F01AFF3A200DE00022D3
:1019E0000821304600F013FF462000F055F8012290
:1019F0000821304600F00BFF022000F04DF86D1C6E
:101A0000EDB2082DD7D3F8BD0220FFF74DFE00261A
:101A100001277F02E007C00F640800280ED00022D3
:101A20003946284600F0F3FE082000F035F8012280
:101A30003946284600F0EBFE3A200DE000223946F8
:101A4000284600F0E4FE462000F026F80122394640
:101A5000284600F0DCFE022000F01EF8761CF6B2EC
:101A6000082ED7D3F8BD00223946284600F0CFFE15
:101A7000462000F011F801223946284600F0C7FE42
:101A8000022000F009F8761CF6B2082E00D279E7A1
:101A9000F8BD00000004005006E00021491CC9B256
:101AA0000429FBD3401E80B20028F6D1704710B540
:101AB0000120800300F0D8FD10BD000010B586B0F5
:101AC000044614216846FEF772FB1C48C26A0221D4
:101AD0000A43C262C06A1A4A08400590480300904F
:101AE0000020002C06D0012C10D0022C11D0032C89
:101AF00014D016E00321019102906946104600F0CF
:101B0000BFFD072001F03EFA06B010BD0D4901915E
:101B100002E00D4801900120029002E00B48029182
:101B200001906946104600F0ABFD0022022107201B
:101B300001F03CFA072001F02FFAE5E7001002401F
:101B400000040050000031100000211000001110AE
:101B50007047000010B5084900224A6107494B68E8
:101B60004C1523434B604B68082423434B60C0094A
:101B7000C001026010BD0000A40600200020024049
:101B800010B5214A00219069C305204804D5416958
:101B9000022319434161911593699B0505D543695A
:101BA0000124234343616302194393695B0505D50F
:101BB0004369082423434361E301194393691B05E7
:101BC00005D54369042423434361630219439369A0
:101BD0009B0405D5436910242343436163021943E1
:101BE00093699B0304D5446920231C434461194332
:101BF0009369DB0305D54369402423434361A00275
:101C00000143916110BD000000200240A4060020A5
:101C100070B5054600F002FE0646184C0AE0681C46
:101C200008D0002D04D000F0F9FD801BA84201D996
:101C3000032070BDA069C007F1D1A069800701D55C
:101C40000220A061A069C00511D4A06980050ED44E
:101C5000A06940050BD4A069000508D4A0698004E0
:101C600005D4A069800302D4A069C00303D5FFF79F
:101C700087FF012070BD002070BD000000200240E1
:101C800070B50C46054600F0A7FC084A0020946099
:101C900021C20749054800F037FC002803D005A001
:101CA00004F056F8FBE700F06BFC70BDFC0400206C
:101CB0000C0000206572726F7220696E204572619F
:101CC0007365206F7065726174696F6E0A0D000034
:101CD000F8B516460F460446002500F07DFC0DE0E1
:101CE000A8003A582146022000F058FC002803D0F2
:101CF00005A004F02DF8FBE7241D6D1CB542EFDBB9
:101D000000F03EFCF8BD00006572726F7220696ED3
:101D1000205772697465206F7065726174696F6EA7
:101D20000A0D0000016802484160406870470000E9
:101D30000C00002000B587B014216846FEF737FA82
:101D40000A48C26A02210A43C262C06A084005907A
:101D5000880200900320019000200290052069462F
:101D6000000700F08DFC07B000BD0000001002402D
:101D700000B587B014216846FEF719FA0B48C26A0D
:101D800002210A43C262C06A08400590880200909E
:101D90000020019001200290032003900520694655
:101DA000000700F06DFC07B000BD0000001002400D
:101DB00000B587B014216846FEF7F9F90948C16AF1
:101DC00001221143C162C06A6946104005901003A8
:101DD00000900320019000200290034800F050FC86
:101DE00007B000BD001002400004005000B587B0ED
:101DF00014216846FEF7DBF90A48C26A01210A434A
:101E0000C262C06A0191084005900803009000205A
:101E10000290032003906946034800F031FC07B0AC
:101E200000BD0000001002400004005010B502F098
:101E30006DFD0149486010BD1400002070B502F02E
:101E400065FD0C4C00252060616888420ED0401A68
:101E5000FEF798FC0849096AFEF7ADFAFEF7C6FCE2
:101E60000649A06040180649884200D3A560A068D2
:101E700070BD0000140000205404002088130000EE
:101E800011270000F8B5054604464035287C002699
:101E9000012808D001202874206881688907890FEB
:101EA00001290ED101E00220F8BD0168C90708D060
:101EB000606D2021084360650126002028743046AB
:101EC000F8BD616DFF220132914302221143616529
:101ED000C1688907890F0091C16889088900C160BC
:101EE0002068816892071143816000F097FC0746E3
:101EF0000EE000F093FCC01B0A2809D9606D022196
:101F00008843102108436065002028740120F8BD33
:101F1000206880680028ECDB2068C168009A1143C3
:101F2000C160606D80088000401C6065C5E70000EE
:101F3000F8B506460D464036317C01290DD0012109
:101F4000317401688A68520709D5416D2022114316
:101F50004165002030740120F8BD0220F8BD174B08
:101F60006A68D80547109A42154C8A6A2B6812D0C5
:101F70005B035B0B1A438A622968490305D5A16894
:101F80000143A1600A20FFF7CDF92868800312D52C
:101F9000A06838430EE05B035B0B9A438A622968B2
:101FA000490302D5A1688143A1602868800302D556
:101FB000A068B843A06000203074F8BD0110000094
:101FC000002701400068006C7047000070B50400F5
:101FD00006D0606D264600254036002802D006E077
:101FE000012070BDA5653574204600F0D3F8606D02
:101FF000C00603D421688868400705D5606D1021AC
:10200000084360653574EBE7606DFF220132904351
:1020100002221043606588688207920F5B48012A9C
:1020200002D10A68D2072BD1032362689B079A4228
:1020300005D05B429A4202D05B009A4209D10A69FC
:10204000920092080A6121680A6963681A430A616A
:102050000CE00A69920092080A6181680F229204DA
:102060009143816081686268114381602168CA6818
:1020700018239A43CA602168CA68A3681A43CA60D1
:10208000816801225206914381608168A28E5206C6
:102090001143816020688168C90004D481680122ED
:1020A0001207114381602068C168394A1140C1603C
:1020B0002069E168022825D0002001432046203015
:1020C0000278037B52035B001A431143226B1143D6
:1020D000A26992031143E269D20311432268D368D3
:1020E0001943D160616A0A46FF3AC23A05D0A26A32
:1020F00011432268D3681943D16042780121012A33
:1021000002D00BE00420D8E70078002823D0606DCF
:10211000202210436065A06D0843A065E06B012894
:1021200020681FD00169C90703D001694908490027
:10213000016120684169C908C9004161206841699D
:10214000A26B11434161A565606D80088000401C51
:102150006065002070BD2068C26801231B041A431B
:10216000C260DBE70269FF239B009A43026120689B
:102170000269236CA66C1A43636C33431A430261F1
:10218000206802690A430261D3E70000002701408A
:102190001902FEFF10B586B0044614216846FEF70A
:1021A00006F80E492068884215D10D48416B42154A
:1021B00011434163C26A01210A43C262C06A0091AD
:1021C00008400590032001900020029005206946F8
:1021D000000700F055FA06B010BD000000240140D1
:1021E00000100240F8B504464069254640350E46C9
:1021F00008280BD02068C068C00709D0606D202176
:1022000008436065002028740120F8BD082700E01D
:102210000C2700F003FB009011E0701C0FD0002E83
:1022200005D000F0FBFA0099401AB04207D9606D62
:10223000042108436065002028740320F8BD20684D
:1022400000683842E9D0606D0121490208436065A9
:102250002068C16809058A0F0C21002A1BD12022A1
:10226000125D002A17D10268120714D5826853073D
:102270000122002B08DB43688B434360606D13022F
:1022800098431043606506E0606D20231843606545
:10229000A06D1043A065A069002801D120680160ED
:1022A0000020F8BD70B50446216800208968490700
:1022B00021D425464035297C01291CD001212974CF
:1022C000E169012904D02046FFF73EF8002811D12A
:1022D000616D0A4A1140FF220132114361650021FC
:1022E000A165297422681C21116021688A68042371
:1022F0001A438A6070BD022070BD0000FEF1FFFF2E
:1023000070B50024014620314A79022A03D0042105
:10231000C163012418E0026813680E25AB43136003
:10232000026813685B085B001360436C1C22134057
:10233000012215469D40036C5D604A7100220A71BE
:10234000816B002900D08847204670BDF0B4016C35
:102350000D6801680C68466C1C2304221E40174659
:10236000B7402F420ED067070CD50C68A40602D4E4
:102370000C6894430C60416C19408A40016C4A60BF
:10238000016B1AE00227B74002462F402032002F8F
:1023900017D0A70715D50C68A40605D40C680A2524
:1023A000AC430C6001215171446C02211C40036C50
:1023B000A140596000211171C16A002918D0F0BCF8
:1023C00008470827B7402F4212D0240710D50C68C1
:1023D0000E25AC430C60446C01211C400B46A3400D
:1023E000046C6360C163517100211171416BE4E7BA
:1023F000F0BC704770B504003CD01F48256814211C
:102400002818FDF775FE800060641C4820640221D6
:10241000204620300246417129681948E36801408E
:10242000A06866691843236933431843A3691843B6
:10243000E3691843236A1843084328600121A06810
:102440008903884210D00D488030836A656C1C2156
:102450000D400F26AE40B3438362656C63680D4048
:10246000816AAB400B4383620020E063012151711C
:10247000107170BD012070BDF8FFFDBF000002406B
:102480000F80FFFFF8B504468C4620300179002507
:10249000012909D00126067141790027012905D0BB
:1024A000077102252846F8BD0220F8BD02214171BE
:1024B000E7632068016849084900016061462046D9
:1024C000FEF7F2FF206B00282068016801D00E2281
:1024D00005E0042291430160206801680A2211434B
:1024E00001602068016831430160DBE770B5044694
:1024F00000F094F90546601C00D0641C00F08EF9D1
:10250000401BA042FAD370BDF8B51A4E0546307C88
:102510000F46012807D0012030741748FFF778FBD9
:10252000010002D021E00220F8BD0020C043386045
:102530006C6814E02046FFF70DFB0F48FFF768FBBF
:1025400001460E48426808239A4342604268431598
:102550009A434260002901D03C6006E08034A868BC
:102560006A68C0018018A042E4D800203074084690
:10257000F8BD0000A406002050C300000020024067
:10258000054841680222114341604168012211431C
:10259000416000207047000000200240F8B50C4C5C
:1025A0001646207C0F46012808D0012020740948D7
:1025B000FFF72EFB0025002802D006E00220F8BD20
:1025C00065613E600348FFF723FB2574F8BD0000FA
:1025D000A406002050C3000011484168C9070BD071
:1025E000EFF3108172B60F4AC2600F4AC26081F3E6
:1025F00010884168C9070ED1416889070DD5EFF3EE
:10260000108172B6094A0261094A026181F3108899
:102610004068800701D50120704700207047000006
:1026200000200240EFCDAB8905040302BFAE9D8CB4
:1026300016151413012110B5890388420CD10748DF
:1026400001218171064801708168491C816005493A
:102650000020887302F00EFB10BD00000000002077
:10266000540400203804002010B504494A6902428D
:1026700002D04861FFF7DEFF10BD000000040140FA
:10268000F8B500230124A7E027469F403A4070D0C8
:102690004D68022D01D0122D14D1DD08AD002D188A
:1026A00000952D6A5E07AC46F50E0F26AE46AE408D
:1026B0006546B543AC460E697546AE4065462E4349
:1026C000009D2E624D68012D05D0022D03D0112DE5
:1026D00001D0122D16D185680326AC465D00AE46AA
:1026E000AE406546B543AC46CE687546AE406546DD
:1026F0002E43866046680D79BE43ED06ED0F9D4082
:102700003543456006685F000325BD40AE46AE43D5
:102710000D79B446AE07B60FBE4065462E4306603F
:10272000C6687546AE438D68BD403543C5604D688B
:10273000ED0050D52B4D6E6B26436E639E082A4DDF
:10274000B6007519AC46AD689E07360F0F27B74027
:10275000BD4305273F07B84201D100271AE0234FA8
:10276000B84201D1012715E0214FB84202D102271A
:1027700010E030E01F4FB84201D103270AE01E4F9E
:10278000B84201D1042705E01C4FB84201D105270A
:1027900000E00627B7402F436546AF60184D2E680E
:1027A0004F689643FF0300D516432E606E684F684E
:1027B0009643BF0300D516436E60AE684F689643DC
:1027C000FF0200D51643AE60EE684F689643BF0225
:1027D00000D51643EE605B1C0A681546DD4000D04C
:1027E00052E7F8BD00100240000001400004005014
:1027F00000080050000C005000100050001C005059
:10280000000401400069084000D001207047002A00
:1028100001D0816170478162704700000148006803
:10282000704700002000002070B502464032537807
:10283000202B1CD11378012B19D0012313702424D1
:102840005470046825689D432560046825681E034C
:10285000B5432560046825680D432560006801685C
:1028600019430160202050700020107070BD0220BC
:1028700070BD70B5024640325378202B1BD11378BF
:10288000012B18D0012414702423537003681D6891
:10289000A5431D6005682B680F263602B343090265
:1028A00019432960006801682143016020205070AD
:1028B0000020107070BD022070BD406C7047000099
:1028C00070B5040006D025464035687800260028FB
:1028D00002D005E0012070BD2E70204600F0AAFA5B
:1028E00024206870206801684908490001600F21B0
:1028F0006068090688432168086121688A680120A8
:10290000C00382438A60E1680129A16808D02122BE
:102910009202114322689160E168022902D005E029
:102920000143F7E701212268C902516021684A6822
:102930000F4B1A434A602168CA688243CA606169C2
:1029400020690843A169090208432168C860216A17
:10295000E06908432168086020680168012211438A
:1029600001606664202068702663AE70002070BD30
:1029700000800002FFB5054604464035687881B006
:10298000202878D12878012875D001202870FFF7F9
:1029900045FF0746012200901923D103204602F08B
:1029A000B3F800283CD1222068701020A8700026BF
:1029B000666403986062049860856663618D2F4841
:1029C000FF2903D9FF22228500903BE0618D2185FC
:1029D00000903DE02046029902F082F816E002F0F5
:1029E000BBF800281CD12068406A616A0870606AE0
:1029F000401C6062208D401E81B22185608D401E8A
:102A00006085608D002801D000290CD0608D0A9966
:102A100000283A462046E2D102F0DEF800281CD019
:102A2000012005B0F0BD00970022802120460A9BBE
:102A300002F06AF80028F3D1608DFF2805D9FF2243
:102A40002285009601231B06C4E7608D2085009631
:102A5000208D0123C2B25B06BCE721682020C8613B
:102A600021684A68064B1A404A606870AE702E7042
:102A70000020D6E7FFE70220D3E700000024008013
:102A800000E800FEFFB5054604464035687881B091
:102A9000202878D12878012875D001202870FFF7E8
:102AA000BDFE0746012200901923D103204602F003
:102AB0002BF800283CD1212068701020A870002637
:102AC000666403986062049860856663618D2F4830
:102AD000FF2903D9FF22228500903BE0618D2185EB
:102AE00000903DE02046029901F0FAFF16E002F066
:102AF00099F800281CD1606A216800788862606AB1
:102B0000401C6062608D401E6085208D401E80B23A
:102B10002085618D002901D000280CD0608D0A9994
:102B200000283A462046E2D102F056F800281CD090
:102B3000012005B0F0BD00970022802120460A9BAD
:102B400001F0E2FF0028F3D1608DFF2805D9FF22B4
:102B50002285009601231B06C4E7608D2085009620
:102B6000208D0123C2B25B06BCE721682020C8612A
:102B700021684A68064B1A404A606870AE702E7031
:102B80000020D6E7FFE70220D3E700000020008006
:102B900000E800FEFFB5054604464035687883B07E
:102BA000202875D10C98002814D00D98002811D039
:102BB000287801286CD001202870FFF72FFE0746E7
:102BC000012200901923D103204601F09DFF002827
:102BD00074D103E00120400260646FE0222068703D
:102BE0004020A870002666640C9860620D9860858D
:102BF00066630E980090019704A90EC9204601F063
:102C00000FFF002801D02E7058E0618D3448FF2955
:102C100005D9FF22228501231B06009006E0618D65
:102C200021850090208D0123C2B25B0620460499C5
:102C300001F056FF00970022042120460E9B01F070
:102C400063FF00283AD12068406A616A0870606AB0
:102C5000401C6062208D401E81B22185608D401E27
:102C60006085608D00281FD000291DD100970022AB
:102C7000802120460E9B01F047FF00281ED1608D69
:102C8000FF2806D9FF22228501231B06009607E0B4
:102C900024E0608D20850096208D0123C2B25B0662
:102CA0002046049901F01CFF608D0028C2D13A46ED
:102CB00020460E9901F090FF002802D0012007B0B5
:102CC000F0BD20682021C16120684268054B1A4090
:102CD00042606970AE702E700020F0E70220EEE7CF
:102CE0000024008000E800FEFFB50546044640359C
:102CF000687883B0202872D10C98002814D00D98E1
:102D0000002811D02878012869D001202870FFF709
:102D100085FD0746012200901923D103204601F0CA
:102D2000F3FE002871D103E00120400260646CE0F2
:102D3000212068704020A870002666640C986062AC
:102D40000D98608566630E980090019704A90EC9DE
:102D5000204601F095FE002801D02E7055E0608DD0
:102D6000FF2805D9FF22228501231B06009606E0D5
:102D7000608D20850096208D0123C2B25B0620461F
:102D8000049901F0ADFE3A4620460E9901F04AFF43
:102D900000283AD1606A216800788862606A401C25
:102DA0006062608D401E6085208D401E80B220854F
:102DB000618D00291FD000281DD10097002280219D
:102DC00020460E9B01F0A0FE00281ED1608DFF283A
:102DD00006D9FF22228501231B06009607E024E086
:102DE000608D20850096208D0123C2B25B062046AF
:102DF000049901F075FE608D0028C4D13A46204642
:102E00000E9901F0E9FE002802D0012007B0F0BDC4
:102E100020682021C16120684268054B1A40426049
:102E20006970AE702E700020F0E70220EEE700001F
:102E300000E800FE10B586B0044614216846FDF790
:102E4000B6F910492068884219D10F4CE16A022076
:102E50000143E162E16A01400591C0200090122027
:102E600001210190032002910491039069460748D3
:102E7000FFF706FCA06B012149050843A06306B0DB
:102E800010BD00000054004000100240000400503B
:102E900070B504000FD021681348086021681348FA
:102EA000086003CC41602068083C21688860FFF717
:102EB000B5FC054608E0012070BDFFF7AFFC401BE4
:102EC000302801D9032070BD2068C0680028F4D1E3
:102ED00020680269E1688A4201D0016101E0044989
:102EE0000160002070BD0000CCCC000055550000F2
:102EF000AAAA000000680249016000207047000093
:102F0000AAAA000002480168491C0160704700003D
:102F10002000002010B50848002401684022114319
:102F20000160204600F00AF8002801D0012401E0E9
:102F300000F01CF8204610BD0020024070B5054688
:102F400009487D210024C9000068FDF7D1F800F090
:102F5000C5FF002801D0012404E000222946501EAC
:102F600000F024F8204670BD240000200448416B86
:102F7000012211434163816B020411438163704755
:102F800000100240C106C90E0120884001490860B6
:102F90007047000080E100E0C106C90E01208840B2
:102FA000014908607047000000E100E010B502F040
:102FB0008FF910BD02480168021511430160704786
:102FC00000700040024801684215114301607047DB
:102FD000007000400248016882151143016070478B
:102FE000007000400A4B1A689208920002431A606F
:102FF00008480369042213430361012906D040BF36
:1030000020BF20BF016991430161704730BFF9E7DC
:103010000070004000ED00E0F8B5044600785E4D19
:10302000800672D55C4E0027403EB06BC00004D4D1
:10303000B06BA9050843B063012758480168C9056A
:1030400011D40168821511430160FFF7E7FB00907E
:1030500005E0FFF7E3FB0099401A642837D84F4892
:103060000068C005F5D532680321090560680A408B
:103070000140914208D08103890F032904D13168AE
:10308000890301D50120F8BD2A69032109040A40FA
:1030900022D0084090421FD0207880061CD5286995
:1030A0002A6988430121C9040A432A612A698A439B
:1030B0002A612861C0050FD5FFF7B0FB009008E03A
:1030C000FFF7ACFB0099411A3548814201D9032032
:1030D000F8BD28698005F3D561688803800F03284F
:1030E00005D132680005824301400A4332602869F5
:1030F000032261681204114008432861002F04D0A4
:10310000B06B012109078843B0632078C00705D060
:10311000E868A168800880000843E860207880079C
:1031200005D5E8680C218843E1680843E860207809
:10313000400706D5E86803218902884321690843CE
:10314000E8602078000706D5E86803210903884372
:1031500061690843E8602088C00506D5E868032156
:1031600009048843A1690843E8602078400606D531
:10317000E868012189068843216A0843E8602078CD
:10318000000606D5E868032189048843E1690843FD
:10319000E8600020F8BD00004010024000700040D0
:1031A00088130000F8B50E4605007DD0534800682E
:1031B000C007C00FB0420AD2504801684908490010
:1031C000314301600068C007C00FB04271D1287858
:1031D0004B4C800705D5E068F0218843A968084377
:1031E000E0602878C00752D06868022817D003280A
:1031F00018D02168012818D08905002959DAE1681A
:10320000890889000143E160FFF708FB6968074608
:10321000022912D003291CD0012926D033E02168CD
:103220008903EAE721688901E7E74907E5E7FFF74E
:10323000F5FAC11B3348814223D8E0680007800FAC
:103240000228F4D123E0FFF7E9FAC11B2D4881429F
:1032500017D8E0680007800F0328F4D117E0FFF7C4
:10326000DDFAC11B274881420BD8E0680007800FB8
:103270000128F4D10BE0FFF7D1FAC11B21488142AC
:1032800001D90320F8BDE0680007800FF3D11B4887
:103290000168C907C90FB1420DD901684908490041
:1032A00031430160006800E003E0C007C00FB04296
:1032B00001D00120F8BD2878400706D5E068072135
:1032C00009028843E9680843E0602878000707D5C9
:1032D000E0680721C90288432969C9000843E06002
:1032E00000F036F8E168084A0906090F515CC84049
:1032F000064908600020FFF721FEF8BD00200240CB
:103300000010024088130000FC9C000824000020EC
:10331000044805490068C968044A4905490F515CD9
:10332000C84070472400002000100240159D00088E
:10333000044805490068C968044A8904490F515C7A
:10334000C84070472400002000100240159D00086E
:1033500010B5184AD1680C20084004280BD0082862
:1033600010D00C2810D050680004410F0120C00379
:10337000491C884010BD1068C00601D50E4810BD1C
:103380000E4810BD0E4810BD88020E4B000F185C91
:103390000902D368890F491CDB0301D5084A05E0FF
:1033A0001268D20601D5044A00E0044A5043FCF7F3
:1033B0009FFE10BD0010024000093D000024F400F3
:1033C00000127A000C9D0008FEB505007ED0F94C75
:1033D000E7680C20E66807400120000406402878D2
:1033E000C00747D0082F05D00C2F0AD101200004B8
:1033F000864206D1206880033CD568680028E5D065
:1034000038E0012069680004814203D1216801434A
:10341000216011E0052301221B04920499422168D6
:1034200002D111432160F1E781432160216801400D
:103430000091206890432060686800280DD0FFF755
:10344000EDF9009005E0FFF7E9F90099401A6428CA
:103450007ED820688003F6D50CE0FFF7DFF90090F6
:1034600005E0FFF7DBF90099401A6428F0D82068DE
:103470008003F6D4287880075CD5E868810604D5F7
:10348000226820210A43226088430923042F0DD09B
:103490000C2F01D1002E09D000283BD02168994380
:1034A00001432160FFF7BAF9064627E02168490782
:1034B00001D500288AD061681F22120291432A692F
:1034C0001202114361602168994300E0C3E10143A6
:1034D0002160FFF73DFFE16809060A0FB649895CE4
:1034E000C840B64908600020FFF728FD002873D1C6
:1034F00020E0FFF793F9801B0228A9D82068400735
:10350000F7D560681F210902884329690902084329
:1035100060600FE02068400840002060FFF77EF9FF
:10352000064604E0FFF77AF9801B022890D820684D
:103530004007F7D42878C00660D5002F0DD0E86981
:1035400000284AD02068FF2101310843206000E0B4
:10355000E8E0FFF763F906462CE02068800502D515
:10356000E8690028A6D06068072149038843696A92
:10357000084360606068298C0002000A090608435D
:103580006060686A410B0120C003491C8840E16803
:1035900009060A0F8849895CC840884908600020EC
:1035A000FFF7CCFC002817D128E0FFF737F9801B84
:1035B0000228A2D820688005F7D560680721490352
:1035C0008843696A084360606068298C0002000AC9
:1035D00009060843606011E023E12168FF20013003
:1035E00081432160FFF71AF9064604E0FFF716F958
:1035F000801B02289AD820688005F7D42878704E5E
:10360000000724D568690028306910D001210843DB
:103610003061FFF703F9009005E0FFF7FFF800992C
:10362000401A02287ED830698007F6D50FE040089E
:1036300040003061FFF7F2F8009005E0FFF7EEF888
:103640000099401A02286DD830698007F6D428788E
:10365000400764D500200290A06BC00006D4A06B88
:10366000012109070843A063012002905548016821
:10367000C90511D40168821511430160FFF7CEF826
:10368000009005E0FFF7CAF80099401A642849D86D
:103690004C480068C005F5D5FF20AA680130824279
:1036A00003D131690143316111E001218902002A0E
:1036B00007D005231B029A4203D132690A433261C3
:1036C000EFE7326982433261306988433061A8682C
:1036D00000280ED0FFF7A2F8009006E0FFF79EF852
:1036E0000099411A384881421CD830698005F5D5C7
:1036F0000DE0FFF793F8009006E0FFF78FF80099D0
:10370000411A314881420DD830698005F5D40298BC
:10371000002804D0A06B012109078843A063287802
:10372000800600E07CE02ED52848A96943140029D2
:1037300016D0A26801210A43A260626B0A43626349
:10374000016A19430162FFF769F8064604E0FFF7D2
:1037500065F8801B022863D8A0688007F7D512E0BF
:10376000A16849084900A160016A99430162FFF715
:1037700055F8064604E0FFF751F8801B02284FD8A1
:10378000A0688007F7D4A86A002866D00C2F4DD017
:10379000012636060228206805D0B0432060FFF7D6
:1037A0003DF805463EE0B0432060FFF737F8074696
:1037B00013E0000000100240FC9C000824000020E0
:1037C00040100240007000408813000000000140DB
:1037D000FFF724F8C01B022822D820688001F7D404
:1037E000296BE86AE2680843696BFD231B049A436E
:1037F00011430843E060206830432060FFF70EF873
:10380000054604E0FFF70AF8401B022808D82068A4
:103810008001F7D521E0FFF701F8401B022801D90C
:103820000320FEBD20688001F5D416E00128F8D001
:10383000E06801210904EA6A014091420BD10F219D
:1038400089042A6B0140914205D103218905084072
:10385000696B884201D00120FEBD0020FEBD000042
:1038600010B50B48FFF746FB0A49087B002809D032
:1038700009480279521CD2B202710A2A02D10022EE
:103880000A7302710121122001F09AFC10BD0000A0
:10389000B8010020380400200000002010B50449C1
:1038A000002048710349887301F0E4F910BD00005D
:1038B000000000203804002070B5044600688168CC
:1038C0008025C90400290BDAC068C00508D5204648
:1038D000FFF7E4FF2168C8682840FF388238C860D5
:1038E0002068816889040BD5C068800508D520460A
:1038F000FFF7B6FF2068C168054A29408918C160F2
:10390000012004494004486101202034607070BDEA
:103910007FFDFFFF00040140F8B505460446203551
:10392000287801281DD001202870022068702268A4
:10393000CA205062226853205062FF2001300026C6
:10394000FF2781421CD121688A6882438A602068EF
:1039500081680122120391438160FEF75FFF0090AE
:1039600009E00220F8BDFEF759FF0099411A7D20B9
:10397000C00081421BD82068C068C007F3D020E097
:103980002068816801225202914381602068816829
:10399000120191438160FEF741FF00900DE0FEF7B8
:1039A0003DFF0099411A7D20C000814205D9206861
:1039B0004762032068702E70F8BD2068C0688007D9
:1039C000EDD520684762012068702E700020F8BD98
:1039D00010B500680B464068C021C9430140000291
:1039E000000ECC04D870E40E5C708C06A40E0904A2
:1039F000490F9C701970002A0AD101F0BFFCD870E1
:103A0000587801F0BBFC5870987801F0B7FC9870BA
:103A1000002010BD30B50B460168896A5960016805
:103A200009694904490C9960006804680F482146F7
:103A3000014088024D04800E18706D0E49065D70BD
:103A4000490E99706102490E40242140D970002A24
:103A50000AD101F093FC1870587801F08FFC58706F
:103A6000987801F08BFC9870002030BD7F7F7F003C
:103A7000F8B5040050D0254620356878002803D1D9
:103A80002870204600F052F8022068702168CA2091
:103A90004862216853204862204601F083FCFF26DB
:103AA00004270028206802D046626F7034E08168E5
:103AB0001D4A11408160216888686268A3691043CB
:103AC00022691A43104388602168E0680861206811
:103AD000016922891204114301612068C1688022B2
:103AE0009143C1602068C16C89088900C164E169A3
:103AF000606901432068C26C1143C164206880681A
:103B000080060BD4204600F0C7F9002806D02068B4
:103B100046626F70002028700120F8BD2068466260
:103B2000012068700020F8BDBFFF8FFF10B500684E
:103B3000084988420DD108480169012292041143C5
:103B40000161002211460220FFF730FA0220FFF740
:103B500023FA10BD0028004040100240FEB5064682
:103B60000446203630780B4601283ED001203070C4
:103B7000022070701846203000902068002780686E
:103B8000002A34D0400600D4DF7019789D780904EB
:103B90000D435978DA780902120411430D43009954
:103BA000D869097809060D430543586999690543A1
:103BB0005868084300902168CA2048622168532051
:103BC0004862FF205A6A01308021824245D1226832
:103BD0009368834393602068C2680A40FF3A823A40
:103BE000C260FEF71BFE019024E00220FEBD4006ED
:103BF00000D4DF70187801F0C9FB0504587801F093
:103C0000C5FB00020543987801F0C0FB0543D87856
:103C1000000405430098007801F0B8FB0006054356
:103C2000D869C1E7FEF7FAFD0199411A7D20C0006D
:103C300081422AD82068C068C007F3D02068C561D7
:103C400021680098486420688168FF22013211438E
:103C5000816020688168120130E020688268012359
:103C60005B029A4382602068C2680A401D4951186D
:103C7000C160FEF7D3FD01900EE0FEF7CFFD019984
:103C8000411A7D20C000814206D92168FF20486288
:103C9000032070703770FEBD2068C0688007ECD5C7
:103CA0002068056221680098886420688168012284
:103CB00052021143816020688168120111438160C2
:103CC00009480268012149040A43026082680A43E4
:103CD00082602168FF2048620120707037700020E8
:103CE000FEBD00007FFDFFFF00040140F8B5054662
:103CF0000446203528780B4601280FD00120287073
:103D000002206870002A0BD0D8789E780004064301
:103D10005878097800024903084317E00220F8BDEB
:103D20005878C10603D5EF2108400A305870D8787A
:103D300001F02CFB0604587801F028FB0002064332
:103D4000987801F023FB0643187840030643216866
:103D5000CA204862216853204862204601F022FBB5
:103D60000027002811D111480640206846602068CD
:103D7000C16880229143C1602068806880060CD4AD
:103D8000204600F089F8002807D02168FF2048620B
:103D9000042068702F700120F8BD2168FF20486260
:103DA000012068702F700020F8BD00003FFFFF0069
:103DB000F8B506460446203630780D46012822D054
:103DC0000120307002207070206800278068002A6F
:103DD0001BD0400600D4EF702978A8780904084366
:103DE0006978EA78090212041143084300902168B7
:103DF000CA204862216853204862204601F0D2FA66
:103E0000002837D116E00220F8BD400600D4EF703C
:103E1000287801F0BBFA0304687801F0B7FA0002D1
:103E20000343A87801F0B2FA0343E878000403439F
:103E30000093DCE717490098084021680860206873
:103E4000816801229204914381602969E8680843EE
:103E500021688A68104388602068C1688022914385
:103E6000C1602068806880060CD4204600F014F8F9
:103E7000002807D02168FF20486204207070377046
:103E80000120F8BD2168FF20486201207070377062
:103E90000020F8BD7F7F7F0070B504460068C168D0
:103EA000A0229143C160FEF7B9FC7D260546F600CD
:103EB00006E0FEF7B3FC401BB04201D9032070BD01
:103EC0002068C0688006F4D5002070BD02480169F2
:103ED000022211430161704700E000E0094910B57A
:103EE000401E884201D9012010BD074C60610321AA
:103EF000081F01F0EDF90020A061072020610020DB
:103F000010BD0000FFFFFF0000E000E00248016973
:103F1000022291430161704700E000E0F0B50246E3
:103F20002032137E012B15D00127177602235376FA
:103F300005686C68AB687026B4430E684968264310
:103F40008024A34319436E60006881605776002087
:103F50001076F0BD0220F0BD70B5040005D02546F6
:103F60002035687E002802D006E0012070BD0020C8
:103F70002876204600F00AF802206876211D206885
:103F800001F0B0FA01206876002070BD00680121C0
:103F90008907884204D10348816B01221143816360
:103FA0007047000000100240F8B505460446203571
:103FB000287E012817D001262E76022068762268F6
:103FC00090687727FF23B8431B02984390600A68E4
:103FD000502A31D00EDC202A4BD006DC002A48D0F3
:103FE000102A3AD145E00220F8BD302A41D0402ABB
:103FF00033D136E0602A27D0702A12D00120000386
:10400000121A2AD0824228D1CB684A68896820686F
:1040100001F09CFA206881680122920311438160BB
:104020001BE0CB684A688968206801F08FFA216834
:1040300088683843886010E0CA684968206801F0E1
:1040400098FA5021206806E0CA684968206801F0A3
:10405000A1FA6021206801F084FA6E7600202876AB
:10406000F8BDCA684968206801F083FA40212068D9
:10407000F1E711462068EEE7014660310A7C012A2B
:1040800009D001220A740068026802231A43026000
:10409000002008747047022070470000FEB50546F6
:1040A00004466035287C00269446012811D001235F
:1040B0002B7424206067206802689A430260276896
:1040C000B8680322120590430843B860002902D063
:1040D00015E00220FEBD6046009101902068416815
:1040E000102291436A4692881143416020684168DA
:1040F0006A4609029279090A120611434160206852
:10410000016819430160FEF789FB094900910346E4
:10411000012100228905204601F0E2FC002801D09F
:10412000032601E020206067002028743046FEBD91
:10413000FFFFFF017047000070B52C4901220423E6
:1041400002240825884226D10168CE69C06F042860
:1041500012D006DC002816D0012805D0022812D182
:1041600006E008280FD10BE0486A886A0A620AE074
:10417000486A886A0B6206E0486A886A0C6202E054
:10418000486A886A0D6200F03BFF0122184917480F
:1041900000F094F970BD17498842FBD10168CE69DF
:1041A000C06F042812D006DC002816D0012805D0E4
:1041B000022812D106E008280FD10BE0486A886A6D
:1041C0000A620AE0486A886A0B6206E0486A886AFE
:1041D0000C6202E0486A886A0D6200F0D5FF04496B
:1041E0000122C91E034800F0C5F970BDC8010020B6
:1041F0000300002048020020F8B502680446D06998
:104200001168936805072D0F5BD0DD07ED0FFF26C2
:1042100021360E402E4367D0C60706D0CE0504D502
:1042200001261662E26F3243E26787070222042604
:10423000002F06DADF0704D027683A62E76F3743BA
:10424000E767470706D5DB0704D023681E62E36FE4
:104250001343E367020709D520220A402A4305D009
:10426000236808221A62E36F1343E367E26F002AB0
:104270002FD0800606D5880604D5216E002901D0EE
:1042800020468847E06F21688968490601D4000705
:1042900024D5204601F095FA20688168490619D591
:1042A0008168402291438160E06E002812D020494D
:1042B0008163E06EFEF724F800280AD0E06E816B7F
:1042C00006E0850610D58D060ED5216E1CE0204631
:1042D0008847F8BD2046FFF72FFFF8BD2046FFF7BF
:1042E0002BFF0020E067F8BDC50208D55B0206D5AC
:1042F0000120000510622046FFF71CFFF8BD0306F1
:1043000005D50B0603D5616E0029E0D1F8BD400646
:10431000FCD54806FAD51368204640218B4313602C
:10432000202161670021616600F082FAF8BD00007B
:10433000E556000810B5040003D0606F002802D0D5
:1043400007E0012010BD002170200155204600F03B
:1043500027F8242060672068016849084900016047
:10436000204601F09FFA0128ECD0606A002802D0B4
:10437000204601F022F9206841680922D2029143C7
:104380004160206881682A22914381602068016829
:10439000012211430160204601F074F910BD0000B4
:1043A000F0B587B0064614216846FBF700FF3D4F85
:1043B00034683D480221012203230025BC424CD130
:1043C000846B4F043C438463C46A0C43C462C06A78
:1043D0006C460840059098020FC407200490694677
:1043E0003248FEF74DF9334C31482060A560E56056
:1043F0008027656127610520A56160602020E0615C
:104400000320000320622046FDF7F4FF002801D0BE
:10441000FDF79EFBF466A662264C25484834143806
:10442000206005206060214610200831A1C165612F
:10443000A56103200003E56120622046FDF7DAFF55
:10444000002801D0FDF784FBB466002201211D2065
:10445000A662FEF7ABFD1D201FE0174EB4421ED131
:10446000846B0126760434438463C46A1443C462B3
:10447000C06A6C46C007C00F05900C20039323C48C
:1044800004200490052069460007FEF7F9F8002291
:1044900001211C20FEF78AFD1C20FEF77DFD07B0E0
:1044A000F0BD000000480040001002400004005031
:1044B00030000240C802002000440040F8B5044625
:1044C000806F20284DD100290BD0002A09D001236C
:1044D000A0681B03984206D12069002803D1C807B1
:1044E00001D00120F8BD25466035287C012838D050
:1044F000012028745820616502530026E6672220B7
:10450000A067E06E002819D01749C162E16E174814
:104510000863E16E16484863E06E13468663676D74
:1045200021683A462431E06EFDF7ACFF002805D043
:104530001020E0672E7420206067D2E72E74206878
:104540000168FF2201321143016020688168012265
:1045500011438160206881684022114381600020FE
:10456000F8BD0220F8BD0000415700087F57000841
:10457000F9560008F0B5836F202B54D100290AD0DA
:10458000002A08D08568DC01A54206D10369002B0A
:1045900003D1CB0701D00120F0BD034660331E7C60
:1045A000012E40D001261E744165014640310A8328
:1045B0004A830022FF260266A54204D10569002D28
:1045C00013D11A4D0AE07F27002D09D001263607A6
:1045D000B5420CD10569002D05D03F258D8307E03C
:1045E0000569002D01D08F8302E08E8300E08A836D
:1045F000C2672221816701688D68012635438D607D
:104600008168A14202D1016900290AD008490166E6
:104610001A7400680168FF222132114301600020F2
:10462000F0BD0449F3E70220F0BD0000FF010000E7
:104630004B580008F3570008194A10B51949904221
:1046400019D11948C278012A0CD001231A46C91C75
:10465000164800F030F813490122C91C1048FFF732
:104660002DFF10BDCA7810490379491D5A540179AC
:10467000491C0171EFE70D4A9042F2D10C4B48788A
:104680000A781A54401C48700D2A01D00A2A01D118
:1046900001208870012203490448FFF76BFF10BD19
:1046A000C80100200000002054050020480200201E
:1046B000300000207047FFB50446406F83B01746B6
:1046C0000D4620285CD1002D0AD0002F08D0A1680B
:1046D000C001814207D12069002804D1E80702D037
:1046E000012007B0F0BD204660300290007C012818
:1046F00046D00298012101740020E0672120606704
:10470000FEF78CF8264640360190378277820120EA
:10471000A1680003814202D12069002802D02F46FF
:10472000002511E000270FE000228021204601F043
:10473000D7F9002815D1002F15D021683878886264
:104740007F1C708A401E7082708A019B0028069828
:104750000090E9D100224021204601F0C1F9002853
:1047600008D00320BDE728882168C005C00D8862F5
:10477000AD1CE6E720206067029900200874B0E7CE
:104780000220AEE7F8B50446406F202847D1002943
:104790000BD0002A09D00123A0681B03984206D140
:1047A0002069002803D1C80701D00120F8BD2546A3
:1047B0006035287C012832D0012028742046403002
:1047C000E164028242820026E66721206067A06ED3
:1047D000002819D01349C162A16E13480863A16E65
:1047E00012484863A06E134686632768E16C3A4618
:1047F0002832A06EFDF746FE002805D01020E067A5
:104800002E7420206067D0E72168402008622E7453
:10481000206881688022114381600020F8BD022059
:10482000F8BD000089570008B9570008F95600087C
:10483000704770477CB506461A484168C943090766
:10484000FBD4194C606B6515284360630021174841
:10485000FDF718FB1648009016480190694613486A
:10486000FDF766FBA0140190694600960F48FDF71E
:104870005FFB0E48FDF716FD0021C9430B48FDF70D
:10488000B1FC0A48FDF79EFB084980B20A689368AC
:10489000022633439360096803220A60616BA943CF
:1048A00061637CBD00700040001002405C0100208C
:1048B000FFFF07000110000038B50B231B07C518C8
:1048C000114B0FD01C152D1B18D02D1B19D0A54234
:1048D000DD6A05D108242543DD62DB6A234007E059
:1048E0008024F8E7DC6A01252C43DC62DB6A2B407C
:1048F000009311601146FDF7C3FE38BDDD6A022446
:10490000E9E7DD6A0424E6E700100240F8B501217A
:1049100005200022C9020007FDF779FF00240126C7
:10492000194F360331463846FDF76CFF0028F9D1A0
:10493000002501220527D6023F0731463846FDF7FC
:1049400066FF6400002231463846FDF760FF7100C3
:104950000D48FDF757FF012800D1641C6D1CEDB216
:10496000182DE6D301220526D50236072946304602
:10497000FDF74DFF28034440002229463046FDF74D
:1049800046FF2046F8BD000000040050FEE7016825
:104990008A69D243920701D400228A620068816941
:1049A000C943C90703D0816901221143816170475E
:1049B000F7B5044600680E468069C043C0062BD494
:1049C00020272546403520688069C043800612D5DF
:1049D000701CF8D0FDF722FF0299401AB04201D8AE
:1049E000002EF0D1606C384360646F700020A870B6
:1049F00028700120FEBD21681020C8612068C761B1
:104A00002046FFF7C4FF20684168044A1140416016
:104A1000606C04210843E7E70020FEBD00E800FECB
:104A2000F8B50446164615481D46DAB20090079FB1
:104A30000023204600F054F83A462046069900F03C
:104A4000F1F8002818D12846F5B2012809D02168CC
:104A5000300A88623A462046069900F0E3F80028BA
:104A60000AD1206885620097002240212046069BDB
:104A700000F04AF8002800D00120F8BD0020008096
:104A8000F8B50446164615481D46DAB2C302009032
:104A9000079F204600F024F83A462046069900F089
:104AA000C1F8002818D12846F5B2012809D021689C
:104AB000300A88623A462046069900F0B3F800288A
:104AC0000AD1206885620097002280212046069B3B
:104AD00000F01AF8002800D00120F8BD0020008066
:104AE000F0B50668059C7568064F600D3843854330
:104AF0008805800D11040843184320430543756061
:104B0000F0BD0000FF63FF03F8B51D4617460E46D3
:104B1000044609E0681C07D0FDF780FE0699401A9C
:104B2000A8420BD8002D09D02068816930468843FF
:104B30000FD00020B842EDD00020F8BD616C2020DD
:104B400001436164403460700020A0702070012037
:104B5000F8BD0120EEE70000F7B500272026054646
:104B60000446403528E02046029A0199FFF720FFCD
:104B7000002801D00120FEBD20688069C043800666
:104B800011D420688169C943490702D4218D0029C5
:104B900017D1C661206841680E4A114041606764C0
:104BA0006E70AF7013E0FDF739FE0299411A01985B
:104BB000814208D8002806D020688069C043400799
:104BC000D1D40020FEBD606C304360646E702F70E5
:104BD000D0E7000000E800FE70B516460D4604461A
:104BE0000FE0324629462046FFF7E2FE002801D0BA
:104BF000012070BDFDF712FE801BA84208D8002DD1
:104C000006D020688069C0438006EAD4002070BDC9
:104C1000616C202001436164403460700020A0700A
:104C20002070E5E770B516460D46044611E03246A1
:104C300029462046FFF7BCFE002801D0012070BDA8
:104C4000681C06D0FDF7EAFD801BA84208D8002D9D
:104C500006D020688069C0438007E8D4002070BD7A
:104C6000616C202001436164403460700020A070BA
:104C70002070E3E702480168042211430160704795
:104C80000070004070B50C4CA06B25042843A06355
:104C9000FEF798F9FEF78EF9E06869130843E060C3
:104CA000A06B2843A063FFF731F901210846FEF706
:104CB00099F9FFF70BF970BD0010024030B587B0CD
:104CC00000F05CF92DA0006805900020039004908E
:104CD00004F018FF7D24012505A8E40000902B4670
:104CE0000022C421019502942548FDF7FDFF04F040
:104CF00009FF2449884236D203A8009001230F22DD
:104D0000C521019502941E48FDF744FF04A80090B8
:104D100001231022C521019502941948FDF73AFF9D
:104D20006846007B01026846007C081884B27D203A
:104D3000400184420BD9FDF771FD014612A001F03C
:104D400007F813A001F004F8184807B030BDFDF7CC
:104D500065FD01460CA000F0FBFF214614A000F009
:104D6000F7FF2046F1E7FDF759FD014606A000F0E8
:104D7000EFFF14A000F0ECFF1948E6E70400000084
:104D8000080500200F2700005B25645D000000007F
:104D900044697374616E6365206973206F75742054
:104DA0006F662072616E67650D0A0000FFFF0000EC
:104DB00044697374616E6365203D2564636D0D0AFB
:104DC000000000006C696461725F6C697465206941
:104DD00073206E6F7420636F6E6E6563740D0A00CE
:104DE000FF0F00001CB5002118480091164A0191E0
:104DF0000260C163816001248163520504614260E5
:104E00000246C16020321170FF235170C2334362E9
:104E10008162117301638161042241634261C16156
:104E2000FDF7D4F8002801D0FCF792FE0120000322
:104E30000190694600940548FDF77AF8002801D0F2
:104E4000FCF786FE1CBD0000002401405C01002030
:104E500008B50848016B012211430163006B104043
:104E60000022009011460A20FEF7A0F80A20FEF763
:104E700093F808BD00100240F0B587B014216846D1
:104E8000FBF795F93648C26A04210A43C262C26A36
:104E90000A400592C26A80210A43C262C26A0A407D
:104EA0000592C16A01263143C162C16A3140059150
:104EB000C26A02210A43C262C06ACF01084005905B
:104EC0000520002239460007FDF7A1FC0122202120
:104ED0002448FDF79CFC7003032400256A4631C278
:104EE00069462148FDF7CCFB009469461F480295AE
:104EF0000194FDF7C5FB1E486A4631C2052069468C
:104F00000007FDF7BDFB1B486A4631C269461548DC
:104F1000FDF7B6FBB0030090174801906946029573
:104F20001048FDF7ADFB0520694600070097019684
:104F300002950394FDF7A4FB20200090112001901E
:104F40006946029603940748FDF79AFB0022022166
:104F50000720FEF72BF80720FEF71EF807B0F0BD7C
:104F6000001002400004005000080050001C0050D7
:104F7000F29E0000DFB300000000211010B51348BE
:104F80001149016012494160002181600161416164
:104F900081610122C161C2600162FDF791FC0028BC
:104FA00001D0FCF7D5FD00210848FDF73DFC0028A5
:104FB00001D0FCF7CDFD00210448FDF75AFC002884
:104FC00001D0FCF7C5FD10BD0054004008050020CD
:104FD000BB7C700010B5084806490160062141609D
:104FE0000649C1608160FDF753FF002801D0FCF73E
:104FF000AFFD10BD00300040B8010020FF0F0000E1
:1050000010B50F480D4901604B21C90141600021D5
:105010008160C16001610C228161426101623021C5
:1050200041620121090381634900C163FFF782F9ED
:10503000002801D0FCF78CFD10BD000000480040A6
:10504000C801002030B591B014216846FBF7AFF8D5
:105050000024282106A80594FBF7A9F82D492E481D
:1050600012C07F2101608460C4600461FF2144613B
:1050700041600838FEF7FCFC002801D0FCF768FD11
:105080006846047044708470039401226946224883
:105090000494FEF78DFE002801D0FCF759FD012590
:1050A0006846057545758575C4752A4605A91A486B
:1050B000FEF71CFE002801D0FCF74AFD6846047686
:1050C000447603218176079409940A940B940C94F6
:1050D00008A80D940576FF2001300F90012206A943
:1050E0000D48FEF73BFD002801D0FCF731FD0521FE
:1050F0006846817608A80576012040020F900122BB
:1051000006A90548FEF72AFD002801D0FCF720FD7E
:1051100011B030BD002800405803002010B586B003
:1051200000240094012116480194029403940494ED
:105130008907059401609F218460416004611149E1
:105140004461C160FEF708FF002801D0FCF700FDB4
:1051500001200003009069460948FEF725FF00285A
:1051600001D0FCF7F5FC049404A905480594FEF76A
:10517000D5FE002801D0FCF7EBFC06B010BD000006
:105180007C030020FFFF000010B50C480A490160B5
:105190004B21C901416000218160C16001618161D1
:1051A000C1610C22016242614162FFF7C3F800282D
:1051B00001D0FCF7CDFC10BD0044004048020020A7
:1051C000F0B501256D0293B00C460646012902D0C8
:1051D000002C02D006E0294601E0FF2101313548CC
:1051E000FEF79AFB282105A8FAF7E1FF002269469D
:1051F0003048FEF70FFC002211A92E48FEF7E8FB0D
:10520000E12109013046FAF773FFC6B208463C2196
:10521000FAF76EFFC7B26846807840180A21FAF79D
:1052200067FF00010818C0B25928694604D96038E0
:10523000887548787F1C01E0887548780A21C01974
:10524000FAF756FF00010818C0B25928694604D978
:10525000603848750878761C01E0487508780A219E
:105260008019FAF745FF00010818C0B223286946E3
:1052700000D924380875002001210690C90708903C
:1052800009900B900C900A91012008A90875002C38
:105290000BD00E95012205A90648FEF75FFC0028F9
:1052A00001D0FCF755FC13B0F0BDFF2001300E908B
:1052B000F0E700005803002010B50121044649051D
:1052C000FEF7ECFE2046FEF7D7FE10BD704700004B
:1052D0008307FF22DB0E9A408907090E99400028B8
:1052E0000BDA0007000F0838830808489B001818DD
:1052F000C36993430B43C3617047830804489B0011
:105300001B181868904308431860704700ED00E0D0
:1053100000E400E0BFF34F8F04490348C860BFF3C7
:105320004F8F00BFFDE700000400FA0500ED00E02C
:10533000BFF34F8F04490348C860BFF34F8F00BFCE
:10534000FDE700000400FA0500ED00E0BFF34F8F19
:1053500004490348C860BFF34F8F00BFFDE700005A
:105360000400FA0500ED00E07047000010B50248A7
:10537000FEF742FF10BD0000C801002001090A220B
:1053800000075143000F4018C0B270470022014689
:1053900002E00A39C9B2521C0A29FAD21007000EDB
:1053A0000843704770B504460068C168490613D4C5
:1053B0000021C943C160FDF731FA7D260546F6009C
:1053C00006E0FDF72BFA401BB04201D9032070BD67
:1053D0002068C0684006F4D5002070BD10B50248B2
:1053E000FEF76AFA10BD000058030020704710B5A0
:1053F000FDF788FD10BD000030B59DB0382168462E
:10540000FAF7D5FE142117A8FAF7D1FE24210EA829
:10541000FAF7CDFE1C4801680324E402A143C51439
:1054200049190160FDF7D6FD18480169A1430161E2
:105430000E200090E81002900121102004900591A8
:1054400002200A9040040C900391000100240D906A
:105450000B946846FDF7B8FF0F20179003201890B3
:1054600019941A9401211B9417A8FDF79BFE26207E
:105470000E900820119040030F9012950EA8FDF792
:10548000CBFD1DB030BD0000007000404010024058
:1054900010480168821511430160C1680E4A11402D
:1054A000C16001680D4A11400160816849084900E6
:1054B000816001680122920491430160C168FD226C
:1054C00012049143C160002101610549C003886055
:1054D00070470000001002400C40FF88F6FFF6FE07
:1054E00000ED00E0F0B502680124A407144D154E4C
:1054F000154FA04205D0A84203D0B04201D0B84217
:1055000004D11346702293434A681A43A04205D03F
:10551000A84203D0B04201D0B84204D103231B02F9
:105520009A43CB681A4380239A430B691A4302605B
:105530008A68C2620968816201214161F0BD000090
:1055400000040040000801400014014030B58468A8
:10555000FF252D021B021343AC430B4323438360FF
:1055600030BD826870239A430A4307210A43826050
:10557000704730B5036A046A640864000462846991
:10558000F025AC43120122430A24A3430B4382615A
:10559000036230BD30B5036A1024A34303628469FB
:1055A000036A0F252D031203AC432243A024A34317
:1055B000090119438261016230BD10B5818CC907B0
:1055C00007D001684A6801235B049A43836A1A433F
:1055D0004A60818C890707D501684A6801231B044A
:1055E0009A43C36A1A434A60818C490707D5016808
:1055F0004A6801239B049A43036B1A434A60818CD7
:10560000090707D501684A680123DB039A43436B06
:105610001A434A60818CC90607D502689168012344
:105620001B039943836B19439160818C890607D5CD
:1056300001688A6801235B039A43C36B1A438A603B
:10564000818C490612D503685A6801210905046C4A
:105650008A4322435A60026C8A4207D10268516829
:1056600003235B059943436C19435160818C090600
:1056700007D501684A680123DB04806C9A43024322
:105680004A6010BDF8B500260446C667FDF7C6F8A7
:10569000054620680068124F000709D501212B46F6
:1056A000002249052046009700F01AFA00280DD183
:1056B0002068006840070BD501212B460022890590
:1056C0002046009700F00CFA002801D00320F8BD16
:1056D00020206067A067603426740020F8BD0000B9
:1056E000FFFFFF0110B5806A0022014640314A8366
:1056F0004A82FEF721FD10BD70B5846A606FA56F08
:105700002168896800260906002906DA212804D1C3
:1057100052200653204600F064F820688068400656
:1057200006D5222D04D15A200653204600F049F810
:10573000E06F10210843E0672046FEF7FDFC70BDD6
:1057400010B501460968806A0968890614D40022E8
:105750005A210A5201680A68FF2301339A430A60FA
:1057600001688A68520852008A6001688A6840238A
:105770009A438A6020218167FEF75EFF10BD10B555
:10578000806AFEF797FF10BD10B501460968806A70
:10579000096889060DD4002252210A5201688A68DC
:1057A00080239A438A6000680168402211430160A7
:1057B00010BDFFF73DF810BD10B5806AFFF739F84E
:1057C00010BD01680A68FF2321339A430A6001680B
:1057D0008A68520852008A60202181670021016690
:1057E000704701680A68C0239A430A602021416714
:1057F000704710B5014640318B8B846F0268222CB4
:1058000004D0906908210843906110BD526A446D2C
:105810001A402280426D921C42654A8B521E4A8376
:10582000498B0029F1D101680A68FF2321339A438B
:105830000A6001688A68520852008A6020218167E4
:1058400000210166FEF7F8FE10BD10B5014640319B
:105850008B8B846F0268222C04D090690821084346
:10586000906110BD526A1A40436D1A70426D521C0D
:1058700042654A8B521E4A83498B0029F1D1016847
:105880000A68FF2321339A430A6001688A68520834
:1058900052008A602021816700210166FEF7CCFE5C
:1058A00010BD0000F8B504462669A268E7693243D6
:1058B0006669102000253E43236832437B491E68F9
:1058C0007B4F3E4016431E60226853680326360312
:1058D000B343E668334353602368A2698B4201D027
:1058E000266A32439E680B273F02BE4316439E60E2
:1058F000704E2368704AB3420CD1D2689207920F5F
:1059000006D0012A3ED0022A3AD0032A26D124E02A
:10591000012023E0694EB3420AD1D2680C263240FE
:105920002CD0042A2ED0082A2AD00C2A16D114E012
:10593000634EB34222D0634EB3421FD08B420DD18F
:10594000D66803229202164018D001229202B61A9B
:1059500018D0B61A14D0964200D10820564A012613
:10596000403A594FF6038B4236D100280CD002281A
:105970000DD0042812D008281FD11CE00020EDE72C
:105980000220EBE70420E9E7FDF7C2FC08E010681D
:10599000C00601D5384605E04C4803E0FDF7D8FCC9
:1059A000002873D0626851005118814205D8110354
:1059B000814202D303E03046F4E7012566E0010EA0
:1059C00006025008002330185941FAF7A7FB0321BB
:1059D0000902411A3E4A55E0E169B14232D1030061
:1059E00000F0F1F909070A0D06250606062B060048
:1059F000E3E7FDF78DFC1CE0FDF79AFC19E0106869
:105A00006168C00602D54808324A01E0324A4808B7
:105A10008018FAF76DFB80B20146304A1039914286
:105A2000CBD8511C01400007400F08432CE0FDF784
:105A30008FFC616840004A08EAE761680122480873
:105A40001204E5E7030000F0BEF909070A0D062677
:105A50000606062C0600B0E7FDF75AFC1DE0FDF730
:105A600067FC1AE010686168C00602D54808C019D2
:105A700002E016484A081018FAF73AFB80B20146CD
:105A8000164A1039914298D82168C86000202066D3
:105A900060662846F8BDFDF75BFC61684A0880181F
:105AA000EAE7616848088019E6E70000004800401E
:105AB000F369FFEF0038014040100240004400400D
:105AC000004C00400050004000093D000024F4005C
:105AD000FFFC0F0000127A000048E801EFFF000011
