:020000040800F2
:1000000020380020D9000008E15C0008C144000845
:1000100000000000000000000000000000000000E0
:10002000000000000000000000000000655D000806
:100030000000000000000000E35C0008B15D000863
:10004000EB000008EB000008555D0008EB0000081D
:10005000EB000008EB000008EB0000089315000817
:10006000EB000008EB000008890F0008EB00000817
:10007000EB000008EB000008EB000008EB000008B4
:10008000EB000008EB000008EB0000080000000097
:10009000EB000008EB000008EB000008EB00000894
:1000A000EB000008EB000008EB000008EB00000884
:1000B00005660008E55C000800000000EB00000891
:1000C0000448854600F080FD00480047FD85000893
:1000D000C046C046203800200448804704480047F6
:1000E000FEE7FEE7FEE7FEE7FEE7FEE7515E0008FB
:1000F000C100000830B50B46014600202022012433
:1001000009E00D46D5409D4205D31D469540491B4B
:100110002546954040191546521E002DF1DC30BD94
:10012000F0B51FB40646002082B005464024019178
:1001300000901BE0019922460F46304600F0D9FBA3
:10014000049A059B801A994110D3104619462246FD
:1001500000F0BFFB361A8F41019722460120002193
:10016000009F00F0B6FB38184D4100902046641EF9
:100170000028DFDC019B00982946324607B0F0BD1D
:1001800000487047E8B2000801466139192900D8D3
:100190002038704701464139192900D8203070476E
:1001A00038B50446C0681821401E4843A16840186D
:1001B0003C214843616840183C2148432168451868
:1001C00060690C214843216940186921C900401A1F
:1001D000302100F06AFB114A504342190846009250
:1001E0001A2902DB0E49511800910C2100F05DFB29
:1001F0000C4A5043009A801800900B4806E0491EB4
:10020000425C074B5A43009BD21800920029F6DC4F
:100210002146684600F092FB009838BD801F860793
:10022000805101008033E101ECB2000803460B432A
:100230009B0703D009E008C9121F08C0042AFAD29C
:1002400003E00B780370401C491C521EF9D2704722
:10025000D2B201E00270401C491EFBD2704700225E
:10026000F6E710B513460A4604461946FFF7F0FFB5
:10027000204610BD421E5378521C002BFBD10B7838
:100280001370491C521C002BF9D1704730B505463C
:100290002A460B4610781C78521C5B1C002801D0A3
:1002A000A042F7D0002C03D0002802D06D1CEFE74D
:1002B000284630BD10B5044605E00B780370401C9D
:1002C000002B00D0491C521EF7D2204610BDCAB2E6
:1002D000401E4178401C8A4202D00029F9D10020FA
:1002E0007047421C0178401C0029FBD1801A7047DE
:1002F00010B5002200E0521C835C8C5CA34201D14B
:10030000002BF8D1D8B2E1B2401A10BD0022CBB216
:100310000178994200D10246401C0029F8D11046CC
:10032000704770B5064606F0EFFA046805460A22E3
:100330000021304600F03CFB2C6070BD024670B5D9
:100340004A40D30FDB0740002DD04A002AD0010ECF
:10035000140E000212020919400A520A8418E5011B
:1003600004465443000A120A2E045043A4194219A9
:10037000200CC543AA18120C0125AD03521C5219BA
:1003800012047F39240400D0521C104301D44000D1
:10039000491EC2B20C06C0092018401C4008802A21
:1003A00002D003E0002070BD40084000002900DAC0
:1003B0000020184370BD70B502464A40D50F40007A
:1003C0004A00ED0740085208002814D0002A12D035
:1003D000C40DD30D41020120C0055202490A520A40
:1003E000E41A091812187D34914201D3641C00E00C
:1003F0004900002C01DA002070BD0023914201D396
:10040000891A0343400849000028F7D100290AD07F
:10041000914202D10121C90705E0914201D2012197
:1004200001E00121C943E005C018401900F0F8FAC5
:1004300070BD0000F0B507460846584087B0C00FB1
:10044000049048000E46590040084908BC1A8841EB
:1004500005D2384631461E4617460B46024658001E
:10046000400810434DD0300D039040055900400D19
:10047000490D0590401A0290402873DA18030121B3
:10048000000B09050843019004980092002806D04B
:100490001146019A49420020904100910190029832
:1004A00040210A1A0199009800F013FA05460C46FB
:1004B0006B4607CB00F02EFAC0197141039A0E0D5E
:1004C0000023D71756401A467A40164344D0049A60
:1004D000002A2DD0029A012A039A15DC1205C01AAF
:1004E000914101263605001C7141D20F059ED207AD
:1004F0000093019202962A46234600F0DFFA07B0E5
:10050000F0BD38463146FAE71605234A0F46B218C1
:10051000C01AB74101210905001C4F4100187F4155
:10052000114618187941E20F10436D19644113E028
:10053000E2076D0815436408C2071443039A0126B5
:100540001205C01A91413605001C7141CE074008C2
:1005500030434908C01851412A46234600F0A1FA09
:10056000CDE7FFE7049801224000C117121A0023CB
:100570008B4104983146C417381AA141EEE730B4D4
:100580000124E407634030BC54E730B40124E4079D
:10059000614030BC4EE700000000E0FFF0B51FB442
:1005A00088B00B990998002448400999C00F490068
:1005B00049080991C0070B990090490049080B911F
:1005C00009990898A64608431CD00B990A98084335
:1005D00018D0099801244000420D4800410D0998A7
:1005E00024050003000B204309900B980003000B27
:1005F00020430B9050181C494018002201901446CB
:10060000104605E0002001460DB0F0BD032801DAD8
:10061000034600E003239C46C11A0AAE0AE05F00CD
:1006200008ADED5B4F00F75B7D430027AA187C41C6
:10063000491C5B1E6145F2DD410004AB5A522104A6
:10064000120C0A43240C401C0828DFDB019802909E
:100650000099704601910090059B049A07990698AD
:1006600000F02CFAD0E700000DFCFFFFF0B50C46BF
:100670005C4085B0E40FE40703944C000026640856
:1006800059009446490802460296224321D0624608
:100690000A431ED06200570D4A000E032303550D76
:1006A000012402462C492405781B1B0B360B4018ED
:1006B00023432643614600901C46501AB44103D39D
:1006C0000098401C009002E0921800985B410028BE
:1006D00003DA0020014605B0F0BD00200121090524
:1006E0000746864611E064461D46141BB54106D3F5
:1006F0006546521BB341744607430C43A646CD07DB
:1007000040084908284392185B4105460D43EAD149
:100710001046184313D060461946504071400843B4
:1007200006D06046101AB34106D20122002306E02B
:1007300000220123DB0702E00122D243531000987C
:1007400074460105381C6141029C039D00196941F2
:1007500000F0A7F9BFE70000FD03000070B54B00F3
:100760005B0803430BD04B005C0D0026334665420B
:10077000B341D417AD1AA34102DB0020014670BD7E
:1007800012053018514170BDC217C10F504010B54D
:100790004018CA079623002100F04AF910BD10B591
:1007A00000229623114600F043F910BD0EB5C21782
:1007B000C10F5040CA0740180021054B0293019217
:1007C00000910A460B4600F079F903B000BD000025
:1007D000330400000EB505490291002100910A463C
:1007E0000B46019100F06AF903B000BD330400002C
:1007F000C20F410040020123400ADB05D207090E67
:10080000C0187F2901DA00207047962903DC96235F
:10081000591AC84001E096398840002AF4D0404275
:100820007047410040020122400AD205090E80189B
:100830007F2901DA00207047962903DC9622511A9D
:10084000C8407047963988407047C20FD2074000B1
:1008500040080BD0C10D0723DB01C9184002090570
:10086000400A1143C2084007114370470020014667
:100870007047CB0FDB07490010B5490802460A4311
:1008800007D00A0D07240903E401090B121B002AF3
:1008900001DC002010BDC900440F0C43C100E0186A
:1008A000D205801800F0BCF810BD70B500242546B4
:1008B000002801DA01244042002901DA01254942D9
:1008C000FFF718FCAC4200D04042002C00D0494257
:1008D00070BD10B5202A04DB0146203A914000206B
:1008E00010BD914020239C1A0346E34019439040D9
:1008F00010BD10B5202A04DB0846203AD040002164
:1009000010BD0B46D340D0402024A21A914008438A
:10091000194610BD10B5202A06DBCB170846203A31
:100920001041C1170B4306E00B461341D040202471
:10093000A21A91400843194610BD000070B50C463C
:1009400000683C21FFF7D6FB21603C21FFF7D2FB7A
:1009500061601821FFF7CEFB0546A1600721001D4D
:10096000FFF7C8FBA1610F48A90008180E49FFF75F
:10097000C1FB0246443288086261E0613B2802D331
:10098000910700D0401C0021084B0A462161995C68
:10099000814203D8401A521C2261F8E7401CE060F3
:1009A000204670BD6C0B0000B5050000F8B20008D1
:1009B000F7B5009C0F4600262578641C002D05D055
:1009C000FFF7DEFB0068405DC007F5D12B2D02D09C
:1009D0002D2D18D0641E39462046029A00F006F9E3
:1009E000002F04D03968A14201D100993960710506
:1009F000022400290BDA4042002803DD05F084FFC1
:100A00000460A007FEBD012080020643E3E7002842
:100A1000F8DA05F079FF04600048FEBDFFFFFF7FB4
:100A2000002904DA401C490001D140084000704709
:100A300070B40024050C05D11024000402D1002953
:100A400021D01124050E01D100020834050F01D177
:100A50000001241D850F01D18000A41C002801DBAA
:100A60004000641C002908D020252E1B0D46F540AF
:100A7000A14000D001212943084301061B1B000AA5
:100A8000DB1D02D5002070BC7047DB0518188018EC
:100A90000029F8DA401C4900F5D170BC400840003C
:100AA000704710B5002B08DA0024401C61419218F1
:100AB0005B411A4301D14008400010BDF0B51FB49E
:100AC00082B005460C0003D0084605F0B1FE02E0F6
:100AD00005F0AEFE20300246009021462846FFF782
:100AE000F8FE049B059A04460F4618431143084339
:100AF00014D0184610431BD0009840210A1A1846FB
:100B00000599FFF7F6FE05460E46009A05990498EA
:100B1000FFF7DFFE084305D0012004E020463946F8
:100B200007B0F0BD0020C11705430E432C433743E7
:100B300000990E986305401A7905E40A00220C43D7
:100B4000FD0A0A3002D500200146E9E70105101927
:100B500069410C9C0D9D00196941FFF7A2FFDFE779
:100B60004A0009030123090B1B0519430A4B10B561
:100B7000520D9A4202DA0020014610BD064B343372
:100B80009A4203DC9A1AFFF7B4FE10BD034BD21849
:100B9000FFF79FFE10BD0000FF030000CDFBFFFF2D
:100BA00010B5002904DB0124E40740428C412146B2
:100BB000002B04DB1C460123DB075242A341994270
:100BC00000D1904210BD0000064C0125064E05E004
:100BD000E36807CC2B430C3C98471034B442F7D35E
:100BE000FFF772FA80BB0008A0BB0008F7B582B01F
:100BF000029C00272078641C15460197302802D0FB
:100C0000002D15D015E020780127641C782804D029
:100C1000582802D0002D09D00BE0002D01D0102D56
:100C200007D1002710252078641C02E0082500E089
:100C30000A250026009610E000990127694308184C
:100C4000020C294680B2714300908E183804864207
:100C500001D3012001902078641C294600F019F886
:100C60000028E9DA0398002805D0002F01D0641E7F
:100C700000E0029C04600198002806D005F044FEC4
:100C800002210160C81E05B0F0BD00993004084380
:100C9000F9E73A2800D23038202302469A43412A05
:100CA00001D310463738884201D30020C043704733
:100CB00070B58C180578401C6B075B0F01D1037869
:100CC000401C2A1106D10278401C03E006780E7001
:100CD000401C491C5B1EF9D12B0705D40023521E72
:100CE0000DD40B70491CFAE70378401CCB1A921CF8
:100CF00003E01D780D70491C5B1C521EF9D5A14202
:100D0000D8D3002070BD0000F0B585B00546142191
:100D10006846FFF7A4FA2E4F00246E46284603F0DB
:100D200023FB0146388C4843C117090D08180013EE
:100D3000FFF72AFDFFF775FD610070520A2001F0F0
:100D40008DF9641CE4B2062CE8D30621684609F04C
:100D5000A9FB68464188808809186846C2880089CE
:100D6000101808188008FFF71AFD0646012D0ED04E
:100D70001848854216D13046FFF767FD04460D46F8
:100D800001F070FB014622462B4613A018E0FFF746
:100D90005CFD04460D4601F065FB014622462B46EC
:100DA00013A00DE0184885420CD13046FFF74DFDE9
:100DB00004460D4601F056FB014622462B4613A081
:100DC00005F012FD3046FFF72CFD80B205B0F0BDF6
:100DD00040000020020000045B25645D6164635FE5
:100DE0006D562832293A252E32660D0A0000000081
:100DF0005B25645D6164635F6D562831293A252E59
:100E000032660D0A00000000100000105B25645DD2
:100E10006164635F6D562833293A252E32660D0AC8
:100E20000000000038B50446064805490068FFF791
:100E300061F9604300E0401E00900028FBD138BDFE
:100E400040420F003C200020F8B50446006881684D
:100E50008907890F012902D10168C90722D1816858
:100E6000114A10261140012500290ED1816829431D
:100E700081600120FFF7D6FF01F0F4FA07460CE08D
:100E800001F0F0FAC01B0A2807D9606D3043606595
:100E9000A06D2843A0650120F8BD20680068C0430C
:100EA000C007EDD10020F8BD1700008070B50646E0
:100EB000002409F043F82BA13046FFF719FA002867
:100EC0001AD029A13046FFF713FA002815D0274D74
:100ED0001820604329583046FFF7D8F9002810D071
:100EE00023A13046FFF7D2F9002810D01820444340
:100EF000601981683046884770BD304606F0F0FCC6
:100F000070BD641CE4B2192CE2D9012070BD19A196
:100F10003046FFF7BBF900280AD018204443601977
:100F2000C168304688470028F0D107F0CFF816E0B6
:100F300011A13046FFF7AAF900280AD001F092FA71
:100F4000014618204443601942690CA005F04CFC8E
:100F500005E01820444360190169304688470020A5
:100F600070BD00004154000041543F00D4AF000860
:100F70003D3F00003D0000003F0000005B25645D38
:100F800025730D0A0000000010B5024800F096FF1E
:100F900010BD00003C23002030B5446C1C252C40C3
:100FA0000125A540046C6560046863608368102BAC
:100FB000036803D099600068C26030BD9A60006821
:100FC000C16030BDFEB5054600F032FA2946442026
:100FD00000F03AFA294E304601F040F8284600F079
:100FE00027FA2946BE2000F02FFA284600F0D6F94D
:100FF0000446284600F0D2F9052819D1502C17D103
:10100000284600F015FA2946442000F01DFA304623
:1010100001F024F8284600F00BFA2946BE2000F023
:1010200013FA284600F0BAF90446284600F0B6F94B
:10103000000200B2204308D5C043401CFFF7B6FBB6
:1010400000220F4BFFF7AAFA05E0FFF7AFFB0322E0
:10105000D243FFF783FBFFF70CFC0646FFF7F5FBD7
:1010600004460F4601F0FEF901462A4605A0019705
:10107000009405F0B9FB3046FEBD0000EE02000012
:101080000000B0BF5B25645D4453313842323028E4
:101090002564292074656D7020697320252E3266C1
:1010A000200D0A0030B500221949032387B001281A
:1010B00013D005240125240702281FD003281BD1A3
:1010C000C86A2843C862C86A28400590081500907D
:1010D00069460193029220460CE0CC6A0220044348
:1010E000CC62C96A019301400591082000900292E8
:1010F0006946084801F0E8F807B030BDC86A2843DF
:10110000C862C86AC007C00F059001204002DEE730
:10111000001002400004005010B5002301221949BC
:1011200086B0012812D00524240702281FD00328E6
:101130001BD1C86A1043C862C86A104005900815E0
:10114000009069460193029220460CE0CC6A02208E
:101150000443CC62C96A01930140059108200090C4
:1011600002926946084801F0AFF806B010BDC86A9F
:101170001043C862C86AC007C00F05900120400232
:10118000DEE70000001002400004005010B501220C
:101190001849022386B0012812D00524240702280A
:1011A0001ED003281AD1C86A1043C862C86A10400A
:1011B00005900815009069460393019220460BE0C4
:1011C000C86A1843C862C86A694618400590082072
:1011D000009003930192084801F076F806B010BD24
:1011E000C86A1043C862C86AC007C00F05900120D2
:1011F0004002DFE7001002400004005070B50024F8
:10120000012806D005252D0702282AD003284ED014
:1012100074E00120FFF780FF394D04E0641CE4B264
:10122000012000F0ABF90821284601F00FF9002851
:1012300002D0642CF2D35FE0642C5DD2002404E081
:10124000641CE4B2012000F099F90821284601F05D
:10125000FDF8002802D1F02CF2D34DE0F02C4BD257
:101260004CE00220FFF758FF0126760204E0641CE0
:10127000E4B2012000F082F93146284601F0E6F898
:10128000002802D0642CF2D336E0642C34D200243F
:1012900004E0641CE4B2012000F070F931462846F5
:1012A00001F0D4F80028D9D1F02CF2D324E00320A7
:1012B000FFF732FF0126B60204E0641CE4B201200D
:1012C00000F05CF93146284601F0C0F8002802D051
:1012D000642CF2D310E0642C0ED2002404E0641CD1
:1012E000E4B2012000F04AF93146284601F0AEF898
:1012F0000028B3D1F02CF2D3012070BD002070BDC6
:101300000004005070B5012806D0052424070228E7
:1013100013D003282BD025E00120FFF737FF1E4C08
:1013200000220821204601F096F80A2000F026F954
:101330000120FFF7F1FE08210EE00220FFF726FF53
:1013400001256D0200222946204601F084F80A207A
:1013500000F014F9022018E0204601F077F8012887
:1013600017D000222D2000F009F9104670BD03208F
:10137000FFF70CFF0125AD0200222946204601F0AF
:101380006AF80A2000F0FAF80320FFF7C5FE2946A4
:10139000E2E70122E6E700000004005070B50025F6
:1013A00006462C463046FFF7ADFFA0402843641C9C
:1013B000E4B2C5B2082CF5D3284670BD70B51A4DFD
:1013C000012814D005242407022825D0032822D17F
:1013D000FFF7DCFE00220126B6023146204601F06E
:1013E0003AF8284600F0CAF8012231460DE0012003
:1013F000FFF7CCFE0D4C00220821204601F02BF80F
:10140000284600F0BBF801220821204601F023F80D
:101410000F2000F0B3F870BD0220FFF7B7FE0022E6
:1014200001267602D9E70000EE0200000004005019
:1014300010B50446FFF7C2FF2046FFF7DFFE214646
:10144000CC2000F001F810BDF8B5044601291FD0EA
:1014500005252D07022949D0032946D10320FFF78E
:1014600095FE00260127BF02E007C00F6408002890
:101470006BD000223946284600F0EDFF082000F02E
:101480007DF801223946284600F0E5FF3A206AE05F
:101490000120FFF77BFE384E0025E007C00F6408EF
:1014A00000280ED000220821304600F0D4FF08208A
:1014B00000F064F801220821304600F0CCFF3A2009
:1014C0000DE000220821304600F0C5FF462000F064
:1014D00055F801220821304600F0BDFF022000F03F
:1014E0004DF86D1CEDB2082DD7D3F8BD0220FFF7E3
:1014F0004DFE002601277F02E007C00F6408002888
:101500000ED000223946284600F0A5FF082000F042
:1015100035F801223946284600F09DFF3A200DE0BB
:1015200000223946284600F096FF462000F026F8B3
:1015300001223946284600F08EFF022000F01EF8F6
:10154000761CF6B2082ED7D3F8BD002239462846BD
:1015500000F081FF462000F011F8012239462846AC
:1015600000F079FF022000F009F8761CF6B2082E90
:1015700000D279E7F8BD00000004005006E0002129
:10158000491CC9B20429FBD3401E80B20028F6D101
:10159000704710B50120400300F08AFE012080034F
:1015A00000F086FE10BD000010B586B00446142180
:1015B0006846FEF754FE1748C26A02210A43C26217
:1015C000C06A084005904803009000211248002C92
:1015D00006D0012C0BD0022C0BD0032C0BD00DE02D
:1015E00001910291694600F06FFE06B010BD0B4AF2
:1015F00002E00B4A00E00B4A01920291694600F0BA
:1016000063FE00220221072001F0F4FA072001F016
:10161000E5FAEAE700100240000400500000311033
:1016200000002110000011107047000010B508499B
:1016300000224A6107494B684C1523434B604B68B5
:10164000082423434B60C009C001026010BD0000A4
:10165000083200200020024010B5214A0021906984
:10166000C305204804D541690223194341619115FE
:1016700093699B0505D543690124234343616302B4
:10168000194393695B0505D54369082423434361E6
:10169000E301194393691B0505D5436904242343DA
:1016A00043616302194393699B0405D54369102480
:1016B000234343616302194393699B0304D544693F
:1016C00020231C43446119439369DB0305D5436917
:1016D000402423434361A0020143916110BD0000F7
:1016E000002002400832002070B5054600F0BAFE26
:1016F0000646184C0AE0681C08D0002D04D000F003
:10170000B1FE801BA84201D9032070BDA069C007AB
:10171000F1D1A069800701D50220A061A069C005B0
:1017200011D4A06980050ED4A06940050BD4A0692E
:10173000000508D4A069800405D4A069800302D400
:10174000A069C00303D5FFF787FF012070BD00200B
:1017500070BD00000020024070B50D460646002412
:1017600000F04AFD094A0020956041C20849074837
:1017700000F0D4FC002806D0641CE4B2032CF5D1A0
:1017800004A005F031F800F00BFD70BD9C2B00208B
:10179000A00000206572726F7220696E2045726130
:1017A0007365206F7065726174696F6E0A0D000059
:1017B000F8B516460F460546002400F01DFD14E05E
:1017C000A0003A582946022000F0F8FC002809D071
:1017D00008A005F009F800F0DDFC01460CA005F0BA
:1017E00003F804E0641CA4B22D1DB442E8D300F059
:1017F000D7FCF8BD6572726F7220696E20577269EE
:101800007465206F7065726174696F6E0A0D0000F7
:1018100077726974655F6572726F725F666C61671B
:101820003A2578000168024841604068704700002E
:10183000A000002000B587B014216846FEF70FFD18
:101840000A48C16A01221143C162C06A6946104058
:101850000590D00200900320019000200290052006
:10186000000700F031FD07B000BD0000001002408D
:1018700000B587B014216846FEF7F1FC0948C26A3A
:1018800001210A43C262C06A029108400590C80261
:1018900000900020019005206946000700F014FD2B
:1018A00007B000BD0010024000B587B014216846A3
:1018B000FEF7D5FC0948C26A02210A43C262C06A27
:1018C00008400590C802009003200190002002907B
:1018D0006946034800F0F8FC07B000BD0010024064
:1018E0000004005000B587B014216846FEF7B7FC2D
:1018F0000A48C26A02210A43C262C06A08400590CF
:10190000C802009001200190002002900320039063
:101910006946034800F0D8FC07B000BD0010024043
:1019200000040050F0B58DB004462C216846FEF747
:1019300096FC2046FEF7F5FC0C90601DFEF7F1FCCE
:101940000B9020460830FEF7ECFC074620460B3093
:10195000FEF7E7FC064620460E30FEF7E2FC0546A1
:1019600020461130FEF7DDFC0146074A0C9880182E
:1019700005900B986A46401E0490E2C26846FEF746
:101980000FFC0DB0F0BD000094F8FFFF10B502F0A1
:1019900057FD0149486010BDA800002070B502F055
:1019A0004FFD0C4C00252060616888420ED0401A23
:1019B000FEF7EAFE0849C96AFEF7FDFCFEF718FFCC
:1019C0000649A06040180649884200D3A560A06877
:1019D00070BD0000A8000020400000208813000017
:1019E00011270000F8B5054604464035287C00263E
:1019F000012808D001202874206881688907890F90
:101A000001290ED101E00220F8BD0168C90708D004
:101A1000606D20210843606501260020287430464F
:101A2000F8BD616DFF2201329143022211436165CD
:101A3000C1688907890F0091C16889088900C16060
:101A40002068816892071143816000F00BFD074612
:101A50000EE000F007FDC01B0A2809D9606D0221C5
:101A60008843102108436065002028740120F8BDD8
:101A7000206880680028ECDB2068C168009A114368
:101A8000C160606D80088000401C6065C5E7000093
:101A9000F8B506460D464036317C01290DD00121AE
:101AA000317401688A68520709D5416D20221143BB
:101AB0004165002030740120F8BD0220F8BD174BAD
:101AC0006A68D80547109A42154C8A6A2B6812D06A
:101AD0005B035B0B1A438A622968490305D5A16839
:101AE0000143A1600A20FFF79DF92868800312D501
:101AF000A06838430EE05B035B0B9A438A62296857
:101B0000490302D5A1688143A1602868800302D5FA
:101B1000A068B843A06000203074F8BD0110000038
:101B2000002701400068006C7047000070B5040099
:101B300006D0606D264600254036002802D006E01B
:101B4000012070BDA5653574204600F0D3F8606DA6
:101B5000C00603D421688868400705D5606D102150
:101B6000084360653574EBE7606DFF2201329043F6
:101B700002221043606588688207920F5B48012A41
:101B800002D10A68D2072BD1032362689B079A42CD
:101B900005D05B429A4202D05B009A4209D10A69A1
:101BA000920092080A6121680A6963681A430A610F
:101BB0000CE00A69920092080A6181680F2292047F
:101BC0009143816081686268114381602168CA68BD
:101BD00018239A43CA602168CA68A3681A43CA6076
:101BE000816801225206914381608168A28E52066B
:101BF0001143816020688168C90004D48168012292
:101C00001207114381602068C168394A1140C160E0
:101C10002069E168022825D00020014320462030B9
:101C20000278037B52035B001A431143226B11437A
:101C3000A26992031143E269D20311432268D36877
:101C40001943D160616A0A46FF3AC23A05D0A26AD6
:101C500011432268D3681943D16042780121012AD7
:101C600002D00BE00420D8E70078002823D0606D74
:101C7000202210436065A06D0843A065E06B012839
:101C800020681FD00169C90703D0016949084900CC
:101C9000016120684169C908C90041612068416942
:101CA000A26B11434161A565606D80088000401CF6
:101CB0006065002070BD2068C26801231B041A43C0
:101CC000C260DBE70269FF239B009A430261206840
:101CD0000269236CA66C1A43636C33431A43026196
:101CE000206802690A430261D3E70000002701402F
:101CF0001902FEFF00680449884204D10348416B81
:101D00004215114341637047002401400010024016
:101D1000F8B504464069254640350E4608280BD0E4
:101D20002068C068C00709D0606D20210843606545
:101D3000002028740120F8BD082700E00C2700F0DF
:101D400091FB009011E0701C0FD0002E05D000F028
:101D500089FB0099401AB04207D9606D04210843FD
:101D60006065002028740320F8BD206800683842B0
:101D7000E9D0606D01214902084360652068C168AF
:101D800009058A0F0C21002A1BD12022125D002A8E
:101D900017D10268120714D5826853070122002B5D
:101DA00008DB43688B434360606D13029843104324
:101DB000606506E0606D202318436065A06D1043E8
:101DC000A065A069002801D1206801600020F8BD4D
:101DD00070B50446216800208968490721D425464A
:101DE0004035297C01291CD001212974E169012990
:101DF00004D02046FFF728F8002811D1616D0A4A67
:101E00001140FF220132114361650021A16529744F
:101E100022681C21116021688A6804231A438A60A1
:101E200070BD022070BD0000FEF1FFFF30B501461D
:101E300020314A790023022A04D00422C2630B71A4
:101E4000012030BD026814680E25AC43146002689E
:101E50001468640864001460446C1C22144001225D
:101E60001546006CA54045604A7118460B7130BD9F
:101E700070B50024014620314A79022A03D004219A
:101E8000C163012418E0026813680E25AB43136098
:101E9000026813685B085B001360436C1C221340EC
:101EA000012215469D40036C5D604A7100220A7153
:101EB000816B002900D08847204670BDF0B4016CCA
:101EC0000D6801680C68466C1C2304221E401746EE
:101ED000B7402F420ED067070CD50C68A40602D479
:101EE0000C6894430C60416C19408A40016C4A6054
:101EF000016B1AE00227B74002462F402032002F24
:101F000017D0A70715D50C68A40605D40C680A25B8
:101F1000AC430C6001215171446C02211C40036CE4
:101F2000A140596000211171C16A002918D0F0BC8C
:101F300008470827B7402F4212D0240710D50C6855
:101F40000E25AC430C60446C01211C400B46A340A1
:101F5000046C6360C163517100211171416BE4E74E
:101F6000F0BC704770B504003CD01F4825681421B0
:101F70002818FEF7BFF8800060641C482064022126
:101F8000204620300246417129681948E368014023
:101F9000A06866691843236933431843A36918434B
:101FA000E3691843236A1843084328600121A068A5
:101FB0008903884210D00D488030836A656C1C21EB
:101FC0000D400F26AE40B3438362656C63680D40DD
:101FD000816AAB400B4383620020E06301215171B1
:101FE000107170BD012070BDF8FFFDBF0000024000
:101FF0000F80FFFFF8B504468C462030017900259C
:10200000012909D00126067141790027012905D04F
:10201000077102252846F8BD0220F8BD0221417152
:10202000E76320680168490849000160614620466D
:10203000FEF7B2FF206B00282068016801D00E2255
:1020400005E0042291430160206801680A221143DF
:1020500001602068016831430160DBE770B5044628
:1020600000F000FA0546601C02D0044800782418ED
:1020700000F0F8F9401BA042FAD370BD30200020D8
:10208000034841680122114341600020704700006D
:1020900000200240F8B5124D0746287C14460E4633
:1020A000012807D0012028740E48FFF71DFB0028E7
:1020B00002D00CE00220F8BD00216961022F09D096
:1020C000012F09D0002F09D00648FFF70DFB002192
:1020D0002974F8BD3460FAE73480F8E73470F6E725
:1020E0000832002050C3000009494868C0070DD0DD
:1020F000EFF3108072B6074ACA60074ACA6080F3DD
:1021000010884868C00701D0012070470020704740
:1021100000200240EFCDAB8905040302F8B51A4E4A
:102120000546307C0F46012807D00120307417483F
:10213000FFF7DAFA010002D021E00220F8BD00200A
:10214000C04338606C6814E02046FFF76FFA0F4810
:10215000FFF7CAFA01460E48426808239A434260D4
:10216000426843159A434260002901D03C6006E072
:102170008034A8686A68C0018018A042E4D80020B2
:1021800030740846F8BD00000832002050C300003B
:1021900000200240014840697047000008320020DA
:1021A0000548416802221143416041680122114300
:1021B000416000207047000000200240F8B50C4C40
:1021C0001646207C0F46012808D0012020740948BB
:1021D000FFF78AFA0025002802D006E00220F8BDA9
:1021E00065613E600348FFF77FFA2574F8BD000083
:1021F0000832002050C3000011484168C9070BD0C5
:10220000EFF3108172B60F4AC2600F4AC26081F3C9
:1022100010884168C9070ED1416889070DD5EFF3D1
:10222000108172B6094A0261094A026181F310887D
:102230004068800701D501207047002070470000EA
:1022400000200240EFCDAB8905040302BFAE9D8C98
:1022500016151413012210B592031149904218D19A
:10226000104A1148137A362B0FD0897801290BD1E7
:102270000E490B790B3B1B2B06D30A230B71012153
:10228000D171017002F090FA10BD4168491C4160A3
:1022900010BD012252039042FAD10220087110BDF4
:1022A000F806002018000020400000200000002058
:1022B00010B504494A69024202D04861FFF7CAFFDB
:1022C00010BD000000040140FCB500230124A7E07C
:1022D00027462A469F403A406FD04D68012D05D0D1
:1022E000022D03D0112D01D0122D16D185680326A1
:1022F000AC465D00AE46AE406546B543AC46CE68E2
:102300007546AE4065462E43866046680D79BE43ED
:10231000ED06ED0F9D4035434560C6685F0003251F
:10232000BD40AE46AE4335468E68BE402E43C660C5
:102330004E68022E01D0122E14D1DE08B6003618D7
:102340000196366A5D07B446EE0E0F25B54000963D
:102350006646AE43B4460D69009EB54066462E43C0
:10236000019D2E6206687546AE430D79AD07AD0F2F
:10237000BD40354305604D68ED0050D52B4D6E6B6B
:1023800026436E639E082A4DB6007519AC46AD68AB
:102390009E07360F0F27B740BD4305273F07B842BA
:1023A00001D100271AE0234FB84201D1012715E0DF
:1023B000214FB84202D1022710E030E01F4FB8424F
:1023C00001D103270AE01E4FB84201D1042705E0DE
:1023D0001C4FB84201D1052700E00627B7402F4324
:1023E0006546AF60184D2E684F689643FF0300D5D1
:1023F00016432E606E684F689643BF0300D51643A0
:102400006E60AE684F689643FF0200D51643AE601B
:10241000EE684F689643BF0200D51643EE605B1C22
:102420000A681546DA4000D052E7FCBD00100240B1
:10243000000001400004005000080050000C005053
:1024400000100050001C00500004014000690840CA
:1024500000D001207047002A01D08161704781625D
:10246000704700000148806870470000302000205D
:1024700070B5024640325378202B1CD11378012BC3
:1024800019D00123137024245470046825689D43D7
:102490002560046825681E03B54325600468256827
:1024A0000D432560006801681943016020205070C9
:1024B0000020107070BD022070BD70B50246403221
:1024C0005378202B1BD11378012B18D001241470C2
:1024D0002423537003681D68A5431D6005682B689D
:1024E0000F263602B34309021943296000680168C8
:1024F00021430160202050700020107070BD022028
:1025000070BD000070B5040006D0254640356878DF
:102510000026002802D005E0012070BD2E70204664
:1025200000F0AAFA24206870206801684908490070
:1025300001600F21606809068843216808612168ED
:102540008A680120C00382438A60E1680129A1688A
:1025500008D021229202114322689160E168022989
:1025600002D005E00143F7E701212268C90251606A
:1025700021684A680F4B1A434A602168CA6882433F
:10258000CA60616920690843A1690902084321689A
:10259000C860216AE0690843216808602068016812
:1025A0000122114301606664202068702663AE70CA
:1025B000002070BD00800002FFB50546044640358E
:1025C000687881B0202878D12878012875D001203A
:1025D0002870FFF747FF0746012200901923D10317
:1025E000204602F02BF800283CD1222068701020F1
:1025F000A87000266664039860620498608566632C
:10260000618D2F48FF2903D9FF22228500903BE0EE
:10261000618D218500903DE02046029901F0FAFF8E
:1026200016E002F033F800281CD12068406A616A85
:102630000870606A401C6062208D401E81B2218556
:10264000608D401E6085608D002801D000290CD06F
:10265000608D0A9900283A462046E2D102F056F8E9
:1026600000281CD0012005B0F0BD00970022802179
:1026700020460A9B01F0E2FF0028F3D1608DFF287D
:1026800005D9FF222285009601231B06C4E7608D31
:1026900020850096208D0123C2B25B06BCE721682D
:1026A0002020C86121684A68064B1A404A60687059
:1026B000AE702E700020D6E7FFE70220D3E70000BF
:1026C0000024008000E800FEFFB5054604464035C2
:1026D000687881B0202878D12878012875D0012029
:1026E0002870FFF7BFFE0746012200901923D1038F
:1026F000204601F0A3FF00283CD121206870102063
:10270000A87000266664039860620498608566631A
:10271000618D2F48FF2903D9FF22228500903BE0DD
:10272000618D218500903DE02046029901F072FF05
:1027300016E002F011F800281CD1606A21680078C8
:102740008862606A401C6062608D401E6085208DDA
:10275000401E80B22085618D002901D000280CD058
:10276000608D0A9900283A462046E2D101F0CEFF5A
:1027700000281CD0012005B0F0BD00970022802168
:1027800020460A9B01F05AFF0028F3D1608DFF28F4
:1027900005D9FF222285009601231B06C4E7608D20
:1027A00020850096208D0123C2B25B06BCE721681C
:1027B0002020C86121684A68064B1A404A60687048
:1027C000AE702E700020D6E7FFE70220D3E70000AE
:1027D0000020008000E800FEFFB5054604464035B5
:1027E000687883B0202875D10C98002814D00D98F3
:1027F000002811D0287801286CD001202870FFF71C
:1028000031FE0746012200901923D103204601F032
:1028100015FF002874D103E00120400260646FE0DE
:10282000222068704020A870002666640C986062C0
:102830000D98608566630E980090019704A90EC9F3
:10284000204601F087FE002801D02E7058E0618DEF
:102850003448FF2905D9FF22228501231B06009059
:1028600006E0618D21850090208D0123C2B25B06B8
:102870002046049901F0CEFE009700220421204654
:102880000E9B01F0DBFE00283AD12068406A616AA5
:102890000870606A401C6062208D401E81B22185F4
:1028A000608D401E6085608D00281FD000291DD1DD
:1028B00000970022802120460E9B01F0BFFE0028D9
:1028C0001ED1608DFF2806D9FF22228501231B0619
:1028D000009607E024E0608D20850096208D01237E
:1028E000C2B25B062046049901F094FE608D002878
:1028F000C2D13A4620460E9901F008FF002802D0C6
:10290000012007B0F0BD20682021C1612068426825
:10291000054B1A4042606970AE702E700020F0E7DF
:102920000220EEE70024008000E800FEFFB5054627
:1029300004464035687883B0202872D10C9800286E
:1029400014D00D98002811D02878012869D00120D2
:102950002870FFF787FD0746012200901923D10355
:10296000204601F06BFE002871D103E001204002F7
:1029700060646CE0212068704020A87000266664C6
:102980000C9860620D98608566630E9800900197C0
:1029900004A90EC9204601F00DFE002801D02E70BA
:1029A00055E0608DFF2805D9FF22228501231B06F3
:1029B000009606E0608D20850096208D0123C2B22E
:1029C0005B062046049901F025FE3A4620460E9902
:1029D00001F0C2FE00283AD1606A2168007888625E
:1029E000606A401C6062608D401E6085208D401EC4
:1029F00080B22085618D00291FD000281DD100974D
:102A00000022802120460E9B01F018FE00281ED1D6
:102A1000608DFF2806D9FF22228501231B06009620
:102A200007E024E0608D20850096208D0123C2B24E
:102A30005B062046049901F0EDFD608D0028C4D1AD
:102A40003A4620460E9901F061FE002802D001208E
:102A500007B0F0BD20682021C16120684268054BA5
:102A60001A4042606970AE702E700020F0E70220BC
:102A7000EEE7000000E800FE10B586B00446142121
:102A80006846FDF7ECFB10492068884219D10F4CCD
:102A9000E16A02200143E162E16A01400591C02040
:102AA00000901220012101900320029104910390D3
:102AB00069460748FFF708FCA06B01214905084358
:102AC000A06306B010BD000000540040001002409A
:102AD0000004005070B504000FD02168134808604E
:102AE00021681348086003CC41602068083C2168D5
:102AF0008860FFF7B7FC054608E0012070BDFFF7CE
:102B0000B1FC401B292801D9032070BD2068C06892
:102B10000028F4D120680269E1688A4201D001618D
:102B200001E004490160002070BD0000CCCC000031
:102B300055550000AAAA0000006802490160002063
:102B400070470000AAAA000002488168027889182C
:102B5000816070473020002010B5084800240168CB
:102B6000402211430160204600F00AF8002801D0FD
:102B7000012401E000F026F8204610BD00200240AC
:102B800070B504460D4D7D202978C000FDF7B2FADE
:102B900001460B480068FDF7ADFA01F017F8002870
:102BA00009D1042C07D200222146401E00F022F851
:102BB00000206C6070BD012070BD0000302000203E
:102BC0003C2000200448416B012211434163816B8A
:102BD000020411438163704700100240002805DBA6
:102BE000C106C90E012088400149086070470000F5
:102BF00000E100E010B503F057FE10BD0248016887
:102C000002151143016070470070004002480168DE
:102C1000421511430160704700700040024801688E
:102C2000821511430160704700700040F0B5154AED
:102C30001368154D54152D6A2340ED07ED0F002B39
:102C400004D0002D02D01668A64316601668B60898
:102C5000B600064316600D4807690426374307612E
:102C600001290DD040BF20BF20BF0169B1430161E0
:102C7000002B04D0002D02D0106820431060F0BD5E
:102C800030BFF2E7007000400000014000ED00E0BE
:102C9000F8B50446007800275D4D800671D55C4E7E
:102CA000403EB06BC00004D4B06BA9050843B063CC
:102CB000012758480168C90511D4016882151143DC
:102CC0000160FFF7CFFB009005E0FFF7CBFB009919
:102CD000401A642837D84F480068C005F5D53268D7
:102CE0000321090560680A400140914208D0810330
:102CF000890F032904D13168890301D50120F8BD6A
:102D00002A69032109040A4022D0084090421FD0BA
:102D1000207880061CD528692A6988430121C904C6
:102D20000A432A612A698A432A612861C0050FD5AE
:102D3000FFF798FB009008E0FFF794FB0099411A19
:102D40003548814201D90320F8BD28698005F3D5B3
:102D500061688803800F032805D13268000582432B
:102D600001400A433260286903226168120411405D
:102D700008432861002F04D0B06B01210907884364
:102D8000B0632078C00705D0E868A168800880009B
:102D90000843E8602078800705D5E8680C2188435F
:102DA000E1680843E8602078400706D5E868032119
:102DB0008902884321690843E8602078000706D526
:102DC000E86803210903884361690843E8602088B3
:102DD000C00506D5E868032109048843A1690843B2
:102DE000E8602078400606D5E86801218906884316
:102DF000216A0843E8602078000606D5E8680321C8
:102E000089048843E1690843E8600020F8BD0000B8
:102E1000401002400070004088130000F8B50E46D4
:102E2000050038D05E480068C007C00FB04214D219
:102E30005B4C20684008400030432060FFF712FBE5
:102E4000074605E0FFF70EFBC11B564881427AD8C2
:102E50002068C007C00FB042F4D12878524C8007D8
:102E600005D5E068F0218843A9680843E060287828
:102E7000C00752D06868022806D0032807D021680E
:102E800001280AD0890504E02168890301E021684E
:102E90008901002903DB0120F8BD4907F9E7E16852
:102EA000890889000143E160FFF7DCFA074668689A
:102EB00002280AD0032814D001281ED029E0FFF7E9
:102EC000D1FAC11B374881423DD8E0680007800F26
:102ED0000228F4D121E0FFF7C5FAC11B3148814235
:102EE00031D8E0680007800F0328F4D115E0FFF720
:102EF000B9FAC11B2B48814225D8E0680007800F32
:102F00000128F4D109E0FFF7ADFAC11B2548814241
:102F100019D8E0680007800FF5D121480168C9077A
:102F2000C90FB14217D9016849084900314301600E
:102F3000FFF798FA074608E005E0FFF793FAC11B90
:102F40001848814201D90320F8BD15480068C00720
:102F5000C00FB042F1D12878400706D5E0680721BC
:102F600009028843E9680843E0602878000707D52C
:102F7000E0680721C90288432969C9000843E06065
:102F800000F03AF8E168094A0906090F515CC840A7
:102F90000749086007480068FFF7F2FDF8BD000028
:102FA00000200240881300000010024044B20008D4
:102FB0003C20002034200020044805490068C968EE
:102FC000044A4905490F515CC84070473C20002025
:102FD000001002405DB20008044805490068C96855
:102FE000044A8904490F515CC84070473C200020C6
:102FF000001002405DB2000870B51A4AD3681A4941
:103000000C2018408D0004280CD04E00082810D049
:103010000C2810D050680004410F0120C003491C47
:10302000884070BD1068C00601D5084670BD2846AE
:1030300070BD304670BD98020C4C000F205C1B0226
:103040009C0FD368641CDB0301D5314603E0126892
:10305000D20600D4294603F002FC22460023FDF7E5
:103060005FF870BD0010024000093D0054B2000836
:10307000FEB505007ED0F74CE7680C20E6680740F7
:103080000120000406402878C00747D0082F05D04B
:103090000C2F0AD101200004864206D1206880034B
:1030A0003CD568680028E5D038E001206968000454
:1030B000814203D121680143216011E005230122EF
:1030C0001B0492049942216802D111432160F1E767
:1030D0008143216021680140009120689043206075
:1030E000686800280DD0FFF7BDF9009005E0FFF7F4
:1030F000B9F90099401A64287ED820688003F6D573
:103100000CE0FFF7AFF9009005E0FFF7ABF900998D
:10311000401A6428F0D820688003F6D42878800705
:103120005DD5E868810604D5226820210A43226023
:1031300088430923042F0DD00C2F01D1002E09D074
:1031400000283CD02168994301432160FFF78AF9A8
:10315000064628E02168490701D500288AD0616821
:103160001F22120291432A691202114361602168F1
:10317000994300E0C7E101432160FFF73DFFE168AB
:1031800009060A0FB449895CC840B4490860B448CC
:103190000068FFF7F5FC002874D120E0FFF762F922
:1031A000801B0228A8D820684007F7D560681F2137
:1031B0000902884329690902084360600FE020681A
:1031C000400840002060FFF74DF9064604E0FFF795
:1031D00049F9801B02288FD820684007F7D4287847
:1031E000C00661D5002F0DD0E86900284BD02068BB
:1031F000FF210131084300E0EAE02060FFF732F9E7
:1032000006462DE02068800502D5E8690028A5D093
:103210006068072149038843696A08436060606801
:10322000298C0002000A090608436060686A410BA5
:103230000120C003491C8840E16809060A0F86493D
:10324000895CC8408549086085480068FFF798FC9C
:10325000002817D128E0FFF705F9801B0228A1D824
:1032600020688005F7D56068072149038843696AAB
:10327000084360606068298C0002000A0906084360
:10328000606011E025E12168FF2001308143216069
:10329000FFF7E8F8064604E0FFF7E4F8801B022891
:1032A00099D820688005F7D428786E4E000724D579
:1032B00068690028306910D0012108433061FFF7A8
:1032C000D1F8009005E0FFF7CDF80099401A0228E8
:1032D0007ED830698007F6D50FE0400840003061A5
:1032E000FFF7C0F8009005E0FFF7BCF80099401A1E
:1032F00002286DD830698007F6D42878400764D555
:1033000000200290A06BC00006D4A06B0121090729
:103310000843A0630120029053480168C90511D4F5
:103320000168821511430160FFF79CF8009005E0E9
:10333000FFF798F80099401A642849D84A4800686D
:10334000C005F5D5FF20AA680130824203D131695A
:103350000143316111E001218902002A07D00523D0
:103360001B029A4203D132690A433261EFE73269A4
:1033700082433261306988433061A86800280ED0EA
:10338000FFF770F8009006E0FFF76CF80099411A1B
:10339000364881421CD830698005F5D50DE0FFF72D
:1033A00061F8009006E0FFF75DF80099411A2F4898
:1033B00081420DD830698005F5D40298002804D0E8
:1033C000A16B012000078143A1632878800600E0FB
:1033D0007EE02ED52648A9694314002916D0A2689C
:1033E00001210A43A260626B0A436263016A1943C6
:1033F0000162FFF737F8064604E0FFF733F8801B59
:10340000022865D8A0688007F7D512E0A1684908AE
:103410004900A160016A99430162FFF723F806465B
:1034200004E0FFF71FF8801B022851D8A06880072E
:10343000F7D4A86A002868D00C2F4FD00126360692
:103440000228206816D0B0432060FFF70BF805462D
:1034500040E000000010024044B200083C20002080
:10346000342000204010024000700040881300000B
:1034700000000140B0432060FEF7F4FF074604E07F
:10348000FEF7F0FFC01B022822D820688001F7D485
:10349000296BE86AE2680843696BFD231B049A43C1
:1034A00011430843E060206830432060FEF7DAFFF4
:1034B000054604E0FEF7D6FF401B022808D8206826
:1034C0008001F7D521E0FEF7CDFF401B022801D98E
:1034D0000320FEBD20688001F5D416E00128F8D055
:1034E000E06801210904EA6A014091420BD10F21F1
:1034F00089042A6B0140914205D1032189050840C6
:10350000696B884201D00120FEBD0020FEBD000095
:1035100010B51148FFF710FB1048114C0179012933
:103520000ED1E178491CC9B2E170112908D10021FE
:103530000171E17014231A460AA10F4800F050FEF1
:103540000E488078002801D10A2020710121122024
:1035500001F0B2FB10BD0000242200201800002062
:103560000000002050617373776F72642074696D7E
:10357000656F75740D0A0000B8220020F80600205F
:1035800010B5074881780748032902D0012902D0E5
:1035900003E02B2100E00A21017101F005F910BDC3
:1035A000F80600200000002070B50446006881681D
:1035B0008025C90400290BDAC068C00508D520465B
:1035C000FFF7DEFF2168C8682840FF388238C860EE
:1035D0002068816889040BD5C068800508D520461D
:1035E000FFF796FF2068C168054A29408918C16025
:1035F000012004494004486101202034607070BDFE
:103600007FFDFFFF00040140F8B505460446203564
:10361000287801281DD001202870022068702268B7
:10362000CA205062226853205062FF2001300026D9
:10363000FF2781421CD121688A6882438A60206802
:1036400081680122120391438160FEF70BFF009015
:1036500009E00220F8BDFEF705FF0099411A7D2020
:10366000C00081421BD82068C068C007F3D020E0AA
:10367000206881680122520291438160206881683C
:10368000120191438160FEF7EDFE00900DE0FEF720
:10369000E9FE0099411A7D20C000814205D92068C9
:1036A0004762032068702E70F8BD2068C0688007EC
:1036B000EDD520684762012068702E700020F8BDAB
:1036C00010B500680B464068C021C94301400002A4
:1036D000000ECC04D870E40E5C708C06A40E0904B5
:1036E000490F9C701970002A0AD102F003FBD870B0
:1036F000587802F0FFFA5870987802F0FBFA987048
:10370000002010BD30B50B460168896A5960016818
:1037100009694904490C9960006804680F4821460A
:10372000014088024D04800E18706D0E49065D70D0
:10373000490E99706102490E40242140D970002A37
:103740000AD102F0D7FA1870587802F0D3FA5870FC
:10375000987802F0CFFA9870002030BD7F7F7F000C
:10376000F8B5040050D0254620356878002803D1EC
:103770002870204600F052F8022068702168CA20A4
:103780004862216853204862204602F0C7FAFF26AB
:1037900004270028206802D046626F7034E08168F8
:1037A0001D4A11408160216888686268A3691043DE
:1037B00022691A43104388602168E0680861206824
:1037C000016922891204114301612068C1688022C5
:1037D0009143C1602068C16C89088900C164E169B6
:1037E000606901432068C26C1143C164206880682D
:1037F00080060BD4204600F0C7F9002806D02068C8
:1038000046626F70002028700120F8BD2068466273
:10381000012068700020F8BDBFFF8FFF10B5006861
:10382000084988420DD108480169012292041143D8
:103830000161002211460220FFF7DCF90220FFF7A8
:10384000CDF910BD0028004040100240FEB50646EC
:103850000446203630780B4601283ED001203070D7
:103860000220707018462030009020680027806881
:10387000002A34D0400600D4DF7019789D780904FE
:103880000D435978DA780902120411430D43009967
:10389000D869097809060D430543586999690543B4
:1038A0005868084300902168CA2048622168532064
:1038B0004862FF205A6A01308021824245D1226845
:1038C0009368834393602068C2680A40FF3A823A53
:1038D000C260FEF7C7FD019024E00220FEBD400655
:1038E00000D4DF70187802F00DFA0504587802F061
:1038F00009FA00020543987802F004FA0543D878E3
:10390000000405430098007802F0FCF90006054326
:10391000D869C1E7FEF7A6FD0199411A7D20C000D4
:1039200081422AD82068C068C007F3D02068C561EA
:1039300021680098486420688168FF2201321143A1
:10394000816020688168120130E02068826801236C
:103950005B029A4382602068C2680A401D49511880
:10396000C160FEF77FFD01900EE0FEF77BFD01993F
:10397000411A7D20C000814206D92168FF2048629B
:10398000032070703770FEBD2068C0688007ECD5DA
:103990002068056221680098886420688168012297
:1039A00052021143816020688168120111438160D5
:1039B00009480268012149040A43026082680A43F7
:1039C00082602168FF2048620120707037700020FB
:1039D000FEBD00007FFDFFFF00040140F8B5054675
:1039E0000446203528780B4601280FD00120287086
:1039F00002206870002A0BD0D8789E780004064315
:103A00005878097800024903084317E00220F8BDFE
:103A10005878C10603D5EF2108400A305870D8788D
:103A200002F070F90604587802F06CF900020643BF
:103A3000987802F067F90643187840030643216836
:103A4000CA204862216853204862204602F066F985
:103A50000027002811D111480640206846602068E0
:103A6000C16880229143C1602068806880060CD4C0
:103A7000204600F089F8002807D02168FF2048621E
:103A8000042068702F700120F8BD2168FF20486273
:103A9000012068702F700020F8BD00003FFFFF007C
:103AA000F8B506460446203630780D46012822D067
:103AB0000120307002207070206800278068002A82
:103AC0001BD0400600D4EF702978A8780904084379
:103AD0006978EA78090212041143084300902168CA
:103AE000CA204862216853204862204602F016F935
:103AF000002837D116E00220F8BD400600D4EF7050
:103B0000287802F0FFF80304687802F0FBF800025E
:103B10000343A87802F0F6F80343E878000403436F
:103B20000093DCE717490098084021680860206886
:103B3000816801229204914381602969E868084301
:103B400021688A68104388602068C1688022914398
:103B5000C1602068806880060CD4204600F014F80C
:103B6000002807D02168FF20486204207070377059
:103B70000120F8BD2168FF20486201207070377075
:103B80000020F8BD7F7F7F0070B504460068C168E3
:103B9000A0229143C160FEF765FC7D260546F60034
:103BA00006E0FEF75FFC401BB04201D9032070BD68
:103BB0002068C0688006F4D5002070BD0248016905
:103BC000022211430161704700E000E0094910B58D
:103BD000401E884201D9012010BD074C60610321BD
:103BE000081F02F061FE0020A06107202061002074
:103BF00010BD0000FFFFFF0000E000E00248016987
:103C0000022291430161704700E000E0014660310B
:103C10000A7D012A09D001220A7500680268022380
:103C20001A430260002008757047022070477047F1
:103C3000FEB5054604466035287D002694460128D9
:103C400011D001232B752420A067206802689A43B5
:103C500002602768B8680322120590430843B860E1
:103C6000002902D015E00220FEBD604600910190BF
:103C700020684168102291436A469288114341604E
:103C8000206841686A4609029279090A12061143BE
:103C900041602068016819430160FEF7E3FB0949B0
:103CA00000910346012100228905204602F0CCFB49
:103CB000002801D0032601E02020A06700202875FD
:103CC0003046FEBDFFFFFF017047000070B52C4974
:103CD000024680320123042402250826884224D18A
:103CE0000168C8691068042812D006DC002816D0C4
:103CF000012805D0022812D106E008280FD10BE0D8
:103D0000486A886A0B620AE0486A886A0C6206E0C0
:103D1000486A886A0D6202E0486A886A0E6200F0AA
:103D200023FF01221749164827E01749884226D168
:103D30000168C8691068042812D006DC002816D073
:103D4000012805D0022812D106E008280FD10BE087
:103D5000486A886A0B620AE0486A886A0C6206E070
:103D6000486A886A0D6202E0486A886A0E6200F05A
:103D700087FF044901220839034800F0C1F970BDEA
:103D80003422002008000020B8220020F8B5026884
:103D90000446D06911689668814B05461D40202372
:103DA000002D6CD0F7077F4DFF0FBC460D402F4311
:103DB00079D02546C7078035002F06D0CF0504D51A
:103DC000012717622A683A432A60820708D5F2075A
:103DD00006D0276802223A622A6804273A432A60FA
:103DE000420708D5F20706D02668042232622A6804
:103DF000022632432A6002070AD50A461A4066465E
:103E0000324305D02668082232622E6816432E609F
:103E1000020508D54A0106D501222668D20232627F
:103E20002A681A432A602A68002A30D0800606D5FC
:103E3000880604D5616E002901D02046884728688D
:103E400021688968490602D42821084225D02046E5
:103E500002F00DF920688168490619D58268402171
:103E60008A438260206F002812D04F498163206FFF
:103E7000FDF7FEFF00280AD0206F816B06E0850663
:103E800011D58D060FD5616E77E020468847F8BDC5
:103E90002046FFF71BFFF8BD05E02046FFF716FFA1
:103EA00000202860F7E7256E012D56D1C50654D5B0
:103EB000CD0652D51026166220688168254649062F
:103EC000403500292ADA226F116849680904090C73
:103ED000E1D02F8B8F42DED969831168096889068A
:103EE00017D4016832019143016020688168490854
:103EF0004900816020688168402291438160E367C6
:103F00000020206620680168B1430160206FFDF742
:103F10008DFF288B698B401A81B21AE0298B6A8B3E
:103F2000891A6A8B89B2002AB5D00029B3D00268F9
:103F3000FF252135AA43026020688268520852009A
:103F40008260E36700202066606620680268B243F2
:103F500002602046FFF76BFE9DE7C50208D575029B
:103F600006D50120000510622046FFF7ADFE92E75E
:103F7000050605D50D0603D5A16E002985D18AE772
:103F8000400688D5480686D5116820464024A143BE
:103F9000116083670021816600F0E4F97BE700008F
:103FA0000F08000020010004D55F000810B50400D0
:103FB00003D0A06F002802D007E0012010BD00212F
:103FC00074200155204600F027F82420A0672068BF
:103FD0000168490849000160204602F0DFF8012825
:103FE000ECD0606A002802D0204601F05BFF206818
:103FF00041680922D20291434160206881682A22E7
:1040000091438160206801680122114301602046CC
:1040100001F0AEFF10BD0000F0B587B006461421D8
:104020006846FCF71CF9304F346800252F49022000
:1040300001220323BC4232D18C6B47043C438C6386
:10404000CC6A0443CC62C96A01AC01400591990273
:1040500000910DC40720049069462548FEF734F905
:10406000254C24482060052060601020E560A06099
:104070006561A5618020E5612061800120622046A4
:10408000FDF770FF002801D0FDF7CEFAF46600229C
:1040900001211D20A662FEF7ADFD1D2020E0174E78
:1040A000B4421FD18C6B0126760434438C63CC6AF6
:1040B0001443CC62C96A0190C907C90F0591042055
:1040C0000C21049000910520029503936946000796
:1040D000FEF7FAF8002201211C20FEF78BFD1C20C0
:1040E000FEF77CFD07B0F0BD004800400010024024
:1040F000000400501C0002403C230020004400400B
:1041000030B5C36F202B27D100290BD0002A09D04E
:10411000012483682403A34206D10369002B03D141
:10412000CB0701D0012030BD034660331C7D012C3C
:1041300012D001241C7500230366084C0368A342B7
:1041400007D05C68240204D51C680125AD062C4309
:104150001C6002F02DF930BD022030BD0048004047
:1041600070B51A4A01231A4990421AD1194A0846D1
:104170000830168E556B0478AC55148E641C14866A
:104180000A792A2A06D142780D2A03D102780A2A0E
:1041900000D18B70017841700D49012208310B4824
:1041A00010E00D4A90420FD10C4CC8880A78225476
:1041B000401CC8800D2A01D00A2A00D14B70012270
:1041C00003490548FFF79CFF70BD00003422002022
:1041D00000000020F8060020B82200205020002017
:1041E000FFB50446806F83B017460D4620285ED188
:1041F000002D0AD0002F08D0A168C001814207D14C
:104200002069002804D1E80702D0012007B0F0BDE2
:10421000204660300090007D012848D000980121A0
:1042200001750020802108512120A067FEF71AF9AE
:10423000264640360190378277820120A16800032C
:10424000814202D12069002805D02F46002500991F
:104250000020087511E00027F9E7002280212046A0
:1042600002F0F2F8002815D1002F15D02168387817
:1042700088627F1C708A401E7082708A019B0028B1
:1042800006980090E9D100224021204602F0DCF897
:10429000002808D00320B9E728882168C005C00D90
:1042A0008862AD1CE6E72020A0670020AEE7022070
:1042B000ACE70000F8B50446806F20284AD10029F9
:1042C0000BD0002A09D00123A0681B03984206D115
:1042D0002069002803D1C80701D00120F8BD254678
:1042E0006035287D012835D00120287520464030D2
:1042F000E164028242820026274680373E60212008
:10430000A067E06E00281AD01349C162E16E13481D
:104310000863E16E12484863E06E134686632068C6
:10432000E16C283084466246E06EFDF763FE0028AB
:1043300005D0102038602E752020A067CDE72168B9
:10434000402008622E7520688168802211438160B8
:104350000020F8BD0220F8BD356000086560000847
:10436000E95F0008704770477CB506461A48416807
:10437000C9430907FBD4194C606B6515284360637A
:1043800000211748FDF72EFB1648009016480190B3
:1043900069461348FDF77CFBA0140190694600961E
:1043A0000F48FDF775FB0E48FDF712FD0021C943CC
:1043B0000B48FDF7ADFC0A48FDF7B4FB084980B295
:1043C0000A689368022633439360096803220A60EF
:1043D000616BA94361637CBD007000400010024026
:1043E0007C210020FFFF07000110000038B50B23DF
:1043F0001B07C518114B0FD01C152D1B18D02D1BDA
:1044000019D0A542DD6A05D108242543DD62DB6AA7
:10441000234007E08024F8E7DC6A01252C43DC62B6
:10442000DB6A2B40009311601146FDF74DFF38BD4C
:10443000DD6A0224E9E7DD6A0424E6E700100240B1
:10444000F8B5012105200022C9020007FEF703F894
:1044500000240126194F360331463846FDF7F6FF92
:104460000028F9D1002501220527D6023F07314651
:104470003846FDF7F0FF6400002231463846FDF76C
:10448000EAFF71000D48FDF7E1FF012800D1641C2F
:104490006D1CEDB2182DE6D301220526D502360794
:1044A00029463046FDF7D7FF28034440002229461D
:1044B0003046FDF7D0FF2046F8BD00000004005054
:1044C000FEE701688A69D243920701D400228A621A
:1044D00000688169C943C90703D08169012211437A
:1044E00081617047F7B5044600680E468069C04395
:1044F000C0062BD420272546403520688069C0435C
:10450000800612D5701CF8D0FDF7ACFF0299401A56
:10451000B04201D8002EF0D1606C384360646F70F7
:104520000020A87028700120FEBD21681020C861FD
:104530002068C7612046FFF7C4FF20684168044A2D
:1045400011404160606C04210843E7E70020FEBD94
:1045500000E800FEF8B50446164615481D46DAB2D6
:104560000090079F0023204600F054F83A4620466A
:10457000069900F0F1F8002818D12846F5B2012874
:1045800009D02168300A88623A462046069900F030
:10459000E3F800280AD120688562009700224021B4
:1045A0002046069B00F04AF8002800D00120F8BD04
:1045B00000200080F8B50446164615481D46DAB2BC
:1045C000C3020090079F204600F024F83A46204698
:1045D000069900F0C1F8002818D12846F5B2012844
:1045E00009D02168300A88623A462046069900F0D0
:1045F000B3F800280AD12068856200970022802144
:104600002046069B00F01AF8002800D00120F8BDD3
:1046100000200080F0B50668059C7568064F600DA7
:10462000384385438805800D11040843184320430F
:1046300005437560F0BD0000FF63FF03F8B51D463C
:1046400017460E46044609E0681C07D0FDF70AFF2E
:104650000699401AA8420BD8002D09D0206881691C
:10466000304688430FD00020B842EDD00020F8BD7E
:10467000616C202001436164403460700020A070B0
:1046800020700120F8BD0120EEE70000F7B50027FB
:10469000202605460446403528E02046029A019926
:1046A000FFF720FF002801D00120FEBD20688069AF
:1046B000C043800611D420688169C943490702D4E8
:1046C000218D002917D1C661206841680E4A11402A
:1046D000416067646E70AF7013E0FDF7C3FE02992E
:1046E000411A0198814208D8002806D020688069C4
:1046F000C0434007D1D40020FEBD606C30436064ED
:104700006E702F70D0E7000000E800FE70B516460E
:104710000D4604460FE0324629462046FFF7E2FEEA
:10472000002801D0012070BDFDF79CFE801BA8422F
:1047300008D8002D06D020688069C0438006EAD4DE
:10474000002070BD616C20200143616440346070C2
:104750000020A0702070E5E770B516460D460446AF
:1047600011E0324629462046FFF7BCFE002801D062
:10477000012070BD681C06D0FDF774FE801BA842A6
:1047800008D8002D06D020688069C0438007E8D48F
:10479000002070BD616C2020014361644034607072
:1047A0000020A0702070E3E7024801680422114352
:1047B000016070470070004070B50546FFF71EFAB3
:1047C0000D4CA06B21040843A063FEF71FFAFEF70F
:1047D00015FAE0680121C9030843E0600748016851
:1047E00004221143016001210846FEF71FFAA84781
:1047F000FFF7E4F970BD00000010024000700040B7
:1048000030B587B000F06EF929A00068059000204F
:104810000390049006F0A6FB7D24012505A8E40082
:1048200000902B460022C421019502942148FEF7F6
:104830007DF806F097FB2049884230D203A800900B
:1048400001230F22C521019502941A48FDF7C4FFE8
:1048500004A8009001231022C52101950294154857
:10486000FDF7BAFF6846007B01026846007C081825
:1048700084B27D204001844208D9FDF7F3FD014652
:104880000EA001F0B1FF154807B030BDFDF7EAFDFD
:104890000146224612A001F0A7FF2046F4E7FDF7EB
:1048A000E1FD014614A001F09FFF1B48ECE700006A
:1048B00004000000D82100200F2700005B25645D64
:1048C00044697374616E6365206973206F75742029
:1048D0006F662072616E67650D0A0000FFFF0000C1
:1048E0005B25645D44697374616E6365203D256476
:1048F000636D0D0A000000005B25645D6C696461F6
:10490000725F6C697465206973206E6F7420636FC9
:104910006E6E6563740D0A00FF0F000070B50546EA
:1049200003F042FD06490C4608344860E06106F099
:10493000E7F8E06905F094FDE061284670BD0000ED
:10494000100000201CB5002118480091164A019162
:104950000260C1635205816042608163012202618D
:104960000246C16020321170FF235170C23343628E
:104970008162117301638161042241634261C161FB
:10498000FDF7D4F8002801D0FCF74EFE084800904F
:1049900001200003019069460448FDF779F80028DA
:1049A00001D0FCF741FE1CBD002401407C21002009
:1049B0000000024408B50848016B0122114301635D
:1049C000006B10400022009011460A20FEF712F9F9
:1049D0000A20FEF703F908BD00100240F0B587B0C9
:1049E00014216846FBF73BFC3748C26A04210A439E
:1049F000C262C26A0A400592C26A80210A43C26248
:104A0000C26A0A400592C16A01263143C162C16A85
:104A100031400591C26A02210A43C262C06A002283
:104A2000084005900520C9010007FDF714FD01228B
:104A300020212648FDF70FFD7003254F002400902C
:104A40006946019702942348FDF73EFC0325009533
:104A50006946214801950294FDF736FC1F480090F5
:104A600005206946019502940007FDF72DFC1C48BE
:104A700000906946019502941448FDF725FCB003A7
:104A800000906946019702941048FDF71DFC300222
:104A90000090052069460196039502940007FDF7F2
:104AA00013FC202000906946019603950294074864
:104AB000FDF70AFC002202210720FEF79BF80720E1
:104AC000FEF78CF807B0F0BD001002400004005063
:104AD0000000211000080050001C0050F39E000050
:104AE0001FB3000010B5134811490160124941601D
:104AF000002181600161416181610122C161C26067
:104B00000162FDF7FFFC002801D0FCF78DFD0021BC
:104B10000848FDF7ADFC002801D0FCF785FD002119
:104B20000448FDF7CAFC002801D0FCF77DFD10BD4C
:104B300000540040D8210020BB7C700010B508480C
:104B400006490160062141600649C1608160FDF7A8
:104B5000C1FF002801D0FCF767FD10BD0030004008
:104B600024220020FF0F000010B50F480D490160FE
:104B70004B21C901416000218160C16001610C22AB
:104B80008161426101623021416201210903816337
:104B90004900C163FFF70AFA002801D0FCF744FD81
:104BA00010BD0000004800403422002030B591B014
:104BB00014216846FBF753FB0024282106A805941E
:104BC000FBF74DFB2C492D4812C07F21016084600A
:104BD000C4600461FF21446141600838FEF7C0FDF4
:104BE000002801D0FCF720FD6846047044708470F2
:104BF00003940122694621480494FEF751FF0028DE
:104C000001D0FCF711FD01256846057545758575D0
:104C1000C4752A4605A91948FEF7E0FE002801D010
:104C2000FCF702FD684604764476032181760794FA
:104C300009940A940B940C9408A80D940576FF200F
:104C400001300F90012206A90C48FEF7FFFD002855
:104C500001D0FCF7E9FC0520694688760120400276
:104C60000F90012206A90548FEF7F0FD002801D0AB
:104C7000FCF7DAFC11B030BD00280040842300208E
:104C800010B50C480A4901604B21C901416000215F
:104C90008160C16001618161C1610C220162426178
:104CA0004162FFF783F9002801D0FCF7BDFC10BD7D
:104CB00000440040B8220020F0B501256D0293B0F9
:104CC0000C460646012902D0002C02D006E02946F7
:104CD00001E0FF2101313548FEF796FC282105A8A7
:104CE000FBF7BDFA002269463048FEF70BFD0022B3
:104CF00011A92E48FEF7E4FCE12109013046FBF73B
:104D0000F9F9C6B208463C21FBF7F4F9C7B2684688
:104D1000807840180A21FBF7EDF900010818C0B2AD
:104D20005928694604D96038887548787F1C01E0A5
:104D3000887548780A21C019FBF7DCF900010818CA
:104D4000C0B25928694604D9603848750878761C7D
:104D500001E0487508780A218019FBF7CBF90001BA
:104D60000818C0B22328694600D9243808750020E5
:104D700001210690C907089009900B900C900A91A8
:104D8000012008A90875002C0BD00E95012205A959
:104D90000648FEF75BFD002801D0FCF745FC13B088
:104DA000F0BDFF2001300E90F0E7000084230020CA
:104DB00010B5012104464905FEF73AFF2046FEF7EB
:104DC00025FF10BDF0B504460278F7488DB0C11D2F
:104DD000F9310691F54902910521C90141180B915C
:104DE0000721C9014118059101218902411801914A
:104DF0000921C90141180A910521090241180491AC
:104E000003210902411809910B21C9014118089198
:104E10000321490241180791C11DFF31FA31039165
:104E20000346E349FF332A2581330646097D803650
:104E30002F460093302A7DD253007B449B885B0031
:104E40009F442F00410053007E009400A400B60050
:104E50000701EF00F400C00048016C0181018C01E2
:104E6000940178009D014E0321043604B5045104D9
:104E70006504570388039603A403B203C203D00357
:104E8000D603E60375049704AC04B504BA04C2045F
:104E9000FD06140778007D0025071601E804E806E2
:104EA000D904816900208847072805D02925FDF706
:104EB000D9FA0146BFA012E301202070FDF7D2FA13
:104EC0000146C4A0F7E7016C00208847072805D0F9
:104ED0002925FDF7C7FA0146C5A0ECE7022020709E
:104EE000FDF7C0FA0146CBA0E5E7C26D016F1046A1
:104EF0008847072805D02925FDF7B4FA0146D0A038
:104F0000D9E703202070FDF7ADFA0146D54AD6A0B7
:104F100001F06AFCA548DCA10F38FBF7B7F90028BF
:104F20000DD0A2480F210F38FBF799F9CD490C227B
:104F3000C91C00E037E19D480F38FBF777F9A1E382
:104F4000B16970688847072805D02925FDF78AFAD6
:104F50000146CFA0AFE704202070FDF783FAC14AD5
:104F60000146143AD3A001F03FFCE8E7316CD9A028
:104F70008847072808D0F16B2925D9A08847FDF775
:104F800071FA0146D9A096E70520E2E2316E0020D1
:104F90008847014606200729207004D0FDF762FAF1
:104FA0000146D9A087E7FDF75DFA0146E3A082E755
:104FB0000699F06F09698847072801D02925BEE7BF
:104FC0000A20E2E700990098096BC0698847FDF75D
:104FD00049FAA44E0146193E7278E5A001F004FC9E
:104FE000EA48007D072805D00820207029250020E8
:104FF000B070A4E76C4F3F1F3878002806D0072117
:1050000021700124B470002802D005E00921F7E7DF
:10501000DF4803F0DDFA3C70FF20F53003F0D8FAEA
:105020008DE70698816D002088472AE30098016883
:1050300000208847072807D0FDF714FA0146D5A0BD
:1050400001F0D2FB0720A0E7FDF70CFA0146DBA038
:10505000F6E70698016B00208847062806D1292527
:10506000FDF700FA0146DCA001F0BEFB2C208CE726
:105070004F4E012906D0022906D0032906D0042963
:1050800006D007E00B2004E0142002E0182000E026
:1050900021202070F079002804D1B089002180B24D
:1050A000FFF70AFEFDF7DEF9728A511C7182014694
:1050B000D0A001F099FBD748F16905F023FA694CBB
:1050C0000421193C606BFBF7CAF80220E070002055
:1050D000207134E76CA10298FBF7D8F8002806D1BC
:1050E000324869A11930FBF7D1F8002806D02F20EB
:1050F0002070FDF7B7F90146C7A072E30098016D73
:1051000000208847072807D02F2029252070FDF789
:10511000A9F90146CBA064E30C2036E70098816F23
:1051200000208847092807D0112029252070FDF785
:1051300099F90146CBA054E30D202070FDF792F9B8
:105140000146D2A04DE30398016A00208847072852
:1051500001D10E20FDE129251120FAE10398816C8F
:1051600000208847072807D10F2020700398016F7F
:1051700000208847072816D0292511202CE20B98FB
:10518000016C00208847152807D02E202925207083
:10519000FDF768F90146C8A023E32D202070FDF734
:1051A00061F901469AE14DE2B8000020FF25002098
:1051B000180000205B25645D4E42494F542064690D
:1051C00064206E6F7420726573706F6E642E0D0AAA
:1051D000000000005B25645D4E42494F5420686129
:1051E0007320726573706F6E6465642E0D0A000023
:1051F0005B25645D4563686F206D6F646520747521
:10520000726E6564206F6666206661696C65642EE7
:105210000D0A00005B25645D4563686F206D6F6457
:1052200065207475726E6564206F666620737563A1
:105230006365737366756C6C792E0D0A000000004F
:105240005B25645D4661696C656420746F207265DE
:10525000616420494D4549206E756D6265722E0D61
:105260000A000000110700205B25645D546865207A
:10527000494D4549206E756D6265722069733A2506
:10528000732E0D0A000000004E554C4C000000002B
:105290005B25645D4661696C656420746F2072658E
:1052A000616420494D5349206E756D6265722E0D03
:1052B0000A0000005B25645D54686520494D534930
:1052C000206E756D6265722069733A25732E0D0A22
:1052D0000000000041542B4346554E3F0A00000099
:1052E00041542B4346554E3D310A00005B25645D19
:1052F0004F70656E696E6720616C6C2066656174C5
:10530000757265732E0D0A005B25645D4661696CDC
:10531000656420746F2073657420757020617574E6
:105320006F6D61746963206E6574776F726B206155
:1053300063636573732E0D0A000000005B25645DD6
:10534000536574206175746F6D61746963206E6557
:1053500074776F726B206163636573732073756319
:105360006365737366756C6C792E0D0A000000001E
:105370005B25645D5369676E616C20537472656E62
:105380006774683A25640D0A000000005802002086
:10539000B80B00005B25645D50534D206D6F646554
:1053A00020636F6E66696775726174696F6E2066DF
:1053B00061696C6564200D0A000000005B25645D76
:1053C00050534D206D6F646520636F6E666967751D
:1053D000726564200D0A00005B25645D4661696C9E
:1053E000656420746F206765742074696D650D0AAB
:1053F000000000005B25645D2A2A2A2A2A55706C69
:105400006F61642073746172743A25642A2A2A2AAF
:105410002A0D0A00400000205B25645D434F415087
:1054200020706172616D6574657220636F6E66696C
:105430006775726174696F6E206572726F720D0AA2
:10544000000000005B25645D434F415020636F6E98
:1054500066696775726174696F6E206661696C65F3
:10546000640D0A005B25645D4661696C65642074A7
:105470006F20437265617465206120436F41502045
:10548000636F6E746578740D0A0000005B25645DBF
:10549000437265617465206120436F415020636FE2
:1054A0006E74657874207375636365737366756C69
:1054B0006C790D0A000000005B25645D4661696C33
:1054C000656420746F2064656C65746520436F416A
:1054D0005020636F6E746578740D0A00D6A080E169
:1054E0000B98816E002088470D2800D033E61120EC
:1054F000B8E0DB490298FAF7C9FE002813D1D84971
:10550000D848FAF7C3FE00280DD1D648D4497B30DD
:10551000FAF7BCFE002806D1D248D149BC30FAF7D0
:10552000B5FE002806D02F202070FCF79BFF014617
:10553000CDA056E10598C16D00208847072807D007
:105540002F2029252070FCF78DFF0146D1A048E1CE
:1055500019209AE30198016800208847072871D034
:105560001F2029252070FCF77DFF0146D1A038E1DE
:105570000198816A002088470728F0D01F2029253C
:105580002070FCF76FFF0146D6A02AE10198016D5B
:1055900000208847072874D01F2029252070FCF799
:1055A00061FF0146D8A01CE10198816F0020884767
:1055B000072807D01F2029252070FCF753FF01463C
:1055C000DAA00EE11D2020700A98016A00208847A9
:1055D000072856D029251F202070FCF743FF0146DD
:1055E000D8A0FEE0DE48C08AFCF738FD1F204CE35F
:1055F0000A98016F00208847072801D1202044E342
:105600002E2029252070FCF72DFF0146D5A0E8E0CB
:1056100004988169002088470F281BD006DC0428E5
:105620002DD0092807D00B282BD10CE0112818D039
:10563000152826D11CE01A202070FCF713FF014624
:10564000D0A0CEE01DE01C202070FCF70BFF01462F
:10565000D9A0C6E01E202070FCF704FF0146E1A09F
:10566000BFE01B202070FCF7FDFE0146E7A0B8E07C
:105670002D202070FCF7F6FE0146ECA0B1E02925B4
:105680003EE027700BE3099801690020884709284C
:1056900007D0162029252070FCF7E4FE0146ECA077
:1056A0009FE014202070FCF7DDFE0146F0A098E09A
:1056B0006B490298FAF7EAFD002806D02F202070E7
:1056C000FCF7D0FE0146F3A08BE0FC4813260078DF
:1056D0003038072805D80998816B002088470728AB
:1056E00065D02670DBE2059881680020884707288E
:1056F00008D02925FCF7B6FE01469AA001F074F8FF
:105700002E20C2E2FCF7AEFE0146C8A0F6E70598DF
:10571000016B002088470D2802D029251620B4E20D
:105720002D202070FCF79EFE0146E5A059E04C4973
:105730000298FAF7ABFD002806D02F202070FCF766
:1057400091FE0146E6A04CE00498016C00208847D9
:10575000092807D0252029252070FCF783FE014663
:10576000E9A03EE022202070FCF77CFE0146EEA07E
:1057700037E00498816E002088470B2807D0252049
:1057800029252070FCF76EFE0146F0A029E02320B9
:105790002070FCF767FE0146F4A022E0089801693A
:1057A00000208847072802D0292525206DE26C4873
:1057B000C08AFCF753FC64E70898016E0020884714
:1057C000072800D154E71BE7079881680020884725
:1057D0000D2809D02E2029252070FCF743FE014614
:1057E000E9A001F001F85AE225202070FCF73AFE0A
:1057F0000146EBA0F5E7FCF735FE0146F8A000F006
:10580000F3FF2770AD4C0421606BFAF728FD0320ED
:10581000E07044E2524E307E012802D1F06905F07A
:105820007DFB2F202070FCF71DFE0146F4A000F048
:10583000DBFF0020307632E25B25645D53756363E5
:1058400065737366756C6C792064656C65746564EA
:1058500020436F415020636F6E746578740D0A00A9
:1058600088520008982600205B25645D4D515454F1
:1058700020706172616D6574657220636F6E666918
:105880006775726174696F6E206572726F720D0A4E
:10589000000000005B25645D4D51545420636F6E21
:1058A00066696775726174696F6E206661696C659F
:1058B000640D0A005B25645D4661696C6564207453
:1058C0006F206F70656E20746865204D51545420B0
:1058D000636C69656E74206E6574776F726B0D0A08
:1058E000000000005B25645D4661696C656420749E
:1058F0006F20636F6E6E65637420746F20736572C2
:105900007665720D0A0000005B25645D4661696C76
:10591000656420746F2073756273637269626520B9
:10592000746F20746F7069630D0A00005B25645DFD
:105930004661696C656420746F205365742050550E
:10594000420D0A005B25645D4661696C65642074E4
:105950006F2075706C6F616420646174610D0A0062
:10596000180000205B25645D4661696C65642074E5
:105970006F20636C6F73652074686520706F72743C
:105980000D0A00005B25645D4F70656E65642074D0
:105990006865204D51545420636C69656E74206EA7
:1059A0006574776F726B2073756363657373667567
:1059B0006C6C790D0A0000005B25645D53756363B0
:1059C00065737366756C6C7920636F6E6E65637456
:1059D000656420746F2074686520736572766572E3
:1059E0000D0A00005B25645D537562736372696222
:1059F0006520746F20746F706963207375636365CD
:105A0000737366756C6C790D0A0000005B25645D2C
:105A100055706C6F61642064617461207375636399
:105A200065737366756C6C790D0A00005B25645DA7
:105A3000436C6F73652074686520706F7274207397
:105A400075636365737366756C6C790D0A0000008D
:105A50005B25645D4661696C656420746F206F70BE
:105A6000656E2055445020706F72740D0A0000005E
:105A70005B25645D4F70656E2055445020706F72D9
:105A800074207375636365737366756C6C790D0A46
:105A9000000000005B25645D554450207061726118
:105AA0006D6574657220636F6E6669677572617487
:105AB000696F6E206572726F720D0A00F806002021
:105AC0005B25645D446174616772616D2069732058
:105AD00073656E742062792052460D0A0000000042
