:020000040800F2
:10000000002D0020D90000084D600008BD4A0008FE
:1000100000000000000000000000000000000000E0
:10002000000000000000000000000000D160000897
:1000300000000000000000004F600008D3600008CE
:10004000EB000008EB000008C1600008EB000008AE
:10005000EB000008EB000008EB000008331A000872
:10006000EB000008EB00000819140008EB00000882
:10007000EB000008EB000008EB000008EB000008B4
:10008000EB000008EB000008EB0000080000000097
:10009000EB000008EB000008EB000008EB00000894
:1000A000EB000008EB000008EB000008EB00000884
:1000B0005D6B00085160000800000000EB000008C4
:1000C0000448854600F09AFD00480047C5890008AD
:1000D000C046C046002D0020044880470448004721
:1000E000FEE7FEE7FEE7FEE7FEE7FEE775610008D4
:1000F000C100000830B50B46014600202022012433
:1001000009E00D46D5409D4205D31D469540491B4B
:100110002546954040191546521E002DF1DC30BD94
:10012000F0B51FB40646002082B005464024019178
:1001300000901BE0019922460F46304600F0DBFBA1
:10014000049A059B801A994110D3104619462246FD
:1001500000F0C1FB361A8F41019722460120002191
:10016000009F00F0B8FB38184D4100902046641EF7
:100170000028DFDC019B00982946324607B0F0BD1D
:100180000048704738B3000810B50446FFF7F8FF81
:100190000068005DC007C00F10BD01464139192934
:1001A00000D82030704703460B439B0703D009E07B
:1001B00008C9121F08C0042AFAD203E00B780370A2
:1001C000401C491C521EF9D27047D2B201E00270A5
:1001D000401C491EFBD270470022F6E710B51346BB
:1001E0000A4604461946FFF7F0FF204610BD421E9E
:1001F0005378521C002BFBD10B781370491C521CF6
:10020000002BF9D1704730B505462A460B461078C9
:100210001C78521C5B1C002801D0A042F7D0002C97
:1002200003D0002802D06D1CEFE7284630BD10B582
:10023000044605E00B780370401C002B00D0491CDD
:10024000521EF7D2204610BDCAB2401E4178401C53
:100250008A4202D00029F9D100207047421C01785F
:10026000401C0029FBD1801A704710B5002200E025
:10027000521C835C8C5CA34201D1002BF8D1D8B214
:10028000E1B2401A10BD0022CBB20178994200D1F0
:100290000246401C0029F8D11046704770B506464A
:1002A00006F054FD046805460A220021304600F09D
:1002B00099FB2C6070BDF8B502464A40D40F42004D
:1002C0004B0052085B089A4202D202460846114689
:1002D0004A0023D0C30D4A00DDB2120EAD1A202D04
:1002E00035DA49020126490AF6058A19002C00D0A0
:1002F000524220214F1B1146B9402A411018C20D0D
:100300009A4221D0002C17D0012D08DCDA05801A82
:10031000D20F8019D207DBB200F0A4FBF8BDDA05DA
:10032000801A012340001B06C01880185A4280180A
:10033000CA0F1043490007E04908C2071143DA0514
:10034000801A80194008801800F084FBF8BD610015
:100350000122511A001BF7E70122D2075140AAE7F8
:100360000122D2075040A6E7024670B54A40D30F9B
:10037000DB0740002DD04A002AD0010E140E0002E7
:1003800012020919400A520A8418E501044654432E
:10039000000A120A2E045043A4194219200CC54326
:1003A000AA18120C0125AD03521C521912047F39F0
:1003B000240400D0521C104301D44000491EC2B294
:1003C0000C06C0092018401C4008802A02D003E017
:1003D000002070BD40084000002900DA00201843CA
:1003E00070BD70B502464A40D50F40004A00ED0787
:1003F00040085208002814D0002A12D0C40DD30D92
:1004000041020120C0055202490A520AE41A0918A1
:1004100012187D34914201D3641C00E04900002C85
:1004200001DA002070BD0023914201D3891A0343F1
:10043000400849000028F7D100290AD0914202D192
:100440000121C90705E0914201D2012101E001210A
:10045000C943E005C018401900F0FCFA70BD000067
:10046000F0B507460846584087B0C00F04904800D2
:100470000E46590040084908BC1A884105D2384642
:1004800031461E4617460B460246580040081043A8
:100490004DD0300D039040055900400D490D059099
:1004A000401A0290402873DA18030121000B090555
:1004B0000843019004980092002806D01146019A42
:1004C00049420020904100910190029840210A1A6F
:1004D0000199009800F0FFF905460C466B4607CBE2
:1004E00000F01AFAC0197141039A0E0D0023D717B4
:1004F00056401A467A40164344D0049A002A2DD01A
:10050000029A012A039A15DC1205C01A91410126AC
:100510003605001C7141D20F059ED207009301924F
:1005200002962A46234600F0E3FA07B0F0BD3846AB
:100530003146FAE71605234A0F46B218C01AB741EA
:1005400001210905001C4F4100187F411146181870
:100550007941E20F10436D19644113E0E2076D0821
:1005600015436408C2071443039A01261205C01AF2
:1005700091413605001C7141CE07400830434908BF
:10058000C01851412A46234600F0A5FACDE7FFE7FF
:10059000049801224000C117121A00238B410498CD
:1005A0003146C417381AA141EEE730B40124E407FC
:1005B000634030BC54E730B40124E407614030BCF0
:1005C0004EE700000000E0FFF0B51FB488B00B99C3
:1005D0000998002448400999C00F49004908099129
:1005E000C0070B990090490049080B910999089898
:1005F000A64608431CD00B990A98084318D00998BE
:1006000001244000420D4800410D099824050003D3
:10061000000B204309900B980003000B20430B9024
:1006200050181C494018002201901446104605E05D
:10063000002001460DB0F0BD032801DA034600E0BA
:1006400003239C46C11A0AAE0AE05F0008ADED5BC9
:100650004F00F75B7D430027AA187C41491C5B1EB5
:100660006145F2DD410004AB5A522104120C0A43E9
:10067000240C401C0828DFDB01980290009970468A
:1006800001910090059B049A0799069800F030FAB2
:10069000D0E700000DFCFFFFF0B50C465C4085B0D4
:1006A000E40FE40703944C000026640859009446C4
:1006B000490802460296224321D062460A431ED0D0
:1006C0006200570D4A000E032303550D0124024614
:1006D0002C492405781B1B0B360B4018234326435B
:1006E000614600901C46501AB44103D30098401C48
:1006F000009002E0921800985B41002803DA002085
:10070000014605B0F0BD00200121090507468646D7
:1007100011E064461D46141BB54106D36546521BC5
:10072000B341744607430C43A646CD074008490829
:10073000284392185B4105460D43EAD11046184301
:1007400013D06046194650407140084306D06046B9
:10075000101AB34106D20122002306E00022012331
:10076000DB0702E00122D2435310009874460105D2
:10077000381C6141029C039D0019694100F0ABF9EE
:10078000BFE70000FD03000070B54B005B080343AA
:100790000BD04B005C0D002633466542B341D417A5
:1007A000AD1AA34102DB0020014670BD12053018CE
:1007B000514170BDC217C10F504010B54018CA0753
:1007C0009623002100F04EF910BD10B500229623AB
:1007D000114600F047F910BD0EB5C217C10F5040C9
:1007E000CA0740180021054B0293019200910A4666
:1007F0000B4600F07DF903B000BD0000330400009B
:100800000EB505490291002100910A460B4601915F
:1008100000F06EF903B000BD33040000C20F4100C8
:1008200040020123400ADB05D207090EC0187F29C8
:1008300001DA00207047962903DC9623591AC84034
:1008400001E096398840002AF4D0404270474100C8
:1008500040020122400AD205090E80187F2901DAE0
:1008600000207047962903DC9622511AC840704731
:10087000963988407047C20FD207400040080BD01D
:10088000C10D0723DB01C91840020905400A1143C5
:10089000C208400711437047002001467047CB0F44
:1008A000DB07490010B5490802460A4307D00A0D84
:1008B00007240903E401090B121B002A01DC0020B4
:1008C00010BDC900440F0C43C100E018D2058018C8
:1008D00000F0C0F810BD10B5202A04DB0146203A14
:1008E0009140002010BD914020239C1A0346E34014
:1008F0001943904010BD10B5202A04DB0846203A69
:10090000D040002110BD0B46D340D0402024A21A75
:1009100091400843194610BD10B5202A06DBCB17BD
:100920000846203A1041C1170B4306E00B4613411D
:10093000D0402024A21A91400843194610BD00005F
:100940000FB400B589B00CA900910B990023CB60BE
:10095000204B214A06930792042201921F4A0292D9
:100960001F4A089202466B46002000F0E8F909B0E1
:1009700008BC04B0184770B586B006460020C043D6
:100980000190002015460C460091029104903246D9
:10099000694604A8FFF7D4FF024604982118002DE9
:1009A00005D0002801D0084600E0204628600498C1
:1009B00000280DD0002A02DD0098884208D0081BCC
:1009C0000190009432466946029404A8FFF7B8FFEC
:1009D00006B070BD950F0008B50F0008FFFFFF7F40
:1009E00089010008F7B5009C0F4600262578641C95
:1009F000002D05D0FFF7C4FB0068405DC007F5D1AE
:100A00002B2D02D02D2D18D0641E39462046029A77
:100A100000F0E2FA002F04D03968A14201D1009918
:100A200039607105022400290BDA4042002803DDF9
:100A300006F08CF90460A007FEBD01208002064389
:100A4000E3E70028F8DA06F081F904600048FEBD0B
:100A5000FFFFFF7F002904DA401C490001D1400854
:100A60004000704770B40024050C05D11024000428
:100A700002D1002921D01124050E01D10002083431
:100A8000050F01D10001241D850F01D18000A41C98
:100A9000002801DB4000641C002908D020252E1B03
:100AA0000D46F540A14000D001212943084301062D
:100AB0001B1B000ADB1D02D5002070BC7047DB0544
:100AC000181880180029F8DA401C4900F5D170BCCC
:100AD00040084000704710B5002B08DA0024401C85
:100AE000614192185B411A4301D14008400010BD9A
:100AF000F0B51FB482B005460C0003D0084606F0DE
:100B00009DF802E006F09AF8203002460090214657
:100B10002846FFF7E0FE049B059A04460F4618435B
:100B20001143084314D0184610431BD000984021AD
:100B30000A1A18460599FFF7DEFE05460E46009A8A
:100B400005990498FFF7C7FE084305D0012004E08B
:100B50002046394607B0F0BD0020C11705430E43BB
:100B60002C43374300990E986305401A7905E40A2F
:100B700000220C43FD0A0A3002D500200146E9E7B5
:100B80000105101969410C9C0D9D00196941FFF781
:100B9000A2FFDFE74A0009030123090B1B051943E4
:100BA0000A4B10B5520D9A4202DA0020014610BDE0
:100BB000064B34339A4203DC9A1AFFF79CFE10BDB1
:100BC000034BD218FFF787FE10BD0000FF030000A3
:100BD000CDFBFFFF10B5002904DB0124E4074042F0
:100BE0008C412146002B04DB1C460123DB075242CB
:100BF000A341994200D1904210BD0000064C01254E
:100C0000064E05E0E36807CC2B430C3C98471034B4
:100C1000B442F7D3FFF758FAC4BA0008E4BA0008A0
:100C2000FFB5087889B01546FF2805D0491C2D2846
:100C300004D00022002407E000240BE00122F9E7A1
:100C40000A235C430419491C0878FF28F8D1002ABC
:100C500000D06442002004902A7801462D2A01D059
:100C60002B2A0FD16D1C2D2A02D00022049209E0FC
:100C70000122FBE700260A2233466D1C00F0FFF933
:100C8000381871412F78FF2FF4D10C9AA2180692D0
:100C900002460A4304D0FF23069A9133DA4205DA6A
:100CA000002109980A4606C00DB0F0BD0024B74ADD
:100CB000B54D2646079200F02FFA02900698039150
:100CC000002801DA474200E0074639050020AF4A14
:100CD000001C51410191009012E0F80707D0224614
:100CE0002B4630460799FFF76FFC064607912246D0
:100CF0002B4610461946FFF767FC04460D467F1049
:100D0000002FEAD10698019B0028009A03990298C7
:100D100006DAFFF7C1FC3246079BFFF7BDFC05E092
:100D2000FFF752FC3246079BFFF74EFC049A002A5D
:100D300002D00122D2075140099A03C2B4E7FFB59D
:100D400091B0002009900025ED432E209E685C683C
:100D50001F460190B9696D1C129888470090396A46
:100D600088470028F6D10098401C0AD00D20C00109
:100D70008443002E12DD00982B2809D02D280DD198
:100D800003E00020C04315B0F0BD01208002044301
:100D9000B9696D1C12988847761E009003A96005FA
:100DA00001D52D2000E02B206A461073491C0CA8A9
:100DB0000F9102900AE0B9696D1C12988847009063
:100DC0000120400204431398761E0560002E02DDC8
:100DD00000983028EFD001990098884246D18020B1
:100DE000044308E00998401E099001204002044392
:100DF0001399681C0860B9696D1C761E12988847A3
:100E000000903028EED031E00199884205D12006CB
:100E100003D480200443761E1EE0009806F070F88C
:100E2000002826D001204002044307A90F9803316F
:100E3000761E88420BD200980F99303808700F98B0
:100E4000401C0F90200607D50998401E03E020069D
:100E500002D40998401C0990A00502D51399681C7A
:100E60000860B9696D1C129888470090002ECBDC91
:100E700059E0002E57DD0098652801D0452852D151
:100E8000A00550D5032000028443B9696D1C761E6D
:100E9000129888470090002E0CDD2B2804D02D28B6
:100EA00008D1FF2001300443B9696D1C12988847AE
:100EB000761E0090E00501D52D2100E02B2102983F
:100EC00001700298401C0290019025E00120400230
:100ED00004430EA902980131761E88420ED2009872
:100EE000029930380006000E087003D1029901986B
:100EF00081420AD90298401C029006E0E00501D523
:100F0000234801E0224840420990B9696D1C1298BB
:100F10008847009013980560002E04DD009805F0C6
:100F2000EFFF0028D2D1F969129888470F99FF2066
:100F30000870029903AA087000200A900B900CA96F
:100F40000AA8099BFFF76CFEA00502D40120C0434C
:100F500019E72420044209D0E00713D138680B9A1E
:100F60000A99031D3B60006806C00BE00B990A98C4
:100F7000FFF795FC0146E00704D13868021D3A608E
:100F8000006801602846FEE6000014400000F03FC3
:100F9000F1D8FFFF4268002A08D001680B78491C8D
:100FA000002B03D0521E06C0184670470121C160B5
:100FB000881E70474268002A0BD0C3680168002B66
:100FC00007D183688B4204D0491E521C06C0002002
:100FD00070470020C0437047F7B582B0029C0027DD
:100FE0002078641C15460197302802D0002D15D0BA
:100FF00015E020780127641C782804D0582802D0F6
:10100000002D09D00BE0002D01D0102D07D10027B5
:1010100010252078641C02E0082500E00A2500263F
:10102000009610E00099012769430818020C294630
:1010300080B2714300908E183804864201D301209B
:1010400001902078641C294600F056F80028E9DA5F
:101050000398002805D0002F01D0641E00E0029CF8
:1010600004600198002806D005F070FE022101609E
:10107000C81E05B0F0BD009930040843F9E7F0B58B
:101080001FB486B000200090019002900698069947
:1010900080B204900798090C0204001411430790D1
:1010A0000027089D099806913E463C460390039808
:1010B000A9B20204000C039004982D0C1543484378
:1010C00000212246FFF707FCC719714110340E4674
:1010D000402CECDB3846029AFFF7FDFB009A019B9F
:1010E00080180090594102980191103002904028D8
:1010F000CCDB00980BB0F0BD3A2800D2303820236A
:1011000002469A43412A01D310463738884201D318
:101110000020C043704700000EB5054A029200222D
:10112000009213460192FFF7E3FC03B000BD0000FC
:101130003304000070B58C180578401C6B075B0FFA
:1011400001D10378401C2A1106D10278401C03E02B
:1011500006780E70401C491C5B1EF9D12B0705D484
:101160000023521E0DD40B70491CFAE70378401C73
:10117000CB1A921C03E01D780D70491C5B1C521E9B
:10118000F9D5A142D8D3002070BD0000F0B585B0DC
:10119000054614216846FFF71FF8304F00246E46BD
:1011A000284603F0DFFB0146B88B4843C117090D01
:1011B00008180013FFF7FEFAFFF749FB61007052B1
:1011C0000A2001F05DF9641CE4B2062CE8D3062184
:1011D000684609F01FFC68464188808809186846FF
:1011E000C2880089101808188008FFF7EEFA044634
:1011F000012D0FD01A48854219D101F0E9FA0146B4
:1012000018A005F0F7FC2046FFF735FB02460B4619
:1012100016A01BE001F0DCFA014612A005F0EAFC82
:101220002046FFF728FB02460B4615A00EE01948A2
:1012300085420DD101F0CCFA01460AA005F0DAFC96
:101240002046FFF718FB02460B4613A005F0D2FC20
:101250002046FFF7FCFA80B205B0F0BD582200200E
:10126000020000045B25645D000000006164635FB0
:101270006D562832293A252E32660D0A00000000EC
:101280006164635F6D562831293A252E32660D0A56
:1012900000000000100000106164635F6D56283389
:1012A000293A252E32660D0A0000000038B50446A2
:1012B000064805490068FEF71DFF604300E0401E38
:1012C00000900028FBD138BD40420F00981C002040
:1012D000F8B50446006881688907890F012902D1A1
:1012E0000168C90722D18168114A102611400125E1
:1012F00000290ED18168294381600120FFF7D6FFC4
:1013000001F066FA07460CE001F062FAC01B0A28F9
:1013100007D9606D30436065A06D2843A06501204A
:10132000F8BD20680068C043C007EDD10020F8BDBB
:101330001700008070B50646002409F0ADF82CA116
:101340003046FEF792FF00281AD02AA13046FEF759
:101350008CFF002815D0284D1820604329583046AE
:10136000FEF751FF002810D024A13046FEF74BFFB6
:10137000002810D0182044436019816830468847FF
:1013800070BD304606F08EFC70BD641CE4B2152CB6
:10139000E2D9012070BD1AA13046FEF734FF0028C3
:1013A0000AD0182044436019C16830468847002895
:1013B000F0D107F073F819E012A13046FEF723FFD1
:1013C00000280DD001F004FA01460FA005F012FC30
:1013D00018204443601941690DA005F00BFC05E09D
:1013E000182044436019016930468847002070BDC9
:1013F0004154000041543F0084B000083D3F0000CC
:101400003D0000003F0000005B25645D000000001F
:1014100025730D0A0000000010B5034800F060FFBE
:10142000024800F05DFF10BD8C1F0020441F00200B
:1014300030B5446C1C252C400125A540046C65602A
:10144000046863608368102B036803D099600068A8
:10145000C26030BD9A600068C16030BD70B505469D
:1014600000F036FA2946442000F03EFA2A4E304673
:1014700001F006F8284600F02BFA2946BE2000F0BD
:1014800033FA284600F0DAF90446284600F0D6F987
:10149000052819D1502C17D1284600F019FA2946F1
:1014A000442000F021FA304600F0EAFF284600F020
:1014B0000FFA2946BE2000F017FA284600F0BEF9C0
:1014C0000446284600F0BAF9000200B2204308D5CD
:1014D000C043401CFFF780F90022104BFFF774F85F
:1014E00005E0FFF779F90322D243FFF74DF9FFF743
:1014F000D6F9044601F06CF9014609A005F07AFB23
:101500002046FFF7B8F902460B46294606A005F02B
:1015100071FB204670BD0000EE0200000000B0BF6D
:101520005B25645D000000004453313842323028AE
:101530002564292074656D7020697320252E32661C
:10154000200D0A0030B500221949032387B0012875
:1015500013D005240125240702281FD003281BD1FE
:10156000C86A2843C862C86A2840059008150090D8
:1015700069460193029220460CE0CC6A02200443A3
:10158000CC62C96A01930140059108200090029243
:101590006946084801F04EF807B030BDC86A2843D4
:1015A000C862C86AC007C00F059001204002DEE78C
:1015B000001002400004005010B500230122194918
:1015C00086B0012812D00524240702281FD0032842
:1015D0001BD1C86A1043C862C86A1040059008153C
:1015E000009069460193029220460CE0CC6A0220EA
:1015F0000443CC62C96A0193014005910820009020
:1016000002926946084801F015F806B010BDC86A94
:101610001043C862C86AC007C00F0590012040028D
:10162000DEE70000001002400004005010B5012267
:101630001849022386B0012812D005242407022865
:101640001ED003281AD1C86A1043C862C86A104065
:1016500005900815009069460393019220460BE01F
:10166000C86A1843C862C86A6946184005900820CD
:10167000009003930192084800F0DCFF06B010BD13
:10168000C86A1043C862C86AC007C00F059001202D
:101690004002DFE7001002400004005070B5002453
:1016A000012806D005252D0702282AD003284ED070
:1016B00074E00120FFF780FF394D04E0641CE4B2C0
:1016C000012000F0ABF90821284601F075F8002848
:1016D00002D0642CF2D35FE0642C5DD2002404E0DD
:1016E000641CE4B2012000F099F90821284601F0B9
:1016F00063F8002802D1F02CF2D34DE0F02C4BD24D
:101700004CE00220FFF758FF0126760204E0641C3B
:10171000E4B2012000F082F93146284601F04CF88D
:10172000002802D0642CF2D336E0642C34D200249A
:1017300004E0641CE4B2012000F070F93146284650
:1017400001F03AF80028D9D1F02CF2D324E003209C
:10175000FFF732FF0126B60204E0641CE4B2012068
:1017600000F05CF93146284601F026F8002802D046
:10177000642CF2D310E0642C0ED2002404E0641C2C
:10178000E4B2012000F04AF93146284601F014F88D
:101790000028B3D1F02CF2D3012070BD002070BD21
:1017A0000004005070B5012806D005242407022843
:1017B00013D003282BD025E00120FFF737FF1E4C64
:1017C00000220821204600F0FCFF0A2000F026F944
:1017D0000120FFF7F1FE08210EE00220FFF726FFAF
:1017E00001256D0200222946204600F0EAFF0A206A
:1017F00000F014F9022018E0204600F0DDFF012877
:1018000017D000222D2000F009F9104670BD0320EA
:10181000FFF70CFF0125AD0200222946204600F00B
:10182000D0FF0A2000F0FAF80320FFF7C5FE294692
:10183000E2E70122E6E700000004005070B5002551
:1018400006462C463046FFF7ADFFA0402843641CF7
:10185000E4B2C5B2082CF5D3284670BD70B51A4D58
:10186000012814D005242407022825D0032822D1DA
:10187000FFF7DCFE00220126B6023146204600F0CA
:10188000A0FF284600F0CAF8012231460DE00120F1
:10189000FFF7CCFE0D4C00220821204600F091FFFE
:1018A000284600F0BBF801220821204600F089FFFD
:1018B0000F2000F0B3F870BD0220FFF7B7FE002242
:1018C00001267602D9E70000EE0200000004005075
:1018D00010B50446FFF7C2FF2046FFF7DFFE2146A2
:1018E000CC2000F001F810BDF8B5044601291FD046
:1018F00005252D07022949D0032946D10320FFF7EA
:1019000095FE00260127BF02E007C00F64080028EB
:101910006BD000223946284600F053FF082000F023
:101920007DF801223946284600F04BFF3A206AE054
:101930000120FFF77BFE384E0025E007C00F64084A
:1019400000280ED000220821304600F03AFF08207F
:1019500000F064F801220821304600F032FF3A20FE
:101960000DE000220821304600F02BFF462000F059
:1019700055F801220821304600F023FF022000F034
:101980004DF86D1CEDB2082DD7D3F8BD0220FFF73E
:101990004DFE002601277F02E007C00F64080028E3
:1019A0000ED000223946284600F00BFF082000F038
:1019B00035F801223946284600F003FF3A200DE0B1
:1019C00000223946284600F0FCFE462000F026F8AA
:1019D00001223946284600F0F4FE022000F01EF8ED
:1019E000761CF6B2082ED7D3F8BD00223946284619
:1019F00000F0E7FE462000F011F8012239462846A3
:101A000000F0DFFE022000F009F8761CF6B2082E86
:101A100000D279E7F8BD00000004005006E0002184
:101A2000491CC9B20429FBD3401E80B20028F6D15C
:101A3000704710B50120800300F0F0FD10BD0000DC
:101A400010B586B0044614216846FEF7C5FB1C4855
:101A5000C26A02210A43C262C06A1A4A084005905B
:101A6000480300900020002C06D0012C10D0022C3E
:101A700011D0032C14D016E0032101910290694685
:101A8000104600F0D7FD072001F060FA06B010BD47
:101A90000D49019102E00D4801900120029002E001
:101AA0000B48029101906946104600F0C3FD0022E8
:101AB0000221072001F066FA072001F057FAE5E756
:101AC00000100240000400500000311000002110FE
:101AD000000011107047000010B5084900224A614B
:101AE00007494B684C1523434B604B68082423433C
:101AF0004B60C009C001026010BD0000E428002056
:101B00000020024010B5214A00219069C3052048F9
:101B100004D54169022319434161911593699B05DD
:101B200005D5436901242343436163021943936943
:101B30005B0505D54369082423434361E301194349
:101B400093691B0505D5436904242343436163025C
:101B5000194393699B0405D54369102423434361CA
:101B60006302194393699B0304D5446920231C43F2
:101B7000446119439369DB0305D54369402423433A
:101B80004361A0020143916110BD000000200240AA
:101B9000E428002070B5054600F01AFE0646184CF1
:101BA0000AE0681C08D0002D04D000F011FE801B54
:101BB000A84201D9032070BDA069C007F1D1A06976
:101BC000800701D50220A061A069C00511D4A069D9
:101BD00080050ED4A06940050BD4A069000508D487
:101BE000A069800405D4A069800302D4A069C00361
:101BF00003D5FFF787FF012070BD002070BD0000F6
:101C00000020024070B50C46054600F0B3FC084ABF
:101C10000020946021C20749054800F043FC0028D9
:101C200002D005A004F0E6FF00F078FC70BD0000D3
:101C3000302500200C0000206572726F7220696EE2
:101C4000204572617365206F7065726174696F6E93
:101C50000A0D0000F8B516460F460446002500F0B0
:101C600089FC0DE0A8003A582146022000F064FCEF
:101C7000002803D005A004F0BDFFF8BD241D6D1C95
:101C8000B542EFDB00F04AFCF8BD00006572726FF0
:101C90007220696E205772697465206F7065726179
:101CA00074696F6E0A0D0000016802484160406867
:101CB000704700000C00002000B587B01421684672
:101CC000FEF78AFA0A48C26A02210A43C262C06A5F
:101CD00008400590880200900320019000200290A7
:101CE00005206946000700F0A5FC07B000BD000014
:101CF0000010024000B587B014216846FEF76CFA68
:101D00000B48C26A02210A43C262C06A08400590B9
:101D1000880200900020019001200290032003908F
:101D200005206946000700F085FC07B000BD0000F3
:101D30000010024000B587B014216846FEF74CFA47
:101D40000948C16A01221143C162C06A6946104054
:101D5000059010030090032001900020029003489A
:101D600000F068FC07B000BD001002400004005005
:101D700000B587B014216846FEF72EFA0A48C26AF9
:101D800001210A43C262C06A01910840059008031C
:101D9000009000200290032003906946034800F061
:101DA00049FC07B000BD00000010024000040050D4
:101DB00010B502F043FE0149486010BD1400002038
:101DC00070B502F03BFE0C4C002520606168884233
:101DD0000ED0401AFEF7EEFC0849896AFEF701FBB7
:101DE000FEF71CFD0649A06040180649884200D352
:101DF000A560A06870BD00001400002058220020DB
:101E00008813000011270000F8B505460446403548
:101E1000287C0026012808D00120287420688168C9
:101E20008907890F01290ED101E00220F8BD016860
:101E3000C90708D0606D2021084360650126002095
:101E400028743046F8BD616DFF22013291430222B1
:101E500011436165C1688907890F0091C1688908CC
:101E60008900C1602068816892071143816000F099
:101E7000AFFC07460EE000F0ABFCC01B0A2809D9F6
:101E8000606D02218843102108436065002028749A
:101E90000120F8BD206880680028ECDB2068C1685C
:101EA000009A1143C160606D80088000401C60652D
:101EB000C5E70000F8B506460D464036317C0129DD
:101EC0000DD00121317401688A68520709D5416D2E
:101ED000202211434165002030740120F8BD02200A
:101EE000F8BD174B6A68D80547109A42154C8A6AA4
:101EF0002B6812D05B035B0B1A438A622968490383
:101F000005D5A1680143A1600A20FFF7CFF9286831
:101F1000800312D5A06838430EE05B035B0B9A4345
:101F20008A622968490302D5A1688143A1602868B3
:101F3000800302D5A068B843A06000203074F8BDCB
:101F400001100000002701400068006C704700008D
:101F500070B5040006D0606D264600254036002886
:101F600002D006E0012070BDA5653574204600F062
:101F7000D3F8606DC00603D421688868400705D592
:101F8000606D1021084360653574EBE7606DFF22DA
:101F90000132904302221043606588688207920FE5
:101FA0005B48012A02D10A68D2072BD10323626859
:101FB0009B079A4205D05B429A4202D05B009A424C
:101FC00009D10A69920092080A6121680A69636866
:101FD0001A430A610CE00A69920092080A6181685A
:101FE0000F2292049143816081686268114381608D
:101FF0002168CA6818239A43CA602168CA68A3681E
:102000001A43CA6081680122520691438160816847
:10201000A28E52061143816020688168C90004D4F1
:10202000816801221207114381602068C168394A22
:102030001140C1602069E168022825D000200143D9
:10204000204620300278037B52035B001A43114381
:10205000226B1143A26992031143E269D203114337
:102060002268D3681943D160616A0A46FF3AC23ACE
:1020700005D0A26A11432268D3681943D16042781F
:102080000121012A02D00BE00420D8E700780028C3
:1020900023D0606D202210436065A06D0843A065C9
:1020A000E06B012820681FD00169C90703D00169CE
:1020B00049084900016120684169C908C9004161B6
:1020C00020684169A26B11434161A565606D80087C
:1020D0008000401C6065002070BD2068C26801233C
:1020E0001B041A43C260DBE70269FF239B009A438B
:1020F000026120680269236CA66C1A43636C334347
:102100001A430261206802690A430261D3E70000B2
:10211000002701401902FEFF00680449884204D1EB
:102120000348416B4215114341637047002401404D
:1021300000100240F8B504464069254640350E4679
:1021400008280BD02068C068C00709D0606D202126
:1021500008436065002028740120F8BD082700E0CE
:102160000C2700F035FB009011E0701C0FD0002E02
:1021700005D000F02DFB0099401AB04207D9606DE0
:10218000042108436065002028740320F8BD2068FE
:1021900000683842E9D0606D01214902084360655A
:1021A0002068C16809058A0F0C21002A1BD1202252
:1021B000125D002A17D10268120714D582685307EE
:1021C0000122002B08DB43688B434360606D1302E0
:1021D00098431043606506E0606D202318436065F6
:1021E000A06D1043A065A069002801D1206801609E
:1021F0000020F8BD70B504462168002089684907B1
:1022000021D425464035297C01291CD0012129747F
:10221000E169012904D02046FFF75AF8002811D1BE
:10222000616D0A4A1140FF220132114361650021AC
:10223000A165297422681C21116021688A68042321
:102240001A438A6070BD022070BD0000FEF1FFFFDE
:1022500030B5014620314A790023022A04D00422F5
:10226000C2630B71012030BD026814680E25AC43B7
:10227000146002681468640864001460446C1C22D2
:10228000144001221546006CA54045604A7118466D
:102290000B7130BD70B50024014620314A79022A05
:1022A00003D00421C163012418E0026813680E25DD
:1022B000AB431360026813685B085B001360436CF8
:1022C0001C221340012215469D40036C5D604A713B
:1022D00000220A71816B002900D08847204670BD1A
:1022E000F0B4016C0D6801680C68466C1C23042274
:1022F0001E401746B7402F420ED067070CD50C681A
:10230000A40602D40C6894430C60416C19408A40C6
:10231000016C4A60016B1AE00227B74002462F4069
:102320002032002F17D0A70715D50C68A40605D4B6
:102330000C680A25AC430C6001215171446C0221E8
:102340001C40036CA140596000211171C16A002931
:1023500018D0F0BC08470827B7402F4212D02407F6
:1023600010D50C680E25AC430C60446C01211C4058
:102370000B46A340046C6360C1635171002111716D
:10238000416BE4E7F0BC704770B504003CD01F48D7
:10239000256814212818FDF7ADFE800060641C48F4
:1023A00020640221204620300246417129681948E4
:1023B000E3680140A0686669184323693343184302
:1023C000A3691843E3691843236A18430843286044
:1023D0000121A0688903884210D00D488030836AAB
:1023E000656C1C210D400F26AE40B3438362656CC3
:1023F00063680D40816AAB400B4383620020E06359
:1024000001215171107170BD012070BDF8FFFDBF39
:10241000000002400F80FFFFF8B504468C462030D4
:1024200001790025012909D001260671417900278B
:10243000012905D0077102252846F8BD0220F8BD04
:1024400002214171E7632068016849084900016081
:1024500061462046FEF7ECFF206B002820680168EB
:1024600001D00E2205E0042291430160206801683A
:102470000A22114301602068016831430160DBE7F3
:1024800070B5044600F0A4F90546601C02D004486B
:102490000078241800F09CF9401BA042FAD370BDCC
:1024A0008C1C0020F8B51A4E0546307C0F460128DA
:1024B00007D0012030741748FFF76CFB010002D0F1
:1024C00021E00220F8BD0020C04338606C6814E0B1
:1024D0002046FFF701FB0F48FFF75CFB01460E4863
:1024E000426808239A434260426843159A43426017
:1024F000002901D03C6006E08034A8686A68C00109
:102500008018A042E4D8002030740846F8BD0000CE
:10251000E428002050C30000002002400548416824
:1025200002221143416041680122114341600020B1
:102530007047000000200240F8B50C4C1646207C85
:102540000F46012808D0012020740948FFF722FB1C
:102550000025002802D006E00220F8BD65613E603B
:102560000348FFF717FB2574F8BD0000E42800209E
:1025700050C3000011484168C9070BD0EFF3108128
:1025800072B60F4AC2600F4AC26081F31088416878
:10259000C9070ED1416889070DD5EFF3108172B6D6
:1025A000094A0261094A026181F310884068800784
:1025B00001D5012070470020704700000020024034
:1025C000EFCDAB8905040302BFAE9D8C1615141325
:1025D000012110B58903884211D10C4901200870EE
:1025E0000B48407B362802D14A68521C4A60094990
:1025F0000979012904D0362801D002F0D3FB10BD9F
:102600003628FCD0044907204871F6E758220020FC
:1026100038220020FC0400200000002010B50449EE
:102620004A69024202D04861FFF7D2FF10BD0000A4
:1026300000040140FCB500230124A7E027462A46F8
:102640009F403A406FD04D68012D05D0022D03D038
:10265000112D01D0122D16D185680326AC465D00E0
:10266000AE46AE406546B543AC46CE687546AE4014
:1026700065462E43866046680D79BE43ED06ED0F34
:102680009D4035434560C6685F000325BD40AE46AA
:10269000AE4335468E68BE402E43C6604E68022E5D
:1026A00001D0122E14D1DE08B60036180196366A13
:1026B0005D07B446EE0E0F25B54000966646AE4364
:1026C000B4460D69009EB54066462E43019D2E62BC
:1026D00006687546AE430D79AD07AD0FBD40354375
:1026E00005604D68ED0050D52B4D6E6B26436E6333
:1026F0009E082A4DB6007519AC46AD689E07360F88
:102700000F27B740BD4305273F07B84201D1002737
:102710001AE0234FB84201D1012715E0214FB842FA
:1027200002D1022710E030E01F4FB84201D1032749
:102730000AE01E4FB84201D1042705E01C4FB84201
:1027400001D1052700E00627B7402F436546AF605B
:10275000184D2E684F689643FF0300D516432E6030
:102760006E684F689643BF0300D516436E60AE682F
:102770004F689643FF0200D51643AE60EE684F687F
:102780009643BF0200D51643EE605B1C0A681546EF
:10279000DA4000D052E7FCBD0010024000000140CA
:1027A0000004005000080050000C005000100050C1
:1027B000001C0050000401400069084000D00120C6
:1027C0007047002A01D08161704781627047000024
:1027D00001488068704700008C1C002070B50246DC
:1027E00040325378202B1CD11378012B19D00123B0
:1027F000137024245470046825689D432560046880
:1028000025681E03B5432560046825680D432560CF
:10281000006801681943016020205070002010708A
:1028200070BD022070BD70B5024640325378202B37
:102830001BD11378012B18D001241470242353705A
:1028400003681D68A5431D6005682B680F263602C6
:10285000B3430902194329600068016821430160FC
:10286000202050700020107070BD022070BD406CA0
:102870007047000070B5040006D0254640356878E2
:102880000026002802D005E0012070BD2E702046F1
:1028900000F0AAFA242068702068016849084900FD
:1028A00001600F216068090688432168086121687A
:1028B0008A680120C00382438A60E1680129A16817
:1028C00008D021229202114322689160E168022916
:1028D00002D005E00143F7E701212268C9025160F7
:1028E00021684A680F4B1A434A602168CA688243CC
:1028F000CA60616920690843A16909020843216827
:10290000C860216AE069084321680860206801689E
:102910000122114301606664202068702663AE7056
:10292000002070BD00800002FFB50546044640351A
:10293000687881B0202878D12878012875D00120C6
:102940002870FFF745FF0746012200901923D103A5
:10295000204602F071F900283CD122206870102036
:10296000A8700026666403986062049860856663B8
:10297000618D2F48FF2903D9FF22228500903BE07B
:10298000618D218500903DE02046029902F040F9DA
:1029900016E002F079F900281CD12068406A616ACB
:1029A0000870606A401C6062208D401E81B22185E3
:1029B000608D401E6085608D002801D000290CD0FC
:1029C000608D0A9900283A462046E2D102F09CF92F
:1029D00000281CD0012005B0F0BD00970022802106
:1029E00020460A9B02F028F90028F3D1608DFF28C9
:1029F00005D9FF222285009601231B06C4E7608DBE
:102A000020850096208D0123C2B25B06BCE72168B9
:102A10002020C86121684A68064B1A404A606870E5
:102A2000AE702E700020D6E7FFE70220D3E700004B
:102A30000024008000E800FEFFB50546044640354E
:102A4000687881B0202878D12878012875D00120B5
:102A50002870FFF7BDFE0746012200901923D1031D
:102A6000204602F0E9F800283CD1212068701020AF
:102A7000A8700026666403986062049860856663A7
:102A8000618D2F48FF2903D9FF22228500903BE06A
:102A9000618D218500903DE02046029902F0B8F852
:102AA00016E002F057F900281CD1606A216800780E
:102AB0008862606A401C6062608D401E6085208D67
:102AC000401E80B22085618D002901D000280CD0E5
:102AD000608D0A9900283A462046E2D102F014F9A6
:102AE00000281CD0012005B0F0BD009700228021F5
:102AF00020460A9B02F0A0F80028F3D1608DFF2841
:102B000005D9FF222285009601231B06C4E7608DAC
:102B100020850096208D0123C2B25B06BCE72168A8
:102B20002020C86121684A68064B1A404A606870D4
:102B3000AE702E700020D6E7FFE70220D3E700003A
:102B40000020008000E800FEFFB505460446403541
:102B5000687883B0202875D10C98002814D00D987F
:102B6000002811D0287801286CD001202870FFF7A8
:102B70002FFE0746012200901923D103204602F0C0
:102B80005BF8002874D103E00120400260646FE02C
:102B9000222068704020A870002666640C9860624D
:102BA0000D98608566630E980090019704A90EC980
:102BB000204601F0CDFF002801D02E7058E0618D35
:102BC0003448FF2905D9FF22228501231B060090E6
:102BD00006E0618D21850090208D0123C2B25B0645
:102BE0002046049902F014F80097002204212046A0
:102BF0000E9B02F021F800283AD12068406A616AF1
:102C00000870606A401C6062208D401E81B2218580
:102C1000608D401E6085608D00281FD000291DD169
:102C200000970022802120460E9B02F005F8002824
:102C30001ED1608DFF2806D9FF22228501231B06A5
:102C4000009607E024E0608D20850096208D01230A
:102C5000C2B25B062046049901F0DAFF608D0028BD
:102C6000C2D13A4620460E9902F04EF8002802D012
:102C7000012007B0F0BD20682021C16120684268B2
:102C8000054B1A4042606970AE702E700020F0E76C
:102C90000220EEE70024008000E800FEFFB50546B4
:102CA00004464035687883B0202872D10C980028FB
:102CB00014D00D98002811D02878012869D001205F
:102CC0002870FFF785FD0746012200901923D103E4
:102CD000204601F0B1FF002871D103E0012040023D
:102CE00060646CE0212068704020A8700026666453
:102CF0000C9860620D98608566630E98009001974D
:102D000004A90EC9204601F053FF002801D02E70FF
:102D100055E0608DFF2805D9FF22228501231B067F
:102D2000009606E0608D20850096208D0123C2B2BA
:102D30005B062046049901F06BFF3A4620460E9947
:102D400002F008F800283AD1606A216800788862A9
:102D5000606A401C6062608D401E6085208D401E50
:102D600080B22085618D00291FD000281DD10097D9
:102D70000022802120460E9B01F05EFF00281ED11C
:102D8000608DFF2806D9FF22228501231B060096AD
:102D900007E024E0608D20850096208D0123C2B2DB
:102DA0005B062046049901F033FF608D0028C4D1F2
:102DB0003A4620460E9901F0A7FF002802D00120D4
:102DC00007B0F0BD20682021C16120684268054B32
:102DD0001A4042606970AE702E700020F0E7022049
:102DE000EEE7000000E800FE10B586B004461421AE
:102DF0006846FDF7F1F910492068884219D10F4C57
:102E0000E16A02200143E162E16A01400591C020CC
:102E1000009012200121019003200291049103905F
:102E200069460748FFF706FCA06B012149050843E6
:102E3000A06306B010BD0000005400400010024026
:102E40000004005070B504000FD0216813480860DA
:102E500021681348086003CC41602068083C216861
:102E60008860FFF7B5FC054608E0012070BDFFF75C
:102E7000AFFC401B292801D9032070BD2068C06821
:102E80000028F4D120680269E1688A4201D001611A
:102E900001E004490160002070BD0000CCCC0000BE
:102EA00055550000AAAA00000068024901600020F0
:102EB00070470000AAAA00000248816802788918B9
:102EC000816070478C1C002010B508480024016800
:102ED000402211430160204600F00AF8002801D08A
:102EE000012401E000F026F8204610BD0020024039
:102EF00070B504460D4D7D202978C000FDF7FAF825
:102F000001460B480068FDF7F5F801F027F80028A6
:102F100009D1042C07D200222146401E00F032F8CD
:102F200000206C6070BD012070BD00008C1C002072
:102F3000981C00200448416B012211434163816BBE
:102F4000020411438163704700100240002809DB2E
:102F5000C106C90E0120884003490860BFF34F8FA6
:102F6000BFF36F8F7047000080E100E0002805DBB1
:102F7000C106C90E01208840014908607047000061
:102F800000E100E010B503F095FE10BD02480168B5
:102F9000021511430160704700700040024801684B
:102FA00042151143016070470070004002480168FB
:102FB000821511430160704700700040F0B5154A5A
:102FC0001368154D54152D6A2340ED07ED0F002BA6
:102FD00004D0002D02D01668A64316601668B60805
:102FE000B600064316600D4807690426374307619B
:102FF00001290DD040BF20BF20BF0169B14301614D
:10300000002B04D0002D02D0106820431060F0BDCA
:1030100030BFF2E7007000400000014000ED00E02A
:10302000F8B50446007800275D4D800671D55C4EEA
:10303000403EB06BC00004D4B06BA9050843B06338
:10304000012758480168C90511D401688215114348
:103050000160FFF7BDFB009005E0FFF7B9FB0099A9
:10306000401A642837D84F480068C005F5D5326843
:103070000321090560680A400140914208D081039C
:10308000890F032904D13168890301D50120F8BDD6
:103090002A69032109040A4022D0084090421FD027
:1030A000207880061CD528692A6988430121C90433
:1030B0000A432A612A698A432A612861C0050FD51B
:1030C000FFF786FB009008E0FFF782FB0099411AAA
:1030D0003548814201D90320F8BD28698005F3D520
:1030E00061688803800F032805D132680005824398
:1030F00001400A43326028690322616812041140CA
:1031000008432861002F04D0B06B012109078843D0
:10311000B0632078C00705D0E868A1688008800007
:103120000843E8602078800705D5E8680C218843CB
:10313000E1680843E8602078400706D5E868032185
:103140008902884321690843E8602078000706D592
:10315000E86803210903884361690843E86020881F
:10316000C00506D5E868032109048843A16908431E
:10317000E8602078400606D5E86801218906884382
:10318000216A0843E8602078000606D5E868032134
:1031900089048843E1690843E8600020F8BD000025
:1031A000401002400070004088130000F8B50E4641
:1031B000050038D05E480068C007C00FB04214D286
:1031C0005B4C20684008400030432060FFF700FB64
:1031D000074605E0FFF7FCFAC11B564881427AD842
:1031E0002068C007C00FB042F4D12878524C800745
:1031F00005D5E068F0218843A9680843E060287895
:10320000C00752D06868022806D0032807D021687A
:1032100001280AD0890504E02168890301E02168BA
:103220008901002903DB0120F8BD4907F9E7E168BE
:10323000890889000143E160FFF7CAFA0746686818
:1032400002280AD0032814D001281ED029E0FFF755
:10325000BFFAC11B374881423DD8E0680007800FA4
:103260000228F4D121E0FFF7B3FAC11B31488142B3
:1032700031D8E0680007800F0328F4D115E0FFF78C
:10328000A7FAC11B2B48814225D8E0680007800FB0
:103290000128F4D109E0FFF79BFAC11B25488142C0
:1032A00019D8E0680007800FF5D121480168C907E7
:1032B000C90FB14217D9016849084900314301607B
:1032C000FFF786FA074608E005E0FFF781FAC11B21
:1032D0001848814201D90320F8BD15480068C0078D
:1032E000C00FB042F1D12878400706D5E068072129
:1032F00009028843E9680843E0602878000707D599
:10330000E0680721C90288432969C9000843E060D1
:1033100000F03AF8E168094A0906090F515CC84013
:103320000749086007480068FFF7E2FDF8BD0000A4
:1033300000200240881300000010024094B20008F0
:10334000981C0020901C0020044805490068C968AA
:10335000044A4905490F515CC8407047981C002039
:1033600000100240ADB20008044805490068C96871
:10337000044A8904490F515CC8407047981C0020DA
:1033800000100240ADB2000870B51A4AD3681A495D
:103390000C2018408D0004280CD04E00082810D0B6
:1033A0000C2810D050680004410F0120C003491CB4
:1033B000884070BD1068C00601D5084670BD28461B
:1033C00070BD304670BD98020C4C000F205C1B0293
:1033D0009C0FD368641CDB0301D5314603E01268FF
:1033E000D20600D4294603F040FC22460023FCF715
:1033F00097FE70BD0010024000093D00A4B2000815
:10340000FEB505007ED0F74CE7680C20E668074063
:103410000120000406402878C00747D0082F05D0B7
:103420000C2F0AD101200004864206D120688003B7
:103430003CD568680028E5D038E0012069680004C0
:10344000814203D121680143216011E0052301225B
:103450001B0492049942216802D111432160F1E7D3
:1034600081432160216801400091206890432060E1
:10347000686800280DD0FFF7ABF9009005E0FFF772
:10348000A7F90099401A64287ED820688003F6D5F1
:103490000CE0FFF79DF9009005E0FFF799F900991E
:1034A000401A6428F0D820688003F6D42878800772
:1034B0005DD5E868810604D5226820210A43226090
:1034C00088430923042F0DD00C2F01D1002E09D0E1
:1034D00000283CD02168994301432160FFF778F927
:1034E000064628E02168490701D500288AD061688E
:1034F0001F22120291432A6912021143616021685E
:10350000994300E0C7E101432160FFF73DFFE16817
:1035100009060A0FB449895CC840B4490860B44838
:103520000068FFF7E5FC002874D120E0FFF750F9B0
:10353000801B0228A8D820684007F7D560681F21A3
:103540000902884329690902084360600FE0206886
:10355000400840002060FFF73BF9064604E0FFF713
:1035600037F9801B02288FD820684007F7D42878C5
:10357000C00661D5002F0DD0E86900284BD0206827
:10358000FF210131084300E0EAE02060FFF720F965
:1035900006462DE02068800502D5E8690028A5D000
:1035A0006068072149038843696A0843606060686E
:1035B000298C0002000A090608436060686A410B12
:1035C0000120C003491C8840E16809060A0F8649AA
:1035D000895CC8408549086085480068FFF788FC19
:1035E000002817D128E0FFF7F3F8801B0228A1D8A4
:1035F00020688005F7D56068072149038843696A18
:10360000084360606068298C0002000A09060843CC
:10361000606011E025E12168FF20013081432160D5
:10362000FFF7D6F8064604E0FFF7D2F8801B022821
:1036300099D820688005F7D428786E4E000724D5E5
:1036400068690028306910D0012108433061FFF714
:10365000BFF8009005E0FFF7BBF80099401A022878
:103660007ED830698007F6D50FE040084000306111
:10367000FFF7AEF8009005E0FFF7AAF80099401AAE
:1036800002286DD830698007F6D42878400764D5C1
:1036900000200290A06BC00006D4A06B0121090796
:1036A0000843A0630120029053480168C90511D462
:1036B0000168821511430160FFF78AF8009005E068
:1036C000FFF786F80099401A642849D84A480068EC
:1036D000C005F5D5FF20AA680130824203D13169C7
:1036E0000143316111E001218902002A07D005233D
:1036F0001B029A4203D132690A433261EFE7326911
:1037000082433261306988433061A86800280ED056
:10371000FFF75EF8009006E0FFF75AF80099411AAB
:10372000364881421CD830698005F5D50DE0FFF799
:103730004FF8009006E0FFF74BF80099411A2F4828
:1037400081420DD830698005F5D40298002804D054
:10375000A16B012000078143A1632878800600E067
:103760007EE02ED52648A9694314002916D0A26808
:1037700001210A43A260626B0A436263016A194332
:103780000162FFF725F8064604E0FFF721F8801BE9
:10379000022865D8A0688007F7D512E0A16849081B
:1037A0004900A160016A99430162FFF711F80646DA
:1037B00004E0FFF70DF8801B022851D8A0688007AD
:1037C000F7D4A86A002868D00C2F4FD001263606FF
:1037D0000228206816D0B0432060FEF7F9FF0546A6
:1037E00040E000000010024094B20008981C002045
:1037F000901C002040100240007000408813000020
:1038000000000140B0432060FEF7E2FF074604E0FD
:10381000FEF7DEFFC01B022822D820688001F7D403
:10382000296BE86AE2680843696BFD231B049A432D
:1038300011430843E060206830432060FEF7C8FF72
:10384000054604E0FEF7C4FF401B022808D82068A4
:103850008001F7D521E0FEF7BBFF401B022801D90C
:103860000320FEBD20688001F5D416E00128F8D0C1
:10387000E06801210904EA6A014091420BD10F215D
:1038800089042A6B0140914205D103218905084032
:10389000696B884201D00120FEBD0020FEBD000002
:1038A00010B51148FFF700FB1048114C017B0029AF
:1038B0000ED02179491CC9B22171112908D10021EA
:1038C0000173217114231A460AA10F4800F087FFE3
:1038D0000E480079002801D10720607101211220D3
:1038E00001F006FD10BD00002C1E00203822002033
:1038F0000000002050617373776F72642074696DEB
:10390000656F75740D0A0000C01E0020FC040020C5
:1039100010B5074801790748022902D0012902D0D1
:1039200003E0002100E00721417101F03BFA10BDE6
:10393000FC0400200000002070B504460068816887
:103940008025C90400290BDAC068C00508D52046C7
:10395000FFF7DEFF2168C8682840FF388238C8605A
:103960002068816889040BD5C068800508D5204689
:10397000FFF796FF2068C168054A29408918C16091
:10398000012004494004486101202034607070BD6A
:103990007FFDFFFF00040140F8B5054604462035D1
:1039A000287801281DD00120287002206870226824
:1039B000CA205062226853205062FF200130002646
:1039C000FF2781421CD121688A6882438A6020686F
:1039D00081680122120391438160FEF7F9FE009095
:1039E00009E00220F8BDFEF7F3FE0099411A7D20A0
:1039F000C00081421BD82068C068C007F3D020E017
:103A000020688168012252029143816020688168A8
:103A1000120191438160FEF7DBFE00900DE0FEF79E
:103A2000D7FE0099411A7D20C000814205D9206847
:103A30004762032068702E70F8BD2068C068800758
:103A4000EDD520684762012068702E700020F8BD17
:103A500010B500680B464068C021C9430140000210
:103A6000000ECC04D870E40E5C708C06A40E090421
:103A7000490F9C701970002A0AD102F0F1FAD8702F
:103A8000587802F0EDFA5870987802F0E9FA9870D8
:103A9000002010BD30B50B460168896A5960016885
:103AA00009694904490C9960006804680F48214677
:103AB000014088024D04800E18706D0E49065D703D
:103AC000490E99706102490E40242140D970002AA4
:103AD0000AD102F0C5FA1870587802F0C1FA58708D
:103AE000987802F0BDFA9870002030BD7F7F7F008B
:103AF000F8B5040050D0254620356878002803D159
:103B00002870204600F052F8022068702168CA2010
:103B10004862216853204862204602F0B5FAFF2629
:103B200004270028206802D046626F7034E0816864
:103B30001D4A11408160216888686268A36910434A
:103B400022691A43104388602168E0680861206890
:103B5000016922891204114301612068C168802231
:103B60009143C1602068C16C89088900C164E16922
:103B7000606901432068C26C1143C1642068806899
:103B800080060BD4204600F0C7F9002806D0206834
:103B900046626F70002028700120F8BD20684662E0
:103BA000012068700020F8BDBFFF8FFF10B50068CE
:103BB000084988420DD10848016901229204114345
:103BC0000161002211460220FFF7DCF90220FFF715
:103BD000CDF910BD0028004040100240FEB5064659
:103BE0000446203630780B4601283ED00120307044
:103BF00002207070184620300090206800278068EE
:103C0000002A34D0400600D4DF7019789D7809046A
:103C10000D435978DA780902120411430D430099D3
:103C2000D869097809060D43054358699969054320
:103C30005868084300902168CA20486221685320D0
:103C40004862FF205A6A01308021824245D12268B1
:103C50009368834393602068C2680A40FF3A823ABF
:103C6000C260FEF7B5FD019024E00220FEBD4006D3
:103C700000D4DF70187802F0FBF90504587802F0E0
:103C8000F7F900020543987802F0F2F90543D87875
:103C9000000405430098007802F0EAF900060543A5
:103CA000D869C1E7FEF794FD0199411A7D20C00053
:103CB00081422AD82068C068C007F3D02068C56157
:103CC00021680098486420688168FF22013211430E
:103CD000816020688168120130E0206882680123D9
:103CE0005B029A4382602068C2680A401D495118ED
:103CF000C160FEF76DFD01900EE0FEF769FD0199D0
:103D0000411A7D20C000814206D92168FF20486207
:103D1000032070703770FEBD2068C0688007ECD546
:103D20002068056221680098886420688168012203
:103D30005202114381602068816812011143816041
:103D400009480268012149040A43026082680A4363
:103D500082602168FF204862012070703770002067
:103D6000FEBD00007FFDFFFF00040140F8B50546E1
:103D70000446203528780B4601280FD001202870F2
:103D800002206870002A0BD0D8789E780004064381
:103D90005878097800024903084317E00220F8BD6B
:103DA0005878C10603D5EF2108400A305870D878FA
:103DB00002F05EF90604587802F05AF90002064350
:103DC000987802F055F906431878400306432168B5
:103DD000CA204862216853204862204602F054F904
:103DE0000027002811D1114806402068466020684D
:103DF000C16880229143C1602068806880060CD42D
:103E0000204600F089F8002807D02168FF2048628A
:103E1000042068702F700120F8BD2168FF204862DF
:103E2000012068702F700020F8BD00003FFFFF00E8
:103E3000F8B506460446203630780D46012822D0D3
:103E40000120307002207070206800278068002AEE
:103E50001BD0400600D4EF702978A87809040843E5
:103E60006978EA7809021204114308430090216836
:103E7000CA204862216853204862204602F004F9B3
:103E8000002837D116E00220F8BD400600D4EF70BC
:103E9000287802F0EDF80304687802F0E9F80002EF
:103EA0000343A87802F0E4F80343E87800040343EE
:103EB0000093DCE7174900980840216808602068F3
:103EC000816801229204914381602969E86808436E
:103ED00021688A68104388602068C1688022914305
:103EE000C1602068806880060CD4204600F014F879
:103EF000002807D02168FF204862042070703770C6
:103F00000120F8BD2168FF204862012070703770E1
:103F10000020F8BD7F7F7F0070B504460068C1684F
:103F2000A0229143C160FEF753FC7D260546F600B2
:103F300006E0FEF74DFC401BB04201D9032070BDE6
:103F40002068C0688006F4D5002070BD0248016971
:103F5000022211430161704700E000E0094910B5F9
:103F6000401E884201D9012010BD074C6061032129
:103F7000081F02F09FFE0020A061072020610020A2
:103F800010BD0000FFFFFF0000E000E002480169F3
:103F9000022291430161704700E000E0F0B5024663
:103FA0002032137E012B21D0012515760223537672
:103FB00006687468B3687027BC430F68274377604E
:103FC0000068AC07A04208D0094CA04205D0094CBB
:103FD000A04202D0084CA04204D180244968A343E7
:103FE00019438160557600201076F0BD0220F0BDA7
:103FF00000040040000801400014014070B50500B5
:1040000005D02C462034607E002802D006E0012036
:1040100070BD00202076284600F010F8022060765F
:10402000291D286802F0D0F80120A077A076E0765C
:10403000207760776076002070BD00000068012165
:104040008907884204D10348816B012211438163AF
:104050007047000000100240F8B5054604462035C0
:10406000287E012817D001262E7602206876226845
:1040700090687727FF23B8431B02984390600A6833
:10408000502A31D00EDC202A4BD006DC002A48D042
:10409000102A3AD145E00220F8BD302A41D0402A0A
:1040A00033D136E0602A27D0702A12D001200003D5
:1040B000121A2AD0824228D1CB684A6889682068BF
:1040C00002F0B6F8206881680122920311438160F2
:1040D0001BE0CB684A688968206802F0A9F821686B
:1040E00088683843886010E0CA684968206802F030
:1040F000B2F85021206806E0CA684968206802F0DA
:10410000BBF86021206802F09EF86E7600202876C9
:10411000F8BDCA684968206802F09DF8402120680F
:10412000F1E711462068EEE7014660310A7D012A79
:1041300009D001220A750068026802231A4302604E
:10414000002008757047022070477047FEB505468D
:1041500004466035287D00269446012811D00123AD
:104160002B752420A067206802689A4302602768A4
:10417000B8680322120590430843B860002902D0B2
:1041800015E00220FEBD6046009101902068416864
:10419000102291436A469288114341602068416829
:1041A0006A4609029279090A1206114341602068A1
:1041B000016819430160FEF70BFB094900910346B2
:1041C000012100228905204602F0BEFB002801D013
:1041D000032601E02020A067002028753046FEBDA0
:1041E000FFFFFF017047000070B52D490246803285
:1041F0000123042402250826884226D10168C869C3
:104200001068042812D006DC002816D0012805D03A
:10421000022812D106E008280FD10BE0486A886A0C
:104220000B620AE0486A886A0C6206E0486A886A9B
:104230000D6202E0486A886A0E6200F07BFF01228C
:104240001849174800F006FA70BD17498842FBD19B
:104250000168C8691068042812D006DC002816D04E
:10426000012805D0022812D106E008280FD10BE062
:10427000486A886A0B620AE0486A886A0C6206E04B
:10428000486A886A0D6202E0486A886A0E6201F034
:1042900013F804490122C91E034800F00BFA70BD4F
:1042A0003C1E002003000020C01E0020F8B502685C
:1042B0000446D06911689668814B05461D4020234D
:1042C000002D6CD0F7077F4DFF0FBC460D402F43EC
:1042D00079D02546C7078035002F06D0CF0504D5F5
:1042E000012717622A683A432A60820708D5F20735
:1042F00006D0276802223A622A6804273A432A60D5
:10430000420708D5F20706D02668042232622A68DE
:10431000022632432A6002070AD50A461A40664638
:10432000324305D02668082232622E6816432E607A
:10433000020508D54A0106D501222668D20232625A
:104340002A681A432A602A68002A30D0800606D5D7
:10435000880604D5616E002901D020468847286868
:1043600021688968490602D42821084225D02046C0
:1043700002F0B6F820688168490619D582684021A4
:104380008A438260206F002812D04F498163206FDA
:10439000FDF780FF00280AD0206F816B06E08506BC
:1043A00011D58D060FD5616E77E020468847F8BDA0
:1043B0002046FFF719FFF8BD05E02046FFF714FF80
:1043C00000202860F7E7256E012D56D1C50654D58B
:1043D000CD0652D51026166220688168254649060A
:1043E000403500292ADA226F116849680904090C4E
:1043F000E1D02F8B8F42DED9698311680968890665
:1044000017D401683201914301602068816849082E
:104410004900816020688168402291438160E367A0
:104420000020206620680168B1430160206FFDF71D
:104430000FFF288B698B401A81B21AE0298B6A8B97
:10444000891A6A8B89B2002AB5D00029B3D00268D4
:10445000FF252135AA430260206882685208520075
:104460008260E36700202066606620680268B243CD
:1044700002602046FFF769FE9DE7C50208D5750278
:1044800006D50120000510622046FFF7ABFE92E73B
:10449000050605D50D0603D5A16E002985D18AE74D
:1044A000400688D5480686D5116820464024A14399
:1044B000116083670021816600F052FA7BE70000FB
:1044C0000F08000020010004CD63000810B50400AF
:1044D00003D0A06F002802D007E0012010BD00210A
:1044E00074200155204600F027F82420A06720689A
:1044F0000168490849000160204602F089F8012856
:10450000ECD0606A002802D0204601F0C8FE206886
:1045100041680922D20291434160206881682A22C1
:1045200091438160206801680122114301602046A7
:1045300001F01AFF10BD0000F0B587B00646142147
:104540006846FBF749FE3D4F34683D480221012291
:1045500003230025BC424CD1846B4F043C4384634D
:10456000C46A0C43C462C06A6C4608400590980255
:104570000FC40720049069463248FEF75BF8334CBD
:1045800031482060A560E5608027656127610520CE
:10459000A56160602020E0610320000320622046C6
:1045A000FDF7F2FE002801D0FDF794FA3467A66209
:1045B000264C254848341438206005206060214688
:1045C00010200831A1C16561A56103200003E561E8
:1045D00020622046FDF7D8FE002801D0FDF77AFAC8
:1045E000F466002201211D20A662FEF7CBFC1D20EF
:1045F0001FE0174EB4421ED1846B0126760434436B
:104600008463C46A1443C462C06A6C46C007C00FA6
:1046100005900C20039323C40420049005206946D0
:104620000007FEF707F8002201211C20FEF7AAFC74
:104630001C20FEF79BFC07B0F0BD000000480040C6
:10464000001002400004005030000240441F0020CF
:104650000044004070B5C36F202B27D100290BD038
:10466000002A09D0012483682403A34206D10369E8
:10467000002B03D1CB0701D0012070BD034660336E
:104680001C7D012C12D001241C7500230366084CEC
:104690000368A34207D05C68240204D51C68012586
:1046A000AD062C431C6002F0BDF870BD022070BD49
:1046B0000048004030B5C36F202B27D100290BD014
:1046C000002A09D0012483682403A34206D1036988
:1046D000002B03D1CB0701D0012030BD034660334E
:1046E0001C7D012C12D001241C7500230366084C8C
:1046F0000368A34207D05C68240204D51C68012526
:10470000AD062C431C6002F0D3F830BD022030BD52
:104710000048004070B52B4901262B4C88423CD103
:104720002A4D6879032813D060790938142826D8CF
:104730002748FBF793FD4119FF312046FF31C07830
:10474000023108722B2811D0E179012910D01DE027
:104750001E49EA88E07808315054E988491CE9800C
:104760004B2801D03E2811D1062006E0E6710DE06D
:104770000A280BD10020E0710220687106E012497E
:1047800001231A46C91C134800F029F80E490122DA
:10479000C91C0C48FFF75EFF70BD0E498842FBD173
:1047A0000D4A607821781154401C60700D2901D0A9
:1047B0000A2900D1A670012203490648FFF77AFFB3
:1047C00070BD00003C1E002000000020FC04002002
:1047D00004070020C01E0020A41C00207047FFB565
:1047E0000446806F83B017460D4620285ED1002D09
:1047F0000AD0002F08D0A168C001814207D12069EA
:10480000002804D1E80702D0012007B0F0BD2046FF
:1048100060300090007D012848D00098012101758A
:104820000020802108512120A067FDF7D1FF2646F6
:1048300040360190378277820120A16800038142CF
:1048400002D12069002805D02F46002500990020BC
:10485000087511E00027F9E700228021204602F0C8
:1048600073F8002815D1002F15D021683878886298
:104870007F1C708A401E7082708A019B00280698F7
:104880000090E9D100224021204602F05DF8002886
:1048900008D00320B9E728882168C005C00D8862C8
:1048A000AD1CE6E72020A0670020AEE70220ACE7C1
:1048B000F8B50446806F20284AD100290BD0002A81
:1048C00009D00123A0681B03984206D12069002863
:1048D00003D1C80701D00120F8BD25466035287DE9
:1048E000012835D00120287520464030E16402823D
:1048F00042820026274680373E602120A067E06E76
:1049000000281AD01349C162E16E13480863E16EB2
:1049100012484863E06E134686632068E16C2830D5
:1049200084466246E06EFDF777FD002805D0102032
:1049300038602E752020A067CDE7216840200862EE
:104940002E75206881688022114381600020F8BDA7
:104950000220F8BDA7640008D7640008E1630008DE
:10496000704770477CB506461A484168C943090735
:10497000FBD4194C606B6515284360630021174810
:10498000FDF742FA16480090164801906946134810
:10499000FDF790FAA0140190694600960F48FDF7C4
:1049A00089FA0E48FDF726FC0021C9430B48FDF7A4
:1049B000C1FB0A48FDF7C8FA084980B20A68936843
:1049C000022633439360096803220A60616BA9439E
:1049D00061637CBD0070004000100240D01D0020CB
:1049E000FFFF07000110000038B50B231B07C51897
:1049F000114B0FD01C152D1B18D02D1B19D0A54203
:104A0000DD6A05D108242543DD62DB6A234007E027
:104A10008024F8E7DC6A01252C43DC62DB6A2B404A
:104A2000009311601146FDF705FE38BDDD6A0224D2
:104A3000E9E7DD6A0424E6E700100240F8B5012149
:104A400005200022C9020007FDF7BBFE0024012655
:104A5000194F360331463846FDF7AEFE0028F9D12E
:104A6000002501220527D6023F0731463846FDF7CB
:104A7000A8FE6400002231463846FDF7A2FE710010
:104A80000D48FDF799FE012800D1641C6D1CEDB2A4
:104A9000182DE6D301220526D502360729463046D1
:104AA000FDF78FFE28034440002229463046FDF7DB
:104AB00088FE2046F8BD000000040050FEE70168B3
:104AC0008A69D243920701D400228A620068816910
:104AD000C943C90703D0816901221143816170472D
:104AE000F7B5044600680E468069C043C0062BD463
:104AF00020272546403520688069C043800612D5AE
:104B0000701CF8D0FDF764FE0299401AB04201D83B
:104B1000002EF0D1606C384360646F700020A87084
:104B200028700120FEBD21681020C8612068C7617F
:104B30002046FFF7C4FF20684168044A11404160E5
:104B4000606C04210843E7E70020FEBD00E800FE9A
:104B5000F8B50446164615481D46DAB20090079F80
:104B60000023204600F054F83A462046069900F00B
:104B7000F1F8002818D12846F5B2012809D021689B
:104B8000300A88623A462046069900F0E3F8002889
:104B90000AD1206885620097002240212046069BAA
:104BA00000F04AF8002800D00120F8BD0020008065
:104BB000F8B50446164615481D46DAB2C302009001
:104BC000079F204600F024F83A462046069900F058
:104BD000C1F8002818D12846F5B2012809D021686B
:104BE000300A88623A462046069900F0B3F8002859
:104BF0000AD1206885620097002280212046069B0A
:104C000000F01AF8002800D00120F8BD0020008034
:104C1000F0B50668059C7568064F600D38438543FE
:104C20008805800D1104084318432043054375602F
:104C3000F0BD0000FF63FF03F8B51D4617460E46A2
:104C4000044609E0681C07D0FDF7C2FD0699401A2A
:104C5000A8420BD8002D09D02068816930468843CE
:104C60000FD00020B842EDD00020F8BD616C2020AC
:104C700001436164403460700020A0702070012006
:104C8000F8BD0120EEE70000F7B500272026054615
:104C90000446403528E02046029A0199FFF720FF9C
:104CA000002801D00120FEBD20688069C043800635
:104CB00011D420688169C943490702D4218D002994
:104CC00017D1C661206841680E4A1140416067648F
:104CD0006E70AF7013E0FDF77BFD0299411A0198E9
:104CE000814208D8002806D020688069C043400768
:104CF000D1D40020FEBD606C304360646E702F70B4
:104D0000D0E7000000E800FE70B516460D460446E8
:104D10000FE0324629462046FFF7E2FE002801D088
:104D2000012070BDFDF754FD801BA84208D8002D5E
:104D300006D020688069C0438006EAD4002070BD98
:104D4000616C202001436164403460700020A070D9
:104D50002070E5E770B516460D46044611E0324670
:104D600029462046FFF7BCFE002801D0012070BD77
:104D7000681C06D0FDF72CFD801BA84208D8002D2A
:104D800006D020688069C0438007E8D4002070BD49
:104D9000616C202001436164403460700020A07089
:104DA0002070E3E702480168042211430160704764
:104DB0000070004070B50C4CA06B25042843A06324
:104DC000FEF7ECF8FEF7E2F8E06869130843E060EC
:104DD000A06B2843A063FFF7D9F801210846FEF72E
:104DE000EDF8FFF7B3F870BD0010024030B587B0A2
:104DF00000F05EF92DA0006805900020039004905B
:104E000006F0FCF87D24012505A8E40000902B465F
:104E10000022C421019502942548FDF73FFF06F0CA
:104E2000EDF82449884236D203A8009001230F22CE
:104E3000C521019502941E48FDF786FE04A8009046
:104E400001231022C521019502941948FDF77CFE2B
:104E50006846007B01026846007C081884B27D2009
:104E6000400184420BD9FDF7B3FC014612A001F0CA
:104E7000C1FE13A001F0BEFE184807B030BDFDF71B
:104E8000A7FC01460CA001F0B5FE214614A001F0DC
:104E9000B1FE2046F1E7FDF79BFC014606A001F0BC
:104EA000A9FE14A001F0A6FE1948E6E704000000E0
:104EB0003C2500200F2700005B25645D00000000FA
:104EC00044697374616E6365206973206F75742023
:104ED0006F662072616E67650D0A0000FFFF0000BB
:104EE00044697374616E6365203D2564636D0D0ACA
:104EF000000000006C696461725F6C697465206910
:104F000073206E6F7420636F6E6E6563740D0A009C
:104F1000FF0F00001CB5002118480091164A0191AE
:104F20000260C163520581604260816301220261B7
:104F30000246C16020321170FF235170C2334362B8
:104F40008162117301638161042241634261C16125
:104F5000FCF7FEFF002801D0FCF7BCFD08480090DC
:104F600001200003019069460448FCF7A3FF0028D4
:104F700001D0FCF7AFFD1CBD00240140D01D002076
:104F80000000024408B50848016B01221143016387
:104F9000006B10400022009011460A20FDF7F2FF3E
:104FA0000A20FDF7E3FF08BD00100240F0B587B00E
:104FB00014216846FBF710F93648C26A04210A43F7
:104FC000C262C26A0A400592C26A80210A43C26272
:104FD000C26A0A400592C16A01263143C162C16AB0
:104FE00031400591C26A02210A43C262C06ACF0100
:104FF000084005900520002239460007FDF7E1FB37
:10500000012220212448FDF7DCFB70030324002546
:105010006A4631C269462148FDF70CFB0094694697
:105020001F4802950194FDF705FB1E486A4631C2F0
:10503000052069460007FDF7FDFA1B486A4631C2A4
:1050400069461548FDF7F6FAB0030090174801903D
:10505000694602951048FDF7EDFA052069460007FC
:105060000097019602950394FDF7E4FA2020009042
:1050700069460196029503940748FDF7DBFA002282
:1050800002210720FDF77EFF0720FDF76FFF07B025
:10509000F0BD000000100240000400500008005065
:1050A000001C0050F39E0000DFB300000000211040
:1050B00010B5134811490160124941600021816017
:1050C0000161416181610122C161C2600162FDF73C
:1050D000D1FB002801D0FCF7FDFC00210848FDF7BA
:1050E0007DFB002801D0FCF7F5FC00210448FDF70A
:1050F0009AFB002801D0FCF7EDFC10BD00540040E5
:105100003C250020BB7C700010B5084806490160B2
:10511000062141600649C1608160FDF793FE0028C9
:1051200001D0FCF7D7FC10BD003000402C1E002041
:10513000FF0F000010B50F480D4901604B21C90158
:10514000416000218160C16001610C228161426186
:105150000162302141620121090381634900C16379
:10516000FFF7B4F9002801D0FCF7B4FC10BD000033
:10517000004800403C1E002030B591B01421684624
:10518000FBF72AF80024282106A80594FBF724F849
:105190002C492D4812C07F2101608460C4600461E5
:1051A000FF21446141600838FEF7A2FC002801D0CD
:1051B000FCF790FC684604704470847003940122EC
:1051C000694621480494FEF733FE002801D0FCF71D
:1051D00081FC01256846057545758575C4752A46A7
:1051E00005A91948FEF7C2FD002801D0FCF772FCA2
:1051F00068460476447603218176079409940A94DC
:105200000B940C9408A80D940576FF2001300F90A4
:10521000012206A90C48FEF7E1FC002801D0FCF7AA
:1052200059FC052069468876012040020F90012232
:1052300006A90548FEF7D2FC002801D0FCF74AFC7D
:1052400011B030BD00280040D41F002010B586B03A
:1052500000240094012116480194029403940494BC
:105260008907059401609F218460416004611149B0
:105270004461C160FEF7C2FE002801D0FCF72AFCA1
:1052800001200003009069460948FEF7E5FE00286A
:1052900001D0FCF71FFC049404A905480594FEF70F
:1052A0007DFE002801D0FCF715FC06B010BD000003
:1052B000F81F0020FFFF000010B50C480A490160EC
:1052C0004B21C901416000218160C16001618161A0
:1052D000C1610C22016242614162FFF7F7F80028C8
:1052E00001D0FCF7F7FB10BD00440040C01E0020B9
:1052F000F0B501256D0293B00C460646012902D097
:10530000002C02D006E0294601E0FF21013135489A
:10531000FEF742FB282105A8FAF75EFF0022694646
:105320003048FEF7B7FB002211A92E48FEF790FB8C
:10533000E12109013046FAF7DDFEC6B208463C21FC
:10534000FAF7D8FEC7B26846807840180A21FAF703
:10535000D1FE00010818C0B25928694604D9603846
:10536000887548787F1C01E0887548780A21C01943
:10537000FAF7C0FE00010818C0B25928694604D9DE
:10538000603848750878761C01E0487508780A216D
:105390008019FAF7AFFE00010818C0B22328694649
:1053A00000D924380875002001210690C90708900B
:1053B00009900B900C900A91012008A90875002C07
:1053C0000BD00E95012205A90648FEF707FC002820
:1053D00001D0FCF77FFB13B0F0BDFF2001300E9031
:1053E000F0E70000D41F002010B501210446490554
:1053F000FEF7ACFE2046FEF797FE10BDF0B5044662
:10540000F74887B000680168042291430160F548BD
:105410002278F54900910146FF31813105918031B3
:1054200004910521C901411803910721C9014118BF
:1054300020250291690147180921C90141180691E7
:105440000321C31D0902F933064641188036019332
:10545000232A7DD253007B449B885B009F4422001B
:105460003A00520083009F00B2007800B900170193
:10547000360151015C01780067018703B303C6035D
:10548000D0038201AF01080322033C0357036C03DE
:10549000D303FE03180434043E045104780078005A
:1054A000EA004604816900208847062808D01F25A5
:1054B000FDF78EF90146CDA001F09CFBCDA0CCE21A
:1054C00001202070FDF784F90146C8A001F092FB8D
:1054D000CFA0F6E3016C00208847062808D01F25DE
:1054E000FDF776F90146C1A001F084FBCEA0E8E308
:1054F00002202070FDF76CF90146BCA001F07AFB98
:10550000D1A0DEE3C26D016F10468847062808D09F
:105510001F25FDF75DF90146B4A001F06BFBD4A097
:10552000CFE303202070FDF753F90146AFA001F04F
:1055300061FBD749D7A001F05DFBAB48DCA10F3878
:10554000FAF761FE002803D0A7480F210F3800E0CA
:10555000B9E3FAF741FECE49A3480C22C91C0F3823
:10556000FAF721FEE0E3B16970688847062808D0A1
:105570001F25FDF72DF901469CA001F03BFBCEA0B5
:105580009FE304202070FDF723F9014697A001F066
:1055900031FBBF49D0A0143901F02CFBC4E3316CBE
:1055A000D4A0884706280BD0F16B1F25D4A08847CC
:1055B000FDF70EF901468DA001F01CFBD3A080E39E
:1055C000052089E3B16E706D8847062830D1072029
:1055D00082E301990198896B406A8847FDF7F8F8E2
:1055E000014682A001F006FBCE4ECFA0718801F0EB
:1055F00001FBD348007F062802D0122812D017E002
:105600002120207001243471764E361F3078002816
:1056100003D1CC4803F0C0F93470FF20F53003F01B
:10562000BBF981E3202020701F25002030717BE32F
:105630001F2579E3C44EB07E012806D0022806D08B
:10564000032806D0042806D007E0082004E00E2036
:1056500002E0122000E019202070308A002180B280
:10566000FFF746FEFDF7B4F8014660A001F0C2FA6C
:10567000318B481C3083B5A001F0BCFABB4805F063
:10568000DDF901214902BA48FAF7A6FD4CE388A1E9
:105690000098FAF7B8FD002806D1534884A11930C4
:1056A000FAF7B1FD002809D020202070FDF790F80E
:1056B00001464EA001F09EFAAEA002E30198816D72
:1056C000002088470628B3D1092076E005980168B4
:1056D0000020884708280AD00D201F252070FDF7DC
:1056E00077F8014641A001F085FAACA0E9E20A2072
:1056F0002070FDF76DF801463CA001F07BFAB0A0E8
:10570000DFE20598816A00208847062802D01F251D
:105710000D20E1E20B20DFE20598016D00208847B3
:105720000C2802D01F250D20DFE10D20E6E10498B2
:10573000016A0020884710280AD022201F252070E7
:10574000FDF746F8014629A001F054FAA6A0B8E2F8
:1057500022202070FDF73CF8014624A001F04AFA0F
:10576000A9A0AEE252A10098FAF74DFD002813D18E
:105770001D484FA19930FAF746FD00280CD14CA1E5
:10578000AA48FAF740FD002806D1A84848A14130B0
:10579000FAF739FD002809D020202070FDF718F80D
:1057A000014612A001F026FAA1A08AE20398C16E78
:1057B00000208847062886D11320207038E7096921
:1057C00000208847082809D018201F252070FCF7E2
:1057D000FFFF014605A001F00DFA3DE13EE10000AA
:1057E000C01E002024000020972300205B25645D5C
:1057F000000000004E42494F5420646964206E6FDF
:105800007420726573706F6E642E0D0A00000000C4
:105810004E42494F542068617320726573706F6EF9
:105820006465642E0D0A00004563686F206D6F6427
:1058300065207475726E6564206F666620666169A6
:105840006C65642E0D0A00004563686F206D6F64FF
:1058500065207475726E6564206F6666207375636B
:105860006365737366756C6C792E0D0A0000000019
:105870004661696C656420746F20726561642049BB
:105880004D4549206E756D6265722E0D0A0000004F
:105890001809002054686520494D4549206E756DF2
:1058A0006265722069733A25732E0D0A00000000AC
:1058B0004E554C4C000000004661696C65642074D4
:1058C0006F207265616420494D5349206E756D6289
:1058D00065722E0D0A00000054686520494D534939
:1058E000206E756D6265722069733A25732E0D0AFC
:1058F0000000000041542B4346554E3F0A00000073
:1059000041542B4346554E3D310A00004F70656EA1
:10591000696E6720616C6C20666561747572657371
:105920002E0D0A00FC0400205369676E616C205341
:105930007472656E6774683A25640D0A0000000091
:1059400044010020B80B0000382200202A2A2A2A0D
:105950002A55706C6F61642073746172743A2564A7
:105960002A2A2A2A2A0D0A0D0A000000582200209D
:1059700004070020434F415020706172616D6574CF
:10598000657220636F6E66696775726174696F6EA8
:10599000206572726F720D0A000000004661696C2A
:1059A000656420746F2043726561746520612043D3
:1059B0006F415020636F6E746578740D0A000000AB
:1059C000437265617465206120436F415020636FAD
:1059D0006E74657874207375636365737366756C34
:1059E0006C790D0A000000004661696C65642074E2
:1059F0006F2064656C65746520436F415020636F50
:105A00006E746578740D0A0053756363657373660D
:105A1000756C6C792064656C6574656420436F41B6
:105A20005020636F6E746578740D0A00AB240020FB
:105A30004D51545420706172616D657465722063BC
:105A40006F6E66696775726174696F6E20657272D8
:105A50006F720D0A00000000B9A032E1142020701E
:105A6000FCF7B6FE0146C14801F0C4F8C0A028E129
:105A7000C86A896B88470A280AD018201F25207019
:105A8000FCF7A6FE0146B94801F0B4F8C4A018E13D
:105A900015202070FCF79CFE0146B44801F0AAF8DE
:105AA000C7A00EE1096E002088470C280AD01820F4
:105AB0001F252070FCF78CFE0146AC4801F09AF8D7
:105AC000C9A0FEE016202070FCF782FE0146A74820
:105AD00001F090F8CCA0F4E002988168002088479B
