:020000040800F2
:10000000E82C0020D5000008055F000871490008B1
:1000100000000000000000000000000000000000E0
:100020000000000000000000000000002560000843
:100030000000000000000000A15F00082760000829
:10004000E7000008E700000815600008E700000866
:10005000E7000008E7000008E7000008071A0008AA
:10006000E7000008E7000008ED130008E7000008BB
:10007000E7000008E7000008E7000008E7000008C4
:10008000E7000008E7000008E700000800000000A3
:10009000E7000008E7000008E7000008E7000008A4
:1000A000E7000008E7000008E7000008E700000894
:1000B000F1680008A55F000800000000E7000008E4
:1000C0000348854600F0A4FD004800475D8600080F
:1000D000E82C00200448804704480047FEE7FEE77C
:1000E000FEE7FEE7FEE7FEE7C9600008C100000882
:1000F00030B50B46014600202022012409E00D46C0
:10010000D5409D4205D31D469540491B2546954047
:1001100040191546521E002DF1DC30BDF0B51FB45C
:100120000646002082B005464024019100901BE065
:10013000019922460F46304600F0E7FB049A059BE2
:10014000801A994110D310461946224600F0CDFB83
:10015000361A8F410197224601200021009F00F0AE
:10016000C4FB38184D4100902046641E0028DFDC97
:10017000019B00982946324607B0F0BD0048704701
:100180006CAE000810B50446FFF7F8FF0068005D8C
:10019000C007C00F10BD01464139192900D82030D1
:1001A000704703460B439B0703D009E008C9121FA1
:1001B00008C0042AFAD203E00B780370401C491CE3
:1001C000521EF9D27047D2B201E00270401C491EA3
:1001D000FBD270470022F6E710B513460A460446E4
:1001E0001946FFF7F0FF204610BD421E5378521CFF
:1001F000002BFBD10B781370491C521C002BF9D13A
:10020000704730B505462A460B4610781C78521CBC
:100210005B1C002801D0A042F7D0002C03D000289E
:1002200002D06D1CEFE7284630BD10B5044605E04E
:100230000B780370401C002B00D0491C521EF7D2D3
:10024000204610BDCAB2401E4178401C8A4202D0EE
:100250000029F9D100207047421C0178401C002978
:10026000FBD1801A704710B5002200E0521C835C5D
:100270008C5CA34201D1002BF8D1D8B2E1B2401A74
:1002800010BD0246C9B200E0401C0378002BFBD130
:1002900002E003788B4203D0401E9042F9D2002046
:1002A00070470321001D401E037812021A43491EA5
:1002B000F9D51046704770B5064606F0ADFB0468E8
:1002C00005460A220021304600F096FB2C6070BDE6
:1002D000F8B502464A40D40F42004B0052085B0872
:1002E0009A4202D20246084611464A0023D0C30D64
:1002F0004A00DDB2120EAD1A202D35DA4902012670
:10030000490AF6058A19002C00D0524220214F1BC1
:100310001146B9402A411018C20D9A4221D0002C32
:1003200017D0012D08DCDA05801AD20F8019D20708
:10033000DBB200F0A1FBF8BDDA05801A0123400012
:100340001B06C01880185A428018CA0F1043490073
:1003500007E04908C2071143DA05801A80194008EE
:10036000801800F081FBF8BD61000122511A001BCA
:10037000F7E70122D2075140AAE70122D2075040F5
:10038000A6E7024670B54A40D30FDB0740002DD0E8
:100390004A002AD0010E140E000212020919400A66
:1003A000520A8418E50104465443000A120A2E0436
:1003B0005043A4194219200CC543AA18120C012558
:1003C000AD03521C521912047F39240400D0521C70
:1003D000104301D44000491EC2B20C06C0092018C7
:1003E000401C4008802A02D003E0002070BD400875
:1003F0004000002900DA0020184370BD70B50246A5
:100400004A40D50F40004A00ED0740085208002836
:1004100014D0002A12D0C40DD30D41020120C00512
:100420005202490A520AE41A091812187D349142FC
:1004300001D3641C00E04900002C01DA002070BDEB
:100440000023914201D3891A034340084900002840
:10045000F7D100290AD0914202D10121C90705E054
:10046000914201D2012101E00121C943E005C018F8
:10047000401900F0F9FA70BDF0B50746084658403B
:1004800087B0C00F049048000E4659004008490844
:10049000BC1A884105D2384631461E4617460B46DF
:1004A00002465800400810434CD0300D03904005E0
:1004B0005900400D490D0590401A0290402872DA0B
:1004C00018030121000B09050843019004980092CC
:1004D000002805D0019952420020884100920190E5
:1004E000029840210A1A0199009800F0FEF9054689
:1004F0000C466B4607CB00F019FAC0197141039AFC
:100500000E0D0023D71756401A467A40164344D0A2
:10051000049A002A2DD0029A012A039A15DC1205AA
:10052000C01A914101263605001C7141D20F059E6B
:10053000D2070093019202962A46234600F0E2FA7F
:1005400007B0F0BD38463146FAE71605224A0F4695
:10055000B218C01AB74101210905001C4F4100180B
:100560007F41114618187941E20F10436D1964411B
:1005700013E0E2076D0815436408C2071443039AA9
:1005800001261205C01A91413605001C7141CE07A3
:10059000400830434908C01851412A46234600F01C
:1005A000A4FACDE7FFE7049801224000C117121A10
:1005B00000238B4104983146C417381AA141EEE755
:1005C00030B40124E407634030BC55E730B4012463
:1005D000E407614030BC4FE70000E0FFF0B51FB416
:1005E00088B00B990998002448400999C00F490028
:1005F00049080991C0070B990090490049080B91DF
:1006000009990898A64608431CD00B990A980843F4
:1006100018D0099801244000420D4800410D099866
:1006200024050003000B204309900B980003000BE6
:1006300020430B9050181C4940180022019014468A
:10064000104605E0002001460DB0F0BD032801DA98
:10065000034600E003239C46C11A0AAE0AE05F008D
:1006600008ADED5B4F00F75B7D430027AA187C4186
:10067000491C5B1E6145F2DD410004AB5A52210466
:10068000120C0A43240C401C0828DFDB019802905E
:100690000099704601910090059B049A079906986D
:1006A00000F030FAD0E700000DFCFFFFF0B50C467B
:1006B0005C4085B0E40FE40703944C000026640816
:1006C00059009446490802460296224321D06246C8
:1006D0000A431ED06200570D4A000E032303550D36
:1006E000012402462C492405781B1B0B360B4018AD
:1006F00023432643614600901C46501AB44103D35D
:100700000098401C009002E0921800985B4100287D
:1007100003DA0020014605B0F0BD002001210905E3
:100720000746864611E064461D46141BB54106D3B4
:100730006546521BB341744607430C43A646CD079A
:1007400040084908284392185B4105460D43EAD109
:100750001046184313D06046194650407140084374
:1007600006D06046101AB34106D20122002306E0EB
:1007700000220123DB0702E00122D243531000983C
:1007800074460105381C6141029C039D00196941B2
:1007900000F0ABF9BFE70000FD03000070B54B00AF
:1007A0005B0803430BD04B005C0D002633466542CB
:1007B000B341D417AD1AA34102DB0020014670BD3E
:1007C00012053018514170BDC217C10F504010B50D
:1007D0004018CA079623002100F04EF910BD10B54D
:1007E00000229623114600F047F910BD0EB5C2173E
:1007F000C10F5040CA0740180021054B02930192D7
:1008000000910A460B4600F07DF903B000BD0000E0
:10081000330400000EB505490291002100910A46FB
:100820000B46019100F06EF903B000BD33040000E7
:10083000C20F410040020123400ADB05D207090E26
:10084000C0187F2901DA00207047962903DC96231F
:10085000591AC84001E096398840002AF4D0404235
:100860007047410040020122400AD205090E80185B
:100870007F2901DA00207047962903DC9622511A5D
:10088000C8407047963988407047C20FD207400071
:1008900040080BD0C10D0723DB01C9184002090530
:1008A000400A1143C2084007114370470020014627
:1008B0007047CB0FDB07490010B5490802460A43D1
:1008C00007D00A0D07240903E401090B121B002AB3
:1008D00001DC002010BDC900440F0C43C100E0182A
:1008E000D205801800F0C0F810BD10B5202A04DB36
:1008F0000146203A9140002010BD914020239C1ACF
:100900000346E3401943904010BD10B5202A04DB94
:100910000846203AD040002110BD0B46D340D040BD
:100920002024A21A91400843194610BD10B5202A70
:1009300006DBCB170846203A1041C1170B4306E0EF
:100940000B461341D0402024A21A91400843194677
:1009500010BD00000FB400B589B00CA900910B992F
:100960000023CB60204B214A069307920422019278
:100970001F4A02921F4A089202466B46002000F06E
:10098000E8F909B008BC04B0184770B586B006464F
:100990000020C0430190002015460C4600910291B2
:1009A00004903246694604A8FFF7D4FF0246049833
:1009B0002118002D05D0002801D0084600E020466F
:1009C0002860049800280DD0002A02DD0098884293
:1009D00008D0081B0190009432466946029404A88E
:1009E000FFF7B8FF06B070BDA90F0008C90F0008D7
:1009F000FFFFFF7F85010008F7B5009C0F4600262A
:100A00002578641C002D05D0FFF7B8FB0068405D19
:100A1000C007F5D12B2D02D02D2D18D0641E3946DC
:100A20002046029A00F0E2FA002F04D03968A14271
:100A300001D1009939607105022400290BDA404286
:100A4000002803DD05F0E8FF0460A007FEBD0120DB
:100A500080020643E3E70028F8DA05F0DDFF0460D2
:100A60000048FEBDFFFFFF7F002904DA401C49005B
:100A700001D140084000704770B40024050C05D136
:100A80001024000402D1002921D01124050E01D127
:100A900000020834050F01D10001241D850F01D18A
:100AA0008000A41C002801DB4000641C002908D041
:100AB00020252E1B0D46F540A14000D001212943E1
:100AC000084301061B1B000ADB1D02D5002070BC79
:100AD0007047DB05181880180029F8DA401C490017
:100AE000F5D170BC40084000704710B5002B08DA03
:100AF0000024401C614192185B411A4301D1400817
:100B0000400010BDF0B51FB482B005460C0003D004
:100B1000084605F05DFF02E005F05AFF203002466E
:100B2000009021462846FFF7E0FE049B059A044604
:100B30000F4618431143084314D0184610431BD0E6
:100B4000009840210A1A18460599FFF7DEFE05466F
:100B50000E46009A05990498FFF7C7FE084305D092
:100B6000012004E02046394607B0F0BD0020C1173F
:100B700005430E432C43374300990E986305401AF2
:100B80007905E40A00220C43FD0A0A3002D5002050
:100B90000146E9E70105101969410C9C0D9D0019FA
:100BA0006941FFF7A2FFDFE74A0009030123090BB0
:100BB0001B0519430A4B10B5520D9A4202DA002068
:100BC000014610BD064B34339A4203DC9A1AFFF7F4
:100BD0009CFE10BD034BD218FFF787FE10BD00002E
:100BE000FF030000CDFBFFFF10B5002904DB01244B
:100BF000E40740428C412146002B04DB1C460123C4
:100C0000DB075242A341994200D1904210BD00003F
:100C1000064C0125064E05E0E36807CC2B430C3C4F
:100C200098471034B442F7D3FFF74EFAF8B50008EE
:100C300018B60008FFB5087889B01546FF2805D01A
:100C4000491C2D2804D00022002407E000240BE0DA
:100C50000122F9E70A235C430419491C0878FF289C
:100C6000F8D1002A00D06442002004902A7801467E
:100C70002D2A01D02B2A0FD16D1C2D2A02D0002243
:100C8000049209E00122FBE700260A2233466D1C8C
:100C900000F0FFF9381871412F78FF2FF4D10C9A2A
:100CA000A218069202460A4304D0FF23069A913303
:100CB000DA4205DA002109980A4606C00DB0F0BDF7
:100CC0000024B74AB54D2646079200F02FFA02904D
:100CD00006980391002801DA474200E007463905EB
:100CE0000020AF4A001C51410191009012E0F8072A
:100CF00007D022462B4630460799FFF76FFC064681
:100D0000079122462B4610461946FFF767FC04461A
:100D10000D467F10002FEAD10698019B0028009A0B
:100D20000399029806DAFFF7C1FC3246079BFFF7EA
:100D3000BDFC05E0FFF752FC3246079BFFF74EFC77
:100D4000049A002A02D00122D2075140099A03C214
:100D5000B4E7FFB591B0002009900025ED432E20A7
:100D60009E685C681F460190B9696D1C129888479F
:100D70000090396A88470028F6D10098401C0AD0B4
:100D80000D20C0018443002E12DD00982B2809D0CD
:100D90002D280DD103E00020C04315B0F0BD012087
:100DA00080020443B9696D1C12988847761E009032
:100DB00003A9600501D52D2000E02B206A461073A1
:100DC000491C0CA80F9102900AE0B9696D1C129899
:100DD000884700900120400204431398761E056066
:100DE000002E02DD00983028EFD00199009888424B
:100DF00046D18020044308E00998401E0990012054
:100E0000400204431399681C0860B9696D1C761E82
:100E10001298884700903028EED031E0019988423E
:100E200005D1200603D480200443761E1EE00098DE
:100E300005F0CCFE002826D001204002044307A97B
:100E40000F980331761E88420BD200980F993038E4
:100E500008700F98401C0F90200607D50998401E77
:100E600003E0200602D40998401C0990A00502D591
:100E70001399681C0860B9696D1C12988847009026
:100E8000002ECBDC59E0002E57DD0098652801D0FC
:100E9000452852D1A00550D5032000028443B969EA
:100EA0006D1C761E129888470090002E0CDD2B28B2
:100EB00004D02D2808D1FF2001300443B9696D1CEE
:100EC00012988847761E0090E00501D52D2100E09C
:100ED0002B21029801700298401C0290019025E09D
:100EE0000120400204430EA902980131761E884277
:100EF0000ED20098029930380006000E087003D117
:100F00000299019881420AD90298401C029006E099
:100F1000E00501D5234801E0224840420990B96923
:100F20006D1C12988847009013980560002E04DD10
:100F3000009805F04BFE0028D2D1F9691298884735
:100F40000F99FF200870029903AA087000200A90E8
:100F50000B900CA90AA8099BFFF76CFEA00502D410
:100F60000120C04319E72420044209D0E00713D12F
:100F700038680B9A0A99031D3B60006806C00BE0B5
:100F80000B990A98FFF795FC0146E00704D13868F1
:100F9000021D3A60006801602846FEE60000144029
:100FA0000000F03FF1D8FFFF4268002A08D0016836
:100FB0000B78491C002B03D0521E06C01846704700
:100FC0000121C160881E70474268002A0BD0C368A7
:100FD0000168002B07D183688B4204D0491E521C44
:100FE00006C0002070470020C0437047F7B582B0AC
:100FF000029C00272078641C15460197302802D0F7
:10100000002D15D015E020780127641C782804D025
:10101000582802D0002D09D00BE0002D01D0102D52
:1010200007D1002710252078641C02E0082500E085
:101030000A250026009610E0009901276943081848
:10104000020C294680B2714300908E183804864203
:1010500001D3012001902078641C294600F056F845
:101060000028E9DA0398002805D0002F01D0641E7B
:1010700000E0029C04600198002806D005F0CCFC3A
:1010800002210160C81E05B0F0BD0099300408437C
:10109000F9E7F0B51FB486B00020009001900290EF
:1010A0000698069980B204900798090C020400146F
:1010B000114307900027089D099806913E463C463B
:1010C00003900398A9B20204000C039004982D0C1D
:1010D0001543484300212246FFF707FCC719714119
:1010E00010340E46402CECDB3846029AFFF7FDFB2D
:1010F000009A019B8018009059410298019110308C
:1011000002904028CCDB00980BB0F0BD3A2800D20A
:101110003038202302469A43412A01D310463738FB
:10112000884201D30020C043704700000EB5054A35
:1011300002920022009213460192FFF7E3FC03B0F3
:1011400000BD00003304000070B58C180578401C09
:101150006B075B0F01D10378401C2A1106D102787E
:10116000401C03E006780E70401C491C5B1EF9D140
:101170002B0705D40023521E0DD40B70491CFAE72F
:101180000378401CCB1A921C03E01D780D70491C9B
:101190005B1C521EF9D5A142D8D3002070BD0000BF
:1011A00070B5044603F038FB01462148408A4843A5
:1011B000C117090D08180013FFF706FB0546642048
:1011C00001F026F9012C0FD01A48844219D101F000
:1011D000C7FA014618A005F0D7FB2846FFF755FBD4
:1011E00002460B4616A01BE001F0BAFA014612A017
:1011F00005F0CAFB2846FFF748FB02460B4615A040
:101200000EE0194884420DD101F0AAFA01460AA065
:1012100005F0BAFB2846FFF738FB02460B4613A041
:1012200005F0B2FB2846FFF71CFB80B270BD000042
:101230004C220020020000045B25645D00000000D9
:101240006164635F6D562832293A252E32660D0A95
:10125000000000006164635F6D562831293A252E35
:1012600032660D0A00000000100000106164635F28
:101270006D562833293A252E32660D0A00000000EB
:1012800038B50446064805490068FEF731FF60435B
:1012900000E0401E00900028FBD138BD40420F0006
:1012A000981C0020F8B50446006881688907890FFA
:1012B000012902D10168C90722D18168114A10268B
:1012C0001140012500290ED1816829438160012048
:1012D000FFF7D6FF01F044FA07460CE001F040FAB0
:1012E000C01B0A2807D9606D30436065A06D284394
:1012F000A0650120F8BD20680068C043C007EDD19B
:101300000020F8BD1700008070B50646002408F0E4
:10131000FFFE2CA13046FEF7A6FF00281AD02AA116
:101320003046FEF7A0FF002815D0284D1820604356
:1013300029583046FEF765FF002810D024A130461A
:10134000FEF75FFF002810D0182044436019816821
:101350003046884770BD304606F000FB70BD641C07
:10136000E4B2152CE2D9012070BD1AA13046FEF777
:1013700048FF00280AD0182044436019C16830464D
:1013800088470028F0D106F0E5FE19E012A13046AA
:10139000FEF737FF00280DD001F0E2F901460FA05B
:1013A00005F0F2FA18204443601941690DA005F0D8
:1013B000EBFA05E01820444360190169304688477C
:1013C000002070BD4154000041543F00B8AB0008FC
:1013D0003D3F00003D0000003F0000005B25645DD4
:1013E0000000000025730D0A0000000010B503483E
:1013F00000F03EFF024800F03BFF10BD841F0020BC
:101400003C1F002030B5446C1C252C400125A54014
:10141000046C6560046863608368102B036803D004
:1014200099600068C26030BD9A600068C16030BDDC
:1014300070B5054600F036FA2946442000F03EFA21
:101440002A4E304600F0E4FF284600F02BFA2946E9
:10145000BE2000F033FA284600F0DAF904462846A8
:1014600000F0D6F9052819D1502C17D1284600F0E4
:1014700019FA2946442000F021FA304600F0C8FF4E
:10148000284600F00FFA2946BE2000F017FA284639
:1014900000F0BEF90446284600F0BAF9000200B296
:1014A000204308D5C043401CFFF7A0F90022104B91
:1014B000FFF794F805E0FFF799F90322D243FFF70D
:1014C0006DF9FFF7F6F9044601F04AF9014609A063
:1014D00005F05AFA2046FFF7D8F902460B4629468E
:1014E00006A005F051FA204670BD0000EE02000093
:1014F0000000B0BF5B25645D00000000445331383C
:10150000423230282564292074656D70206973206B
:10151000252E3266200D0A0030B50022194903231A
:1015200087B0012813D005240125240702281FD0E5
:1015300003281BD1C86A2843C862C86A284005909E
:101540000815009069460193029220460CE0CC6A8F
:1015500002200443CC62C96A01930140059108202E
:10156000009002926946084801F02CF807B030BD9F
:10157000C86A2843C862C86AC007C00F0590012026
:101580004002DEE7001002400004005010B50023C6
:101590000122194986B0012812D005242407022807
:1015A0001FD003281BD1C86A1043C862C86A104004
:1015B00005900815009069460193029220460CE0C0
:1015C000CC6A02200443CC62C96A019301400591B0
:1015D0000820009002926946084800F0F3FF06B028
:1015E00010BDC86A1043C862C86AC007C00F059022
:1015F00001204002DEE7000000100240000400501D
:1016000010B501221849022386B0012812D0052402
:10161000240702281ED003281AD1C86A1043C862C2
:10162000C86A10400590081500906946039301921E
:1016300020460BE0C86A1843C862C86A6946184069
:1016400005900820009003930192084800F0BAFF2B
:1016500006B010BDC86A1043C862C86AC007C00F90
:10166000059001204002DFE7001002400004005016
:1016700070B50024012806D005252D0702282AD0A0
:1016800003284ED074E00120FFF780FF394D04E0BD
:10169000641CE4B2012000F0ABF90821284601F0F7
:1016A00053F8002802D0642CF2D35FE0642C5DD2A2
:1016B000002404E0641CE4B2012000F099F9082140
:1016C000284601F041F8002802D1F02CF2D34DE079
:1016D000F02C4BD24CE00220FFF758FF0126760297
:1016E00004E0641CE4B2012000F082F9314628468F
:1016F00001F02AF8002802D0642CF2D336E0642CE2
:1017000034D2002404E0641CE4B2012000F070F93B
:101710003146284601F018F80028D9D1F02CF2D330
:1017200024E00320FFF732FF0126B60204E0641C28
:10173000E4B2012000F05CF93146284601F004F8DB
:10174000002802D0642CF2D310E0642C0ED20024C6
:1017500004E0641CE4B2012000F04AF93146284656
:1017600000F0F2FF0028B3D1F02CF2D3012070BDBD
:10177000002070BD0004005070B5012806D005247B
:101780002407022813D003282BD025E00120FFF7DF
:1017900037FF1E4C00220821204600F0DAFF0A2005
:1017A00000F026F90120FFF7F1FE08210EE00220EB
:1017B000FFF726FF01256D0200222946204600F092
:1017C000C8FF0A2000F014F9022018E0204600F0BB
:1017D000BBFF012817D000222D2000F009F9104688
:1017E00070BD0320FFF70CFF0125AD020022294642
:1017F000204600F0AEFF0A2000F0FAF80320FFF7C1
:10180000C5FE2946E2E70122E6E700000004005099
:1018100070B5002506462C463046FFF7ADFFA040C8
:101820002843641CE4B2C5B2082CF5D3284670BD29
:1018300070B51A4D012814D005242407022825D09C
:10184000032822D1FFF7DCFE00220126B602314632
:10185000204600F07EFF284600F0CAF801223146FB
:101860000DE00120FFF7CCFE0D4C002208212046A0
:1018700000F06FFF284600F0BBF801220821204647
:1018800000F067FF0F2000F0B3F870BD0220FFF7F3
:10189000B7FE002201267602D9E70000EE02000022
:1018A0000004005010B50446FFF7C2FF2046FFF7C2
:1018B000DFFE2146CC2000F001F810BDF8B504464B
:1018C00001291FD005252D07022949D0032946D11A
:1018D0000320FFF795FE00260127BF02E007C00F97
:1018E000640800286BD000223946284600F031FFFA
:1018F000082000F07DF801223946284600F029FF33
:101900003A206AE00120FFF77BFE384E0025E00711
:10191000C00F640800280ED000220821304600F0D5
:1019200018FF082000F064F801220821304600F07A
:1019300010FF3A200DE000220821304600F009FF98
:10194000462000F055F801220821304600F001FF42
:10195000022000F04DF86D1CEDB2082DD7D3F8BD74
:101960000220FFF74DFE002601277F02E007C00F8F
:10197000640800280ED000223946284600F0E9FE0F
:10198000082000F035F801223946284600F0E1FE33
:101990003A200DE000223946284600F0DAFE4620C3
:1019A00000F026F801223946284600F0D2FE022037
:1019B00000F01EF8761CF6B2082ED7D3F8BD002230
:1019C0003946284600F0C5FE462000F011F80122F5
:1019D0003946284600F0BDFE022000F009F8761CCA
:1019E000F6B2082E00D279E7F8BD000000040050DE
:1019F00006E00021491CC9B20429FBD3401E80B275
:101A00000028F6D1704710B50120800300F0CEFD0C
:101A100010BD000010B586B0044614216846FEF7DC
:101A2000D9FB1C48C26A02210A43C262C06A1A4A30
:101A300008400590480300900020002C06D0012C9F
:101A400010D0022C11D0032C14D016E003210191E8
:101A500002906946104600F0B5FD072001F03EFAFD
:101A600006B010BD0D49019102E00D480190012022
:101A7000029002E00B48029101906946104600F086
:101A8000A1FD00220221072001F03CFA072001F00D
:101A90002FFAE5E70010024000040050000031106A
:101AA00000002110000011107047000010B5084917
:101AB00000224A6107494B684C1523434B604B6831
:101AC000082423434B60C009C001026010BD000020
:101AD000CC2800200020024010B5214A0021906946
:101AE000C305204804D5416902231943416191157A
:101AF00093699B0505D54369012423434361630230
:101B0000194393695B0505D5436908242343436161
:101B1000E301194393691B0505D543690424234355
:101B200043616302194393699B0405D543691024FB
:101B3000234343616302194393699B0304D54469BA
:101B400020231C43446119439369DB0305D5436992
:101B5000402423434361A0020143916110BD000072
:101B600000200240CC28002070B5054600F0F8FDAA
:101B70000646184C0AE0681C08D0002D04D000F07E
:101B8000EFFD801BA84201D9032070BDA069C007EA
:101B9000F1D1A069800701D50220A061A069C0052C
:101BA00011D4A06980050ED4A06940050BD4A069AA
:101BB000000508D4A069800405D4A069800302D47C
:101BC000A069C00303D5FFF787FF012070BD002087
:101BD00070BD00000020024070B50C46054600F0C4
:101BE00091FC084A0020946021C20749054800F092
:101BF00021FC002802D005A004F0C6FE00F056FC2F
:101C000070BD0000182500200C0000206572726F66
:101C10007220696E204572617365206F7065726114
:101C200074696F6E0A0D0000F8B516460F4604463B
:101C3000002500F067FC0DE0A8003A58214602207C
:101C400000F042FC002803D005A004F09DFEF8BD82
:101C5000241D6D1CB542EFDB00F028FCF8BD000030
:101C60006572726F7220696E205772697465206F99
:101C70007065726174696F6E0A0D00000168024838
:101C800041604068704700000C00002000B587B03C
:101C900014216846FEF79EFA0A48C26A02210A43E6
:101CA000C262C06A0840059088020090032001903B
:101CB0000020029005206946000700F083FC07B071
:101CC00000BD00000010024000B587B01421684636
:101CD000FEF780FA0B48C26A02210A43C262C06A58
:101CE0000840059088020090002001900120029099
:101CF0000320039005206946000700F063FC07B04D
:101D000000BD00000010024000B587B014216846F5
:101D1000FEF760FA0948C16A01221143C162C06A34
:101D200069461040059010030090032001900020A8
:101D30000290034800F046FC07B000BD00100240CE
:101D40000004005000B587B014216846FEF742FA3F
:101D50000A48C26A01210A43C262C06A019108406E
:101D6000059008030090002002900320039069462C
:101D7000034800F027FC07B000BD0000001002403F
:101D80000004005010B502F0B3FD0149486010BDD9
:101D90001400002070B502F0ABFD0C4C0025206053
:101DA000616888420ED0401AFEF70EFD0849C969E5
:101DB000FEF724FBFEF73CFD0649A06040180649EB
:101DC000884200D3A560A06870BD00001400002008
:101DD0004C2200208813000011270000F8B50546AA
:101DE00004464035287C0026012808D001202874AC
:101DF000206881688907890F01290ED101E002203E
:101E0000F8BD0168C90708D0606D202108436065EE
:101E10000126002028743046F8BD616DFF22013292
:101E20009143022211436165C1688907890F0091BE
:101E3000C16889088900C1602068816892071143E0
:101E4000816000F08DFC07460EE000F089FCC01BAD
:101E50000A2809D9606D0221884310210843606572
:101E6000002028740120F8BD206880680028ECDB81
:101E70002068C168009A1143C160606D80088000CD
:101E8000401C6065C5E70000F8B506460D464036C3
:101E9000317C01290DD00121317401688A68520713
:101EA00009D5416D20221143416500203074012085
:101EB000F8BD0220F8BD174B6A68D80547109A4252
:101EC000154C8A6A2B6812D05B035B0B1A438A623B
:101ED0002968490305D5A1680143A1600A20FFF7DD
:101EE000CFF92868800312D5A06838430EE05B0361
:101EF0005B0B9A438A622968490302D5A168814332
:101F0000A1602868800302D5A068B843A0600020C3
:101F10003074F8BD01100000002701400068006C1B
:101F20007047000070B5040006D0606D264600259D
:101F30004036002802D006E0012070BDA56535744A
:101F4000204600F0D3F8606DC00603D4216888688D
:101F5000400705D5606D1021084360653574EBE7D7
:101F6000606DFF2201329043022210436065886851
:101F70008207920F5B48012A02D10A68D2072BD14F
:101F8000032362689B079A4205D05B429A4202D0C3
:101F90005B009A4209D10A69920092080A6121689D
:101FA0000A6963681A430A610CE00A6992009208A0
:101FB0000A6181680F22920491438160816862689E
:101FC000114381602168CA6818239A43CA60216856
:101FD000CA68A3681A43CA60816801225206914305
:101FE00081608168A28E52061143816020688168F9
:101FF000C90004D48168012212071143816020685E
:10200000C168394A1140C1602069E168022825D0C1
:1020100000200143204620300278037B52035B00FE
:102020001A431143226B1143A26992031143E269DF
:10203000D20311432268D3681943D160616A0A460A
:10204000FF3AC23A05D0A26A11432268D368194305
:10205000D16042780121012A02D00BE00420D8E7A8
:102060000078002823D0606D202210436065A06DA9
:102070000843A065E06B012820681FD00169C907EB
:1020800003D0016949084900016120684169C90814
:10209000C900416120684169A26B11434161A56596
:1020A000606D80088000401C6065002070BD206865
:1020B000C26801231B041A43C260DBE70269FF23E5
:1020C0009B009A43026120680269236CA66C1A4344
:1020D000636C33431A430261206802690A43026158
:1020E000D3E70000002701401902FEFF0068044901
:1020F000884204D10348416B421511434163704744
:102100000024014000100240F8B50446406925460D
:1021100040350E4608280BD02068C068C00709D09B
:10212000606D202108436065002028740120F8BDFF
:10213000082700E00C2700F013FB009011E0701C52
:102140000FD0002E05D000F00BFB0099401AB042D2
:1021500007D9606D042108436065002028740320BE
:10216000F8BD206800683842E9D0606D012149025D
:10217000084360652068C16809058A0F0C21002AA0
:102180001BD12022125D002A17D10268120714D534
:10219000826853070122002B08DB43688B434360AE
:1021A000606D130298431043606506E0606D202364
:1021B00018436065A06D1043A065A069002801D197
:1021C000206801600020F8BD70B504462168002039
:1021D0008968490721D425464035297C01291CD02E
:1021E00001212974E169012904D02046FFF75AF83A
:1021F000002811D1616D0A4A1140FF2201321143BA
:1022000061650021A165297422681C211160216883
:102210008A6804231A438A6070BD022070BD0000E2
:10222000FEF1FFFF70B50024014620314A79022AF1
:1022300003D00421C163012418E0026813680E254D
:10224000AB431360026813685B085B001360436C68
:102250001C221340012215469D40036C5D604A71AB
:1022600000220A71816B002900D08847204670BD8A
:10227000F0B4016C0D6801680C68466C1C230422E4
:102280001E401746B7402F420ED067070CD50C688A
:10229000A40602D40C6894430C60416C19408A4037
:1022A000016C4A60016B1AE00227B74002462F40DA
:1022B0002032002F17D0A70715D50C68A40605D427
:1022C0000C680A25AC430C6001215171446C022159
:1022D0001C40036CA140596000211171C16A0029A2
:1022E00018D0F0BC08470827B7402F4212D0240767
:1022F00010D50C680E25AC430C60446C01211C40C9
:102300000B46A340046C6360C163517100211171DD
:10231000416BE4E7F0BC704770B504003CD01F4847
:10232000256814212818FDF7E3FE800060641C482E
:102330002064022120462030024641712968194854
:10234000E3680140A0686669184323693343184372
:10235000A3691843E3691843236A184308432860B4
:102360000121A0688903884210D00D488030836A1B
:10237000656C1C210D400F26AE40B3438362656C33
:1023800063680D40816AAB400B4383620020E063C9
:1023900001215171107170BD012070BDF8FFFDBFAA
:1023A000000002400F80FFFFF8B504468C46203045
:1023B00001790025012909D00126067141790027FC
:1023C000012905D0077102252846F8BD0220F8BD75
:1023D00002214171E76320680168490849000160F2
:1023E00061462046FFF70EF8206B00282068016840
:1023F00001D00E2205E004229143016020680168AB
:102400000A22114301602068016831430160DBE763
:1024100070B5044600F0A4F90546601C02D00448DB
:102420000078241800F09CF9401BA042FAD370BD3C
:102430008C1C0020F8B51A4E0546307C0F4601284A
:1024400007D0012030741748FFF78EFB010002D03F
:1024500021E00220F8BD0020C04338606C6814E021
:102460002046FFF723FB0F48FFF77EFB01460E488F
:10247000426808239A434260426843159A43426087
:10248000002901D03C6006E08034A8686A68C00179
:102490008018A042E4D8002030740846F8BD00003F
:1024A000CC28002050C300000020024005484168AD
:1024B0000222114341604168012211434160002022
:1024C0007047000000200240F8B50C4C1646207CF6
:1024D0000F46012808D0012020740948FFF744FB6B
:1024E0000025002802D006E00220F8BD65613E60AC
:1024F0000348FFF739FB2574F8BD0000CC28002005
:1025000050C3000011484168C9070BD0EFF3108198
:1025100072B60F4AC2600F4AC26081F310884168E8
:10252000C9070ED1416889070DD5EFF3108172B646
:10253000094A0261094A026181F3108840688007F4
:1025400001D50120704700207047000000200240A4
:10255000EFCDAB8905040302BFAE9D8C1615141395
:10256000012110B58903884211D10C49012008705E
:102570000B48407B362802D14A68521C4A60094900
:102580000979012904D0362801D002F065FB10BD7D
:102590003628FCD0044907204871F6E74C22002079
:1025A0002C220020FC0400200000002010B504496B
:1025B0004A69024202D04861FFF7D2FF10BD000015
:1025C00000040140FCB500230124A7E027462A4669
:1025D0009F403A406FD04D68012D05D0022D03D0A9
:1025E000112D01D0122D16D185680326AC465D0051
:1025F000AE46AE406546B543AC46CE687546AE4085
:1026000065462E43866046680D79BE43ED06ED0FA4
:102610009D4035434560C6685F000325BD40AE461A
:10262000AE4335468E68BE402E43C6604E68022ECD
:1026300001D0122E14D1DE08B60036180196366A83
:102640005D07B446EE0E0F25B54000966646AE43D4
:10265000B4460D69009EB54066462E43019D2E622C
:1026600006687546AE430D79AD07AD0FBD403543E5
:1026700005604D68ED0050D52B4D6E6B26436E63A3
:102680009E082A4DB6007519AC46AD689E07360FF8
:102690000F27B740BD4305273F07B84201D10027A8
:1026A0001AE0234FB84201D1012715E0214FB8426B
:1026B00002D1022710E030E01F4FB84201D10327BA
:1026C0000AE01E4FB84201D1042705E01C4FB84272
:1026D00001D1052700E00627B7402F436546AF60CC
:1026E000184D2E684F689643FF0300D516432E60A1
:1026F0006E684F689643BF0300D516436E60AE68A0
:102700004F689643FF0200D51643AE60EE684F68EF
:102710009643BF0200D51643EE605B1C0A6815465F
:10272000DA4000D052E7FCBD00100240000001403A
:102730000004005000080050000C00500010005031
:10274000001C0050000401400069084000D0012036
:102750007047002A01D08161704781627047000094
:1027600001488068704700008C1C002070B502464C
:1027700040325378202B1CD11378012B19D0012320
:10278000137024245470046825689D4325600468F0
:1027900025681E03B5432560046825680D43256040
:1027A00000680168194301602020507000201070FB
:1027B00070BD022070BD70B5024640325378202BA8
:1027C0001BD11378012B18D00124147024235370CB
:1027D00003681D68A5431D6005682B680F26360237
:1027E000B34309021943296000680168214301606D
:1027F000202050700020107070BD022070BD406C11
:102800007047000070B5040006D025464035687852
:102810000026002802D005E0012070BD2E70204661
:1028200000F0AAFA2420687020680168490849006D
:1028300001600F21606809068843216808612168EA
:102840008A680120C00382438A60E1680129A16887
:1028500008D021229202114322689160E168022986
:1028600002D005E00143F7E701212268C902516067
:1028700021684A680F4B1A434A602168CA6882433C
:10288000CA60616920690843A16909020843216897
:10289000C860216AE069084321680860206801680F
:1028A0000122114301606664202068702663AE70C7
:1028B000002070BD00800002FFB50546044640358B
:1028C000687881B0202878D12878012875D0012037
:1028D0002870FFF745FF0746012200901923D10316
:1028E000204602F003F900283CD122206870102015
:1028F000A870002666640398606204986085666329
:10290000618D2F48FF2903D9FF22228500903BE0EB
:10291000618D218500903DE02046029902F0D2F8B9
:1029200016E002F00BF900281CD12068406A616AA9
:102930000870606A401C6062208D401E81B2218553
:10294000608D401E6085608D002801D000290CD06C
:10295000608D0A9900283A462046E2D102F02EF90D
:1029600000281CD0012005B0F0BD00970022802176
:1029700020460A9B02F0BAF80028F3D1608DFF28A8
:1029800005D9FF222285009601231B06C4E7608D2E
:1029900020850096208D0123C2B25B06BCE721682A
:1029A0002020C86121684A68064B1A404A60687056
:1029B000AE702E700020D6E7FFE70220D3E70000BC
:1029C0000024008000E800FEFFB5054604464035BF
:1029D000687881B0202878D12878012875D0012026
:1029E0002870FFF7BDFE0746012200901923D1038E
:1029F000204602F07BF800283CD12120687010208E
:102A0000A870002666640398606204986085666317
:102A1000618D2F48FF2903D9FF22228500903BE0DA
:102A2000618D218500903DE02046029902F04AF830
:102A300016E002F0E9F800281CD1606A21680078ED
:102A40008862606A401C6062608D401E6085208DD7
:102A5000401E80B22085618D002901D000280CD055
:102A6000608D0A9900283A462046E2D102F0A6F885
:102A700000281CD0012005B0F0BD00970022802165
:102A800020460A9B02F032F80028F3D1608DFF281F
:102A900005D9FF222285009601231B06C4E7608D1D
:102AA00020850096208D0123C2B25B06BCE7216819
:102AB0002020C86121684A68064B1A404A60687045
:102AC000AE702E700020D6E7FFE70220D3E70000AB
:102AD0000020008000E800FEFFB5054604464035B2
:102AE000687883B0202875D10C98002814D00D98F0
:102AF000002811D0287801286CD001202870FFF719
:102B00002FFE0746012200901923D103204601F031
:102B1000EDFF002874D103E00120400260646FE003
:102B2000222068704020A870002666640C986062BD
:102B30000D98608566630E980090019704A90EC9F0
:102B4000204601F05FFF002801D02E7058E0618D13
:102B50003448FF2905D9FF22228501231B06009056
:102B600006E0618D21850090208D0123C2B25B06B5
:102B70002046049901F0A6FF009700220421204678
:102B80000E9B01F0B3FF00283AD12068406A616AC9
:102B90000870606A401C6062208D401E81B22185F1
:102BA000608D401E6085608D00281FD000291DD1DA
:102BB00000970022802120460E9B01F097FF0028FD
:102BC0001ED1608DFF2806D9FF22228501231B0616
:102BD000009607E024E0608D20850096208D01237B
:102BE000C2B25B062046049901F06CFF608D00289C
:102BF000C2D13A4620460E9901F0E0FF002802D0EB
:102C0000012007B0F0BD20682021C1612068426822
:102C1000054B1A4042606970AE702E700020F0E7DC
:102C20000220EEE70024008000E800FEFFB5054624
:102C300004464035687883B0202872D10C9800286B
:102C400014D00D98002811D02878012869D00120CF
:102C50002870FFF785FD0746012200901923D10354
:102C6000204601F043FF002871D103E0012040021B
:102C700060646CE0212068704020A87000266664C3
:102C80000C9860620D98608566630E9800900197BD
:102C900004A90EC9204601F0E5FE002801D02E70DF
:102CA00055E0608DFF2805D9FF22228501231B06F0
:102CB000009606E0608D20850096208D0123C2B22B
:102CC0005B062046049901F0FDFE3A4620460E9927
:102CD00001F09AFF00283AD1606A21680078886282
:102CE000606A401C6062608D401E6085208D401EC1
:102CF00080B22085618D00291FD000281DD100974A
:102D00000022802120460E9B01F0F0FE00281ED1FB
:102D1000608DFF2806D9FF22228501231B0600961D
:102D200007E024E0608D20850096208D0123C2B24B
:102D30005B062046049901F0C5FE608D0028C4D1D1
:102D40003A4620460E9901F039FF002802D00120B2
:102D500007B0F0BD20682021C16120684268054BA2
:102D60001A4042606970AE702E700020F0E70220B9
:102D7000EEE7000000E800FE10B586B0044614211E
:102D80006846FDF727FA10492068884219D10F4C90
:102D9000E16A02200143E162E16A01400591C0203D
:102DA00000901220012101900320029104910390D0
:102DB00069460748FFF706FCA06B01214905084357
:102DC000A06306B010BD0000005400400010024097
:102DD0000004005070B504000FD02168134808604B
:102DE00021681348086003CC41602068083C2168D2
:102DF0008860FFF7B5FC054608E0012070BDFFF7CD
:102E0000AFFC401B302801D9032070BD2068C0688A
:102E10000028F4D120680269E1688A4201D001618A
:102E200001E004490160002070BD0000CCCC00002E
:102E300055550000AAAA0000006802490160002060
:102E400070470000AAAA0000024881680278891829
:102E5000816070478C1C002010B508480024016870
:102E6000402211430160204600F00AF8002801D0FA
:102E7000012401E000F026F8204610BD00200240A9
:102E800070B504460D4D7D202978C000FDF730F95E
:102E900001460B480068FDF72BF900F0EBFF002816
:102EA00009D1042C07D200222146401E00F02AF846
:102EB00000206C6070BD012070BD00008C1C0020E3
:102EC000981C00200448416B012211434163816B2F
:102ED000020411438163704700100240C106C90E0D
:102EE00001208840014908607047000080E100E04F
:102EF000C106C90E012088400149086070470000E2
:102F000000E100E010B502F0FFFF10BD02480168CB
:102F100002151143016070470070004002480168CB
:102F2000421511430160704700700040024801687B
:102F30008215114301607047007000400A4B1A6807
:102F40009208920002431A6008480369042213435E
:102F50000361012906D040BF20BF20BF0169914312
:102F60000161704730BFF9E70070004000ED00E0FC
:102F7000F8B5044600785E4D800672D55C4E002799
:102F8000403EB06BC00004D4B06BA9050843B063E9
:102F9000012758480168C90511D4016882151143F9
:102FA0000160FFF7DDFB009005E0FFF7D9FB00991A
:102FB000401A642837D84F480068C005F5D53268F4
:102FC0000321090560680A400140914208D081034D
:102FD000890F032904D13168890301D50120F8BD87
:102FE0002A69032109040A4022D0084090421FD0D8
:102FF000207880061CD528692A6988430121C904E4
:103000000A432A612A698A432A612861C0050FD5CB
:10301000FFF7A6FB009008E0FFF7A2FB0099411A1A
:103020003548814201D90320F8BD28698005F3D5D0
:1030300061688803800F032805D132680005824348
:1030400001400A433260286903226168120411407A
:1030500008432861002F04D0B06B01210907884381
:10306000B0632078C00705D0E868A16880088000B8
:103070000843E8602078800705D5E8680C2188437C
:10308000E1680843E8602078400706D5E868032136
:103090008902884321690843E8602078000706D543
:1030A000E86803210903884361690843E8602088D0
:1030B000C00506D5E868032109048843A1690843CF
:1030C000E8602078400606D5E86801218906884333
:1030D000216A0843E8602078000606D5E8680321E5
:1030E00089048843E1690843E8600020F8BD0000D6
:1030F000401002400070004088130000F8B50E46F2
:1031000005007DD053480068C007C00FB0420AD206
:103110005048016849084900314301600068C00710
:10312000C00FB04271D128784B4C800705D5E068BC
:10313000F0218843A9680843E0602878C00752D08E
:103140006868022817D0032818D02168012818D0F1
:103150008905002959DAE168890889000143E1609D
:10316000FFF7FEFA69680746022912D003291CD02E
:10317000012926D033E021688903EAE72168890123
:10318000E7E74907E5E7FFF7EBFAC11B3348814260
:1031900023D8E0680007800F0228F4D123E0FFF76E
:1031A000DFFAC11B2D48814217D8E0680007800F65
:1031B0000328F4D117E0FFF7D3FAC11B2748814257
:1031C0000BD8E0680007800F0128F4D10BE0FFF76F
:1031D000C7FAC11B2148814201D90320F8BDE0682C
:1031E0000007800FF3D11B480168C907C90FB1421E
:1031F0000DD901684908490031430160006800E0C9
:1032000003E0C007C00FB04201D00120F8BD28780C
:10321000400706D5E068072109028843E9680843AA
:10322000E0602878000707D5E0680721C9028843D5
:103230002969C9000843E06000F036F8E168084AEF
:103240000906090F515CC840064908600020FFF7D5
:1032500017FEF8BD00200240001002408813000055
:10326000C8AD0008981C0020044805490068C968DA
:10327000044A4905490F515CC8407047981C00201A
:1032800000100240E1AD0008044805490068C96823
:10329000044A8904490F515CC8407047981C0020BB
:1032A00000100240E1AD000810B5184AD1680C20AA
:1032B000084004280BD0082810D00C2810D05068E3
:1032C0000004410F0120C003491C884010BD106854
:1032D000C00601D50E4810BD0E4810BD0E4810BDE9
:1032E00088020E4B000F185C0902D368890F491C35
:1032F000DB0301D5084A05E01268D20601D5044A6D
:1033000000E0044A5043FCF7F3FE10BD00100240F9
:1033100000093D000024F40000127A00D8AD000836
:10332000FEB505007ED0F94CE7680C20E668074042
:103330000120000406402878C00747D0082F05D098
:103340000C2F0AD101200004864206D12068800398
:103350003CD568680028E5D038E0012069680004A1
:10336000814203D121680143216011E0052301223C
:103370001B0492049942216802D111432160F1E7B4
:1033800081432160216801400091206890432060C2
:10339000686800280DD0FFF7E3F9009005E0FFF71B
:1033A000DFF90099401A64287ED820688003F6D59A
:1033B0000CE0FFF7D5F9009005E0FFF7D1F900998F
:1033C000401A6428F0D820688003F6D42878800753
:1033D0005CD5E868810604D5226820210A43226072
:1033E00088430923042F0DD00C2F01D1002E09D0C2
:1033F00000283BD02168994301432160FFF7B0F9D1
:10340000064627E02168490701D500288AD061686F
:103410001F22120291432A6912021143616021683E
:10342000994300E0C3E101432160FFF73DFFE168FC
:1034300009060A0FB649895CC840B64908600020F1
:10344000FFF71EFD002873D120E0FFF789F9801BEC
:103450000228A9D820684007F7D560681F21090213
:10346000884329690902084360600FE0206840082A
:1034700040002060FFF774F9064604E0FFF770F99A
:10348000801B022890D820684007F7D42878C0060F
:1034900060D5002F0DD0E86900284AD02068FF21B0
:1034A00001310843206000E0E8E0FFF759F90646E3
:1034B0002CE02068800502D5E8690028A6D0606865
:1034C000072149038843696A084360606068298C62
:1034D0000002000A090608436060686A410B012087
:1034E000C003491C8840E16809060A0F8849895CC5
:1034F000C840884908600020FFF7C2FC002817D1A7
:1035000028E0FFF72DF9801B0228A2D8206880054B
:10351000F7D56068072149038843696A08436060FA
:103520006068298C0002000A09060843606011E007
:1035300023E12168FF20013081432160FFF710F96A
:10354000064604E0FFF70CF9801B02289AD8206891
:103550008005F7D42878704E000724D568690028C4
:10356000306910D0012108433061FFF7F9F800906D
:1035700005E0FFF7F5F80099401A02287ED8306977
:103580008007F6D50FE0400840003061FFF7E8F80B
:10359000009005E0FFF7E4F80099401A02286DD882
:1035A00030698007F6D42878400764D5002002905F
:1035B000A06BC00006D4A06B012109070843A063DB
:1035C0000120029055480168C90511D4016882158F
:1035D00011430160FFF7C4F8009005E0FFF7C0F861
:1035E0000099401A642849D84C480068C005F5D5B0
:1035F000FF20AA680130824203D131690143316161
:1036000011E001218902002A07D005231B029A42FA
:1036100003D132690A433261EFE732698243326192
:10362000306988433061A86800280ED0FFF798F809
:10363000009006E0FFF794F80099411A384881425B
:103640001CD830698005F5D50DE0FFF789F80090AA
:1036500006E0FFF785F80099411A314881420DD8FC
:1036600030698005F5D40298002804D0A06B0121B0
:1036700009078843A0632878800600E07CE02ED507
:103680002848A9694314002916D0A26801210A43D9
:10369000A260626B0A436263016A19430162FFF729
:1036A0005FF8064604E0FFF75BF8801B022863D84A
:1036B000A0688007F7D512E0A16849084900A16019
:1036C000016A99430162FFF74BF8064604E0FFF7F1
:1036D00047F8801B02284FD8A0688007F7D4A86A53
:1036E000002866D00C2F4DD001263606022820680F
:1036F00005D0B0432060FFF733F805463EE0B04305
:103700002060FFF72DF8074613E00000001002408C
:10371000C8AD0008981C0020401002400070004016
:103720008813000000000140FFF71AF8C01B0228B0
:1037300022D820688001F7D4296BE86AE268084340
:10374000696BFD231B049A4311430843E060206822
:1037500030432060FFF704F8054604E0FFF700F867
:10376000401B022808D820688001F7D521E0FEF729
:10377000F7FF401B022801D90320FEBD206880010D
:10378000F5D416E00128F8D0E06801210904EA6ABE
:10379000014091420BD10F2189042A6B01409142D3
:1037A00005D1032189050840696B884201D00120B9
:1037B000FEBD0020FEBD000010B51148FFF73CFB28
:1037C0001048114C017B00290ED02179491CC9B247
:1037D0002171112908D100210173217114231A4686
:1037E0000AA10F4800F059FF0E480079002801D1C6
:1037F000072060710121122001F0D6FC10BD0000ED
:103800002C1E00202C220020000000205061737329
:10381000776F72642074696D656F75740D0A0000AE
:10382000BC1E0020FC04002010B5074801790748A1
:10383000022902D0012902D003E0002100E0072183
:10384000417101F009FA10BDFC04002000000020C5
:1038500070B50446006881688025C90400290BDA28
:10386000C068C00508D52046FFF7DEFF2168C8689C
:103870002840FF388238C8602068816889040BD5E9
:10388000C068800508D52046FFF796FF2068C1680C
:10389000054A29408918C160012004494004486153
:1038A00001202034607070BD7FFDFFFF00040140E7
:1038B000F8B5054604462035287801281DD001209A
:1038C0002870022068702268CA2050622268532043
:1038D0005062FF2001300026FF2781421CD1216861
:1038E0008A6882438A6020688168012212039143BA
:1038F0008160FEF735FF009009E00220F8BDFEF779
:103900002FFF0099411A7D20C00081421BD82068FA
:10391000C068C007F3D020E020688168012252020D
:103920009143816020688168120191438160FEF7B4
:1039300017FF00900DE0FEF713FF0099411A7D205C
:10394000C000814205D920684762032068702E704C
:10395000F8BD2068C0688007EDD520684762012067
:1039600068702E700020F8BD10B500680B464068E6
:10397000C021C94301400002000ECC04D870E40EFF
:103980005C708C06A40E0904490F9C701970002A03
:103990000AD102F00FFBD870587802F00BFB587078
:1039A000987802F007FB9870002010BD30B50B46E8
:1039B0000168896A5960016809694904490C99607C
:1039C000006804680F482146014088024D04800EBB
:1039D00018706D0E49065D70490E99706102490EAE
:1039E00040242140D970002A0AD102F0E3FA18706D
:1039F000587802F0DFFA5870987802F0DBFA987085
:103A0000002030BD7F7F7F00F8B5040050D02546F0
:103A100020356878002803D12870204600F052F83D
:103A2000022068702168CA204862216853204862D9
:103A3000204602F0D3FAFF2604270028206802D08F
:103A400046626F7034E081681D4A114081602168D0
:103A500088686268A369104322691A43104388602A
:103A60002168E06808612068016922891204114315
:103A700001612068C16880229143C1602068C16CE7
:103A800089088900C164E169606901432068C26CEA
:103A90001143C1642068806880060BD4204600F082
:103AA000C7F9002806D0206846626F700020287091
:103AB0000120F8BD20684662012068700020F8BD32
:103AC000BFFF8FFF10B50068084988420DD1084834
:103AD0000169012292041143016100221146022072
:103AE000FFF710FA0220FFF703FA10BD002800408C
:103AF00040100240FEB506460446203630780B469C
:103B000001283ED00120307002207070184620300D
:103B10000090206800278068002A34D0400600D436
:103B2000DF7019789D7809040D435978DA78090215
:103B3000120411430D430099D869097809060D4311
:103B400005435869996905435868084300902168FE
:103B5000CA204862216853204862FF205A6A013017
:103B60008021824245D12268936883439360206814
:103B7000C2680A40FF3A823AC260FEF7F1FD019046
:103B800024E00220FEBD400600D4DF70187802F069
:103B900019FA0504587802F015FA000205439878DE
:103BA00002F010FA0543D878000405430098007825
:103BB00002F008FA00060543D869C1E7FEF7D0FD18
:103BC0000199411A7D20C00081422AD82068C0682E
:103BD000C007F3D02068C561216800984864206858
:103BE0008168FF22013211438160206881681201DF
:103BF00030E02068826801235B029A43826020687B
:103C0000C2680A401D495118C160FEF7A9FD019024
:103C10000EE0FEF7A5FD0199411A7D20C00081420A
:103C200006D92168FF204862032070703770FEBDFE
:103C30002068C0688007ECD520680562216800987C
:103C400088642068816801225202114381602068E3
:103C50008168120111438160094802680121490409
:103C60000A43026082680A4382602168FF2048623A
:103C70000120707037700020FEBD00007FFDFFFF47
:103C800000040140F8B505460446203528780B4667
:103C900001280FD00120287002206870002A0BD064
:103CA000D8789E78000406435878097800024903C2
:103CB000084317E00220F8BD5878C10603D5EF216C
:103CC00008400A305870D87802F07CF90604587819
:103CD00002F078F900020643987802F073F906437F
:103CE0001878400306432168CA204862216853209F
:103CF0004862204602F072F90027002811D11148CD
:103D00000640206846602068C16880229143C160F7
:103D10002068806880060CD4204600F089F80028CE
:103D200007D02168FF204862042068702F700120AE
:103D3000F8BD2168FF204862012068702F700020C4
:103D4000F8BD00003FFFFF00F8B5064604462036E8
:103D500030780D46012822D001203070022070708A
:103D6000206800278068002A1BD0400600D4EF702E
:103D70002978A878090408436978EA7809021204C6
:103D80001143084300902168CA20486221685320EB
:103D90004862204602F022F9002837D116E00220BE
:103DA000F8BD400600D4EF70287802F00BF9030448
:103DB000687802F007F900020343A87802F002F9DC
:103DC0000343E878000403430093DCE717490098B5
:103DD00008402168086020688168012292049143AC
:103DE00081602969E868084321688A68104388600F
:103DF0002068C16880229143C16020688068800685
:103E00000CD4204600F014F8002807D02168FF20C9
:103E100048620420707037700120F8BD2168FF20CF
:103E200048620120707037700020F8BD7F7F7F00EE
:103E300070B504460068C168A0229143C160FEF7D6
:103E40008FFC7D260546F60006E0FEF789FC401B48
:103E5000B04201D9032070BD2068C0688006F4D547
:103E6000002070BD024801690222114301617047C0
:103E700000E000E0094910B5401E884201D9012048
:103E800010BD074C60610321081F02F03DF80020BF
:103E9000A06107202061002010BD0000FFFFFF008F
:103EA00000E000E00248016902229143016170478D
:103EB00000E000E0F0B502462032137E012B15D061
:103EC000012717760223537605686C68AB68702665
:103ED000B4430E68496826438024A34319436E60A7
:103EE00000688160577600201076F0BD0220F0BD9A
:103EF00070B5040005D025462035687E002802D024
:103F000006E0012070BD00202876204600F00AF867
:103F100002206876211D206802F000F901206876F1
:103F2000002070BD006801218907884204D1034840
:103F3000816B012211438163704700000010024031
:103F4000F8B5054604462035287E012817D00126FD
:103F50002E7602206876226890687727FF23B84380
:103F60001B02984390600A68502A31D00EDC202A48
:103F70004BD006DC002A48D0102A3AD145E0022076
:103F8000F8BD302A41D0402A33D136E0602A27D00C
:103F9000702A12D001200003121A2AD0824228D19E
:103FA000CB684A688968206802F0ECF8206881686C
:103FB00001229203114381601BE0CB684A68896843
:103FC000206802F0DFF8216888683843886010E0D4
:103FD000CA684968206802F0E8F85021206806E0C5
:103FE000CA684968206802F0F1F86021206802F090
:103FF000D4F86E7600202876F8BDCA684968206833
:1040000002F0D3F840212068F1E711462068EEE77E
:10401000014660310A7C012A09D001220A74006835
:10402000026802231A4302600020087470470220CD
:1040300070470000FEB5054604466035287C002622
:104040009446012811D001232B7424206067206836
:1040500002689A4302602768B868032212059043F9
:104060000843B860002902D015E00220FEBD60467A
:104070000091019020684168102291436A4692881D
:1040800011434160206841686A4609029279090A31
:104090001206114341602068016819430160FEF770
:1040A0005FFB094900910346012100228905204652
:1040B00002F032FB002801D0032601E020206067D7
:1040C000002028743046FEBDFFFFFF01704700004E
:1040D00070B52C490122042302240825884226D1E8
:1040E0000168CE69C06F042812D006DC002816D003
:1040F000012805D0022812D106E008280FD10BE0D4
:10410000486A886A0A620AE0486A886A0B6206E0BE
:10411000486A886A0C6202E0486A886A0D6200F0A8
:1041200063FF01221849174800F094F970BD174940
:104130008842FBD10168CE69C06F042812D006DC2A
:10414000002816D0012805D0022812D106E0082840
:104150000FD10BE0486A886A0A620AE0486A886AF6
:104160000B6206E0486A886A0C6202E0486A886A64
:104170000D6200F0FDFF04490122C91E034800F052
:10418000C5F970BD3C1E002003000020BC1E0020AD
:10419000F8B502680446D0691168936805072D0FC9
:1041A0005BD0DD07ED0FFF2621360E402E4367D092
:1041B000C60706D0CE0504D501261662E26F32434B
:1041C000E267870702220426002F06DADF0704D001
:1041D00027683A62E76F3743E767470706D5DB078B
:1041E00004D023681E62E36F1343E367020709D517
:1041F00020220A402A4305D0236808221A62E36F6E
:104200001343E367E26F002A2FD0800606D58806A5
:1042100004D5216E002901D020468847E06F21682F
:104220008968490601D4000724D5204602F0E5F844
:1042300020688168490619D58168402291438160D0
:10424000E06E002812D020498163E06EFDF7EAFF9E
:1042500000280AD0E06E816B06E0850610D58D0639
:104260000ED5216E1CE020468847F8BD2046FFF79A
:104270002FFFF8BD2046FFF72BFF0020E067F8BDB9
:10428000C50208D55B0206D5012000051062204654
:10429000FFF71CFFF8BD030605D50B0603D5616EBD
:1042A0000029E0D1F8BD4006FCD54806FAD51368D0
:1042B000204640218B431360202161670021616605
:1042C00000F0A8FAF8BD00001D63000810B5040056
:1042D00003D0606F002802D007E0012010BD00214C
:1042E00070200155204600F027F8242060672068E0
:1042F0000168490849000160204602F0EFF80128F2
:10430000ECD0606A002802D0204601F072FF2068DD
:1043100041680922D20291434160206881682A22C3
:1043200091438160206801680122114301602046A9
:1043300001F0C4FF10BD0000F0B587B0064614219F
:104340006846FBF747FF3D4F34683D480221012294
:1043500003230025BC424CD1846B4F043C4384634F
:10436000C46A0C43C462C06A6C4608400590980257
:104370000FC40720049069463248FEF723F9334CF6
:1043800031482060A560E5608027656127610520D0
:10439000A56160602020E0610320000320622046C8
:1043A000FDF7BAFF002801D0FDF77EFBF466A66298
:1043B000264C25484834143820600520606021468A
:1043C00010200831A1C16561A56103200003E561EA
:1043D00020622046FDF7A0FF002801D0FDF764FB16
:1043E000B466002201211D20A662FEF78BFD1D2070
:1043F0001FE0174EB4421ED1846B0126760434436D
:104400008463C46A1443C462C06A6C46C007C00FA8
:1044100005900C20039323C40420049005206946D2
:104420000007FEF7CFF8002201211C20FEF76AFDED
:104430001C20FEF75DFD07B0F0BD00000048004005
:104440000010024000040050300002403C1F0020D9
:1044500000440040F8B50446806F20284DD1002963
:104460000BD0002A09D00123A0681B03984206D173
:104470002069002803D1C80701D00120F8BD2546D6
:104480006035287C012838D00120287458206165C7
:1044900002530026E6672220A067E06E002819D0AC
:1044A0001749C162E16E17480863E16E1648486318
:1044B000E06E13468663676D21683A462431E06EEC
:1044C000FDF772FF002805D01020E0672E74202031
:1044D0006067D2E72E7420680168FF220132114321
:1044E0000160206881680122114381602068816831
:1044F0004022114381600020F8BD0220F8BD000079
:1045000079630008B763000831630008F0B5836F72
:10451000202B54D100290AD0002A08D08568DC015C
:10452000A54206D10369002B03D1CB0701D001209E
:10453000F0BD034660331E7C012E40D001261E7460
:104540004165014640310A834A830022FF26026604
:10455000A54204D10569002D13D11A4D0AE07F2729
:10456000002D09D001263607B5420CD10569002D72
:1045700005D03F258D8307E00569002D01D08F838D
:1045800002E08E8300E08A83C2672221816701688E
:104590008D68012635438D608168A14202D1016991
:1045A00000290AD0084901661A7400680168FF22D0
:1045B0002132114301600020F0BD0449F3E70220DD
:1045C000F0BD0000FF010000836400082B640008B8
:1045D00070B52B4901262B4C88423CD12A4D687975
:1045E000032813D060790938142826D82748FBF708
:1045F00033FE4119FF312046FF31C0780231087285
:104600002B2811D0E179012910D01DE01E49EA883C
:10461000E07808315054E988491CE9804B2801D0E2
:104620003E2811D1062006E0E6710DE00A280BD1E4
:104630000020E0710220687106E0124901231A4649
:10464000C91C134800F029F80E490122C91C0C4866
:10465000FFF700FF70BD0E498842FBD10D4A60781C
:1046600021781154401C60700D2901D00A2900D115
:10467000A670012203490648FFF748FF70BD0000FD
:104680003C1E002000000020FC0400200407002045
:10469000BC1E0020A41C00207047FFB50446406FDC
:1046A00083B017460D4620285CD1002D0AD0002F7C
:1046B00008D0A168C001814207D12069002804D137
:1046C000E80702D0012007B0F0BD2046603002901C
:1046D000007C012846D00298012101740020E06787
:1046E00021206067FEF73CF826464036019037826D
:1046F00077820120A1680003814202D1206900284D
:1047000002D02F46002511E000270FE00022802173
:10471000204602F001F8002815D1002F15D021689D
:10472000387888627F1C708A401E7082708A019B74
:10473000002806980090E9D100224021204601F08F
:10474000EBFF002808D00320BDE728882168C005BA
:10475000C00D8862AD1CE6E720206067029900204A
:104760000874B0E70220AEE7F8B50446406F202891
:1047700047D100290BD0002A09D00123A0681B03D0
:10478000984206D12069002803D1C80701D0012032
:10479000F8BD25466035287C012832D001202874D8
:1047A00020464030E164028242820026E6672120F2
:1047B0006067A06E002819D01349C162A16E13482A
:1047C0000863A16E12484863A06E1346866327688B
:1047D000E16C3A462832A06EFDF7E6FD002805D0D0
:1047E0001020E0672E7420206067D0E72168402009
:1047F00008622E7420688168802211438160002045
:10480000F8BD0220F8BD0000C1630008F163000894
:1048100031630008704770477CB506461A48416806
:10482000C9430907FBD4194C606B651528436063C5
:1048300000211748FDF7D2FA16480090164801905B
:1048400069461348FDF720FBA014019069460096C5
:104850000F48FDF719FB0E48FDF7B6FC0021C943D0
:104860000B48FDF751FC0A48FDF758FB084980B298
:104870000A689368022633439360096803220A603A
:10488000616BA94361637CBD007000400010024071
:10489000D01D0020FFFF07000110000038B50B23DA
:1048A0001B07C518114B0FD01C152D1B18D02D1B25
:1048B00019D0A542DD6A05D108242543DD62DB6AF3
:1048C000234007E08024F8E7DC6A01252C43DC6202
:1048D000DB6A2B40009311601146FDF773FE38BD73
:1048E000DD6A0224E9E7DD6A0424E6E700100240FD
:1048F000F8B5012105200022C9020007FDF729FFB4
:1049000000240126194F360331463846FDF71CFFB7
:104910000028F9D1002501220527D6023F0731469C
:104920003846FDF716FF6400002231463846FDF791
:1049300010FF71000D48FDF707FF012800D1641C2E
:104940006D1CEDB2182DE6D301220526D5023607DF
:1049500029463046FDF7FDFE280344400022294643
:104960003046FDF7F6FE2046F8BD0000000400507A
:10497000FEE701688A69D243920701D400228A6265
:1049800000688169C943C90703D0816901221143C5
:1049900081617047F7B5044600680E468069C043E0
:1049A000C0062BD420272546403520688069C043A7
:1049B000800612D5701CF8D0FDF7D2FE0299401A7D
:1049C000B04201D8002EF0D1606C384360646F7043
:1049D0000020A87028700120FEBD21681020C86149
:1049E0002068C7612046FFF7C4FF20684168044A79
:1049F00011404160606C04210843E7E70020FEBDE0
:104A000000E800FEF8B50446164615481D46DAB221
:104A10000090079F0023204600F054F83A462046B5
:104A2000069900F0F1F8002818D12846F5B20128BF
:104A300009D02168300A88623A462046069900F07B
:104A4000E3F800280AD120688562009700224021FF
:104A50002046069B00F04AF8002800D00120F8BD4F
:104A600000200080F8B50446164615481D46DAB207
:104A7000C3020090079F204600F024F83A462046E3
:104A8000069900F0C1F8002818D12846F5B201288F
:104A900009D02168300A88623A462046069900F01B
:104AA000B3F800280AD1206885620097002280218F
:104AB0002046069B00F01AF8002800D00120F8BD1F
:104AC00000200080F0B50668059C7568064F600DF3
:104AD000384385438805800D11040843184320435B
:104AE00005437560F0BD0000FF63FF03F8B51D4688
:104AF00017460E46044609E0681C07D0FDF730FE55
:104B00000699401AA8420BD8002D09D02068816967
:104B1000304688430FD00020B842EDD00020F8BDC9
:104B2000616C202001436164403460700020A070FB
:104B300020700120F8BD0120EEE70000F7B5002746
:104B4000202605460446403528E02046029A019971
:104B5000FFF720FF002801D00120FEBD20688069FA
:104B6000C043800611D420688169C943490702D433
:104B7000218D002917D1C661206841680E4A114075
:104B8000416067646E70AF7013E0FDF7E9FD029954
:104B9000411A0198814208D8002806D0206880690F
:104BA000C0434007D1D40020FEBD606C3043606438
:104BB0006E702F70D0E7000000E800FE70B516465A
:104BC0000D4604460FE0324629462046FFF7E2FE36
:104BD000002801D0012070BDFDF7C2FD801BA84256
:104BE00008D8002D06D020688069C0438006EAD42A
:104BF000002070BD616C202001436164403460700E
:104C00000020A0702070E5E770B516460D460446FA
:104C100011E0324629462046FFF7BCFE002801D0AD
:104C2000012070BD681C06D0FDF79AFD801BA842CC
:104C300008D8002D06D020688069C0438007E8D4DA
:104C4000002070BD616C20200143616440346070BD
:104C50000020A0702070E3E702480168042211439D
:104C6000016070470070004070B50C4CA06B2504CB
:104C70002843A063FEF752F9FEF748F9E06869138C
:104C80000843E060A06B2843A063FFF70BF9012104
:104C90000846FEF753F9FFF7E5F870BD0010024033
:104CA00030B587B000F05EF92DA0006805900020B7
:104CB0000390049005F03CFF7D24012505A8E40045
:104CC00000902B460022C421019502942548FDF74F
:104CD000ADFF05F02DFF2449884236D203A800908D
:104CE00001230F22C521019502941E48FDF7F4FE11
:104CF00004A8009001231022C521019502941948AF
:104D0000FDF7EAFE6846007B01026846007C081851
:104D100084B27D20400184420BD9FDF721FD01467C
:104D200012A001F031FE13A001F02EFE184807B0CA
:104D300030BDFDF715FD01460CA001F025FE214612
:104D400014A001F021FE2046F1E7FDF709FD014620
:104D500006A001F019FE14A001F016FE1948E6E7BE
:104D600004000000242500200F2700005B25645D5F
:104D70000000000044697374616E636520697320EC
:104D80006F7574206F662072616E67650D0A000092
:104D9000FFFF000044697374616E6365203D256404
:104DA000636D0D0A000000006C696461725F6C69DC
:104DB0007465206973206E6F7420636F6E6E656317
:104DC000740D0A00FF0F00001CB500211848009167
:104DD000164A01910260C16352058160426081639D
:104DE000012202610246C16020321170FF2351701E
:104DF000C2334362816211730163816104224163A2
:104E00004261C161FDF78EF8002801D0FCF74CFE2D
:104E10000848009001200003019069460448FDF70E
:104E200033F8002801D0FCF73FFE1CBD00240140F0
:104E3000D01D00200000024408B50848016B012283
:104E400011430163006B10400022009011460A20BC
:104E5000FEF758F80A20FEF74BF808BD0010024094
:104E6000F0B587B014216846FBF7B4F93648C26A3A
:104E700004210A43C262C26A0A400592C26A8021C2
:104E80000A43C262C26A0A400592C16A01263143DE
:104E9000C162C16A31400591C26A02210A43C262FD
:104EA000C06ACF010840059005200022394600075E
:104EB000FDF74FFC012220212448FDF74AFC700336
:104EC000032400256A4631C269462148FDF77AFB72
:104ED000009469461F4802950194FDF773FB1E4834
:104EE0006A4631C2052069460007FDF76BFB1B4887
:104EF0006A4631C269461548FDF764FBB00300906D
:104F000017480190694602951048FDF75BFB0520A4
:104F1000694600070097019602950394FDF752FB3E
:104F20002020009069460196029503940748FDF7FA
:104F300049FB002202210720FDF7E4FF0720FDF7CF
:104F4000D7FF07B0F0BD0000001002400004005081
:104F500000080050001C0050F39E0000DFB300006A
:104F60000000211010B51348114901601249416039
:104F7000002181600161416181610122C161C260E2
:104F80000162FDF73FFC002801D0FCF78DFD0021F8
:104F90000848FDF7EBFB002801D0FCF785FD002158
:104FA0000448FDF708FC002801D0FCF77DFD10BD8A
:104FB0000054004024250020BB7C700010B5084838
:104FC00006490160062141600649C1608160FDF724
:104FD00001FF002801D0FCF767FD10BD0030004044
:104FE0002C1E0020FF0F000010B50F480D49016076
:104FF0004B21C901416000218160C16001610C2227
:1050000081614261016230214162012109038163B2
:105010004900C163FFF75AF9002801D0FCF744FDAD
:1050200010BD0000004800403C1E002030B591B08B
:1050300014216846FBF7CEF80024282106A8059421
:10504000FBF7C8F82D492E4812C07F21016084600B
:10505000C4600461FF21446141600838FEF7D4FC5C
:10506000002801D0FCF720FD68460470447084706D
:1050700003940122694622480494FEF765FE002845
:1050800001D0FCF711FD012568460575457585754C
:10509000C4752A4605A91A48FEF7F4FD002801D078
:1050A000FCF702FD68460476447603218176079476
:1050B00009940A940B940C9408A80D940576FF208B
:1050C00001300F90012206A90D48FEF713FD0028BC
:1050D00001D0FCF7E9FC05216846817608A8057631
:1050E000012040020F90012206A90548FEF702FDAB
:1050F000002801D0FCF7D8FC11B030BD00280040DA
:10510000CC1F002010B586B0002400940121164861
:1051100001940294039404948907059401609F21EB
:1051200084604160046111494461C160FEF7E0FEA2
:10513000002801D0FCF7B8FC01200003009069466C
:105140000948FEF7FDFE002801D0FCF7ADFC0494F1
:1051500004A905480594FEF7ADFE002801D0FCF730
:10516000A3FC06B010BD0000F01F0020FFFF0000F0
:1051700010B50C480A4901604B21C901416000216A
:105180008160C16001618161C1610C220162426183
:105190004162FFF79BF8002801D0FCF785FC10BDA9
:1051A00000440040BC1E0020F0B501256D0293B004
:1051B0000C460646012902D0002C02D006E0294602
:1051C00001E0FF2101313548FEF772FB282105A8D7
:1051D000FBF700F8002269463048FEF7E7FB0022A3
:1051E00011A92E48FEF7C0FBE12109013046FAF76C
:1051F0007FFFC6B208463C21FAF77AFFC7B268467D
:10520000807840180A21FAF773FF00010818C0B22D
:105210005928694604D96038887548787F1C01E0B0
:10522000887548780A21C019FAF762FF000108184A
:10523000C0B25928694604D9603848750878761C88
:1052400001E0487508780A218019FAF751FF00013A
:105250000818C0B22328694600D9243808750020F0
:1052600001210690C907089009900B900C900A91B3
:10527000012008A90875002C0BD00E95012205A964
:105280000648FEF737FC002801D0FCF70DFC13B0F0
:10529000F0BDFF2001300E90F0E70000CC1F002091
:1052A00010B5012104464905FEF7C4FE2046FEF76D
:1052B000AFFE10BDF0B50446F74887B0006801683E
:1052C000042291430160F5482278F5490091014696
:1052D000FF3181310591803104910521C9014118C7
:1052E00003910721C901411820250291690147183E
:1052F0000921C901411806910321C31D0902F9338F
:105300000646411880360193232A7DD253007B4400
:105310009B885B009F4422003A00520083009F005C
:10532000B2007800B9001701360151015C01780024
:1053300067018703B303C603D0038201AF010803EB
:1053400022033C0357036C03D303FE031804340405
:105350003E04510478007800EA0046048169002088
:105360008847062808D01F25FDF7FAF90146CDA089
:1053700001F00AFBCDA0CCE201202070FDF7F0F98E
:105380000146C8A001F000FBCFA0F6E3016C0020AD
:105390008847062808D01F25FDF7E2F90146C1A07D
:1053A00001F0F2FACEA0E8E302202070FDF7D8F970
:1053B0000146BCA001F0E8FAD1A0DEE3C26D016FA6
:1053C00010468847062808D01F25FDF7C9F9014671
:1053D000B4A001F0D9FAD4A0CFE303202070FDF7E8
:1053E000BFF90146AFA001F0CFFAD749D7A001F02D
:1053F000CBFAAB48DCA10F38FAF703FF002803D043
:10540000A7480F210F3800E0B9E3FAF7E3FECE49D1
:10541000A3480C22C91C0F38FAF7C3FEE0E3B169B8
:1054200070688847062808D01F25FDF799F90146BE
:105430009CA001F0A9FACEA09FE304202070FDF704
:105440008FF9014697A001F09FFABF49D0A0143907
:1054500001F09AFAC4E3316CD4A0884706280BD037
:10546000F16B1F25D4A08847FDF77AF901468DA07E
:1054700001F08AFAD3A080E3052089E3B16E706D54
:105480008847062830D1072082E301990198896B6B
:10549000406A8847FDF764F9014682A001F074FA7A
:1054A000CE4ECFA0718801F06FFAD348007F062856
:1054B00002D0122812D017E021202070012434716C
:1054C000764E361F3078002803D1CC4803F0B0F870
:1054D0003470FF20F53003F0ABF881E3202020701A
:1054E0001F25002030717BE31F2579E3C44EB07E79
:1054F000012806D0022806D0032806D0042806D0AA
:1055000007E0082004E00E2002E0122000E019204D
:105510002070308A002180B2FFF746FEFDF720F9A7
:10552000014660A001F030FA318B481C3083B5A0F1
:1055300001F02AFABB4805F091F801214902BA4866
:10554000FAF748FE4CE388A10098FAF75AFE0028C3
:1055500006D1534884A11930FAF753FE002809D028
:1055600020202070FDF7FCF801464EA001F00CFA57
:10557000AEA002E30198816D002088470628B3D1D0
:10558000092076E0059801680020884708280AD09D
:105590000D201F252070FDF7E3F8014641A001F022
:1055A000F3F9ACA0E9E20A202070FDF7D9F8014632
:1055B0003CA001F0E9F9B0A0DFE20598816A002083
:1055C0008847062802D01F250D20E1E20B20DFE2EC
:1055D0000598016D002088470C2802D01F250D205A
:1055E000DFE10D20E6E10498016A002088471028D9
:1055F0000AD022201F252070FDF7B2F8014629A00D
:1056000001F0C2F9A6A0B8E222202070FDF7A8F8A8
:10561000014624A001F0B8F9A9A0AEE252A1009879
:10562000FAF7EFFD002813D11D484FA19930FAF782
:10563000E8FD00280CD14CA1AA48FAF7E2FD0028A9
:1056400006D1A84848A14130FAF7DBFD002809D06F
:1056500020202070FDF784F8014612A001F094F993
:10566000A1A08AE20398C16E00208847062886D14F
:105670001320207038E7096900208847082809D0DE
:1056800018201F252070FDF76BF8014605A001F0DA
:105690007BF93DE13EE10000BC1E0020240000201B
:1056A0007F2300205B25645D000000004E42494FCF
:1056B0005420646964206E6F7420726573706F6E1D
:1056C000642E0D0A000000004E42494F54206861CC
:1056D0007320726573706F6E6465642E0D0A00002E
:1056E0004563686F206D6F6465207475726E6564C4
:1056F000206F6666206661696C65642E0D0A000085
:105700004563686F206D6F6465207475726E6564A3
:10571000206F6666207375636365737366756C6C62
:10572000792E0D0A000000004661696C65642074E2
:105730006F207265616420494D4549206E756D6228
:1057400065722E0D0A0000001809002054686520BB
:10575000494D4549206E756D6265722069733A2521
:10576000732E0D0A000000004E554C4C0000000046
:105770004661696C656420746F20726561642049BC
:105780004D5349206E756D6265722E0D0A00000042
:1057900054686520494D5349206E756D62657220CD
:1057A00069733A25732E0D0A0000000041542B4303
:1057B00046554E3F0A00000041542B4346554E3D8E
:1057C000310A00004F70656E696E6720616C6C2055
:1057D00066656174757265732E0D0A00FC04002005
:1057E0005369676E616C20537472656E6774683AB2
:1057F00025640D0A0000000044010020B80B0000E1
:105800002C2200202A2A2A2A2A55706C6F616420D3
:1058100073746172743A25642A2A2A2A2A0D0A0DA1
:105820000A0000004C22002004070020434F415092
:1058300020706172616D6574657220636F6E666958
:105840006775726174696F6E206572726F720D0A8E
:10585000000000004661696C656420746F2043722B
:1058600065617465206120436F415020636F6E74E1
:105870006578740D0A0000004372656174652061EB
:1058800020436F415020636F6E7465787420737588
:10589000636365737366756C6C790D0A00000000B4
:1058A0004661696C656420746F2064656C6574651D
:1058B00020436F415020636F6E746578740D0A0049
:1058C0005375636365737366756C6C792064656C7E
:1058D0006574656420436F415020636F6E74657812
:1058E000740D0A00932400204D51545420706172AD
:1058F000616D6574657220636F6E6669677572614C
:1059000074696F6E206572726F720D0A000000007C
:10591000B9A032E114202070FCF722FF0146C148F3
:1059200001F032F8C0A028E1C86A896B88470A28CC
:105930000AD018201F252070FCF712FF0146B94835
:1059400001F022F8C4A018E115202070FCF708FF30
:105950000146B44801F018F8C7A00EE1096E002016
:1059600088470C280AD018201F252070FCF7F8FE65
:105970000146AC4801F008F8C9A0FEE016202070EE
:10598000FCF7EEFE0146A74800F0FEFFCCA0F4E0D5
:105990000298816800208847014617200C2909D009
:1059A0001F252070FCF7DCFE01469E4800F0ECFF4E
:1059B000CCA0E2E02070FCF7D3FE0146994800F04D
:1059C000E3FFCEA0D9E0D448808BFCF721FD0298FC
:1059D000016B002088470F2808D0FCF7C1FE014664
:1059E000904800F0D1FFCDA000F0CEFF1820CFE00E
:1059F0000298816D00208847102809D1222020704C
:105A0000FCF7AEFE0146874800F0BEFFCCA0B4E034
:105A100022201F252070FCF7A3FE0146814800F0DC
:105A2000B3FFCFA0A9E07F490098C431FAF7E9FBA2
:105A3000002809D020202070FCF792FE014679480A
:105A400000F0A2FFCDA098E00498816C0020884768
:105A500008280AD011201F252070FCF781FE01467E
:105A6000704800F091FFCEA087E00F202070FCF777
:105A700077FE01466B4800F087FFD0A07DE00498D8
:105A8000016F002088470C2802D01F25112062E0FA
:105A900010202070FCF764FE0146624800F074FF9D
:105AA000CEA06AE09C48808BFCF7B2FC0398816929
:105AB0000020884711206BE00398016C6CE0594985
:105AC0000098C431FAF79DFB002809D020202070EF
:105AD000FCF746FE0146534800F056FFC6A04CE0D6
