:020000040800F2
:10000000B00A0020D50000086151000835440008FE
:1000100000000000000000000000000000000000E0
:1000200000000000000000000000000081520008F5
:100030000000000000000000FD510008835200088D
:10004000E7000008E700000871520008E700000818
:10005000E7000008E7000008E7000008D7150008DF
:10006000E7000008E70000086D0F0008E70000083F
:10007000E7000008E7000008E7000008E7000008C4
:10008000E7000008E7000008E700000800000000A3
:10009000E7000008E7000008E7000008E7000008A4
:1000A000E7000008E7000008E7000008E700000894
:1000B000E15B00080152000800000000E7000008B2
:1000C0000348854600F044FD00480047F5730008EA
:1000D000B00A00200448804704480047FEE7FEE7D6
:1000E000FEE7FEE7FEE7FEE725530008C100000833
:1000F00030B50B46014600202022012409E00D46C0
:10010000D5409D4205D31D469540491B2546954047
:1001100040191546521E002DF1DC30BD70B500248B
:100120002546002801DA01244042002901DA012590
:100130004942FFF7DDFFAC4200D04042002C00D026
:10014000494270BDF0B51FB40646002082B0054696
:100150004024019100901BE0019922460F46304651
:1001600000F0C5FB049A059B801A994110D31046F4
:100170001946224600F0ABFB361A8F410197224602
:1001800001200021009F00F0A2FB38184D41009093
:100190002046641E0028DFDC019B00982946324679
:1001A00007B0F0BD03460B439B0703D009E008C925
:1001B000121F08C0042AFAD203E00B780370401C17
:1001C000491C521EF9D27047D2B201E00270401CA5
:1001D000491EFBD270470022F6E710B513460A46C7
:1001E00004461946FFF7F0FF204610BD421E537823
:1001F000521C002BFBD10B781370491C521C002B96
:10020000F9D1704730B505462A460B4610781C7860
:10021000521C5B1C002801D0A042F7D0002C03D058
:10022000002802D06D1CEFE7284630BD10B504460B
:1002300005E00B780370401C002B00D0491C521EB7
:10024000F7D2204610BDCAB2401E4178401C8A42F7
:1002500002D00029F9D100207047421C0178401CCF
:100260000029FBD1801A704710B5002200E0521C13
:10027000835C8C5CA34201D1002BF8D1D8B2E1B2EF
:10028000401A10BD0321001D401E037812021A43BC
:10029000491EF9D51046704770B5064605F034FD85
:1002A000046805460A220021304600F045FB2C6018
:1002B00070BDF8B502464A40D40F42004B005208C8
:1002C0005B089A4202D20246084611464A0023D0F1
:1002D000C30D4A00DDB2120EAD1A202D35DA4902E7
:1002E0000126490AF6058A19002C00D05242202125
:1002F0004F1B1146B9402A411018C20D9A4221D015
:10030000002C17D0012D08DCDA05801AD20F8019D5
:10031000D207DBB200F050FBF8BDDA05801A0123EA
:1003200040001B06C01880185A428018CA0F10439C
:10033000490007E04908C2071143DA05801A80190D
:100340004008801800F030FBF8BD61000122511A0E
:10035000001BF7E70122D2075140AAE70122D2078A
:100360005040A6E7024670B54A40D30FDB07400075
:100370002DD04A002AD0010E140E000212020919D3
:10038000400A520A8418E50104465443000A120A3E
:100390002E045043A4194219200CC543AA18120C6C
:1003A0000125AD03521C521912047F39240400D0D8
:1003B000521C104301D44000491EC2B20C06C009B1
:1003C0002018401C4008802A02D003E0002070BDA5
:1003D00040084000002900DA0020184370BD70B5C5
:1003E00002464A40D50F40004A00ED074008520837
:1003F000002814D0002A12D0C40DD30D41020120D0
:10040000C0055202490A520AE41A091812187D342A
:10041000914201D3641C00E04900002C01DA002065
:1004200070BD0023914201D3891A0343400849005B
:100430000028F7D100290AD0914202D10121C90731
:1004400005E0914201D2012101E00121C943E0050B
:10045000C018401900F0A8FA70BD0000F0B50746BA
:100460000846584087B0C00F049048000E46590017
:1004700040084908BC1A884105D2384631461E4614
:1004800017460B4602465800400810434CD0300D2A
:10049000039040055900400D490D0590401A029007
:1004A000402872DA18030121000B09050843019066
:1004B00004980092002805D00199524200208841FA
:1004C00000920190029840210A1A0199009800F0C8
:1004D000FEF905460C466B4607CB00F019FAC01929
:1004E0007141039A0E0D0023D71756401A467A40E1
:1004F000164344D0049A002A2DD0029A012A039A66
:1005000015DC1205C01A914101263605001C714107
:10051000D20F059ED2070093019202962A462346E7
:1005200000F090FA07B0F0BD38463146FAE71605FC
:10053000224A0F46B218C01AB74101210905001C12
:100540004F4100187F41114618187941E20F1043BE
:100550006D19644113E0E2076D0815436408C20792
:100560001443039A01261205C01A91413605001C56
:100570007141CE07400830434908C01851412A460E
:10058000234600F052FACDE7FFE70498012240002D
:10059000C117121A00238B4104983146C417381A28
:1005A000A141EEE730B40124E407634030BC55E7D5
:1005B00030B40124E407614030BC4FE70000E0FFA5
:1005C000F0B51FB488B00B990998002448400999E8
:1005D000C00F490049080991C0070B9900904900D4
:1005E00049080B9109990898A64608431CD00B9915
:1005F0000A98084318D0099801244000420D480089
:10060000410D099824050003000B204309900B9825
:100610000003000B20430B9050181C494018002287
:1006200001901446104605E0002001460DB0F0BDD3
:10063000032801DA034600E003239C46C11A0AAEF0
:100640000AE05F0008ADED5B4F00F75B7D430027DC
:10065000AA187C41491C5B1E6145F2DD410004ABD8
:100660005A522104120C0A43240C401C0828DFDBD8
:10067000019802900099704601910090059B049AA0
:100680000799069800F0DEF9D0E700000DFCFFFFA7
:10069000F0B50C465C4085B0E40FE40703944C00D1
:1006A00000266408590094464908024602962243EF
:1006B00021D062460A431ED06200570D4A000E0345
:1006C0002303550D012402462C492405781B1B0BDE
:1006D000360B401823432643614600901C46501AAF
:1006E000B44103D30098401C009002E09218009897
:1006F0005B41002803DA0020014605B0F0BD002070
:10070000012109050746864611E064461D46141B73
:10071000B54106D36546521BB341744607430C43AB
:10072000A646CD0740084908284392185B41054674
:100730000D43EAD11046184313D060461946504085
:100740007140084306D06046101AB34106D2012218
:10075000002306E000220123DB0702E00122D2434E
:100760005310009874460105381C6141029C039D9A
:100770000019694100F059F9BFE70000FD030000CE
:1007800070B54B005B0803430BD04B005C0D00269B
:1007900033466542B341D417AD1AA34102DB0020B2
:1007A000014670BD12053018514170BDC217C10F0E
:1007B000504010B54018CA079623002100F0FCF8FD
:1007C00010BD10B500229623114600F0F5F810BDBB
:1007D0000EB5C217C10F5040CA0740180021054B83
:1007E0000293019200910A460B4600F02BF903B0E8
:1007F00000BD0000330400000EB505490291002140
:1008000000910A460B46019100F01CF903B000BDAF
:1008100033040000C20F410040020123400ADB05FF
:10082000D207090EC0187F2901DA002070479629E7
:1008300003DC9623591AC84001E096398840002A03
:10084000F4D040427047410040020122400AD205E4
:10085000090E80187F2901DA00207047962903DCF1
:100860009622511AC8407047963988407047C20F87
:10087000D207400040080BD0C10D0723DB01C91887
:1008800040020905400A1143C2084007114370475E
:10089000002001467047CB0FDB07490010B549081F
:1008A00002460A4307D00A0D07240903E401090B95
:1008B000121B002A01DC002010BDC900440F0C43AC
:1008C000C100E018D205801800F06EF810BD10B518
:1008D000202A04DB0146203A9140002010BD9140BF
:1008E00020239C1A0346E3401943904010BD10B5E5
:1008F000202A04DB0846203AD040002110BD0B46D8
:10090000D340D0402024A21A91400843194610BD7C
:1009100010B5202A06DBCB170846203A1041C11734
:100920000B4306E00B461341D0402024A21A91400D
:100930000843194610BD0000F7B5009C0F4600267D
:100940002578641C002D05D000F014F90068405D86
:10095000C007F5D12B2D02D02D2D18D0641E39469D
:100960002046029A00F00AF9002F04D03968A1420B
:1009700001D1009939607105022400290BDA404247
:10098000002803DD05F0C0F90460A007FEBD0120CA
:1009900080020643E3E70028F8DA05F0B5F90460C1
:1009A0000048FEBDFFFFFF7F002904DA401C49001C
:1009B00001D140084000704770B40024050C05D1F7
:1009C0001024000402D1002921D01124050E01D1E8
:1009D00000020834050F01D10001241D850F01D14B
:1009E0008000A41C002801DB4000641C002908D002
:1009F00020252E1B0D46F540A14000D001212943A2
:100A0000084301061B1B000ADB1D02D5002070BC39
:100A10007047DB05181880180029F8DA401C4900D7
:100A2000F5D170BC40084000704710B5002B08DAC3
:100A30000024401C614192185B411A4301D14008D7
:100A4000400010BDF0B51FB482B005460C0003D0C5
:100A5000084605F035F902E005F032F9203002468B
:100A6000009021462846FFF732FF049B059A044672
:100A70000F4618431143084314D0184610431BD0A7
:100A8000009840210A1A18460599FFF730FF0546DD
:100A90000E46009A05990498FFF719FF084305D000
:100AA000012004E02046394607B0F0BD0020C11700
:100AB00005430E432C43374300990E986305401AB3
:100AC0007905E40A00220C43FD0A0A3002D5002011
:100AD0000146E9E70105101969410C9C0D9D0019BB
:100AE0006941FFF7A2FFDFE74A0009030123090B71
:100AF0001B0519430A4B10B5520D9A4202DA002029
:100B0000014610BD064B34339A4203DC9A1AFFF7B4
:100B1000EEFE10BD034BD218FFF7D9FE10BD00004A
:100B2000FF030000CDFBFFFF10B5002904DB01240B
:100B3000E40740428C412146002B04DB1C46012384
:100B4000DB075242A341994200D1904210BD000000
:100B5000064C0125064E05E0E36807CC2B430C3C10
:100B600098471034B442F7D3FFF7AEFA68960008FE
:100B700088960008004870473C920008F7B582B09C
:100B8000029C00272078641C15460197302802D06B
:100B9000002D15D015E020780127641C782804D09A
:100BA000582802D0002D09D00BE0002D01D0102DC7
:100BB00007D1002710252078641C02E0082500E0FA
:100BC0000A250026009610E00099012769430818BD
:100BD000020C294680B2714300908E183804864278
:100BE00001D3012001902078641C294600F019F8F7
:100BF0000028E9DA0398002805D0002F01D0641EF0
:100C000000E0029C04600198002806D005F07CF802
:100C100002210160C81E05B0F0BD009930040843F0
:100C2000F9E73A2800D23038202302469A43412A75
:100C300001D310463738884201D30020C0437047A3
:100C400030B587B0054603F049FB01463C48808932
:100C50004843C117090D08180013FFF7A7FD044604
:100C6000642001F0D1F9012D21D0364885423DD1D3
:100C7000002201A9344802F04BFC002269463248A8
:100C800002F024FC684683784278C1782FA004F0F3
:100C9000F3FF684683794279017931A004F0ECFFD3
:100CA0002046FFF7E4FD02460B4632A03FE000225B
:100CB0006946254802F02CFC002205A9224802F0D2
:100CC00005FC6846837D427DC17D20A004F0D4FFF1
:100CD000684683784278017821A004F0CDFF204651
:100CE000FFF7C5FD02460B4627A020E02B488542B2
:100CF0001FD1002201A9144802F00AFC0022694613
:100D0000114802F0E3FB684683784278C1780FA06F
:100D100004F0B2FF684683794279017910A004F0AB
:100D2000ABFF2046FFF7A3FD02460B461CA004F0D4
:100D3000A3FF2046FFF787FD80B207B030BD00005B
:100D40005404002002000004580300205B252E32CA
:100D5000642D252E32642D252E32642000000000E3
:100D600020252E32643A252E32643A252E32645DD7
:100D7000000000006164635F6D562832293A252E19
:100D800032660D0A000000006164635F6D56283111
:100D9000293A252E32660D0A0000000010000010CE
:100DA0006164635F6D562833293A252E32660D0A39
:100DB0000000000038B50446064805490068FFF702
:100DC00097F9604300E0401E00900028FBD138BD39
:100DD00040420F0024000020F8B5044600688168F6
:100DE0008907890F012902D10168C90722D18168C9
:100DF000114A10261140012500290ED1816829438E
:100E000081600120FFF7D6FF01F090FA07460CE061
:100E100001F08CFAC01B0A2807D9606D3043606569
:100E2000A06D2843A0650120F8BD20680068C0437C
:100E3000C007EDD10020F8BD1700008070B588B064
:100E40000646002407F06AFB35A13046FFF70CFA8E
:100E500000281AD033A13046FFF706FA002816D032
:100E6000314D1820604329583046FFF7CBF9002850
:100E700011D02EA13046FFF7C5F9002811D0182057
:100E80004443601981683046884708B070BD3046D9
:100E900005F0D6FDF9E7641CE4B20B2CE1D9012082
:100EA000F3E723A13046FFF7ADF900280AD0182058
:100EB00044436019C168304688470028E5D106F0F0
:100EC0004FF82BE01BA13046FFF79CF900281FD0FC
:100ED000002203A9184802F01BFB002202A91648B1
:100EE00002F0F4FA6846837A427AC17A13A004F0D9
:100EF000C3FE6846837B427B017B15A004F0BCFEE9
:100F0000182044436019416916A004F0B5FE05E0BD
:100F10001820444360190169304688470020B4E72F
:100F20004154000041543F00709000083D3F0000D4
:100F30003D0000003F000000580300205B252E32DA
:100F4000642D252E32642D252E32642000000000F1
:100F500020252E32643A252E32643A252E32645DE5
:100F60000000000025730D0A0000000010B50348C2
:100F700000F07AFF024800F077FF10BD1003002058
:100F8000C802002030B5446C1C252C400125A5402A
:100F9000046C6560046863608368102B036803D089
:100FA00099600068C26030BD9A600068C16030BD61
:100FB00070B588B0054600F05DFA2946442000F07F
:100FC00065FA344E304601F01FF8284600F052FA18
:100FD0002946BE2000F05AFA284600F001FA0446DD
:100FE000284600F0FDF9052819D1502C17D12846C4
:100FF00000F040FA2946442000F048FA304601F05B
:1010000003F8284600F036FA2946BE2000F03EFAE2
:10101000284600F0E5F90446284600F0E1F9000210
:1010200000B2204308D5C043401CFFF7D1FB00228B
:10103000194BFFF7C5FA05E0FFF7CAFB0322D243BD
:10104000FFF79EFBFFF727FC0446002202A9134886
:1010500002F05EFA002201A9104802F037FA684651
:1010600083794279C1790EA004F006FE6846837A3E
:10107000427A017A0FA004F0FFFD2046FFF7F7FB4C
:1010800002460B46294610A004F0F6FD204608B0A3
:1010900070BD0000EE0200000000B0BF5803002049
:1010A0005B252E32642D252E32642D252E326420B0
:1010B0000000000020252E32643A252E32643A25A5
:1010C0002E32645D00000000445331384232302833
:1010D0002564292074656D7020697320252E326681
:1010E00020A1E3430D0A000030B500221949032373
:1010F00087B0012813D005240125240702281FD01A
:1011000003281BD1C86A2843C862C86A28400590D2
:101110000815009069460193029220460CE0CC6AC3
:1011200002200443CC62C96A019301400591082062
:10113000009002926946084801F02AF807B030BDD5
:10114000C86A2843C862C86AC007C00F059001205A
:101150004002DEE7001002400004005010B50023FA
:101160000122194986B0012812D00524240702283B
:101170001FD003281BD1C86A1043C862C86A104038
:1011800005900815009069460193029220460CE0F4
:10119000CC6A02200443CC62C96A019301400591E4
:1011A0000820009002926946084800F0F1FF06B05E
:1011B00010BDC86A1043C862C86AC007C00F059056
:1011C00001204002DEE70000001002400004005051
:1011D00010B501221849022386B0012812D0052437
:1011E000240702281ED003281AD1C86A1043C862F7
:1011F000C86A104005900815009069460393019253
:1012000020460BE0C86A1843C862C86A694618409D
:1012100005900820009003930192084800F0B8FF61
:1012200006B010BDC86A1043C862C86AC007C00FC4
:10123000059001204002DFE700100240000400504A
:1012400070B50024012806D005252D0702282AD0D4
:1012500003284ED074E00120FFF780FF394D04E0F1
:10126000641CE4B2012000F0ABF90821284601F02B
:1012700051F8002802D0642CF2D35FE0642C5DD2D8
:10128000002404E0641CE4B2012000F099F9082174
:10129000284601F03FF8002802D1F02CF2D34DE0AF
:1012A000F02C4BD24CE00220FFF758FF01267602CB
:1012B00004E0641CE4B2012000F082F931462846C3
:1012C00001F028F8002802D0642CF2D336E0642C18
:1012D00034D2002404E0641CE4B2012000F070F970
:1012E0003146284601F016F80028D9D1F02CF2D367
:1012F00024E00320FFF732FF0126B60204E0641C5D
:10130000E4B2012000F05CF93146284601F002F811
:10131000002802D0642CF2D310E0642C0ED20024FA
:1013200004E0641CE4B2012000F04AF9314628468A
:1013300000F0F0FF0028B3D1F02CF2D3012070BDF3
:10134000002070BD0004005070B5012806D00524AF
:101350002407022813D003282BD025E00120FFF713
:1013600037FF1E4C00220821204600F0D8FF0A203B
:1013700000F026F90120FFF7F1FE08210EE002201F
:10138000FFF726FF01256D0200222946204600F0C6
:10139000C6FF0A2000F014F9022018E0204600F0F1
:1013A000B9FF012817D000222D2000F009F91046BE
:1013B00070BD0320FFF70CFF0125AD020022294676
:1013C000204600F0ACFF0A2000F0FAF80320FFF7F7
:1013D000C5FE2946E2E70122E6E7000000040050CE
:1013E00070B5002506462C463046FFF7ADFFA040FD
:1013F0002843641CE4B2C5B2082CF5D3284670BD5E
:1014000070B51A4D012814D005242407022825D0D0
:10141000032822D1FFF7DCFE00220126B602314666
:10142000204600F07CFF284600F0CAF80122314631
:101430000DE00120FFF7CCFE0D4C002208212046D4
:1014400000F06DFF284600F0BBF80122082120467D
:1014500000F065FF0F2000F0B3F870BD0220FFF729
:10146000B7FE002201267602D9E70000EE02000056
:101470000004005010B50446FFF7C2FF2046FFF7F6
:10148000DFFE2146CC2000F001F810BDF8B504467F
:1014900001291FD005252D07022949D0032946D14E
:1014A0000320FFF795FE00260127BF02E007C00FCB
:1014B000640800286BD000223946284600F02FFF30
:1014C000082000F07DF801223946284600F027FF69
:1014D0003A206AE00120FFF77BFE384E0025E00746
:1014E000C00F640800280ED000220821304600F00A
:1014F00016FF082000F064F801220821304600F0B1
:101500000EFF3A200DE000220821304600F007FFD0
:10151000462000F055F801220821304600F0FFFE79
:10152000022000F04DF86D1CEDB2082DD7D3F8BDA8
:101530000220FFF74DFE002601277F02E007C00FC3
:10154000640800280ED000223946284600F0E7FE45
:10155000082000F035F801223946284600F0DFFE69
:101560003A200DE000223946284600F0D8FE4620F9
:1015700000F026F801223946284600F0D0FE02206D
:1015800000F01EF8761CF6B2082ED7D3F8BD002264
:101590003946284600F0C3FE462000F011F801222B
:1015A0003946284600F0BBFE022000F009F8761C00
:1015B000F6B2082E00D279E7F8BD00000004005012
:1015C00006E00021491CC9B20429FBD3401E80B2A9
:1015D0000028F6D1704710B50120800300F0CCFD43
:1015E00010BD000010B586B0044614216846FEF711
:1015F000F2FD1948C26A02210A43C262C06A174A50
:1016000008400590480300900020002C06D0012CD3
:101610000DD0022C0DD0032C0DD00FE00321019131
:1016200002906946104600F0B3FD06B010BD0C49AB
:1016300002E00C4900E00C49019102906946104615
:1016400000F0A6FD00220221072001F02DFA07205C
:1016500001F020FAE9E70000001002400004005009
:101660000000311000002110000011107047000030
:1016700010B5084900224A6107494B684C152343BD
:101680004B604B68082423434B60C009C0010260D3
:1016900010BD0000940600200020024010B5214A31
:1016A00000219069C305204804D5416902231943EC
:1016B0004161911593699B0505D543690124234335
:1016C00043616302194393695B0505D543690824A7
:1016D00023434361E301194393691B0505D543691E
:1016E0000424234343616302194393699B0405D592
:1016F00043691024234343616302194393699B03A5
:1017000004D5446920231C43446119439369DB03D6
:1017100005D54369402423434361A00201439161FD
:1017200010BD0000002002409406002070B5054660
:1017300000F0FCFD0646184C0AE0681C08D0002D9D
:1017400004D000F0F3FD801BA84201D9032070BD36
:10175000A069C007F1D1A069800701D50220A0616E
:10176000A069C00511D4A06980050ED4A069400508
:101770000BD4A069000508D4A069800405D4A06931
:10178000800302D4A069C00303D5FFF787FF0120BF
:1017900070BD002070BD00000020024070B50C46F6
:1017A000054600F0A7FC084A0020946021C20749C2
:1017B000054800F037FC002803D005A004F05CFACF
:1017C000FBE700F06BFC70BDEC0400200C00002077
:1017D0006572726F7220696E204572617365206F49
:1017E0007065726174696F6E0A0D0000F8B5164677
:1017F0000F460446002500F07DFC0DE0A8003A5895
:101800002146022000F058FC002803D005A004F077
:1018100033FAFBE7241D6D1CB542EFDB00F03EFC04
:10182000F8BD00006572726F7220696E2057726990
:101830007465206F7065726174696F6E0A0D0000C7
:101840000168024841604068704700000C000020B9
:1018500000B587B014216846FEF7BDFC0A48C26A8D
:1018600002210A43C262C06A0840059088020090C3
:10187000032001900020029005206946000700F037
:1018800087FC07B000BD00000010024000B587B023
:1018900014216846FEF79FFC0B48C26A02210A43E6
:1018A000C262C06A08400590880200900020019042
:1018B000012002900320039005206946000700F0F4
:1018C00067FC07B000BD00000010024000B587B003
:1018D00014216846FEF77FFC0948C16A01221143C2
:1018E000C162C06A69461040059010030090032051
:1018F000019000200290034800F04AFC07B000BDB0
:10190000001002400004005000B587B01421684662
:10191000FEF761FC0A48C26A01210A43C262C06A3A
:1019200001910840059008030090002002900320D8
:1019300003906946034800F02BFC07B000BD00008F
:10194000001002400004005010B502F033FD0149C0
:10195000486010BD1400002070B502F02BFD0C4C47
:1019600000252060616888420ED0401AFEF71EFFF5
:1019700008498969FEF733FDFEF74CFF0649A06070
:1019800040180649884200D3A560A06870BD0000D9
:1019900014000020540400208813000011270000C8
:1019A000F8B5054604464035287C0026012808D0B5
:1019B00001202874206881688907890F01290ED1C8
:1019C00001E00220F8BD0168C90708D0606D202140
:1019D000084360650126002028743046F8BD616D1B
:1019E000FF2201329143022211436165C1688907D8
:1019F000890F0091C16889088900C16020688168E9
:101A000092071143816000F091FC07460EE000F060
:101A10008DFCC01B0A2809D9606D02218843102162
:101A200008436065002028740120F8BD20688068A4
:101A30000028ECDB2068C168009A1143C160606D2A
:101A400080088000401C6065C5E70000F8B50646C8
:101A50000D464036317C01290DD0012131740168D9
:101A60008A68520709D5416D202211434165002043
:101A700030740120F8BD0220F8BD174B6A68D80504
:101A800047109A42154C8A6A2B6812D05B035B0B95
:101A90001A438A622968490305D5A1680143A160F8
:101AA0000A20FFF787F92868800312D5A068384319
:101AB0000EE05B035B0B9A438A622968490302D5F7
:101AC000A1688143A1602868800302D5A068B8435B
:101AD000A06000203074F8BD011000000027014014
:101AE0000068006C7047000070B5040006D0606D9F
:101AF000264600254036002802D006E0012070BDB1
:101B0000A5653574204600F0D3F8606DC00603D497
:101B100021688868400705D5606D1021084360651D
:101B20003574EBE7606DFF220132904302221043CF
:101B3000606588688207920F5B48012A02D10A68B3
:101B4000D2072BD1032362689B079A4205D05B42E0
:101B50009A4202D05B009A4209D10A699200920827
:101B60000A6121680A6963681A430A610CE00A691C
:101B7000920092080A6181680F2292049143816069
:101B800081686268114381602168CA6818239A439A
:101B9000CA602168CA68A3681A43CA6081680122C2
:101BA0005206914381608168A28E52061143816082
:101BB00020688168C90004D481680122120711439A
:101BC00081602068C168394A1140C1602069E168BC
:101BD000022825D000200143204620300278037BD4
:101BE00052035B001A431143226B1143A269920313
:101BF0001143E269D20311432268D3681943D160CB
:101C0000616A0A46FF3AC23A05D0A26A11432268C5
:101C1000D3681943D16042780121012A02D00BE038
:101C20000420D8E70078002823D0606D20221043DC
:101C30006065A06D0843A065E06B012820681FD097
:101C40000169C90703D00169490849000161206899
:101C50004169C908C900416120684169A26B11430B
:101C60004161A565606D80088000401C60650020B2
:101C700070BD2068C26801231B041A43C260DBE701
:101C80000269FF239B009A43026120680269236C6A
:101C9000A66C1A43636C33431A43026120680269DD
:101CA0000A430261D3E70000002701401902FEFF4A
:101CB00010B586B0044614216846FEF78CFA0E492A
:101CC0002068884215D10D48416B4215114341638C
:101CD000C26A01210A43C262C06A009108400590AD
:101CE000032001900020029005206946000700F0C3
:101CF0004FFA06B010BD0000002401400010024061
:101D0000F8B504464069254640350E4608280BD0F4
:101D10002068C068C00709D0606D20210843606555
:101D2000002028740120F8BD082700E00C2700F0EF
:101D3000FDFA009011E0701C0FD0002E05D000F0CD
:101D4000F5FA0099401AB04207D9606D04210843A2
:101D50006065002028740320F8BD206800683842C0
:101D6000E9D0606D01214902084360652068C168BF
:101D700009058A0F0C21002A1BD12022125D002A9E
:101D800017D10268120714D5826853070122002B6D
:101D900008DB43688B434360606D13029843104334
:101DA000606506E0606D202318436065A06D1043F8
:101DB000A065A069002801D1206801600020F8BD5D
:101DC00070B50446216800208968490721D425465A
:101DD0004035297C01291CD001212974E1690129A0
:101DE00004D02046FEF7F8FF002811D1616D0A4AA1
:101DF0001140FF220132114361650021A165297460
:101E000022681C21116021688A6804231A438A60B1
:101E100070BD022070BD0000FEF1FFFF70B5002410
:101E2000014620314A79022A03D00421C1630124EA
:101E300018E0026813680E25AB431360026813684C
:101E40005B085B001360436C1C22134001221546A3
:101E50009D40036C5D604A7100220A71816B00290C
:101E600000D08847204670BDF0B4016C0D68016851
:101E70000C68466C1C2304221E401746B7402F42B4
:101E80000ED067070CD50C68A40602D40C689443E6
:101E90000C60416C19408A40016C4A60016B1AE089
:101EA0000227B74002462F402032002F17D0A70745
:101EB00015D50C68A40605D40C680A25AC430C6043
:101EC00001215171446C02211C40036CA1405960F6
:101ED00000211171C16A002918D0F0BC08470827F9
:101EE000B7402F4212D0240710D50C680E25AC4302
:101EF0000C60446C01211C400B46A340046C6360E1
:101F0000C163517100211171416BE4E7F0BC70476E
:101F100070B504003CD01F48256814212818FEF72E
:101F2000E7F8800060641C482064022120462030CD
:101F30000246417129681948E3680140A068666952
:101F40001843236933431843A3691843E3691843CB
:101F5000236A1843084328600121A0688903884246
:101F600010D00D488030836A656C1C210D400F260F
:101F7000AE40B3438362656C63680D40816AAB40D9
:101F80000B4383620020E06301215171107170BD29
:101F9000012070BDF8FFFDBF000002400F80FFFF71
:101FA000F8B504468C46203001790025012909D076
:101FB0000126067141790027012905D00771022504
:101FC0002846F8BD0220F8BD02214171E763206870
:101FD000016849084900016061462046FEF7D2FFCA
:101FE000206B00282068016801D00E2205E0042241
:101FF00091430160206801680A2211430160206852
:10200000016831430160DBE770B5044600F08EF9EA
:102010000546601C00D0641C00F088F9401BA042FB
:10202000FAD370BDF8B51A4E0546307C0F4601282C
:1020300007D0012030741748FFF778FB010002D069
:1020400021E00220F8BD0020C04338606C6814E035
:102050002046FFF70DFB0F48FFF768FB01460E48CF
:10206000426808239A434260426843159A4342609B
:10207000002901D03C6006E08034A8686A68C0018D
:102080008018A042E4D8002030740846F8BD000053
:102090009406002050C3000000200240054841681B
:1020A0000222114341604168012211434160002036
:1020B0007047000000200240F8B50C4C1646207C0A
:1020C0000F46012808D0012020740948FFF72EFB95
:1020D0000025002802D006E00220F8BD65613E60C0
:1020E0000348FFF723FB2574F8BD00009406002089
:1020F00050C3000011484168C9070BD0EFF31081AD
:1021000072B60F4AC2600F4AC26081F310884168FC
:10211000C9070ED1416889070DD5EFF3108172B65A
:10212000094A0261094A026181F310884068800708
:1021300001D50120704700207047000000200240B8
:10214000EFCDAB8905040302BFAE9D8C16151413A9
:10215000012110B58903884208D105490888401C2F
:10216000088004490020887302F0D8FA10BD0000EE
:10217000540400203804002010B504494A69024282
:1021800002D04861FFF7E4FF10BD000000040140E9
:10219000F8B500230124A7E027469F403A4070D0BD
:1021A0004D68022D01D0122D14D1DD08AD002D187F
:1021B00000952D6A5E07AC46F50E0F26AE46AE4082
:1021C0006546B543AC460E697546AE4065462E433E
:1021D000009D2E624D68012D05D0022D03D0112DDA
:1021E00001D0122D16D185680326AC465D00AE469F
:1021F000AE406546B543AC46CE687546AE406546D2
:102200002E43866046680D79BE43ED06ED0F9D4076
:102210003543456006685F000325BD40AE46AE43CA
:102220000D79B446AE07B60FBE4065462E43066034
:10223000C6687546AE438D68BD403543C5604D6880
:10224000ED0050D52B4D6E6B26436E639E082A4DD4
:10225000B6007519AC46AD689E07360F0F27B7401C
:10226000BD4305273F07B84201D100271AE0234F9D
:10227000B84201D1012715E0214FB84202D102270F
:1022800010E030E01F4FB84201D103270AE01E4F93
:10229000B84201D1042705E01C4FB84201D10527FF
:1022A00000E00627B7402F436546AF60184D2E6803
:1022B0004F689643FF0300D516432E606E684F6843
:1022C0009643BF0300D516436E60AE684F689643D1
:1022D000FF0200D51643AE60EE684F689643BF021A
:1022E00000D51643EE605B1C0A681546DD4000D041
:1022F00052E7F8BD00100240000001400004005009
:1023000000080050000C005000100050001C00504D
:10231000000401400069084000D001207047002AF5
:1023200001D08161704781627047000001480068F8
:10233000704700002000002070B5024640325378FC
:10234000202B1CD11378012B19D0012313702424C6
:102350005470046825689D432560046825681E0341
:10236000B5432560046825680D4325600068016851
:1023700019430160202050700020107070BD0220B1
:1023800070BD70B5024640325378202B1BD11378B4
:10239000012B18D0012414702423537003681D6886
:1023A000A5431D6005682B680F263602B34309025A
:1023B00019432960006801682143016020205070A2
:1023C0000020107070BD022070BD406C704700008E
:1023D00070B5040006D025464035687800260028F0
:1023E00002D005E0012070BD2E70204600F0AAFA50
:1023F00024206870206801684908490001600F21A5
:102400006068090688432168086121688A6801209C
:10241000C00382438A60E1680129A16808D02122B3
:102420009202114322689160E168022902D005E01E
:102430000143F7E701212268C902516021684A6817
:102440000F4B1A434A602168CA688243CA606169B7
:1024500020690843A169090208432168C860216A0C
:10246000E06908432168086020680168012211437F
:1024700001606664202068702663AE70002070BD25
:1024800000800002FFB5054604464035687881B0FB
:10249000202878D12878012875D001202870FFF7EE
:1024A00045FF0746012200901923D103204602F080
:1024B0007FF800283CD1222068701020A8700026E8
:1024C000666403986062049860856663618D2F4836
:1024D000FF2903D9FF22228500903BE0618D2185F1
:1024E00000903DE02046029902F04EF816E002F01E
:1024F00087F800281CD12068406A616A0870606A09
:10250000401C6062208D401E81B22185608D401E7E
:102510006085608D002801D000290CD0608D0A995B
:1025200000283A462046E2D102F0AAF800281CD042
:10253000012005B0F0BD00970022802120460A9BB3
:1025400002F036F80028F3D1608DFF2805D9FF226C
:102550002285009601231B06C4E7608D2085009626
:10256000208D0123C2B25B06BCE721682020C86130
:1025700021684A68064B1A404A606870AE702E7037
:102580000020D6E7FFE70220D3E700000024008008
:1025900000E800FEFFB5054604464035687881B086
:1025A000202878D12878012875D001202870FFF7DD
:1025B000BDFE0746012200901923D103204601F0F9
:1025C000F7FF00283CD1212068701020A870002659
:1025D000666403986062049860856663618D2F4825
:1025E000FF2903D9FF22228500903BE0618D2185E0
:1025F00000903DE02046029901F0C6FF16E002F08F
:1026000065F800281CD1606A216800788862606AD9
:10261000401C6062608D401E6085208D401E80B22F
:102620002085618D002901D000280CD0608D0A9989
:1026300000283A462046E2D102F022F800281CD0B9
:10264000012005B0F0BD00970022802120460A9BA2
:1026500001F0AEFF0028F3D1608DFF2805D9FF22DD
:102660002285009601231B06C4E7608D2085009615
:10267000208D0123C2B25B06BCE721682020C8611F
:1026800021684A68064B1A404A606870AE702E7026
:102690000020D6E7FFE70220D3E7000000200080FB
:1026A00000E800FEFFB5054604464035687883B073
:1026B000202875D10C98002814D00D98002811D02E
:1026C000287801286CD001202870FFF72FFE0746DC
:1026D000012200901923D103204601F069FF002850
:1026E00074D103E00120400260646FE02220687032
:1026F0004020A870002666640C9860620D98608582
:1027000066630E980090019704A90EC9204601F057
:10271000DBFE002801D02E7058E0618D3448FF297F
:1027200005D9FF22228501231B06009006E0618D5A
:1027300021850090208D0123C2B25B0620460499BA
:1027400001F022FF00970022042120460E9B01F099
:102750002FFF00283AD12068406A616A0870606AD9
:10276000401C6062208D401E81B22185608D401E1C
:102770006085608D00281FD000291DD100970022A0
:10278000802120460E9B01F013FF00281ED1608D92
:10279000FF2806D9FF22228501231B06009607E0A9
:1027A00024E0608D20850096208D0123C2B25B0657
:1027B0002046049901F0E8FE608D0028C2D13A4617
:1027C00020460E9901F05CFF002802D0012007B0DE
:1027D000F0BD20682021C16120684268054B1A4085
:1027E00042606970AE702E700020F0E70220EEE7C4
:1027F0000024008000E800FEFFB505460446403591
:10280000687883B0202872D10C98002814D00D98D5
:10281000002811D02878012869D001202870FFF7FE
:1028200085FD0746012200901923D103204601F0BF
:10283000BFFE002871D103E00120400260646CE01B
:10284000212068704020A870002666640C986062A1
:102850000D98608566630E980090019704A90EC9D3
:10286000204601F061FE002801D02E7055E0608DF9
:10287000FF2805D9FF22228501231B06009606E0CA
:10288000608D20850096208D0123C2B25B06204614
:10289000049901F079FE3A4620460E9901F016FFA0
:1028A00000283AD1606A216800788862606A401C1A
:1028B0006062608D401E6085208D401E80B2208544
:1028C000618D00291FD000281DD100970022802192
:1028D00020460E9B01F06CFE00281ED1608DFF2863
:1028E00006D9FF22228501231B06009607E024E07B
:1028F000608D20850096208D0123C2B25B062046A4
:10290000049901F041FE608D0028C4D13A4620466A
:102910000E9901F0B5FE002802D0012007B0F0BDED
:1029200020682021C16120684268054B1A4042603E
:102930006970AE702E700020F0E70220EEE7000014
:1029400000E800FE10B586B0044614216846FDF785
:1029500042FC10492068884219D10F4CE16A0220DC
:102960000143E162E16A01400591C020009012201C
:1029700001210190032002910491039069460748C8
:10298000FFF706FCA06B012149050843A06306B0D0
:1029900010BD000000540040001002400004005030
:1029A00070B504000FD021681348086021681348EF
:1029B000086003CC41602068083C21688860FFF70C
:1029C000B5FC054608E0012070BDFFF7AFFC401BD9
:1029D000302801D9032070BD2068C0680028F4D1D8
:1029E00020680269E1688A4201D0016101E004497E
:1029F0000160002070BD0000CCCC000055550000E7
:102A0000AAAA000000680249016000207047000087
:102A1000AAAA000002480168491C01607047000032
:102A20002000002010B5084800240168402211430E
:102A30000160204600F00AF8002801D0012401E0DE
:102A400000F01CF8204610BD0020024070B505467D
:102A500009487D210024C9000068FDF749FB00F00A
:102A6000BBFF002801D0012404E000222946501EAB
:102A700000F01AF8204670BD240000200448416B85
:102A8000012211434163816B02041143816370474A
:102A900000100240C106C90E0120884001490860AB
:102AA0007047000000E100E010B502F05BFB10BDD4
:102AB0000248016802151143016070470070004030
:102AC00002480168421511430160704700700040E0
:102AD0000248016882151143016070470070004090
:102AE0000A4B1A689208920002431A600848036968
:102AF000042213430361012906D040BF20BF20BF39
:102B0000016991430161704730BFF9E700700040EF
:102B100000ED00E0F8B5044600785E4D800672D501
:102B20005C4E0027403EB06BC00004D4B06BA905DA
:102B30000843B063012758480168C90511D40168EA
:102B4000821511430160FFF7F1FB009005E0FFF7EC
:102B5000EDFB0099401A642837D84F480068C0053B
:102B6000F5D532680321090560680A4001409142A9
:102B700008D08103890F032904D13168890301D565
:102B80000120F8BD2A69032109040A4022D0084027
:102B900090421FD0207880061CD528692A69884376
:102BA0000121C9040A432A612A698A432A612861EA
:102BB000C0050FD5FFF7BAFB009008E0FFF7B6FBA2
:102BC0000099411A3548814201D90320F8BD28698E
:102BD0008005F3D561688803800F032805D132682A
:102BE0000005824301400A4332602869032261687C
:102BF0001204114008432861002F04D0B06B01215A
:102C000009078843B0632078C00705D0E868A16849
:102C1000800880000843E8602078800705D5E868D0
:102C20000C218843E1680843E8602078400706D516
:102C3000E86803218902884321690843E860207815
:102C4000000706D5E8680321090388436169084342
:102C5000E8602088C00506D5E86803210904884398
:102C6000A1690843E8602078400606D5E86801219C
:102C700089068843216A0843E8602078000606D563
:102C8000E868032189048843E1690843E86000207B
:102C9000F8BD0000401002400070004088130000A2
:102CA000F8B50E4605007DD053480068C007C00F38
:102CB000B0420AD2504801684908490031430160D6
:102CC0000068C007C00FB04271D128784B4C800714
:102CD00005D5E068F0218843A9680843E0602878BA
:102CE000C00752D06868022817D0032818D021687E
:102CF000012818D08905002959DAE1688908890076
:102D00000143E160FFF712FB69680746022912D010
:102D100003291CD0012926D033E021688903EAE782
:102D200021688901E7E74907E5E7FFF7FFFAC11BDB
:102D30003348814223D8E0680007800F0228F4D18D
:102D400023E0FFF7F3FAC11B2D48814217D8E06852
:102D50000007800F0328F4D117E0FFF7E7FAC11B43
:102D6000274881420BD8E0680007800F0128F4D182
:102D70000BE0FFF7DBFAC11B2148814201D9032098
:102D8000F8BDE0680007800FF3D11B480168C90750
:102D9000C90FB1420DD901684908490031430160AA
:102DA000006800E003E0C007C00FB04201D001207E
:102DB000F8BD2878400706D5E06807210902884356
:102DC000E9680843E0602878000707D5E068072134
:102DD000C90288432969C9000843E06000F036F859
:102DE000E168084A0906090F515CC84006490860B5
:102DF0000020FFF72BFEF8BD00200240001002402B
:102E00008813000098910008240000200448054918
:102E10000068C968044A4905490F515CC8407047B9
:102E20002400002000100240B19100080448054928
:102E30000068C968044A8904490F515CC84070475A
:102E40002400002000100240B191000810B5184A7B
:102E5000D1680C20084004280BD0082810D00C287A
:102E600010D050680004410F0120C003491C884065
:102E700010BD1068C00601D50E4810BD0E4810BD2B
:102E80000E4810BD88020E4B000F185C0902D36873
:102E9000890F491CDB0301D5084A05E01268D206F8
:102EA00001D5044A00E0044A5043FDF721F910BD62
:102EB0000010024000093D000024F40000127A00D6
:102EC000A8910008FEB505007ED0F94CE7680C20FB
:102ED000E66807400120000406402878C00747D074
:102EE000082F05D00C2F0AD101200004864206D1FC
:102EF000206880033CD568680028E5D038E00120D0
:102F000069680004814203D121680143216011E016
:102F1000052301221B0492049942216802D1114326
:102F20002160F1E781432160216801400091206820
:102F300090432060686800280DD0FFF7F7F90090F3
:102F400005E0FFF7F3F90099401A64287ED820685D
:102F50008003F6D50CE0FFF7E9F9009005E0FFF7F4
:102F6000E5F90099401A6428F0D820688003F6D467
:102F7000287880075CD5E868810604D5226820217E
:102F80000A43226088430923042F0DD00C2F01D15E
:102F9000002E09D000283BD02168994301432160CD
:102FA000FFF7C4F9064627E02168490701D5002844
:102FB0008AD061681F22120291432A6912021143CA
:102FC00061602168994300E0C3E101432160FFF79C
:102FD0003DFFE16809060A0FB649895CC840B64959
:102FE00008600020FFF732FD002873D120E0FFF7D2
:102FF0009DF9801B0228A9D820684007F7D5606892
:103000001F210902884329690902084360600FE013
:103010002068400840002060FFF788F9064604E079
:10302000FFF784F9801B022890D820684007F7D466
:103030002878C00660D5002F0DD0E86900284AD056
:103040002068FF2101310843206000E0E8E0FFF73D
:103050006DF906462CE02068800502D5E869002855
:10306000A6D06068072149038843696A0843606005
:103070006068298C0002000A090608436060686ADB
:10308000410B0120C003491C8840E16809060A0F72
:103090008849895CC840884908600020FFF7D6FC51
:1030A000002817D128E0FFF741F9801B0228A2D899
:1030B00020688005F7D56068072149038843696A5D
:1030C000084360606068298C0002000A0906084312
:1030D000606011E023E12168FF200130814321601D
:1030E000FFF724F9064604E0FFF720F9801B0228C9
:1030F0009AD820688005F7D42878704E000724D528
:1031000068690028306910D0012108433061FFF759
:103110000DF9009005E0FFF709F90099401A02281F
:103120007ED830698007F6D50FE040084000306156
:10313000FFF7FCF8009005E0FFF7F8F80099401A57
:1031400002286DD830698007F6D42878400764D506
:1031500000200290A06BC00006D4A06B01210907DB
:103160000843A0630120029055480168C90511D4A5
:103170000168821511430160FFF7D8F8009005E05F
:10318000FFF7D4F80099401A642849D84C480068E1
:10319000C005F5D5FF20AA680130824203D131690C
:1031A0000143316111E001218902002A07D0052382
:1031B0001B029A4203D132690A433261EFE7326956
:1031C00082433261306988433061A86800280ED09C
:1031D000FFF7ACF8009006E0FFF7A8F80099411A55
:1031E000384881421CD830698005F5D50DE0FFF7DD
:1031F0009DF8009006E0FFF799F80099411A3148D0
:1032000081420DD830698005F5D40298002804D099
:10321000A06B012109078843A0632878800600E09D
:103220007CE02ED52848A9694314002916D0A2684D
:1032300001210A43A260626B0A436263016A194377
:103240000162FFF773F8064604E0FFF76FF8801B92
:10325000022863D8A0688007F7D512E0A168490862
:103260004900A160016A99430162FFF75FF80646D1
:1032700004E0FFF75BF8801B02284FD8A0688007A6
:10328000F7D4A86A002866D00C2F4DD00126360648
:103290000228206805D0B0432060FFF747F80546B4
:1032A0003EE0B0432060FFF741F8074613E000001E
:1032B00000100240989100082400002040100240B5
:1032C000007000408813000000000140FFF72EF856
:1032D000C01B022822D820688001F7D4296BE86A35
:1032E000E2680843696BFD231B049A4311430843BA
:1032F000E060206830432060FFF718F8054604E0DE
:10330000FFF714F8401B022808D820688001F7D581
:1033100021E0FFF70BF8401B022801D90320FEBD76
:1033200020688001F5D416E00128F8D0E06801217A
:103330000904EA6A014091420BD10F2189042A6BEA
:103340000140914205D1032189050840696B8842FB
:1033500001D00120FEBD0020FEBD000010B50B48CD
:10336000FFF750FB0A49087B002809D00948027979
:10337000521CD2B202710A2A02D100220A730271CF
:103380000121122001F066FE10BD0000B8010020EE
:10339000380400200000002010B5044900204871C6
:1033A0000349887301F0BAF910BD00000000002045
:1033B0003804002070B50446006881688025C9047F
:1033C00000290BDAC068C00508D52046FFF7E4FFE6
:1033D0002168C8682840FF388238C8602068816842
:1033E00089040BD5C068800508D52046FFF7B6FFD5
:1033F0002068C168054A29408918C1600120044934
:103400004004486101202034607070BD7FFDFFFFE3
:1034100000040140F8B50546044620352878012807
:103420001DD001202870022068702268CA205062D6
:10343000226853205062FF2001300026FF2781427E
:103440001CD121688A6882438A60206881680122D1
:10345000120391438160FEF769FF009009E00220AA
:10346000F8BDFEF763FF0099411A7D20C00081423C
:103470001BD82068C068C007F3D020E020688168AE
:1034800001225202914381602068816812019143B8
:103490008160FEF74BFF00900DE0FEF747FF0099BB
:1034A000411A7D20C000814205D92068476203206F
:1034B00068702E70F8BD2068C0688007EDD5206860
:1034C0004762012068702E700020F8BD10B50068BA
:1034D0000B464068C021C94301400002000ECC04E5
:1034E000D870E40E5C708C06A40E0904490F9C7021
:1034F0001970002A0AD101F08BFED870587801F0BB
:1035000087FE5870987801F083FE9870002010BDF7
:1035100030B50B460168896A596001680969490438
:10352000490C9960006804680F48214601408802F0
:103530004D04800E18706D0E49065D70490E99702D
:103540006102490E40242140D970002A0AD101F0BD
:103550005FFE1870587801F05BFE5870987801F0A3
:1035600057FE9870002030BD7F7F7F00F8B50400C3
:1035700050D0254620356878002803D12870204691
:1035800000F052F8022068702168CA204862216861
:1035900053204862204601F04FFEFF2604270028F2
:1035A000206802D046626F7034E081681D4A114085
:1035B0008160216888686268A369104322691A43A0
:1035C000104388602168E0680861206801692289E9
:1035D0001204114301612068C16880229143C160D7
:1035E0002068C16C89088900C164E1696069014390
:1035F0002068C26C1143C1642068806880060BD4C7
:10360000204600F0C7F9002806D0206846626F7097
:10361000002028700120F8BD2068466201206870F3
:103620000020F8BDBFFF8FFF10B500680849884231
:103630000DD1084801690122920411430161002261
:1036400011460220FFF730FA0220FFF723FA10BDDF
:103650000028004040100240FEB5064604462036D1
:1036600030780B4601283ED0012030700220707067
:10367000184620300090206800278068002A34D047
:10368000400600D4DF7019789D7809040D435978FD
:10369000DA780902120411430D430099D8690978B8
:1036A00009060D430543586999690543586808435D
:1036B00000902168CA204862216853204862FF2098
:1036C0005A6A01308021824245D12268936883433F
:1036D00093602068C2680A40FF3A823AC260FEF7EF
:1036E00025FE019024E00220FEBD400600D4DF70DC
:1036F000187801F095FD0504587801F091FD00025D
:103700000543987801F08CFD0543D8780004054303
:103710000098007801F084FD00060543D869C1E7F0
:10372000FEF704FE0199411A7D20C00081422AD88B
:103730002068C068C007F3D02068C5612168009880
:10374000486420688168FF2201321143816020684B
:103750008168120130E02068826801235B029A438D
:1037600082602068C2680A401D495118C160FEF796
:10377000DDFD01900EE0FEF7D9FD0199411A7D2093
:10378000C000814206D92168FF2048620320707082
:103790003770FEBD2068C0688007ECD520680562E0
:1037A00021680098886420688168012252021143D0
:1037B00081602068816812011143816009480268B4
:1037C000012149040A43026082680A438260216839
:1037D000FF2048620120707037700020FEBD00009D
:1037E0007FFDFFFF00040140F8B505460446203583
:1037F00028780B4601280FD001202870022068701D
:10380000002A0BD0D8789E780004064358780978AF
:1038100000024903084317E00220F8BD5878C106AA
:1038200003D5EF2108400A305870D87801F0F8FC31
:103830000604587801F0F4FC00020643987801F081
:10384000EFFC06431878400306432168CA2048620B
:10385000216853204862204601F0EEFC0027002832
:1038600011D111480640206846602068C168802256
:103870009143C1602068806880060CD4204600F027
:1038800089F8002807D02168FF204862042068706A
:103890002F700120F8BD2168FF2048620120687068
:1038A0002F700020F8BD00003FFFFF00F8B506466E
:1038B0000446203630780D46012822D00120307091
:1038C00002207070206800278068002A1BD0400604
:1038D00000D4EF702978A878090408436978EA7859
:1038E000090212041143084300902168CA2048626B
:1038F000216853204862204601F09EFC002837D101
:1039000016E00220F8BD400600D4EF70287801F0E0
:1039100087FC0304687801F083FC00020343A87865
:1039200001F07EFC0343E878000403430093DCE7E6
:1039300017490098084021680860206881680122C2
:103940009204914381602969E868084321688A6884
:10395000104388602068C16880229143C16020685C
:10396000806880060CD4204600F014F8002807D0A8
:103970002168FF2048620420707037700120F8BD74
:103980002168FF2048620120707037700020F8BD68
:103990007F7F7F0070B504460068C168A022914314
:1039A000C160FEF7C3FC7D260546F60006E0FEF783
:1039B000BDFC401BB04201D9032070BD2068C06827
:1039C0008006F4D5002070BD02480169022211432F
:1039D0000161704700E000E0094910B5401E8842CF
:1039E00001D9012010BD074C60610321081F01F0BF
:1039F000B9FB0020A06107202061002010BD00005D
:103A0000FFFFFF0000E000E002480169022291434D
:103A10000161704700E000E0F0B502462032137EFD
:103A2000012B15D0012717760223537605686C68A1
:103A3000AB687026B4430E68496826438024A343CC
:103A400019436E6000688160577600201076F0BDE3
:103A50000220F0BD70B5040005D025462035687EF3
:103A6000002802D006E0012070BD00202876204604
:103A700000F00AF802206876211D206801F07CFC25
:103A800001206876002070BD006801218907884206
:103A900004D10348816B0122114381637047000008
:103AA00000100240F8B5054604462035287E01285E
:103AB00017D001262E760220687622689068772734
:103AC000FF23B8431B02984390600A68502A31D004
:103AD0000EDC202A4BD006DC002A48D0102A3AD12E
:103AE00045E00220F8BD302A41D0402A33D136E0EB
:103AF000602A27D0702A12D001200003121A2AD07F
:103B0000824228D1CB684A688968206801F068FC45
:103B10002068816801229203114381601BE0CB6819
:103B20004A688968206801F05BFC2168886838432E
:103B3000886010E0CA684968206801F064FC502180
:103B4000206806E0CA684968206801F06DFC6021C1
:103B5000206801F050FC6E7600202876F8BDCA6817
:103B60004968206801F04FFC40212068F1E71146C8
:103B70002068EEE7014660310A7C012A09D0012263
:103B80000A740068026802231A4302600020087465
:103B90007047022070470000FEB5054604466035B8
:103BA000287C00269446012811D001232B74242060
:103BB0006067206802689A4302602768B868032239
:103BC000120590430843B860002902D015E0022096
:103BD000FEBD60460091019020684168102291432B
:103BE0006A46928811434160206841686A4609022A
:103BF0009279090A1206114341602068016819434D
:103C00000160FEF793FB0949009103460121002260
:103C10008905204601F0AEFE002801D0032601E010
:103C200020206067002028743046FEBDFFFFFF01A2
:103C300070470000154910B588421ED10168CA6955
:103C4000C06F04281AD006DC00280FD0012805D048
:103C500002280BD106E0082808D113E0486A886AD8
:103C6000012002E0486A886A0420086200F062FFCE
:103C700001220749054800F06FF910BD486A886ABB
:103C80000220F2E7486A886A0820EEE7C8010020AF
:103C900003000020F8B502680446D06911689368F3
:103CA00005072D0F5BD0DD07ED0FFF2621360E40F7
:103CB0002E4367D0C60706D0CE0504D5012616626E
:103CC000E26F3243E267870702220426002F06DAFA
:103CD000DF0704D027683A62E76F3743E767470793
:103CE00006D5DB0704D023681E62E36F1343E36746
:103CF000020709D520220A402A4305D0236808225A
:103D00001A62E36F1343E367E26F002A2FD0800645
:103D100006D5880604D5216E002901D020468847A3
:103D2000E06F21688968490601D4000724D5204640
:103D300001F091FC20688168490619D5816840220C
:103D400091438160E06E002812D020498163E06ECB
:103D5000FEF764F800280AD0E06E816B06E0850665
:103D600010D58D060ED5216E1CE020468847F8BD83
:103D70002046FFF75FFFF8BD2046FFF75BFF0020FE
:103D8000E067F8BDC50208D55B0206D50120000535
:103D900010622046FFF74CFFF8BD030605D50B0661
:103DA00003D5616E0029E0D1F8BD4006FCD5480678
:103DB000FAD51368204640218B43136020216167A8
:103DC0000021616600F088FAF8BD0000795500080E
:103DD00010B5040003D0606F002802D007E0012076
:103DE00010BD002170200155204600F027F8242046
:103DF000606720680168490849000160204601F0B9
:103E00009BFC0128ECD0606A002802D0204601F01B
:103E10001EFB206841680922D2029143416020685C
:103E200081682A2291438160206801680122114340
:103E30000160204601F070FB10BD0000F0B587B0B6
:103E4000064614216846FCF7C6F93D4F34683D48E4
:103E50000221012203230025BC424CD1846B4F0474
:103E60003C438463C46A0C43C462C06A6C46084025
:103E7000059098020FC40720049069463248FEF767
:103E800087F9334C31482060A560E5608027656183
:103E900027610520A56160602020E0610320000308
:103EA00020622046FEF734F8002801D0FDF7DEFB43
:103EB000F466A662264C2548483414382060052054
:103EC0006060214610200831A1C16561A561032011
:103ED0000003E56120622046FEF71AF8002801D0B1
:103EE000FDF7C4FBB466002201211D20A662FEF787
:103EF000DBFD1D201FE0174EB4421ED1846B01264E
:103F0000760434438463C46A1443C462C06A6C4652
:103F1000C007C00F05900C20039323C40420049015
:103F2000052069460007FEF733F9002201211C2015
:103F3000FEF7BAFD1C20FEF7ADFD07B0F0BD000096
:103F400000480040001002400004005030000240D1
:103F5000C802002000440040F8B50446806F2028C5
:103F60004DD100290BD0002A09D00123A0681B03E2
:103F7000984206D12069002803D1C80701D001204A
:103F8000F8BD25466035287C012838D001202874EA
:103F90005820616502530026E6672220A067E06E84
:103FA000002819D01749C162E16E17480863E16E15
:103FB00016484863E06E13468663676D21683A468B
:103FC0002431E06EFDF7ECFF002805D01020E067FB
:103FD0002E7420206067D2E72E7420680168FF22CB
:103FE0000132114301602068816801221143816020
:103FF000206881684022114381600020F8BD0220C2
:10400000F8BD0000D5550008135600088D5500086E
:10401000F0B5836F202B54D100290AD0002A08D094
:104020008568DC01A54206D10369002B03D1CB07CB
:1040300001D00120F0BD034660331E7C012E40D02C
:1040400001261E744165014640310A834A830022DD
:10405000FF260266A54204D10569002D13D11A4D31
:104060000AE07F27002D09D001263607B5420CD182
:104070000569002D05D03F258D8307E00569002DDA
:1040800001D08F8302E08E8300E08A83C267222101
:10409000816701688D68012635438D608168A14282
:1040A00002D1016900290AD0084901661A74006822
:1040B0000168FF222132114301600020F0BD044954
:1040C000F3E70220F0BD0000FF010000DF5600080A
:1040D000875600081C4A10B51C49904219D11C484B
:1040E000C278012A0CD001231A46C91C194800F0D5
:1040F00036F816490122C91C1348FFF72DFF10BDE1
:10410000CA7813490379491D5A540179491C017130
:10411000EFE7104A9042F2D10F4C48780B782354C5
:10412000401C48700D2B01D00A2B06D11068026884
:1041300004239A4302600120887001220349054844
:10414000FFF766FF10BD0000C8010020000000203E
:104150004405002048020020300000207047FFB5D1
:104160000446406F83B017460D4620285CD1002DD1
:104170000AD0002F08D0A168C001814207D1206970
:10418000002804D1E80702D0012007B0F0BD204686
:1041900060300290007C012846D002980121017411
:1041A0000020E06721206067FEF7C0F82646403611
:1041B0000190378277820120A1680003814202D1F9
:1041C0002069002802D02F46002511E000270FE0CB
:1041D00000228021204601F0CDFB002815D1002FC0
:1041E00015D02168387888627F1C708A401E7082E2
:1041F000708A019B002806980090E9D10022402196
:10420000204601F0B7FB002808D00320BDE728882E
:104210002168C005C00D8862AD1CE6E720206067FC
:10422000029900200874B0E70220AEE7F8B5044612
:10423000406F202847D100290BD0002A09D0012344
:10424000A0681B03984206D12069002803D1C80743
:1042500001D00120F8BD25466035287C012832D0E8
:104260000120287420464030E16402824282002608
:10427000E66721206067A06E002819D01349C1624B
:10428000A16E13480863A16E12484863A06E1346DE
:1042900086632768E16C3A462832A06EFDF780FEFF
:1042A000002805D01020E0672E7420206067D0E73A
:1042B0002168402008622E742068816880221143A2
:1042C00081600020F8BD0220F8BD00001D560008E6
:1042D0004D5600088D550008704770477CB506465E
:1042E0001A484168C9430907FBD4194C606B65152E
:1042F0002843606300211748FDF752FB16480090E1
:104300001648019069461348FDF7A0FBA0140190E0
:10431000694600960F48FDF799FB0E48FDF750FDE2
:104320000021C9430B48FDF7EBFC0A48FDF7D8FB19
:10433000084980B20A68936802263343936009688B
:1043400003220A60616BA94361637CBD0070004079
:10435000001002405C010020FFFF07000110000078
:1043600038B50B231B07C518114B0FD01C152D1B7F
:1043700018D02D1B19D0A542DD6A05D1082425438C
:10438000DD62DB6A234007E08024F8E7DC6A012570
:104390002C43DC62DB6A2B40009311601146FDF771
:1043A000F7FE38BDDD6A0224E9E7DD6A0424E6E7AA
:1043B00000100240F8B5012105200022C9020007C3
:1043C000FDF7ADFF00240126194F3603314638466C
:1043D000FDF7A0FF0028F9D1002501220527D6020C
:1043E0003F0731463846FDF79AFF64000022314608
:1043F0003846FDF794FF71000D48FDF78BFF01284B
:1044000000D1641C6D1CEDB2182DE6D301220526E7
:10441000D502360729463046FDF781FF2803444080
:10442000002229463046FDF77AFF2046F8BD0000FD
:1044300000040050FEE701688A69D243920701D464
:1044400000228A6200688169C943C90703D0816973
:104450000122114381617047F7B5044600680E469A
:104460008069C043C0062BD42027254640352068EC
:104470008069C043800612D5701CF8D0FDF756FF46
:104480000299401AB04201D8002EF0D1606C384336
:1044900060646F700020A87028700120FEBD216844
:1044A0001020C8612068C7612046FFF7C4FF20685C
:1044B0004168044A11404160606C04210843E7E709
:1044C0000020FEBD00E800FEF8B50446164615487B
:1044D0001D46DAB20090079F0023204600F054F8F2
:1044E0003A462046069900F0F1F8002818D12846EF
:1044F000F5B2012809D02168300A88623A46204680
:10450000069900F0E3F800280AD120688562009738
:10451000002240212046069B00F04AF8002800D0E7
:104520000120F8BD00200080F8B504461646154865
:104530001D46DAB2C3020090079F204600F024F81F
:104540003A462046069900F0C1F8002818D12846BE
:10455000F5B2012809D02168300A88623A4620461F
:10456000069900F0B3F800280AD120688562009708
:10457000002280212046069B00F01AF8002800D077
:104580000120F8BD00200080F0B50668059C756824
:10459000064F600D384385438805800D110408439C
:1045A0001843204305437560F0BD0000FF63FF031F
:1045B000F8B51D4617460E46044609E0681C07D0AC
:1045C000FDF7B4FE0699401AA8420BD8002D09D079
:1045D00020688169304688430FD00020B842EDD072
:1045E0000020F8BD616C202001436164403460709C
:1045F0000020A07020700120F8BD0120EEE700002F
:10460000F7B50027202605460446403528E0204619
:10461000029A0199FFF720FF002801D00120FEBD7A
:1046200020688069C043800611D420688169C9432D
:10463000490702D4218D002917D1C661206841683D
:104640000E4A1140416067646E70AF7013E0FDF771
:104650006DFE0299411A0198814208D8002806D0BF
:1046600020688069C0434007D1D40020FEBD606C43
:10467000304360646E702F70D0E7000000E800FEE9
:1046800070B516460D4604460FE0324629462046D0
:10469000FFF7E2FE002801D0012070BDFDF746FEC5
:1046A000801BA84208D8002D06D020688069C0432E
:1046B0008006EAD4002070BD616C20200143616453
:1046C000403460700020A0702070E5E770B5164699
:1046D0000D46044611E0324629462046FFF7BCFE4F
:1046E000002801D0012070BD681C06D0FDF71EFE19
:1046F000801BA84208D8002D06D020688069C043DE
:104700008007E8D4002070BD616C20200143616403
:10471000403460700020A0702070E3E70248016818
:1047200004221143016070470070004070B50C4CCA
:10473000A06B25042843A063FEF7C2F9FEF7B8F981
:10474000E06869130843E060A06B2843A063FFF7AB
:104750005BF901210846FEF7C3F9FFF735F970BD93
:104760000010024030B58BB000F0A2F947A00068FD
:10477000059000200390049004F036FC7D24012570
:1047800005A8E40000902B460022C4210195029464
:104790003F48FEF731F804F027FC3E49884258D2E2
:1047A00003A8009001230F22C521019502943848E7
:1047B000FDF778FF04A8009001231022C521019580
:1047C00002943348FDF76EFF6846007B010268469D
:1047D000007C081885B2A00085421DD9002206A9D8
:1047E0002D48FEF795FE002269462B48FEF76EFE27
:1047F000684683784278C17828A001F03DFA68467F
:10480000837E427E017E2AA001F036FA2DA001F0BF
:1048100033FA33480BB030BD002206A91E48FEF71C
:1048200077FE002269461C48FEF750FE6C46A378CE
:104830006278E17819A001F01FFAA37E627E217EE2
:104840001BA001F019FA294626A001F015FA284606
:10485000E0E7002206A91048FEF75AFE002269464A
:104860000D48FEF733FE684683784278C1780BA086
:1048700001F002FA6846837E427E017E0CA001F0C0
:10488000FBF91DA001F0F8F92248C3E7040000007D
:10489000F80400200F270000580300205B252E326B
:1048A000642D252E32642D252E3264200000000058
:1048B00020252E32643A252E32643A252E32645D4C
:1048C0000000000044697374616E636520697320A1
:1048D0006F7574206F662072616E67650D0A000047
:1048E000FFFF000044697374616E6365203D2564B9
:1048F000636D0D0A000000006C696461725F6C6991
:104900007465206973206E6F7420636F6E6E6563CB
:10491000740D0A00FF0F00001CB50021184800911B
:10492000164A01910260C16381600124816312050E
:10493000046142600246C16020321170FF23517051
:10494000C233436281621173016381610422416356
:104950004261C161FDF7C8F8002801D0FCF786FE6E
:10496000012000030190694600940548FDF76EF8A8
:10497000002801D0FCF77AFE1CBD00000024014095
:104980005C01002008B50848016B01221143016356
:10499000006B10400022009011460A20FEF784F8B8
:1049A0000A20FEF777F808BD00100240F0B587B086
:1049B00014216846FBF70FFC3648C26A04210A43FB
:1049C000C262C26A0A400592C26A80210A43C26278
:1049D000C26A0A400592C16A01263143C162C16AB6
:1049E00031400591C26A02210A43C262C06ACF0106
:1049F000084005900520002239460007FDF78FFC8E
:104A0000012220212448FDF78AFC7003032400259D
:104A10006A4631C269462148FDF7BAFB00946946EF
:104A20001F4802950194FDF7B3FB1E486A4631C248
:104A3000052069460007FDF7ABFB1B486A4631C2FB
:104A400069461548FDF7A4FBB00300901748019094
:104A5000694602951048FDF79BFB05206946000753
:104A60000097019602950394FDF792FB2020009099
:104A7000112001906946029603940748FDF788FBD0
:104A8000002202210720FEF70FF80720FEF702F8A8
:104A900007B0F0BD001002400004005000080050B4
:104AA000001C0050F29E0000DFB300000000211047
:104AB00010B513481149016012494160002181601D
:104AC0000161416181610122C161C2600162FDF742
:104AD0007FFC002801D0FCF7C9FD00210848FDF744
:104AE0002BFC002801D0FCF7C1FD00210448FDF794
:104AF00048FC002801D0FCF7B9FD10BD005400406F
:104B0000F8040020BB7C700010B50848064901601D
:104B1000062141600649C1608160FDF741FF002820
:104B200001D0FCF7A3FD10BD00300040B80100200B
:104B3000FF0F000010B50F480D4901604B21C9015E
:104B4000416000218160C16001610C22816142618C
:104B50000162302141620121090381634900C1637F
:104B6000FFF736F9002801D0FCF780FD10BD0000EA
:104B700000480040C801002030B591B014216846BB
:104B8000FBF729FB0024282106A80594FBF723FB4B
:104B90002D492E4812C07F2101608460C4600461E9
:104BA000FF21446141600838FEF7E0FC002801D095
:104BB000FCF75CFD68460470447084700394012225
:104BC000694622480494FEF771FE002801D0FCF7E4
:104BD0004DFD01256846057545758575C4752A46E0
:104BE00005A91A48FEF700FE002801D0FCF73EFD9B
:104BF00068460476447603218176079409940A94E2
:104C00000B940C9408A80D940576FF2001300F90AA
:104C1000012206A90D48FEF71FFD002801D0FCF770
:104C200025FD05216846817608A805760120400209
:104C30000F90012206A90548FEF70EFD002801D0BD
:104C4000FCF714FD11B030BD0028004058030020CF
:104C500010B586B0002400940121164801940294F6
:104C6000039404948907059401609F218460416046
:104C7000046111494461C160FEF7ECFE002801D0D7
:104C8000FCF7F4FC01200003009069460948FEF798
:104C900009FF002801D0FCF7E9FC049404A90548A9
:104CA0000594FEF7B9FE002801D0FCF7DFFC06B042
:104CB00010BD00007C030020FFFF000010B50C4871
:104CC0000A4901604B21C901416000218160C16036
:104CD00001618161C1610C22016242614162FFF7A1
:104CE00077F8002801D0FCF7C1FC10BD004400405B
:104CF00048020020F0B595B000220DA9B448FEF797
:104D000007FC002213A9B248FEF7E0FB10A8837B42
:104D1000427BC17BAFA000F0AFFF08A8837D427D3E
:104D2000017DB1A000F0A8FFB4A000F0A5FFBD4C2C
:104D3000B9A1601D03F052F83A21601DFBF783FA18
:104D400005462C21601DFBF77EFA06464F21601DAB
:104D5000FBF779FA0746002006900790059001902E
:104D6000029003900490731B00900E900D90119090
:104D700001465A1E109006E0AA4C5D182C192579A0
:104D800005AC6554491C8A42F6DC054600900FE0EC
:104D9000009000290CD0012915D002291CD0491CF3
:104DA0000329F5DB0020B91B01AB9E4A4C1F21E013
:104DB0006846017D0170417D4170FBF76DFA0F90EF
:104DC00001212846E4E76846C17D0170017E4170FB
:104DD000FBF762FA00950E906846817E0170C17EF5
:104DE0004170FBF759FA0D90DCE70E18B618B6794A
:104DF0001E54401C8442F8DC009591E00095002888
:104E0000FBD001287DD002287CD003287BD0401C19
:104E10000428F3DB142108A8FBF7DDF982496C486C
:104E2000129522C07F2101608560C5600561FF2168
:104E3000456141600838FEF799FB002801D0FCF776
:104E400015FC0A212046FBF769F90001091808A89A
:104E500001700A211198FBF761F90001091808A8EF
:104E600041700A211098FBF759F90001091808A8A8
:104E7000817001460B95012255480C95FEF716FDF1
:104E8000002801D0FCF7F2FB012110A801720A21D1
:104E90000E98FBF743F90001091810A841720A2186
:104EA0000D98FBF73BF90001091810A881720A213F
:104EB0000F98FBF733F90001091810A8C1720122FD
:104EC00012A94348FEF790FC002801D0FCF7CEFB66
:104ED00000220DA93E48FEF71BFB002213A93C4807
:104EE000FEF7F4FA10A8837B427BC17B39A000F067
:104EF000C3FE08A8837D427D017D3BA000F0BCFE7F
:104F000002E017E020E028E048A000F0B5FE4F489E
:104F1000FDF778FD0121122000F09CF815B0F0BDDE
:104F200068460179017041794170FBF7B5F9044693
:104F3000012063E76846C1790170017A4170FBF78F
:104F4000ABF91190022059E76846817A0170C17A65
:104F50004170FBF7A1F9009510902B2101A8FBF7F8
:104F600072F907462D2101A8FBF76DF90646002FBF
:104F700007D06846FBF771F90146684608187A1CA5
:104F800007E0002E08D06846FBF767F9694640182D
:104F9000721C2FA100F080FE6846FBF77DF9002807
:104FA00000DC37E7002F08D0C117890F08188010E0
:104FB0000419182CF5DB183C2CE7002EF1D0C11792
:104FC000890F08188010241AEBD5183422E7000046
:104FD000580300205B252E32642D252E32642D25AA
:104FE0002E3264200000000020252E32643A252E47
:104FF00032643A252E32645D000000005761697406
:1050000020666F722063616C6962726174696F6E91
:105010002074696D650D0A0041542B43434C4B3F8E
:105020000A000000440500200028004043616C692C
:1050300062726174696F6E2074696D6520636F6D53
:10504000706C657465640D0A00000000B8010020F2
:1050500025730000F0B501256D0293B00C4606469D
:10506000012902D0002C02D006E0294601E0FF21F0
:1050700001313548FEF7CEF9282105A8FBF7ABF83A
:10508000002269463048FEF743FA002211A92E4853
:10509000FEF71CFAE12109013046FBF729F8C6B2F8
:1050A00008463C21FBF724F8C7B2684680784018D0
:1050B0000A21FBF71DF800010818C0B259286946FB
:1050C00004D96038887548787F1C01E08875487875
:1050D0000A21C019FBF70CF800010818C0B25928C2
:1050E000694604D9603848750878761C01E048752F
:1050F00008780A218019FAF7FBFF00010818C0B2EE
:105100002328694600D9243808750020012106901B
:10511000C907089009900B900C900A91012008A9EA
:105120000875002C0BD00E95012205A90648FEF744
:1051300093FA002801D0FCF799FA13B0F0BDFF20D4
:1051400001300E90F0E700005803002010B5012157
:1051500004464905FEF720FD2046FEF70BFD10BD75
:10516000704700008307FF22DB0E9A408907090E73
:10517000994000280BDA0007000F08388308084818
:105180009B001818C36993430B43C361704783089E
:1051900004489B001B181868904308431860704728
:1051A00000ED00E000E400E0BFF34F8F0449034846
:1051B000C860BFF34F8F00BFFDE700000400FA0591
:1051C00000ED00E0BFF34F8F04490348C860BFF310
:1051D0004F8F00BFFDE700000400FA0500ED00E07E
:1051E000BFF34F8F04490348C860BFF34F8F00BF20
:1051F000FDE700000400FA0500ED00E07047000044
:1052000010B50248FEF746FD10BD0000C8010020A1
:1052100001090A2200075143000F4018C0B270472D
:105220000022014602E00A39C9B2521C0A29FAD208
:105230001007000E0843704770B504460068C16847
:10524000490613D40021C943C160FDF76FF87D26DC
:105250000546F60006E0FDF769F8401BB04201D9AB
:10526000032070BD2068C0684006F4D5002070BDE2
:1052700010B50248FEF79EF810BD0000580300204C
:10528000704710B5FDF7C6FB10BD000030B59DB0EE
:1052900038216846FAF79FFF142117A8FAF79BFFF9
:1052A00024210EA8FAF797FF1C4801680324E402A2
:1052B000A143C51449190160FDF70AFC18480169AA
:1052C000A14301610E200090E810029001211020FE
:1052D0000490059102200A9040040C900391000173
:1052E00000240D900B946846FDF7ECFD0F201790FD
:1052F0000320189019941A9401211B9417A8FDF704
:10530000CFFC26200E900820119040030F9012959C
:105310000EA8FDF7FFFB1DB030BD0000007000407F
:105320004010024010480168821511430160C168B5
:105330000E4A1140C16001680D4A11400160816848
:10534000490849008160016801229204914301608B
:10535000C168FD2212049143C16000210161054929
:10536000C003886070470000001002400C40FF88B6
:10537000F6FFF6FE00ED00E0F0B502680124A40798
:10538000144D154E154FA04205D0A84203D0B0428F
:1053900001D0B84204D11346702293434A681A439D
:1053A000A04205D0A84203D0B04201D0B84204D1F7
:1053B00003231B029A43CB681A4380239A430B6949
:1053C0001A4302608A68C2620968816201214161F0
:1053D000F0BD00000004004000080140001401403E
:1053E00030B58468FF252D021B021343AC430B43E9
:1053F0002343836030BD826870239A430A430721A8
:105400000A438260704730B5036A046A6408640026
:1054100004628469F025AC43120122430A24A343A9
:105420000B438261036230BD30B5036A1024A3438D
:1054300003628469036A0F252D031203AC432243E0
:10544000A024A343090119438261016230BD10B554
:10545000818CC90707D001684A6801235B049A431D
:10546000836A1A434A60818C890707D501684A68B4
:1054700001231B049A43C36A1A434A60818C49077B
:1054800007D501684A6801239B049A43036B1A43BA
:105490004A60818C090707D501684A680123DB034C
:1054A0009A43436B1A434A60818CC90607D5026848
:1054B000916801231B039943836B19439160818C8D
:1054C000890607D501688A6801235B039A43C36B89
:1054D0001A438A60818C490612D503685A680121F3
:1054E0000905046C8A4322435A60026C8A4207D140
:1054F0000268516803235B059943436C194351606B
:10550000818C090607D501684A680123DB04806C99
:105510009A4302434A6010BDF8B500260446C667A8
:10552000FCF704FF054620680068124F000709D504
:1055300001212B46002249052046009700F01AFA67
:1055400000280DD12068006840070BD501212B46AB
:10555000002289052046009700F00CFA002801D0AF
:105560000320F8BD20206067A06760342674002007
:10557000F8BD0000FFFFFF0110B5806A0022014660
:1055800040314A834A82FEF755FB10BD70B5846AEC
:10559000606FA56F2168896800260906002906DA70
:1055A000212804D152200653204600F064F82068D8
:1055B0008068400606D5222D04D15A200653204685
:1055C00000F049F8E06F10210843E0672046FEF73D
:1055D00031FB70BD10B501460968806A096889060B
:1055E00014D400225A210A5201680A68FF230133A9
:1055F0009A430A6001688A68520852008A6001680A
:105600008A6840239A438A6020218167FEF762FD01
:1056100010BD10B5806AFEF7A1FD10BD10B50146A2
:105620000968806A096889060DD4002252210A524D
:1056300001688A6880239A438A6000680168402272
:105640001143016010BDFEF747FE10BD10B5806A22
:10565000FEF743FE10BD01680A68FF2321339A4319
:105660000A6001688A68520852008A6020218167B6
:1056700000210166704701680A68C0239A430A60E6
:1056800020214167704710B5014640318B8B846FF4
:105690000268222C04D0906908210843906110BD53
:1056A000526A446D1A402280426D921C42654A8BB8
:1056B000521E4A83498B0029F1D101680A68FF23F1
:1056C00021339A430A6001688A68520852008A604E
:1056D0002021816700210166FEF7FCFC10BD10B59A
:1056E000014640318B8B846F0268222C04D0906974
:1056F00008210843906110BD526A1A40436D1A7028
:10570000426D521C42654A8B521E4A83498B0029C6
:10571000F1D101680A68FF2321339A430A600168C6
:105720008A68520852008A60202181670021016640
:10573000FEF7D0FC10BD0000F8B504462669A2684B
:10574000E76932436669102000253E4323683243EF
:105750007B491E687B4F3E4016431E60226853689B
:1057600003263603B343E668334353602368A269D4
:105770008B4201D0266A32439E680B273F02BE430C
:1057800016439E60704E2368704AB3420CD1D268B3
:105790009207920F06D0012A3ED0022A3AD0032A5D
:1057A00026D124E0012023E0694EB3420AD1D26819
:1057B0000C2632402CD0042A2ED0082A2AD00C2ABB
:1057C00016D114E0634EB34222D0634EB3421FD0D1
:1057D0008B420DD1D66803229202164018D00122C6
:1057E0009202B61A18D0B61A14D0964200D10820E8
:1057F000564A0126403A594FF6038B4236D10028CB
:105800000CD002280DD0042812D008281FD11CE08B
:105810000020EDE70220EBE70420E9E7FDF7F6FAC8
:1058200008E01068C00601D5384605E04C4803E0A2
:10583000FDF70CFB002873D06268510051188142BB
:1058400005D81103814202D303E03046F4E7012575
:1058500066E0010E06025008002330185941FAF79D
:1058600071FC03210902411A3E4A55E0E169B14247
:1058700032D1030000F03BFA09070A0D062506069F
:10588000062B0600E3E7FDF7C1FA1CE0FDF7CEFAB0
:1058900019E010686168C00602D54808324A01E084
:1058A000324A48088018FAF723FC80B20146304A91
:1058B00010399142CBD8511C01400007400F0843DA
:1058C0002CE0FDF7C3FA616840004A08EAE7616826
:1058D000012248081204E5E7030000F008FA09076E
:1058E0000A0D06260606062C0600B0E7FDF78EFA1E
:1058F0001DE0FDF79BFA1AE010686168C00602D54A
:105900004808C01902E016484A081018FAF7F0FBD8
:1059100080B20146164A1039914298D82168C86071
:105920000020206660662846F8BDFDF78FFA6168A2
:105930004A088018EAE7616848088019E6E700002D
:1059400000480040F369FFEF00380140401002407A
:1059500000440040004C00400050004000093D0061
:105960000024F400FFFC0F0000127A000048E80158
:10597000EFFF0000FFB581B017460E4604460A9DB2
:1059800009E0681C07D0FCF7D1FC0499401AA84232
:105990000CD8002D0AD02068C1693046884318D041
:1059A0000020B842EDD0002005B0F0BD20680168AD
:1059B000FF22A132914301602068816849084900B3
:1059C000816020206067A06700206034207403207D
:1059D000EAE70120E5E70000F0B58BB0FBF756FFE2
:1059E000FBF792FFFFF734F90126F60205200024A9
:1059F00031460007FCF78EFC00281BD0002202A9CC
:105A00005348FDF785FD002201A95148FDF75EFDD1
:105A100069468B794A79C9794EA000F02DF969461B
:105A20008B7A4A7A097A50A000F026F953A000F048
:105A300023F98AE000250122564F140321463846F7
:105A4000FCF76DFC0120FCF7DFFA00222146384606
:105A5000FCF765FC05273F0731463846FCF75AFC42
:105A60000028F9D04C4C0020216848622068016869
:105A700001221143016031463846FCF74BFC0028F7
:105A8000F9D12468606A2121FAF732FB616A401873
:105A9000216A424A114203D1216849084900216024
:105AA00081004018FAF78DFE3D49FAF798FC3D4910
:105AB000FAF758FC3C49FAF7FCFBFAF7C4FE84B24B
:105AC00020463A49F038884223D3002202A92048D0
:105AD000FDF71EFD002201A91D48FDF7F7FC6846F1
