:020000040800F2
:10780000C8480020D5780008D1E40008E9C800087D
:107810000000000000000000000000000000000068
:10782000000000000000000000000000F9E5000872
:10783000000000000000000071E5000845E60008B7
:10784000E7780008E7780008E5E50008E778000831
:10785000E7780008E7780008E7780008EB9300086D
:10786000E7780008E7780008C58D0008E778000889
:10787000E7780008E7780008E7780008E77800086C
:10788000E7780008E7780008E778000800000000C3
:10789000E7780008E7780008E7780008E77800084C
:1078A000E7780008E7780008E778000889F1000821
:1078B00099F1000875E5000800000000E77800086D
:1078C0000348854600F086FF00480047AD180108D0
:1078D000C84800200448804704480047FEE7FEE708
:1078E000FEE7FEE7FEE7FEE7E9E60008C1780008EC
:1078F00030B50B46014600202022012409E00D4648
:10790000D5409D4205D31D469540491B25469540CF
:1079100040191546521E002DF1DC30BD70B5002413
:107920002546002801DA01244042002901DA012518
:107930004942FFF7DDFFAC4200D04042002C00D0AE
:10794000494270BDF0B51FB40646002082B005461E
:107950004024019100901BE0019922460F463046D9
:1079600000F0C5FD049A059B801A994110D310467A
:107970001946224600F0ABFD361A8F410197224688
:1079800001200021009F00F0A2FD38184D41009019
:107990002046641E0028DFDC019B00982946324601
:1079A00007B0F0BD00487047746E010801466139A8
:1079B000192900D82038704738B50446C068182106
:1079C000401E4843A16840183C2148436168401864
:1079D0003C2148432168451860690C2148432169CE
:1079E00040186921C900401A3021FFF797FF114A5A
:1079F00050434219084600921A2902DB0E495118D9
:107A000000910C21FFF78AFF0C4A5043009A80181E
:107A100000900B4806E0491E425C074B5A43009B0E
:107A2000D21800920029F6DC2146684600F08CFD51
:107A3000009838BD801F8607805101008033E10126
:107A4000786E010870B50546002900D10721541A47
:107A5000FF206E30241D844209DB286800F03DF9C8
:107A6000A04204DC2868401C2860012070BD002C66
:107A700005DA2868401E286000F02FF90419072154
:107A80002046FFF74BFF401C70BDFFB589B0099839
:107A90001D46002402920890A20002AB9958087873
:107AA000491C995000280DD0252810D00A99012989
:107AB0000AD9099908700998401C09900A98401E33
:107AC0000A90F6E0641EF4E000200DB0F0BD0878E6
:107AD000491C99500028F5D03021022607915A28D8
:107AE000EFD020DC4D287BD014DC442842D008DCC9
:107AF0002528DBD041282AD042282ED04328E0D1A7
:107B000030E046283DD047284ED0482857D0492855
:107B1000D7D156E05238030007F0BBFD087779A1B2
:107B2000838693A1A3CB6138030007F0B2FD190E41
:107B300014192125C22F14C253C2C2565BC261C29E
:107B40006CC27274C287969BC2006FA000E075A0E1
:107B5000A9690691BCE082A000E08D482969F8E798
:107B60008CA140E064216869FFF7D8FE13307CE007
:107B7000E8687AE08BA105E0E8680690202007908D
:107B800074E08BA1641CA200995092E08B48696953
:107B90000818069006A8EA69A969FFF753FF64214F
:107BA0000698FFF7BBFE12E08448696904260818AE
:107BB000069006A8EA69A969FFF744FF56E0A8689D
:107BC00053E0A8680C211730FFF7A8FE491C069166
:107BD0004CE005E00326E86900E02869401C44E029
:107BE000686842E076A1641CA20002A8815060E0AF
:107BF000A8680C2801DA73A000E073A0641CA2003E
:107C000002A9885055E071A1EDE773A1EBE7286860
:107C10002BE073A1E7E7A8690126002825D10720FA
:107C200023E0A969E86912E06448696908180690C8
:107C300006A8EA69A969FFF705FF16E00126A86909
:107C400013E0A8690721801DFFF768FEE869401A64
:107C50000721C01DFFF762FE07E052A1C3E761A143
:107C6000C1E704265548696908180690002069464E
:107C7000087101AF15E00A210698FFF74FFE303179
:107C80007F1E39700A210698FFF748FE06900028EB
:107C900007D102E07F1E079838703046761E002814
:107CA000F8DC3046761E0028E5DC641CA10002A842
:107CB0004750002C00DBEFE6099900200870089976
:107CC0000998401A01E70178401C0029FBD1069968
:107CD0004A1E06920029F6DC90E710B5044681079B
:107CE0000BD16421FFF71AFE00290AD1FF2191313F
:107CF0002046FFF713FE002903D00020FF306E302E
:107D000010BD0120FAE7000053756E004D6F6E0044
:107D100054756500576564005468750046726900C3
:107D20005361740053756E646179004D6F6E6461C8
:107D3000790054756573646179005765646E657385
:107D40006461790054687572736461790046726980
:107D50006461790053617475726461790000000098
:107D60004A616E00466562004D61720041707200AA
:107D70004D6179004A756E004A756C004175670067
:107D8000536570004F6374004E6F76004465630066
:107D9000846E010825612025622025652025542058
:107DA00025590000256D2F25642F2579000000003E
:107DB00025592D256D2D2564000000006C0700005D
:107DC0000A000000414D0000504D000025493A25B1
:107DD0004D3A25532025700025483A254D000000D6
:107DE0000900000025483A254D3A255300000000BF
:107DF00010B5034606A21A210B48FFF746FE0A48B3
:107E0000017A302901D120210172074810BD0000FC
:107E100025612025622025642025483A254D3A25F4
:107E2000532025590A0000007C44002010B500F0C2
:107E300083FBFFF7DDFF10BD03460B439B0703D019
:107E400009E008C9121F08C0042AFAD203E00B781F
:107E50000370401C491C521EF9D27047D2B201E097
:107E60000270401C491EFBD270470022F6E710B595
:107E700013460A4604461946FFF7F0FF204610BD98
:107E8000421E5378521C002BFBD10B781370491CF7
:107E9000521C002BF9D1704730B505462A460B46D7
:107EA00010781C78521C5B1C002801D0A042F7D02F
:107EB000002C03D0002802D06D1CEFE7284630BD0F
:107EC00010B5044605E00B780370401C002B00D071
:107ED000491C521EF7D2204610BDCAB2401E41783E
:107EE000401C8A4202D00029F9D100207047421C70
:107EF0000178401C0029FBD1801A704710B5002280
:107F000000E0521C835C8C5CA34201D1002BF8D1B1
:107F1000D8B2E1B2401A10BD0246C9B200E0401C1E
:107F20000378002BFBD102E003788B4203D0401E84
:107F30009042F9D2002070470321001D401E0378B3
:107F400012021A43491EF9D51046704770B506460D
:107F500007F0EAFB046805460A220021304600F0DB
:107F60002DFB2C6070BD024670B54A40D30FDB0775
:107F700040002DD04A002AD0010E140E0002120239
:107F80000919400A520A8418E50104465443000ABC
:107F9000120A2E045043A4194219200CC543AA18F2
:107FA000120C0125AD03521C521912047F3924040E
:107FB00000D0521C104301D44000491EC2B20C062E
:107FC000C0092018401C4008802A02D003E000208D
:107FD00070BD40084000002900DA0020184370BD41
:107FE00070B502464A40D50F40004A00ED074008F0
:107FF0005208002814D0002A12D0C40DD30D41021B
:108000000120C0055202490A520AE41A091812183E
:108010007D34914201D3641C00E04900002C01DA58
:10802000002070BD0023914201D3891A0343400808
:1080300049000028F7D100290AD0914202D101213C
:10804000C90705E0914201D2012101E00121C943A4
:10805000E005C018401900F0E9FA70BDF0B5074618
:108060000846584087B0C00F049048000E4659009B
:1080700040084908BC1A884105D2384631461E4698
:1080800017460B4602465800400810434CD0300DAE
:10809000039040055900400D490D0590401A02908B
:1080A000402872DA18030121000B090508430190EA
:1080B00004980092002805D001995242002088417E
:1080C00000920190029840210A1A0199009800F04C
:1080D000FEF905460C466B4607CB00F019FAC019AD
:1080E0007141039A0E0D0023D71756401A467A4065
:1080F000164344D0049A002A2DD0029A012A039AEA
:1081000015DC1205C01A914101263605001C71418B
:10811000D20F059ED2070093019202962A4623466B
:1081200000F0D2FA07B0F0BD38463146FAE716053E
:10813000224A0F46B218C01AB74101210905001C96
:108140004F4100187F41114618187941E20F104342
:108150006D19644113E0E2076D0815436408C20716
:108160001443039A01261205C01A91413605001CDA
:108170007141CE07400830434908C01851412A4692
:10818000234600F094FACDE7FFE70498012240006F
:10819000C117121A00238B4104983146C417381AAC
:1081A000A141EEE730B40124E407634030BC55E759
:1081B00030B40124E407614030BC4FE70000E0FF29
:1081C000F0B51FB488B00B9909980024484009996C
:1081D000C00F490049080991C0070B990090490058
:1081E00049080B9109990898A64608431CD00B9999
:1081F0000A98084318D0099801244000420D48000D
:10820000410D099824050003000B204309900B98A9
:108210000003000B20430B9050181C49401800220B
:1082200001901446104605E0002001460DB0F0BD57
:10823000032801DA034600E003239C46C11A0AAE74
:108240000AE05F0008ADED5B4F00F75B7D43002760
:10825000AA187C41491C5B1E6145F2DD410004AB5C
:108260005A522104120C0A43240C401C0828DFDB5C
:10827000019802900099704601910090059B049A24
:108280000799069800F020FAD0E700000DFCFFFFE8
:10829000F0B50C465C4085B0E40FE40703944C0055
:1082A0000026640859009446490802460296224373
:1082B00021D062460A431ED06200570D4A000E03C9
:1082C0002303550D012402462C492405781B1B0B62
:1082D000360B401823432643614600901C46501A33
:1082E000B44103D30098401C009002E0921800981B
:1082F0005B41002803DA0020014605B0F0BD0020F4
:10830000012109050746864611E064461D46141BF7
:10831000B54106D36546521BB341744607430C432F
:10832000A646CD0740084908284392185B410546F8
:108330000D43EAD11046184313D060461946504009
:108340007140084306D06046101AB34106D201229C
:10835000002306E000220123DB0702E00122D243D2
:108360005310009874460105381C6141029C039D1E
:108370000019694100F09BF9BFE70000FD03000010
:1083800070B54B005B0803430BD04B005C0D00261F
:1083900033466542B341D417AD1AA34102DB002036
:1083A000014670BD12053018514170BDC217C10F92
:1083B000504010B54018CA079623002100F03EF93E
:1083C00010BD10B500229623114600F037F910BDFC
:1083D0000EB5C217C10F5040CA0740180021054B07
:1083E0000293019200910A460B4600F06DF903B02A
:1083F00000BD0000330400000EB5054902910021C4
:1084000000910A460B46019100F05EF903B000BDF1
:1084100033040000C20F410040020123400ADB0583
:10842000D207090EC0187F2901DA0020704796296B
:1084300003DC9623591AC84001E096398840002A87
:10844000F4D040427047410040020122400AD20568
:10845000090E80187F2901DA00207047962903DC75
:108460009622511AC8407047963988407047C20F0B
:10847000D207400040080BD0C10D0723DB01C9180B
:1084800040020905400A1143C208400711437047E2
:10849000002001467047CB0FDB07490010B54908A3
:1084A00002460A4307D00A0D07240903E401090B19
:1084B000121B002A01DC002010BDC900440F0C4330
:1084C000C100E018D205801800F0B0F810BD10B55A
:1084D000202A04DB0146203A9140002010BD914043
:1084E00020239C1A0346E3401943904010BD10B569
:1084F000202A04DB0846203AD040002110BD0B465C
:10850000D340D0402024A21A91400843194610BD00
:1085100010B5202A06DBCB170846203A1041C117B8
:108520000B4306E00B461341D0402024A21A914091
:108530000843194610BD000010B5024900F004F8C8
:1085400010BD00009844002070B50C4600683C2126
:10855000FFF7CEF921603C21FFF7CAF961601821CD
:10856000FFF7C6F90546A1600721001DFFF7C0F916
:10857000A1610F48A90008180E49FFF7B9F9024692
:10858000443288086261E0613B2802D3910700D041
:10859000401C0021084B0A462161995C814203D8A6
:1085A000401A521C2261F8E7401CE060204670BD72
:1085B0006C0B0000B5050000DA6E0108F7B5009CF1
:1085C0000F4600262578641C002D05D0FFF7EAF938
:1085D0000068405DC007F5D12B2D02D02D2D18D09D
:1085E000641E39462046029A00F006F9002F04D096
:1085F0003968A14201D1009939607105022400292E
:108600000BDA4042002803DD07F08EF80460A00773
:10861000FEBD012080020643E3E70028F8DA07F0F8
:1086200083F804600048FEBDFFFFFF7F002904DAE5
:10863000401C490001D140084000704770B400243C
:10864000050C05D11024000402D1002921D01124E9
:10865000050E01D100020834050F01D10001241DCF
:10866000850F01D18000A41C002801DB4000641CA0
:10867000002908D020252E1B0D46F540A14000D032
:1086800001212943084301061B1B000ADB1D02D5FB
:10869000002070BC7047DB05181880180029F8DA34
:1086A000401C4900F5D170BC40084000704710B52F
:1086B000002B08DA0024401C614192185B411A43E8
:1086C00001D14008400010BDF0B51FB482B005468E
:1086D0000C0003D0084606F0ADFF02E006F0AAFF4A
:1086E00020300246009021462846FFF7F0FE049B0A
:1086F000059A04460F4618431143084314D0184600
:1087000010431BD0009840210A1A18460599FFF71C
:10871000EEFE05460E46009A05990498FFF7D7FE2F
:10872000084305D0012004E02046394607B0F0BDDB
:108730000020C11705430E432C43374300990E9880
:108740006305401A7905E40A00220C43FD0A0A3049
:1087500002D500200146E9E70105101969410C9C8A
:108760000D9D00196941FFF7A2FFDFE74A000903E9
:108770000123090B1B0519430A4B10B5520D9A42F0
:1087800002DA0020014610BD064B34339A4203DC66
:108790009A1AFFF7ACFE10BD034BD218FFF797FEF5
:1087A00010BD0000FF030000CDFBFFFF10B5002946
:1087B00004DB0124E40740428C412146002B04DB0A
:1087C0001C460123DB075242A341994200D190424B
:1087D00010BD0000064C0125064E05E0E36807CCFD
:1087E0002B430C3C98471034B442F7D3FFF76CF896
:1087F00080780108A0780108F7B582B0029C0027B4
:108800002078641C15460197302802D0002D15D021
:1088100015E020780127641C782804D0582802D05D
:10882000002D09D00BE0002D01D0102D07D100271D
:1088300010252078641C02E0082500E00A250026A7
:10884000009610E00099012769430818020C294698
:1088500080B2714300908E183804864201D3012003
:1088600001902078641C294600F019F80028E9DA04
:108870000398002805D0002F01D0641E00E0029C60
:1088800004600198002806D006F04EFF0221016026
:10889000C81E05B0F0BD009930040843F9E73A2836
:1088A00000D23038202302469A43412A01D3104691
:1088B0003738884201D30020C043704770B58C1808
:1088C0000578401C6B075B0F01D10378401C2A110F
:1088D00006D10278401C03E006780E70401C491C4B
:1088E0005B1EF9D12B0705D40023521E0DD40B704B
:1088F000491CFAE70378401CCB1A921C03E01D7850
:108900000D70491C5B1C521EF9D5A142D8D3002022
:1089100070BD0000F0B585B0054614216846FFF72C
:10892000A4FA2E4F00246E46284603F02BFD014684
:10893000388C4843C117090D08180013FFF736FD9E
:10894000FFF781FD610070520A2001F025FB641CD5
:10895000E4B2062CE8D3062168460DF021F96846FA
:108960004188808809186846C2880089101808184C
:108970008008FFF726FD0646012D0ED018488542D7
:1089800016D13046FFF773FD04460D4601F02CFD6D
:10899000014622462B4613A018E0FFF768FD044667
:1089A0000D4601F021FD014622462B4613A00DE0A5
:1089B000184885420CD13046FFF759FD04460D4654
:1089C00001F012FD014622462B4613A006F00EFED2
:1089D0003046FFF738FD80B205B0F0BD88070020B3
:1089E000020000045B25645D6164635F6D5628329C
:1089F000293A252E32660D0A000000005B25645DD1
:108A00006164635F6D562831293A252E32660D0A5E
:108A100000000000100000105B25645D6164635F6E
:108A20006D562833293A252E32660D0A00000000C3
:108A300038B50446064805490068FEF759FF60430B
:108A400000E0401E00900028FBD138BD40420F00DE
:108A50005C240020F8B50446006881688907890F06
:108A6000012902D10168C90722D18168114A102663
:108A70001140012500290ED1816829438160012020
:108A8000FFF7D6FF01F0B0FC07460CE001F0ACFCAC
:108A9000C01B0A2807D9606D30436065A06D28436C
:108AA000A0650120F8BD20680068C043C007EDD173
:108AB0000020F8BD1700008070B5064600240CF0B9
:108AC00015FB2BA13046FFF719FA00281AD029A16F
:108AD0003046FFF713FA002815D0274D18206043C1
:108AE00029583046FFF7D8F9002810D023A1304686
:108AF000FFF7D2F9002810D018204443601981688C
:108B00003046884770BD304607F03CFF70BD641C9E
:108B1000E4B21F2CE2D9012070BD19A13046FFF745
:108B2000BBF900280AD0182044436019C1683046B8
:108B300088470028F0D108F063FC16E011A1304608
:108B4000FFF7AAF900280AD001F04EFC01461820D0
:108B50004443601942690CA006F048FD05E0182066
:108B600044436019016930468847002070BD000009
:108B70004154000041543F00D06A01083D3F0000CD
:108B80003D0000003F0000005B25645D25730D0A79
:108B900000000000F8B5484F00222021384601F0BF
:108BA0001CFC7D20C00001F0F7F94448434CC0791B
:108BB00001250226143C312806D0332804D032285F
:108BC0001FD035285BD070E004F0ECF90CF01AFCF3
:108BD000012806D125703AA006F008FD142001F006
:108BE000DBF90CF02DFD012806D126703AA006F025
:108BF000FDFC142001F0D0F92078002837D13CA0EA
:108C000030E000F0C5FD00F0FFFD642001F0C4F984
:108C10008021384601F0D4FB002812D004F0C2F9BC
:108C200002200DF007FF3949884206D2657038A04E
:108C300006F0DCFC142001F0AFF9607800280CD0BD
:108C400015E066703AA006F0D1FC142001F0A4F9FA
:108C500000F080FD00F0BAFD09E006F0B3F901284C
:108C600009D03FA006F0C2FC142001F095F9474856
:108C700001F0C4FE19E00320607045A0F2E706F0A1
:108C80008DFC06F05DFC00F01FFEFF20F53001F0CA
:108C900083F900F019FE06F071FC06F041FC43A0D8
:108CA00006F0A4FC142001F077F9012220213846B7
:108CB00001F093FBF8BD00000004005058070020AD
:108CC0005573652053656E736F7220697320534826
:108CD0005432780D0A0000005573652053656E7399
:108CE0006F722069732053485433780D0A000000D6
:108CF0004E6F204932432064657669636520646560
:108D00007465637465640D0A00000000E7030000E9
:108D10005573652053656E736F72206973204C49DB
:108D20004441525F4C6974655F763348500D0A00C8
:108D30005573652053656E736F7220697320756C6F
:108D4000747261736F6E69632064697374616E63BA
:108D500065206D6561737572656D656E740D0A00D1
:108D60004E6F2064697374616E6365206D65617315
:108D70007572656D656E74206465766963652064DF
:108D8000657465637465640D0A000000E0260020C8
:108D90005573652053656E736F7220697320756C0F
:108DA000742073656E736F720D0A00005573652031
:108DB00053656E736F722069732048583731310DD7
:108DC0000A00000010B5024801F016F810BD0000BE
:108DD000C828002030B5446C1C252C400125A54036
:108DE000046C6560046863608368102B036803D0BB
:108DF00099600068C26030BD9A600068C16030BD93
:108E0000FEB5044600F040FA2146442000F048FA3E
:108E10002F4E304601F0C0F8204600F035FA2146CA
:108E2000BE2000F03DFA204600F0E4F90546204659
:108E300000F0E0F9052819D1502D17D1204600F097
:108E400023FA2146442000F02BFA304601F0A4F822
:108E5000204600F019FA2146BE2000F021FA2046F3
:108E600000F0C8F90546204600F0C4F9000200B23F
:108E7000284308D5C043401CFFF7AAFA0022154B2F
:108E8000FFF79EF905E0FFF7A3FA0322D243FFF7AD
:108E900077FAFFF700FB0546FFF7E9FA06460F46AB
:108EA00001F0A2FA014622460BA00197009606F0B7
:108EB0009DFB1148012C04D0022C04D0032C04D0BB
:108EC00004E0056002E0456000E085602846FEBDE4
:108ED000EE0200000000B0BF5B25645D44533138F2
:108EE000423230282564292074656D702069732012
:108EF000252E3266200D0A00D407002030B500224E
:108F00001949032387B0012813D00524012524071C
:108F100002281FD003281BD1C86A2843C862C86A28
:108F2000284005900815009069460193029220465A
:108F30000CE0CC6A02200443CC62C96A0193014070
:108F400005910820009002926946084801F076F9E0
:108F500007B030BDC86A2843C862C86AC007C00FDE
:108F6000059001204002DEE700100240000400509E
:108F700010B500230122194986B0012812D005241A
:108F8000240702281FD003281BD1C86A1043C862D7
:108F9000C86A104005900815009069460193029236
:108FA00020460CE0CC6A02200443CC62C96A0193DB
:108FB000014005910820009002926946084801F09E
:108FC0003DF906B010BDC86A1043C862C86AC00740
:108FD000C00F059001204002DEE7000000100240B3
:108FE0000004005010B501221849022386B0012860
:108FF00012D00524240702281ED003281AD1C86ADB
:109000001043C862C86A1040059008150090694670
:109010000393019220460BE0C86A1843C862C86AED
:109020006946184005900820009003930192084873
:1090300001F004F906B010BDC86A1043C862C86ADE
:10904000C007C00F059001204002DFE7001002407A
:109050000004005070B50024012806D005252D0716
:1090600002282AD003284ED074E00120FFF780FFA9
:10907000394D04E0641CE4B2012000F0ABF9082192
:10908000284601F09DF9002802D0642CF2D35FE05D
:10909000642C5DD2002404E0641CE4B2012000F0E2
:1090A00099F90821284601F08BF9002802D1F02C0B
:1090B000F2D34DE0F02C4BD24CE00220FFF758FFEA
:1090C0000126760204E0641CE4B2012000F082F97B
:1090D0003146284601F074F9002802D0642CF2D3FE
:1090E00036E0642C34D2002404E0641CE4B2012095
:1090F00000F070F93146284601F062F90028D9D114
:10910000F02CF2D324E00320FFF732FF0126B60251
:1091100004E0641CE4B2012000F05CF9314628460A
:1091200001F04EF9002802D0642CF2D310E0642C38
:109130000ED2002404E0641CE4B2012000F04AF9DD
:109140003146284601F03CF90028B3D1F02CF2D387
:10915000012070BD002070BD0004005070B50128D2
:1091600006D005242407022813D003282BD025E09D
:109170000120FFF737FF1E4C00220821204601F096
:109180002CF90A2000F026F90120FFF7F1FE082152
:109190000EE00220FFF726FF01256D02002229467E
:1091A000204601F01AF90A2000F014F9022018E014
:1091B000204601F005F9012817D000222D2000F0EB
:1091C00009F9104670BD0320FFF70CFF0125AD0221
:1091D00000222946204601F000F90A2000F0FAF8A2
:1091E0000320FFF7C5FE2946E2E70122E6E700007B
:1091F0000004005070B5002506462C463046FFF7A7
:10920000ADFFA0402843641CE4B2C5B2082CF5D3DE
:10921000284670BD70B51A4D012814D005242407C6
:10922000022825D0032822D1FFF7DCFE00220126E8
:10923000B6023146204601F0D0F8284600F0CAF8C0
:10924000012231460DE00120FFF7CCFE0D4C00223B
:109250000821204601F0C1F8284600F0BBF80122A1
:109260000821204601F0B9F80F2000F0B3F870BDD6
:109270000220FFF7B7FE002201267602D9E70000A0
:10928000EE0200000004005010B50446FFF7C2FFD4
:109290002046FFF7DFFE2146CC2000F001F810BD8C
:1092A000F8B5044601291FD005252D07022949D00C
:1092B000032946D10320FFF795FE00260127BF02B0
:1092C000E007C00F640800286BD00022394628460A
:1092D00001F083F8082000F07DF801223946284685
:1092E00001F07BF83A206AE00120FFF77BFE384E60
:1092F0000025E007C00F640800280ED000220821D6
:10930000304601F06AF8082000F064F801220821D4
:10931000304601F062F83A200DE000220821304684
:1093200001F05BF8462000F055F801220821304694
:1093300001F053F8022000F04DF86D1CEDB2082D3D
:10934000D7D3F8BD0220FFF74DFE002601277F028C
:10935000E007C00F640800280ED0002239462846D6
:1093600001F03BF8082000F035F801223946284684
:1093700001F033F83A200DE000223946284601F08A
:109380002CF8462000F026F801223946284601F044
:1093900024F8022000F01EF8761CF6B2082ED7D36F
:1093A000F8BD00223946284601F017F8462000F0A3
:1093B00011F801223946284601F00FF8022000F08A
:1093C00009F8761CF6B2082E00D279E7F8BD000045
:1093D0000004005006E00021491CC9B20229FBD359
:1093E000401E80B20028F6D1704710B5FF20013032
:1093F00000F018FF802000F015FF0120C00300F0EE
:1094000011FF10BDF0B587B0054614216846FEF780
:109410002CFD02210024394801228B03032610274A
:10942000002D06D0012D22D0022D30D0032D3ED0AC
:109430005AE0C56A1543C562C26AD207D20F0592C7
:10944000C26A0A43C262C06A009308400590694636
:10945000019602942A4800F0F1FE05200194694625
:1094600000070097029400F0E9FE07B0F0BDC56A5E
:109470001543C562C26AD207D20F0592C26A0A4377
:10948000C262C06A0093084005901E481EE0C56A8B
:109490001543C562C26AD207D20F0592C26A0A4357
:1094A000C262C06A00930840059017480EE0C56A82
:1094B0001543C562C26AD207D20F0592C26A0A4337
:1094C000C262C06A00930840059010480190694646
:1094D00002940B4800F0B2FE052069460007009791
:1094E0000196029400F0AAFE00220221072001F05A
:1094F00045FB072001F036FBB7E7000000100240F3
:109500000004005000003110000021100000111074
:109510007047000010B5084900224A6107494B68AE
:109520004C1523434B604B68082423434B60C00910
:10953000C001026010BD0000644400200020024011
:1095400010B5214A00219069C305204804D541691E
:10955000022319434161911593699B0505D5436920
:109560000124234343616302194393695B0505D5D5
:109570004369082423434361E301194393691B05AD
:1095800005D5436904242343436163021943936966
:109590009B0405D5436910242343436163021943A7
:1095A00093699B0304D5446920231C4344611943F8
:1095B0009369DB0305D54369402423434361A0023B
:1095C0000143916110BD000000200240644400206E
:1095D00070B5054600F008FF0646184C0AE0681C06
:1095E00008D0002D04D000F0FFFE801BA84201D956
:1095F000032070BDA069C007F1D1A069800701D523
:109600000220A061A069C00511D4A06980050ED414
:10961000A06940050BD4A069000508D4A0698004A6
:1096200005D4A069800302D4A069C00303D5FFF765
:1096300087FF012070BD002070BD000000200240A7
:1096400070B50D460646002400F088FD094A00204A
:10965000956041C20849074800F012FD002806D075
:10966000641CE4B2032CF5D104A005F0BFFF00F0A8
:1096700049FD70BD7C350020C00700206572726F07
:109680007220696E204572617365206F706572612A
:1096900074696F6E0A0D0000F8B516460F46054650
:1096A000002400F05BFD14E0A0003A582946022097
:1096B00000F036FD002809D008A005F097FF00F063
:1096C0001BFD01460CA005F091FF04E0641CA4B250
:1096D0002D1DB442E8D300F015FDF8BD6572726F20
:1096E0007220696E205772697465206F70657261AF
:1096F00074696F6E0A0D000077726974655F657238
:10970000726F725F666C61673A2578000168024883
:109710004160406870470000C007002000B587B076
:1097200014216846FEF7A1FB0948C16A01221143D2
:10973000C162C06A69461040059060200090002018
:10974000019002900520000700F078FD07B000BDF1
:109750000010024000B587B014216846FEF785FB73
:109760000948C26A02210A43C262C06A08400590E1
:109770008020009003200190002002906946034859
:1097800000F05CFD07B000BD001002400004005076
:1097900000B587B014216846FEF767FB0948C26A26
:1097A00002210A43C262C06A0840059080200090EE
:1097B00000200190012002906946034800F03EFD20
:1097C00007B000BD001002400004005000B587B093
:1097D00014216846FEF749FB0948C26A02210A4380
:1097E000C262C06A084005904020009003200190AA
:1097F000002002906946034800F020FD07B000BD3C
:10980000001002400004005000B587B014216846E3
:10981000FEF72BFB0A48C26A02210A43C262C06AF1
:109820000840059040200090012001900020029007
:10983000032003906946034800F000FD07B000BD17
:109840000010024000040050F0B58DB004462C21F9
:109850006846FEF70AFB2046FEF778FB0C90601D79
:10986000FEF774FB0B9020460830FEF76FFB0746AF
:1098700020460B30FEF76AFB064620460E30FEF708
:1098800065FB054620461130FEF760FB0146074A9E
:109890000C98801805900B986A46401E0490E2C20E
:1098A0006846FEF789F80DB0F0BD000094F8FFFFA0
:1098B00008B500906846FEF7B9FA014601A005F028
:1098C00095FE08BD2573000010B502F0CBFF0149DD
:1098D000486010BDE007002070B502F0C3FF0C4CDB
:1098E00000252060616888420ED0401AFEF75EFDB8
:1098F0000849C96AFEF774FBFEF78CFD0649A060B3
:1099000040180649884200D3A560A06870BD0000D9
:10991000E007002088070020A0860100410D030019
:10992000F8B5054604464035287C0026012808D0B5
:1099300001202874206881688907890F01290ED1C8
:1099400001E00220F8BD0168C90708D0606D202140
:10995000084360650126002028743046F8BD616D1B
:10996000FF2201329143022211436165C1688907D8
:10997000890F0091C16889088900C16020688168E9
:1099800092071143816000F02FFD07460EE000F0C2
:109990002BFDC01B0A2809D9606D022188431021C4
:1099A00008436065002028740120F8BD20688068A5
:1099B0000028ECDB2068C168009A1143C160606D2B
:1099C00080088000401C6065C5E70000F8B50646C9
:1099D0000D464036317C01290DD0012131740168DA
:1099E0008A68520709D5416D202211434165002044
:1099F00030740120F8BD0220F8BD174B6A68D80505
:109A000047109A42154C8A6A2B6812D05B035B0B95
:109A10001A438A622968490305D5A1680143A160F8
:109A20000A20FFF705F82868800312D5A06838439C
:109A30000EE05B035B0B9A438A622968490302D5F7
:109A4000A1688143A1602868800302D5A068B8435B
:109A5000A06000203074F8BD011000000027014014
:109A60000068006C7047000070B5040006D0606D9F
:109A7000264600254036002802D006E0012070BDB1
:109A8000A5653574204600F0D3F8606DC00603D498
:109A900021688868400705D5606D1021084360651E
:109AA0003574EBE7606DFF220132904302221043D0
:109AB000606588688207920F5B48012A02D10A68B4
:109AC000D2072BD1032362689B079A4205D05B42E1
:109AD0009A4202D05B009A4209D10A699200920828
:109AE0000A6121680A6963681A430A610CE00A691D
:109AF000920092080A6181680F229204914381606A
:109B000081686268114381602168CA6818239A439A
:109B1000CA602168CA68A3681A43CA6081680122C2
:109B20005206914381608168A28E52061143816082
:109B300020688168C90004D481680122120711439A
:109B400081602068C168394A1140C1602069E168BC
:109B5000022825D000200143204620300278037BD4
:109B600052035B001A431143226B1143A269920313
:109B70001143E269D20311432268D3681943D160CB
:109B8000616A0A46FF3AC23A05D0A26A11432268C6
:109B9000D3681943D16042780121012A02D00BE039
:109BA0000420D8E70078002823D0606D20221043DD
:109BB0006065A06D0843A065E06B012820681FD098
:109BC0000169C90703D0016949084900016120689A
:109BD0004169C908C900416120684169A26B11430C
:109BE0004161A565606D80088000401C60650020B3
:109BF00070BD2068C26801231B041A43C260DBE702
:109C00000269FF239B009A43026120680269236C6A
:109C1000A66C1A43636C33431A43026120680269DD
:109C20000A430261D3E70000002701401902FEFF4A
:109C300000680449884204D10348416B421511432E
:109C4000416370470024014000100240F8B504460B
:109C50004069254640350E4608280BD02068C0686C
:109C6000C00709D0606D202108436065002028747A
:109C70000120F8BD082700E00C2700F0B5FB00909C
:109C800011E0701C0FD0002E05D000F0ADFB009944
:109C9000401AB04207D9606D042108436065002076
:109CA00028740320F8BD206800683842E9D0606D50
:109CB00001214902084360652068C16809058A0FCF
:109CC0000C21002A1BD12022125D002A17D1026824
:109CD000120714D5826853070122002B08DB436862
:109CE0008B434360606D130298431043606506E048
:109CF000606D202318436065A06D1043A065A069C6
:109D0000002801D1206801600020F8BD70B504462C
:109D1000216800208968490721D425464035297CDF
:109D200001291CD001212974E169012904D02046B0
:109D3000FEF790FE002811D1616D0A4A1140FF2202
:109D40000132114361650021A165297422681C213B
:109D5000116021688A6804231A438A6070BD02205A
:109D600070BD0000FEF1FFFF30B5014620314A7999
:109D70000023022A04D00422C2630B71012030BDEB
:109D8000026814680E25AC43146002681468640805
:109D900064001460446C1C22144001221546006CBF
:109DA000A54045604A7118460B7130BD70B500245E
:109DB000014620314A79022A03D00421C1630124DB
:109DC00018E0026813680E25AB431360026813683D
:109DD0005B085B001360436C1C2213400122154694
:109DE0009D40036C5D604A7100220A71816B0029FD
:109DF00000D08847204670BDF0B4016C0D68016842
:109E00000C68466C1C2304221E401746B7402F42A4
:109E10000ED067070CD50C68A40602D40C689443D6
:109E20000C60416C19408A40016C4A60016B1AE079
:109E30000227B74002462F402032002F17D0A70735
:109E400015D50C68A40605D40C680A25AC430C6033
:109E500001215171446C02211C40036CA1405960E6
:109E600000211171C16A002918D0F0BC08470827E9
:109E7000B7402F4212D0240710D50C680E25AC43F2
:109E80000C60446C01211C400B46A340046C6360D1
:109E9000C163517100211171416BE4E7F0BC70475F
:109EA00070B504003CD01F48256814212818FDF720
:109EB0001FFD800060641C48206402212046203081
:109EC0000246417129681948E3680140A068666943
:109ED0001843236933431843A3691843E3691843BC
:109EE000236A1843084328600121A0688903884237
:109EF00010D00D488030836A656C1C210D400F2600
:109F0000AE40B3438362656C63680D40816AAB40C9
:109F10000B4383620020E06301215171107170BD19
:109F2000012070BDF8FFFDBF000002400F80FFFF61
:109F3000F8B504468C46203001790025012909D066
:109F40000126067141790027012905D007710225F4
:109F50002846F8BD0220F8BD02214171E763206860
:109F6000016849084900016061462046FEF732FF5A
:109F7000206B00282068016801D00E2205E0042231
:109F800091430160206801680A2211430160206842
:109F9000016831430160DBE770B5044600F024FA44
:109FA0000546601C02D004480078241800F01CFA12
:109FB000401BA042FAD370BD5024002070B5074D5D
:109FC00004462846FFF704FB002805D104494861F0
:109FD00020602846FFF7FCFA70BD000050C3000067
:109FE000644400200348416801221143416000207D
:109FF0007047000000200240F8B5124D0746287C4B
:10A0000014460E46012807D0012028740E48FFF799
:10A01000DFFA002802D00CE00220F8BD00216961BF
:10A02000022F09D0012F09D0002F09D00648FFF7D1
:10A03000CFFA00212974F8BD3460FAE73480F8E7DC
:10A040003470F6E76444002050C3000009494868B2
:10A05000C0070DD0EFF3108072B6074ACA60074AF6
:10A06000CA6080F310884868C00701D0012070479B
:10A070000020704700200240EFCDAB8905040302A9
:10A08000F8B51A4E0546307C0F46012807D001204E
:10A0900030741748FFF79CFA010002D021E002203B
:10A0A000F8BD0020C04338606C6814E02046FFF71C
:10A0B00031FA0F48FFF78CFA01460E484268082330
:10A0C0009A434260426843159A434260002901D096
:10A0D0003C6006E08034A8686A68C0018018A0422D
:10A0E000E4D8002030740846F8BD00006444002025
:10A0F00050C3000000200240014840697047000042
:10A1000064440020054841680222114341604168CF
:10A1100001221143416000207047000000200240EE
:10A12000F8B50C4C1646207C0F46012808D00120BB
:10A1300020740948FFF74CFA0025002802D006E0F9
:10A140000220F8BD65613E600348FFF741FA2574BF
:10A15000F8BD00006444002050C30000114841686D
:10A16000C9070BD0EFF3108172B60F4AC2600F4AD5
:10A17000C26081F310884168C9070ED14168890720
:10A180000DD5EFF3108172B6094A0261094A0261E6
:10A1900081F310884068800701D5012070470020B6
:10A1A0007047000000200240EFCDAB890504030298
:10A1B000BFAE9D8C1615141370B50125ED03012358
:10A1C0000224144A1449A8421AD1144D1448EE79B5
:10A1D000362E11D08E78012E0DD19679123E182E82
:10A1E00009D3CE78042E06D108269671CC70AB71B7
:10A1F000037002F0EDFC70BD4168491C416070BD08
:10A20000C51FF93D03D08028F9D1D37470BD4C71BE
:10A2100070BD000000000020FC0E00205807002048
:10A220008807002010B504494A69024202D04861FB
:10A23000FFF7C2FF10BD000000040140FCB5002381
:10A240000124A7E027462A469F403A406FD04D6838
:10A25000012D05D0022D03D0112D01D0122D16D1C4
:10A2600085680326AC465D00AE46AE406546B54304
:10A27000AC46CE687546AE4065462E43866046685D
:10A280000D79BE43ED06ED0F9D4035434560C66830
:10A290005F000325BD40AE46AE4335468E68BE40E6
:10A2A0002E43C6604E68022E01D0122E14D1DE0855
:10A2B000B60036180196366A5D07B446EE0E0F25D5
:10A2C000B54000966646AE43B4460D69009EB54063
:10A2D00066462E43019D2E6206687546AE430D7993
:10A2E000AD07AD0FBD40354305604D68ED0050D55D
:10A2F0002B4D6E6B26436E639E082A4DB600751972
:10A30000AC46AD689E07360F0F27B740BD43052703
:10A310003F07B84201D100271AE0234FB84201D1CC
:10A32000012715E0214FB84202D1022710E030E0AA
:10A330001F4FB84201D103270AE01E4FB84201D196
:10A34000042705E01C4FB84201D1052700E006278D
:10A35000B7402F436546AF60184D2E684F6896434F
:10A36000FF0300D516432E606E684F689643BF0307
:10A3700000D516436E60AE684F689643FF0200D565
:10A380001643AE60EE684F689643BF0200D5164391
:10A39000EE605B1C0A681546DA4000D052E7FCBD4F
:10A3A000001002400000014000040050000800506E
:10A3B000000C005000100050001C00500004014030
:10A3C0000069084000D001207047426913460B40E5
:10A3D0001B0491430B4383617047002A01D08161C4
:10A3E0007047816270470000014880687047000034
:10A3F0005024002070B5024640325378202B1CD1E7
:10A400001378012B19D0012313702424547004688D
:10A4100025689D432560046825681E03B5432560B3
:10A42000046825680D4325600068016819430160D0
:10A43000202050700020107070BD022070BD70B5DB
:10A44000024640325378202B1BD11378012B18D0B1
:10A45000012414702423537003681D68A5431D60F4
:10A4600005682B680F263602B34309021943296099
:10A4700000680168214301602020507000201070A6
:10A4800070BD022070BD000070B5040006D02546E6
:10A49000403568780026002802D005E0012070BD14
:10A4A0002E70204600F0ACFA242068702068016805
:10A4B0004908490001600F21606809068843216846
:10A4C000086121688A680120C00382438A60E168CC
:10A4D0000129A16808D021229202114322689160CB
:10A4E000E168022902D005E00143F7E70121226873
:10A4F000C902516021684A680F4B1A434A602168BB
:10A50000CA688243CA60616920690843A169090277
:10A5100008432168C860216AE0690843216808602F
:10A520002068016801221143016066642020687080
:10A530002663AE70002070BD00800002FFB50546A6
:10A5400004464035687881B0202878D128780128E1
:10A5500075D001202870FFF747FF074601220090C1
:10A560001923D103204602F07DFA00283CD1222095
:10A5700068701020A87000266664039860620498D2
:10A5800060856663618D2F48FF2903D9FF222285EC
:10A5900000903BE0618D218500903DE020460299CE
:10A5A00002F04CFA16E002F085FA00281CD120686F
:10A5B000406A616A0870606A401C6062208D401EBB
:10A5C00081B22185608D401E6085608D002801D09C
:10A5D00000290CD0608D0A9900283A462046E2D125
:10A5E00002F0A8FA00281CD0012005B0F0BD0097A9
:10A5F0000022802120460A9B02F034FA0028F3D181
:10A60000608DFF2805D9FF222285009601231B06B5
:10A61000C4E7608D20850096208D0123C2B25B06C1
:10A62000BCE721682020C86121684A68064B1A40AF
:10A630004A606870AE702E700020D6E7FFE70220F7
:10A64000D3E700000024008000E800FEFFB50546C7
:10A6500004464035687881B0202878D128780128D0
:10A6600075D001202870FFF7BFFE07460122009039
:10A670001923D103204602F0F5F900283CD121200E
:10A6800068701020A87000266664039860620498C1
:10A6900060856663618D2F48FF2903D9FF222285DB
:10A6A00000903BE0618D218500903DE020460299BD
:10A6B00002F0C4F916E002F063FA00281CD1606AC7
:10A6C000216800788862606A401C6062608D401E6C
:10A6D0006085208D401E80B22085618D002901D0CB
:10A6E00000280CD0608D0A9900283A462046E2D115
:10A6F00002F020FA00281CD0012005B0F0BD009720
:10A700000022802120460A9B02F0ACF90028F3D1F8
:10A71000608DFF2805D9FF222285009601231B06A4
:10A72000C4E7608D20850096208D0123C2B25B06B0
:10A73000BCE721682020C86121684A68064B1A409E
:10A740004A606870AE702E700020D6E7FFE70220E6
:10A75000D3E700000020008000E800FEFFB50546BA
:10A7600004464035687883B0202875D10C980028BD
:10A7700014D00D98002811D0287801286CD0012021
:10A780002870FFF731FE0746012200901923D103FC
:10A79000204602F067F9002874D103E0012040024E
:10A7A00060646FE0222068704020A8700026666414
:10A7B0000C9860620D98608566630E980090019712
:10A7C00004A90EC9204602F0D9F8002801D02E7045
:10A7D00058E0618D3448FF2905D9FF2222850123E5
:10A7E0001B06009006E0618D21850090208D0123DD
:10A7F000C2B25B062046049902F020F900970022BD
:10A80000042120460E9B02F02DF900283AD1206841
:10A81000406A616A0870606A401C6062208D401E58
:10A8200081B22185608D401E6085608D00281FD01B
:10A8300000291DD100970022802120460E9B02F0A6
:10A8400011F900281ED1608DFF2806D9FF2222852C
:10A8500001231B06009607E024E0608D208500960A
:10A86000208D0123C2B25B062046049902F0E6F86F
:10A87000608D0028C2D13A4620460E9902F05AF95E
:10A88000002802D0012007B0F0BD20682021C1615E
:10A8900020684268054B1A4042606970AE702E70A5
:10A8A0000020F0E70220EEE70024008000E800FE30
:10A8B000FFB5054604464035687883B0202872D13C
:10A8C0000C98002814D00D98002811D02878012861
:10A8D00069D001202870FFF787FD0746012200900C
:10A8E0001923D103204602F0BDF8002871D103E0FE
:10A8F0000120400260646CE0212068704020A87054
:10A90000002666640C9860620D98608566630E98F8
:10A910000090019704A90EC9204602F05FF80028B4
:10A9200001D02E7055E0608DFF2805D9FF222285C9
:10A9300001231B06009606E0608D20850096208D81
:10A940000123C2B25B062046049902F077F83A462A
:10A9500020460E9902F014F900283AD1606A216865
:10A9600000788862606A401C6062608D401E60856D
:10A97000208D401E80B22085618D00291FD00028C7
:10A980001DD100970022802120460E9B02F06AF81C
:10A9900000281ED1608DFF2806D9FF2222850123C1
:10A9A0001B06009607E024E0608D20850096208D30
:10A9B0000123C2B25B062046049902F03FF8608D85
:10A9C0000028C4D13A4620460E9902F0B3F8002878
:10A9D00002D0012007B0F0BD20682021C1612068AD
:10A9E0004268054B1A4042606970AE702E700020BC
:10A9F000F0E70220EEE7000000E800FE70470000EC
:10AA000010B586B0044614216846FDF72EFA1049A9
:10AA10002068884219D10F4CE16A02200143E162AB
:10AA2000E16A01400591C0200090122001210190AF
:10AA3000032002910491039069460748FFF7FEFB4B
:10AA4000A06B012149050843A06306B010BD0000BA
:10AA500000540040001002400004005070B5040093
:10AA60000FD021681348086021681348086003CCA0
:10AA700041602068083C21688860FFF7B5FC054606
:10AA800008E0012070BDFFF7AFFC401B292801D969
:10AA9000032070BD2068C0680028F4D120680269D6
:10AAA000E1688A4201D0016101E0044901600020AF
:10AAB00070BD0000CCCC000055550000AAAA0000D3
:10AAC000006802490160002070470000AAAA000047
:10AAD00002488168027889188160704750240020FC
:10AAE00010B5084800240168402211430160204647
:10AAF00000F00AF8002801D0012401E000F026F857
:10AB0000204610BD0020024070B504460D4D7D204A
:10AB10002978C000FCF7ECFE01460B480068FCF702
:10AB2000E7FE01F089F8002809D1042C07D20022A1
:10AB30002146401E00F022F800206C6070BD01200C
:10AB400070BD0000502400205C2400200448416BAC
:10AB5000012211434163816B0204114381637047F9
:10AB600000100240002805DBC106C90E0120884004
:10AB7000014908607047000000E100E010B504F0F2
:10AB800095FD10BD02480168021511430160704730
:10AB9000007000400248016842151143016070478F
:10ABA000007000400248016882151143016070473F
:10ABB00000700040F0B5154A1368154D54152D6A04
:10ABC0002340ED07ED0F002B04D0002D02D01668B6
:10ABD000A64316601668B608B600064316600D4810
:10ABE000076904263743076101290DD040BF20BF04
:10ABF00020BF0169B1430161002B04D0002D02D0B8
:10AC0000106820431060F0BD30BFF2E700700040D4
:10AC10000000014000ED00E0F8B504460078002790
:10AC20005D4D800671D55C4E403EB06BC00004D4D3
:10AC3000B06BA9050843B063012758480168C905EE
:10AC400011D40168821511430160FFF7CDFB00901C
:10AC500005E0FFF7C9FB0099401A642837D84F4830
:10AC60000068C005F5D532680321090560680A400F
:10AC70000140914208D08103890F032904D1316832
:10AC8000890301D50120F8BD2A69032109040A407E
:10AC900022D0084090421FD0207880061CD5286919
:10ACA0002A6988430121C9040A432A612A698A431F
:10ACB0002A612861C0050FD5FFF796FB009008E0D8
:10ACC000FFF792FB0099411A3548814201D90320D0
:10ACD000F8BD28698005F3D561688803800F0328D3
:10ACE00005D132680005824301400A433260286979
:10ACF000032261681204114008432861002F04D028
:10AD0000B06B012109078843B0632078C00705D0E4
:10AD1000E868A168800880000843E8602078800720
:10AD200005D5E8680C218843E1680843E86020788D
:10AD3000400706D5E8680321890288432169084352
:10AD4000E8602078000706D5E868032109038843F6
:10AD500061690843E8602088C00506D5E8680321DA
:10AD600009048843A1690843E8602078400606D5B5
:10AD7000E868012189068843216A0843E860207851
:10AD8000000606D5E868032189048843E169084381
:10AD9000E8600020F8BD0000401002400070004054
:10ADA00088130000F8B50E46050038D05E480068EC
:10ADB000C007C00FB04214D25B4C2068400840006E
:10ADC00030432060FFF710FB074605E0FFF70CFB60
:10ADD000C11B564881427AD82068C007C00FB042D4
:10ADE000F4D12878524C800705D5E068F0218843DB
:10ADF000A9680843E0602878C00752D06868022834
:10AE000006D0032807D0216801280AD0890504E06C
:10AE10002168890301E021688901002903DB012001
:10AE2000F8BD4907F9E7E168890889000143E16055
:10AE3000FFF7DAFA0746686802280AD0032814D018
:10AE400001281ED029E0FFF7CFFAC11B3748814205
:10AE50003DD8E0680007800F0228F4D121E0FFF719
:10AE6000C3FAC11B3148814231D8E0680007800F26
:10AE70000328F4D115E0FFF7B7FAC11B2B48814234
:10AE800025D8E0680007800F0128F4D109E0FFF71A
:10AE9000ABFAC11B2548814219D8E0680007800F32
:10AEA000F5D121480168C907C90FB14217D9016816
:10AEB0004908490031430160FFF796FA074608E068
:10AEC00005E0FFF791FAC11B1848814201D9032020
:10AED000F8BD15480068C007C00FB042F1D128780E
:10AEE000400706D5E068072109028843E96808435E
:10AEF000E0602878000707D5E0680721C902884389
:10AF00002969C9000843E06000F03AF8E168094A9D
:10AF10000906090F515CC8400749086007480068E6
:10AF2000FFF7F2FDF8BD000000200240881300008A
:10AF300000100240D06D01085C2400205424002041
:10AF4000044805490068C968044A4905490F515C2D
:10AF5000C84070475C24002000100240E96D0108E1
:10AF6000044805490068C968044A8904490F515CCE
:10AF7000C84070475C24002000100240E96D0108C1
:10AF800070B51A4AD3681A490C2018408D0004285D
:10AF90000CD04E00082810D00C2810D050680004A7
:10AFA000410F0120C003491C884070BD1068C006D5
:10AFB00001D5084670BD284670BD304670BD980268
:10AFC0000C4C000F205C1B029C0FD368641CDB033D
:10AFD00001D5314603E01268D20600D4294604F0B8
:10AFE00040FB22460023FCF7ADFC70BD0010024080
:10AFF00000093D00E06D0108FEB505007ED0F74C6C
:10B00000E7680C20E6680740012000040640287825
:10B01000C00747D0082F05D00C2F0AD1012000040B
:10B02000864206D1206880033CD568680028E5D0B8
:10B0300038E0012069680004814203D1216801439E
:10B04000216011E0052301221B049204994221682A
:10B0500002D111432160F1E7814321602168014061
:10B060000091206890432060686800280DD0FFF7A9
:10B07000BBF9009005E0FFF7B7F90099401A642882
:10B080007ED820688003F6D50CE0FFF7ADF900907C
:10B0900005E0FFF7A9F90099401A6428F0D8206864
:10B0A0008003F6D4287880075DD5E868810604D54A
:10B0B000226820210A43226088430923042F0DD0EF
:10B0C0000C2F01D1002E09D000283CD021689943D3
:10B0D00001432160FFF788F9064628E02168490707
:10B0E00001D500288AD061681F22120291432A6983
:10B0F0001202114361602168994300E0C7E10143F6
:10B100002160FFF73DFFE16809060A0FB449895C39
:10B11000C840B4490860B4480068FFF7F5FC00284F
:10B1200074D120E0FFF760F9801B0228A8D82068BE
:10B130004007F7D560681F21090288432969090281
:10B14000084360600FE02068400840002060FFF77F
:10B150004BF9064604E0FFF747F9801B02288FD819
:10B1600020684007F7D42878C00661D5002F0DD09D
:10B17000E86900284BD02068FF210131084300E036
:10B18000EAE02060FFF730F906462DE020688005F0
:10B1900002D5E8690028A5D06068072149038843E3
:10B1A000696A084360606068298C0002000A090629
:10B1B00008436060686A410B0120C003491C884055
:10B1C000E16809060A0F8649895CC840854908601C
:10B1D00085480068FFF798FC002817D128E0FFF7A2
:10B1E00003F9801B0228A1D820688005F7D5606884
:10B1F000072149038843696A084360606068298CB5
:10B200000002000A09060843606011E025E1216898
:10B21000FF20013081432160FFF7E6F8064604E095
:10B22000FFF7E2F8801B022899D820688005F7D440
:10B2300028786E4E000724D568690028306910D040
:10B24000012108433061FFF7CFF8009005E0FFF7D8
:10B25000CBF80099401A02287ED830698007F6D5CD
:10B260000FE0400840003061FFF7BEF8009005E0B5
:10B27000FFF7BAF80099401A02286DD830698007A4
:10B28000F6D42878400764D500200290A06BC00057
:10B2900006D4A06B012109070843A0630120029096
:10B2A00053480168C90511D4016882151143016032
:10B2B000FFF79AF8009005E0FFF796F80099401A1A
:10B2C000642849D84A480068C005F5D5FF20AA6817
:10B2D0000130824203D131690143316111E0012122
:10B2E0008902002A07D005231B029A4203D1326942
:10B2F0000A433261EFE73269824332613069884341
:10B300003061A86800280ED0FFF76EF8009006E0C4
:10B31000FFF76AF80099411A364881421CD8306913
:10B320008005F5D50DE0FFF75FF8009006E0FFF728
:10B330005BF80099411A2F4881420DD83069800589
:10B34000F5D40298002804D0A16B012000078143A6
:10B35000A1632878800600E07EE02ED52648A96902
:10B360004314002916D0A26801210A43A260626B2F
:10B370000A436263016A19430162FFF735F8064622
:10B3800004E0FFF731F8801B022865D8A068800729
:10B39000F7D512E0A16849084900A160016A994304
:10B3A0000162FFF721F8064604E0FFF71DF8801B55
:10B3B000022851D8A0688007F7D4A86A002868D06E
:10B3C0000C2F4FD0012636060228206816D0B04335
:10B3D0002060FFF709F8054640E000000010024039
:10B3E000D06D01085C24002054240020401002404D
:10B3F000007000408813000000000140B04320604E
:10B40000FEF7F2FF074604E0FEF7EEFFC01B02283E
:10B4100022D820688001F7D4296BE86AE2680843E3
:10B42000696BFD231B049A4311430843E0602068C5
:10B4300030432060FEF7D8FF054604E0FEF7D4FF56
:10B44000401B022808D820688001F7D521E0FEF7CC
:10B45000CBFF401B022801D90320FEBD20688001DC
:10B46000F5D416E00128F8D0E06801210904EA6A61
:10B47000014091420BD10F2189042A6B0140914276
:10B4800005D1032189050840696B884201D001205C
:10B49000FEBD0020FEBD000070B53E48FFF710FB6A
:10B4A0003D48002102793D4E012A07D17279521C94
:10B4B000D2B272711E2A01D101717171C37F012252
:10B4C000012B11D1B37D002B0ED1337CFF255B1CEA
:10B4D000DBB23374847F69356C439C4204D1317490
:10B4E0007274B2741123B3712D4B9C78002C02D06E
:10B4F000012C0BD010E0747B012C0DD1B47D002CFD
:10B500000AD10F24B471F273717305E0DC78022C58
:10B5100002D1B47D002C05D0B172047FB57D2C43DF
:10B5200018D01EE0B47A641CE4B2B4720C2CF4D3CC
:10B53000B172F479641CF471047D022C06D0032CE2
:10B5400006D0042CE9D12924B471E6E71524FBE7E1
:10B550002424F9E7448B641E2404240C448300D182
:10B560000277F27B012A10D1002D0ED1B27B062486
:10B57000521CD2B2B273407F6043904205D1B17386
:10B58000F173042098700620B07101210A2001F0A7
:10B59000A5FD70BD2C2700205807002000000020CA
:10B5A000FC0E002030B5014620310A78012A15D062
:10B5B00001220A7002234B700468CA236362046884
:10B5C0005323636203689C6820252C439C600068B9
:10B5D000FF2343624A700020087030BD022030BD56
:10B5E00010B503F0D5F810BD70B504460068816849
:10B5F0008025C90400290BDAC068C00508D520469B
:10B60000FFF7EEFF2168C8682840FF388238C8601D
:10B610002068816889040BD5C068800508D520465C
:10B62000FFF73AFF2068C168054A29408918C160C0
:10B63000012004494004486101202034607070BD3D
:10B640007FFDFFFF00040140F8B5054604462035A4
:10B65000287801281DD001202870022068702268F7
:10B66000CA205062226853205062FF200130002619
:10B67000FF2781421CD121688A6882438A60206842
:10B6800081680122120391438160FEF7ADFE0090B4
:10B6900009E00220F8BDFEF7A7FE0099411A7D20BF
:10B6A000C00081421BD82068C068C007F3D020E0EA
:10B6B000206881680122520291438160206881687C
:10B6C000120191438160FEF78FFE00900DE0FEF7BE
:10B6D0008BFE0099411A7D20C000814205D9206867
:10B6E0004762032068702E70F8BD2068C06880072C
:10B6F000EDD520684762012068702E700020F8BDEB
:10B7000010B500680B464068C021C94301400002E3
:10B71000000ECC04D870E40E5C708C06A40E0904F4
:10B72000490F9C701970002A0AD102F02BFFD870C3
:10B73000587802F027FF5870987802F023FF98702D
:10B74000002010BD30B50B460168896A5960016858
:10B7500009694904490C9960006804680F4821464A
:10B76000014088024D04800E18706D0E49065D7010
:10B77000490E99706102490E40242140D970002A77
:10B780000AD102F0FFFE1870587802F0FBFE5870E4
:10B79000987802F0F7FE9870002030BD7F7F7F0020
:10B7A000F8B5040050D0254620356878002803D12C
:10B7B0002870204600F052F8022068702168CA20E4
:10B7C0004862216853204862204602F0EFFEFF26BF
:10B7D00004270028206802D046626F7034E0816838
:10B7E0001D4A11408160216888686268A36910431E
:10B7F00022691A43104388602168E0680861206864
:10B80000016922891204114301612068C168802204
:10B810009143C1602068C16C89088900C164E169F5
:10B82000606901432068C26C1143C164206880686C
:10B8300080060BD4204600F0DDF9002806D02068F1
:10B8400046626F70002028700120F8BD20684662B3
:10B85000012068700020F8BDBFFF8FFF00B597B0D2
:10B860000420009000200A90FF20013002906846DA
:10B87000FFF7C2FB002801D0FDF74AFE20200E9002
:10B88000C0020F900EA8FFF7C7F9002801D0FDF7FE
:10B890003FFE084801690122920411430161002220
:10B8A00011460220FFF76AF90220FFF75BF917B093
:10B8B00000BD000040100240FEB50646044620369A
:10B8C00030780B4601283ED0012030700220707085
:10B8D000184620300090206800278068002A34D065
:10B8E000400600D4DF7019789D7809040D4359781B
:10B8F000DA780902120411430D430099D8690978D6
:10B9000009060D430543586999690543586808437A
:10B9100000902168CA204862216853204862FF20B5
:10B920005A6A01308021824245D12268936883435C
:10B9300093602068C2680A40FF3A823AC260FEF70C
:10B9400053FD019024E00220FEBD400600D4DF70CC
:10B95000187802F01FFE0504587802F01BFE000262
:10B960000543987802F016FE0543D8780004054395
:10B970000098007802F00EFE00060543D869C1E782
:10B98000FEF732FD0199411A7D20C00081422AD87C
:10B990002068C068C007F3D02068C561216800989E
:10B9A000486420688168FF22013211438160206869
:10B9B0008168120130E02068826801235B029A43AB
:10B9C00082602068C2680A401D495118C160FEF7B4
:10B9D0000BFD01900EE0FEF707FD0199411A7D2055
:10B9E000C000814206D92168FF20486203207070A0
:10B9F0003770FEBD2068C0688007ECD520680562FE
:10BA000021680098886420688168012252021143ED
:10BA100081602068816812011143816009480268D1
:10BA2000012149040A43026082680A438260216856
:10BA3000FF2048620120707037700020FEBD0000BA
:10BA40007FFDFFFF00040140F8B5054604462035A0
:10BA500028780B4601280FD001202870022068703A
:10BA6000002A0BD0D8789E780004064358780978CD
:10BA700000024903084317E00220F8BD5878C106C8
:10BA800003D5EF2108400A305870D87802F082FDC3
:10BA90000604587802F07EFD00020643987802F012
:10BAA00079FD06431878400306432168CA2048629E
:10BAB000216853204862204602F078FD00270028C4
:10BAC00011D111480640206846602068C168802274
:10BAD0009143C1602068806880060CD4204600F045
:10BAE00089F8002807D02168FF2048620420687088
:10BAF0002F700120F8BD2168FF2048620120687086
:10BB00002F700020F8BD00003FFFFF00F8B506468B
:10BB10000446203630780D46012822D001203070AE
:10BB200002207070206800278068002A1BD0400621
:10BB300000D4EF702978A878090408436978EA7876
:10BB4000090212041143084300902168CA20486288
:10BB5000216853204862204602F028FD002837D192
:10BB600016E00220F8BD400600D4EF70287802F0FD
:10BB700011FD0304687802F00DFD00020343A8786C
:10BB800002F008FD0343E878000403430093DCE778
:10BB900017490098084021680860206881680122E0
:10BBA0009204914381602969E868084321688A68A2
:10BBB000104388602068C16880229143C16020687A
:10BBC000806880060CD4204600F014F8002807D0C6
:10BBD0002168FF2048620420707037700120F8BD92
:10BBE0002168FF2048620120707037700020F8BD86
:10BBF0007F7F7F0070B504460068C168A022914332
:10BC0000C160FEF7F1FB7D260546F60006E0FEF773
:10BC1000EBFB401BB04201D9032070BD2068C06817
:10BC20008006F4D5002070BD02480169022211434C
:10BC30000161704700E000E0094910B5401E8842EC
:10BC400001D9012010BD074C60610321081F03F0DA
:10BC50002DFD0020A06107202061002010BD000004
:10BC6000FFFFFF0000E000E002480169022291436B
:10BC70000161704700E000E0014660310A7D012A61
:10BC800009D001220A750068026802231A43026083
:10BC9000002008757047022070477047FEB50546C2
:10BCA00004466035287D00269446012811D00123E2
:10BCB0002B752420A067206802689A4302602768D9
:10BCC000B8680322120590430843B860002902D0E7
:10BCD00015E00220FEBD6046009101902068416899
:10BCE000102291436A46928811434160206841685E
:10BCF0006A4609029279090A1206114341602068D6
:10BD0000016819430160FEF76FFB09490091034682
:10BD1000012100228905204603F0D8F8002801D02F
:10BD2000032601E02020A067002028753046FEBDD4
:10BD3000FFFFFF0170477047F8B502680446D069FD
:10BD400011689668814B05461D402023002D6CD05C
:10BD5000F7077F4DFF0FBC460D402F4379D0254696
:10BD6000C7078035002F06D0CF0504D501271762FD
:10BD70002A683A432A60820708D5F20706D0276866
:10BD800002223A622A6804273A432A60420708D509
:10BD9000F20706D02668042232622A68022632435D
:10BDA0002A6002070AD50A461A406646324305D081
:10BDB0002668082232622E6816432E60020508D5D6
:10BDC0004A0106D501222668D20232622A681A4345
:10BDD0002A602A68002A30D0800606D5880604D555
:10BDE000616E002901D0204688472868216889684B
:10BDF000490602D42821084225D0204602F079FEC7
:10BE000020688168490619D5826840218A4382608A
:10BE1000206F002812D04F498163206FFDF7C6FFC5
:10BE200000280AD0206F816B06E0850611D58D06AB
:10BE30000FD5616E77E020468847F8BD2046FFF7B2
:10BE40007AFFF8BD05E02046FFF775FF0020286067
:10BE5000F7E7256E012D56D1C50654D5CD0652D52E
:10BE6000102616622068816825464906403500295B
:10BE70002ADA226F116849680904090CE1D02F8B76
:10BE80008F42DED9698311680968890617D4016871
:10BE9000320191430160206881684908490081604E
:10BEA00020688168402291438160E367002020661A
:10BEB00020680168B1430160206FFDF755FF288BB2
:10BEC000698B401A81B21AE0298B6A8B891A6A8BB6
:10BED00089B2002AB5D00029B3D00268FF252135E8
:10BEE000AA43026020688268520852008260E367B9
:10BEF00000202066606620680268B2430260204627
:10BF0000FFF7CBFE9DE7C50208D5750206D50120D7
:10BF1000000510622046FFF70DFF92E7050605D5E4
:10BF20000D0603D5A16E002985D18AE7400688D584
:10BF3000480686D5116820464024A14311608367D6
:10BF40000021816600F01CFA7BE700000F0800006A
:10BF50002001000459EA000810B5040003D0A06FC6
:10BF6000002802D007E0012010BD002174200155F7
:10BF7000204600F027F82420A067206801684908BF
:10BF800049000160204602F04BFE0128ECD0606AB7
:10BF9000002802D0204602F0C7FC20684168092230
:10BFA000D20291434160206881682A2291438160D6
:10BFB00020680168012211430160204602F01AFD49
:10BFC00010BD0000F0B587B0064614216846FBF7A7
:10BFD0004CFF414C376800254049022001220323D1
:10BFE000A74232D18C6B47043C438C63CC6A044338
:10BFF000CC62C96A01AC01400591990200910DC45F
:10C000000720049069463648FEF718F9364C354843
:10C010002060052060601020E560A0606561A5617A
:10C020008020E5612061800120622046FDF738FF15
:10C03000002801D0FDF76CFAF466002201211D20D2
:10C04000A662FEF79BFD1D2020E0284E0424B74287
:10C0500020D14E6B27033E434E63CE6A1643CE6219
:10C06000C96A0190C907C90F0591032149020091CE
:10C07000052002950494039369460007FEF7DEF855
:10C08000002201211B20FEF779FD1B20FEF76AFD2F
:10C0900007B0F0BD164EB742FAD18E6B01277F0470
:10C0A0003E438E63CE6A1643CE62C96A0190C907C9
:10C0B000C90F05910C21009105200295049403936A
:10C0C00069460007FEF7BAF8002201211C20FEF79E
:10C0D00055FD1C20DAE70000004800400010024037
:10C0E000000400501C000240C82800200038014015
:10C0F0000044004030B5C36F202B27D100290BD05E
:10C10000002A09D0012483682403A34206D10369CD
:10C11000002B03D1CB0701D0012030BD0346603393
:10C120001C7D012C12D001241C7500230366084CD1
:10C130000368A34207D05C68240204D51C6801256B
:10C14000AD062C431C6002F075FE30BD022030BDF0
:10C150000048004070B5224A0123224990421AD17A
:10C16000214A08461A30168E556B0478AC55148E49
:10C17000641C14868A792F2A06D142780D2A03D1AD
:10C1800002780A2A00D18B7001784170154901228A
:10C190001A31134810E0154A904210D1144C088B04
:10C1A0000A782254401C08830D2A01D00A2A00D1A3
:10C1B0004B7001220B490D48FFF79CFF70BD0D4AE3
:10C1C0009042FBD10879282804D20B4BCA781A5424
:10C1D000401C087103490122C91C0648ECE7000015
:10C1E0003C27002000000020FC0E002044280020F6
:10C1F00068240020C027002094250020FFB50446B5
:10C20000806F83B017460D4620285ED1002D0AD0DE
:10C21000002F08D0A168C001814207D12069002801
:10C2200004D1E80702D0012007B0F0BD20466030FD
:10C230000090007D012848D0009801210175002060
:10C24000802108512120A067FEF7CEF8264640360F
:10C250000190378277820120A1680003814202D1D8
:10C260002069002805D02F46002500990020087578
:10C2700011E00027F9E700228021204602F026FE87
:10C28000002815D1002F15D02168387888627F1CCE
:10C29000708A401E7082708A019B00280698009068
:10C2A000E9D100224021204602F010FE002808D0EB
:10C2B0000320B9E728882168C005C00D8862AD1C3D
:10C2C000E6E72020A0670020AEE70220ACE70000F0
:10C2D000F8B50446806F20284AD100290BD0002AE7
:10C2E00009D00123A0681B03984206D120690028C9
:10C2F00003D1C80701D00120F8BD25466035287D4F
:10C30000012835D00120287520464030E1640282A2
:10C3100042820026274680373E602120A067E06EDB
:10C3200000281AD01349C162E16E13480863E16E18
:10C3300012484863E06E134686632068E16C28303B
:10C3400084466246E06EFDF7F3FD002805D010201C
:10C3500038602E752020A067CDE721684020086254
:10C360002E75206881688022114381600020F8BD0D
:10C370000220F8BDB9EA0008E9EA00086DEA000801
:10C38000704770477CB506461A484168C94309079B
:10C39000FBD4194C606B6515284360630021174876
:10C3A000FDF7BEFA164800901648019069461348FA
:10C3B000FDF70CFBA0140190694600960F48FDF7AD
:10C3C00005FB0E48FDF7A2FC0021C9430B48FDF711
:10C3D0003DFC0A48FDF744FB084980B20A689368AF
:10C3E000022633439360096803220A60616BA94304
:10C3F00061637CBD00700040001002408426002074
:10C40000FFFF07000110000038B50B231B07C518FC
:10C41000114B0FD01C152D1B18D02D1B19D0A54268
:10C42000DD6A05D108242543DD62DB6A234007E08D
:10C430008024F8E7DC6A01252C43DC62DB6A2B40B0
:10C44000009311601146FDF7F9FE38BDDD6A022444
:10C45000E9E7DD6A0424E6E70010024070B51749F9
:10C4600004464A6A08698018000EE0714A6A086941
:10C470008018000CA071088A8A8C8018000A6071EC
:10C48000087C8A8C801820714869000EE070486929
:10C49000000CA070888A000A6070087D2070052555
:10C4A000625D07A1084803F0B1F80749084614384F
:10C4B000FBF7E6FC6D1C082DF2DB70BD4000F81F99
:10C4C00025303278000000000C26002070B50546AB
:10C4D0000C4600222048FFF735F9002229461E4865
:10C4E0006668FFF70DF9002221461B48FFF72AF97D
:10C4F0006068B042F1D1E878184A01465043C01C48
:10C500008308880726D0164968783D22064650439E
:10C5100002463C3A7000801EC1408807D10F89183E
:10C52000800F4910081AC018A978401E08180D4934
:10C530003C2248436178E123514322781B015A434E
:10C540008918A27810180818074A61688002511AE1
:10C55000401870BD0549D7E710290020B505000037
:10C56000A0AA990080510100FF030000505544002B
:10C570000320704701480068704700005C290020D4
:10C5800000B587B0694605A8FFF7A0FF0249096812
:10C5900007B0401A00BD00005C29002000B587B03C
:10C5A000694605A8FFF792FF07B000BD10B5084C1B
:10C5B000207800280AD100F04BF8FF21013105480E
:10C5C000FFF742F800F096F80120207010BD00003F
:10C5D000320700201029002010B50C4C0021042047
:10C5E00000F036FB21688868C0040ED5C868C00515
:10C5F0000BD5C86880221040FF388238C8600449D3
:10C60000900248612046FEF7EBFF10BD1029002084
:10C610000004014070B50446FFF7B2FF211A0B4D2C
:10C620000220285EC01C814201D9002100E00121C6
:10C63000042000F00DFB00F0F7FA012802D10220DF
:10C64000285E241A204600F061F870BD32070020F1
:10C6500030B52549254891B0002412C01F21016042
:10C66000846004612249446141600838FFF798F80A
:10C670006846C470012545708570057000226946C2
:10C680001A48FFF7E1F90B940C940F9400220BA9C0
:10C6900016480E94FFF73AFA1448FEF783FF282154
:10C6A00001A8FBF7E2FB6846047144710321817124
:10C6B0000294049405940694079408A808940571BC
:10C6C00028020A90012201A90848FFF7F5F8052180
:10C6D0006846817168020A90012201A90348FFF7A8
:10C6E000EBF811B030BD00000028004010290020F8
:10C6F000FF03000010B5044C2046211D1830FFF741
:10C70000E5FE206010BD00005C290020F0B587B078
:10C71000044614223F4901A8FBF78EFB3D485038E0
:10C72000406E009000F07EF83B4802993B4A401A68
:10C73000A105890D081887B2A10A6846807853427E
:10C7400002E08918401C80B29942FAD26A461579F3
:10C75000E122120102E0891A6D1CADB29142FAD2B7
:10C760006A46547902E0641CA4B23C393C29FAD2EE
:10C77000927951188EB20121890203E07A1A761C4F
:10C7800097B2B6B28F42F9D203E03C3E641CB6B217
:10C79000A4B23C2EF9D203E03C3C6D1CA4B2ADB275
:10C7A0003C2CF9D203E0183D401CADB280B2182DEC
:10C7B000F9D26946C978890769464A7827D0184965
:10C7C000491E515C814202D2FBF792F80846124999
:10C7D000CA1B10492C394A60052252068A618E70A4
:10C7E0004C700A460D70203210706846C079C870CF
:10C7F0000020C861FF2248610132C8604A620861B6
:10C80000024608462438FFF757F807B0F0BD044940
:10C810000C31D5E760290020FF03000080AEFEFF49
:10C82000B86A010810B506480168C868802210403F
:10C83000FF388238C86051000148FEF705FF10BD7F
:10C840001029002010B57D2102F00BFF4906C00918
:10C85000084310BD10B5410EC0017D220023FBF737
:10C8600071F810BDF8B51F4E002240213046FDF78B
:10C87000B4FD002401F064FF7D2705463F0104E07C
:10C88000284601F063FFB84205D280213046FDF70B
:10C8900097FD0028F4D10025012240213046FDF704
:10C8A0009CFD6400002240213046FDF796FD80216A
:10C8B0003046FDF785FD012800D1641C6D1CEDB2EA
:10C8C000182DE9D3012240213046FDF786FD0120D5
:10C8D000C0054440002240213046FDF77EFD204641
:10C8E000F8BD000000040050FEE701688A69D243E9
:10C8F000920701D400228A6200688169C943C9078E
:10C9000003D081690122114381617047F7B5044664
:10C9100000680E468069C043C0062BD420272546F8
:10C92000403520688069C043800612D5701CF8D05D
:10C93000FDF75AFD0299401AB04201D8002EF0D1FD
:10C94000606C384360646F700020A870287001200C
:10C95000FEBD21681020C8612068C7612046FFF72E
:10C96000C4FF20684168044A11404160606C0421A2
:10C970000843E7E70020FEBD00E800FEF8B50446E6
:10C98000164615481D46DAB20090079F0023204640
:10C9900000F054F83A462046069900F0F1F80028D5
:10C9A00018D12846F5B2012809D02168300A8862DA
:10C9B0003A462046069900F0E3F800280AD120689C
:10C9C00085620097002240212046069B00F04AF82D
:10C9D000002800D00120F8BD00200080F8B50446F2
:10C9E000164615481D46DAB2C3020090079F20463E
:10C9F00000F024F83A462046069900F0C1F80028D5
:10CA000018D12846F5B2012809D02168300A886279
:10CA10003A462046069900F0B3F800280AD120686B
:10CA200085620097002280212046069B00F01AF8BC
:10CA3000002800D00120F8BD00200080F0B5066875
:10CA4000059C7568064F600D384385438805800D49
:10CA5000110408431843204305437560F0BD0000EE
:10CA6000FF63FF03F8B51D4617460E46044609E06E
:10CA7000681C07D0FDF7B8FC0699401AA8420BD8ED
:10CA8000002D09D020688169304688430FD00020EE
:10CA9000B842EDD00020F8BD616C202001436164F4
:10CAA000403460700020A07020700120F8BD01208B
:10CAB000EEE70000F7B5002720260546044640357E
:10CAC00028E02046029A0199FFF720FF002801D0B4
:10CAD0000120FEBD20688069C043800611D4206813
:10CAE0008169C943490702D4218D002917D1C66144
:10CAF000206841680E4A1140416067646E70AF70F3
:10CB000013E0FDF771FC0299411A0198814208D89F
:10CB1000002806D020688069C0434007D1D4002097
:10CB2000FEBD606C304360646E702F70D0E7000013
:10CB300000E800FE70B516460D4604460FE032468A
:10CB400029462046FFF7E2FE002801D0012070BDF3
:10CB5000FDF74AFC801BA84208D8002D06D02068AB
:10CB60008069C0438006EAD4002070BD616C20203B
:10CB700001436164403460700020A0702070E5E7DC
:10CB800070B516460D46044611E032462946204649
:10CB9000FFF7BCFE002801D0012070BD681C06D044
:10CBA000FDF722FC801BA84208D8002D06D0206883
:10CBB0008069C0438007E8D4002070BD616C2020EC
:10CBC00001436164403460700020A0702070E3E78E
:10CBD0000248016804221143016070470070004060
:10CBE00070B50546FFF740F80D4CA06B21040843D3
:10CBF000A063FDF7CFFFFDF7C5FFE0680121C90382
:10CC00000843E060074801680422114301600121E4
:10CC10000846FDF7CFFFA847FFF706F870BD0000F4
:10CC20000010024000700040EFF3108172B6074818
:10CC30000268002A01D0002005E04068002801D0E9
:10CC4000012000E0022081F310887047380700209F
:10CC500010B5EFF3108272B6064B00291C6803D0A2
:10CC6000012903D1044300E084431C6082F310884F
:10CC700010BD00003807002030B587B000F092F9F1
:10CC80006420FDF789F92AA0006805900020039030
:10CC90000490012009F0CEFE7D24012505A8E400C2
:10CCA00000902B460022C421019502942148FDF7F3
:10CCB000FFFD022009F0BEFE611E884230D203A8AB
:10CCC000009001230F22C521019502941948FDF718
:10CCD00045FD04A8009001231022C521019502946E
:10CCE0001448FDF73BFD6846007B01026846007C66
:10CCF000081884B27D204001844208D9FDF774FBF6
:10CD000001460DA002F072FC134807B030BDFDF7DC
:10CD10006BFB0146224611A002F068FC2046F4E7B6
:10CD2000FDF762FB014613A002F060FC1948ECE736
:10CD300004000000E02600205B25645D44697374F4
:10CD4000616E6365206973206F7574206F66207251
:10CD5000616E67650D0A0000FFFF00005B25645DE2
:10CD600044697374616E6365203D2564636D0D0ACB
:10CD7000000000005B25645D6C696461725F6C6932
:10CD80007465206973206E6F7420636F6E6E6563C7
:10CD9000740D0A00FF0F000010B50649064801F0A7
:10CDA000E1FC0649044801F045FD034801F054FD4B
:10CDB00010BD0000D5E400083426002060EA000021
:10CDC0001CB5002118480091164A01910260C16308
:10CDD0005205816042608163012202610246C160A6
:10CDE00020321170FF235170C2334362816211738C
:10CDF00001638161042241634261C161FCF734FE39
:10CE0000002801D0FCF784FB0848009001200003B3
:10CE1000019069460448FCF7D9FD002801D0FCF7D1
:10CE200077FB1CBD00240140842600200000024442
:10CE300008B50848016B012211430163006B1040E3
:10CE40000022009011460A20FDF798FE0A20FDF707
:10CE500089FE08BD00100240F0B587B01421684675
:10CE6000FBF703F84848C26A04210A43C262C26A57
:10CE70000A400592C16A80252943C162C16A2940DE
:10CE80000591C16A01263143C162C16A31400591F1
:10CE9000C26A02210A43C262C06A32460840059053
:10CEA00020213A48FDF799FA0327002400976946A4
:10CEB000374801970294FDF7C1F9A801009069462F
:10CEC000019702943348FDF7B9F9334800900520E3
:10CED0006946019702940007FDF7B0F960200090C1
:10CEE00005200194694602940007FDF7A7F9009513
:10CEF0002A4D05206946000701950294FDF79EF929
:10CF0000274800906946019702942048FDF796F95A
:10CF1000F00300906946019502941C48FDF78EF9D4
:10CF2000300200906946019702941848FDF786F98F
:10CF30000720000300906946039701960294134866
:10CF4000FDF77CF9002231031048FDF746FA002274
:10CF500071030E48FDF741FA0022B1030B48FDF7BB
:10CF60003CFA2020009069460397019602940748F6
:10CF7000FDF764F9002202210720FDF7FFFD0720DD
:10CF8000FDF7F0FD07B0F0BD0010024000040050B6
:10CF9000001C00500008005013DE000000002110AB
:10CFA0001F06000010B51348114901601249416085
:10CFB000002181600161416181610122C161C26022
:10CFC0000162FDF761FA002801D0FCF7A1FA002107
:10CFD0000848FDF70FFA002801D0FCF799FA002164
:10CFE0000448FDF72CFA002801D0FCF791FA10BD97
:10CFF00000540040E02600205B3D300010B508489A
:10D0000006490160062141600649C1608160FDF763
:10D0100025FD002801D0FCF77BFA10BD0030004050
:10D020002C270020FF0F000010B50F480D490160AC
:10D03000E1214902416000218160C16001610C224F
:10D0400081614261016230214162012109038163F2
:10D050004900C163FEF780FF002801D0FCF758FAB1
:10D0600010BD0000004800403C27002010B50C48CF
:10D070000A4901604B21C901416000218160C16002
:10D0800001618161C1610C22016242614162FEF76E
:10D0900063FF002801D0FCF73BFA10BD00380140C7
:10D0A000C027002010B50C480A4901604B21C90176
:10D0B000416000218160C16001618161C1610C2218
:10D0C000016242614162FEF747FF002801D0FCF790
:10D0D0001FFA10BD0044004044280020F0B501258F
:10D0E0006D0293B00C460646012902D0002C02D0F6
:10D0F00006E0294601E0FF2101313548FEF7A4FA98
:10D10000282105A8FAF7B1FE002269463048FEF74B
:10D1100019FB002211A92E48FEF7F2FAE1210901BC
:10D120003046FAF7E5FBC6B208463C21FAF7E0FBC9
:10D13000C7B26846807840180A21FAF7D9FB000187
:10D140000818C0B25928694604D9603888754878EB
:10D150007F1C01E0887548780A21C019FAF7C8FBDE
:10D1600000010818C0B25928694604D960384875CA
:10D170000878761C01E0487508780A218019FAF7CA
:10D18000B7FB00010818C0B22328694600D924382B
:10D190000875002001210690C907089009900B909E
:10D1A0000C900A91012008A90875002C0BD00E954F
:10D1B000012205A90648FEF77FFB002801D0FCF7F5
:10D1C000A7F913B0F0BDFF2001300E90F0E700008A
:10D1D0001029002010B5012104464905FEF75EFD27
:10D1E0002046FEF749FD10BDF0B5FA4B0446027823
:10D1F0000D20C0018FB0181804901846FF30813000
:10D200000390184680300A900520C0011818099034
:10D210000720C00118180890EF48029001208002F2
:10D22000181801900920C001181807900520000265
:10D23000181806900B20C00118180D90032000024A
:10D2400018180C90032040021818E4490B90084667
:10D25000DF1D2030F9370590FB1D2F25087DF933A0
:10D26000C98A2E460093352A79D253007B449B8885
:10D270005B009F443400550068008F00BA00D10065
:10D28000160109013801E4007C00E4039401EE007A
:10D2900081014A01A301C203FA040505AD06B506E2
:10D2A000D1069503AE03170440044E045C047A04CF
:10D2B0006A046D04700473048A0493049E04B50424
:10D2C000F5061A0732073C075207CA074700EF075F
:10D2D0007400B900FD07F303BB07C2076A07BD4826
